:020000040000FA
:10C000003DB8F3960000000000020000FCFB0000B9
:10C010000000000000000000000000000000000020
:10C020000000000000000000000000000000000010
:10C030000000000000000000000000000000000000
:10C0400000000000000000000000000000000000F0
:10C0500000000000000000000000000000000000E0
:10C0600000000000000000000000000000000000D0
:10C0700000000000000000000000000000000000C0
:10C0800000000000000000000000000000000000B0
:10C0900000000000000000000000000000000000A0
:10C0A0000000000000000000000000000000000090
:10C0B0000000000000000000000000000000000080
:10C0C0000000000000000000000000000000000070
:10C0D0000000000000000000000000000000000060
:10C0E0000000000000000000000000000000000050
:10C0F0000000000000000000000000000000000040
:10C10000000000000000000000000000000000002F
:10C11000000000000000000000000000000000001F
:10C12000000000000000000000000000000000000F
:10C1300000000000000000000000000000000000FF
:10C1400000000000000000000000000000000000EF
:10C1500000000000000000000000000000000000DF
:10C1600000000000000000000000000000000000CF
:10C1700000000000000000000000000000000000BF
:10C1800000000000000000000000000000000000AF
:10C19000000000000000000000000000000000009F
:10C1A000000000000000000000000000000000008F
:10C1B000000000000000000000000000000000007F
:10C1C000000000000000000000000000000000006F
:10C1D000000000000000000000000000000000005F
:10C1E000000000000000000000000000000000004F
:10C1F000000000000000000000000000000000003F
:10C20000403900203DE50000C98A010029E5000011
:10C2100029E5000029E5000029E5000000000000F4
:10C2200000000000000000000000000019E600000F
:10C2300029E500000000000009E8000029E50000F1
:10C2400081E80000FD34010081E8000081E8000081
:10C2500081E8000081E8000081E8000081E800003A
:10C2600081E8000081E8000081E8000081E800002A
:10C2700081E8000081E8000081E8000081E800001A
:10C2800081E8000081E8000081E8000081E800000A
:10C2900081E8000081E8000081E8000081E80000FA
:10C2A00081E8000081E8000081E8000081E80000EA
:10C2B00081E8000081E8000081E8000081E80000DA
:10C2C00081E8000081E8000081E8000081E80000CA
:10C2D00081E8000081E8000081E8000081E80000BA
:10C2E00081E8000081E8000081E8000081E80000AA
:10C2F00081E8000081E8000081E8000081E800009A
:10C3000053B94AB9002908BF00281CBF4FF0FF31BC
:10C310004FF0FF3000F00CB8ADF1080C6DE904CE21
:10C3200000F018F8DDF804E0DDE9022304B07047FE
:10C33000704700BF034611F8012B03F8012B002AB8
:10C34000F9D17047034613F8012B002AFBD1181AC4
:10C35000013870472DE9F0478C468E46089E1546F9
:10C3600004461946002B40F0D080724547D9B2FAF6
:10C3700082F74FB1C7F120030EFA07FC20FA03F34E
:10C38000BD4043EA0C0CBC404FEA154EA8B2BCFBC2
:10C39000FEF8230C0EFB18CC08FB00F943EA0C4313
:10C3A000994528D9EB1808F1FF3204D2994502D9F2
:10C3B000A8F102022B44A3EB0903A4B2B3FBFEFCD9
:10C3C0000EFB1C330CFB00F044EA0344A04214D9DA
:10C3D0002C190CF1FF3304D2A04202D9ACF10203B4
:10C3E0002C44241A43EA02401EB1FC40002334606E
:10C3F0007360BDE8F0874246DDE76346F1E7002A57
:10C4000079D0B2FA82F3002B3FD01946C1F1200354
:10C4100002FA01F52EFA03F20EFA01FE20FA03F3F6
:10C4200043EA0E034FEA154E00FA01F4B2FBFEFC9C
:10C43000AFB20EFB1C201A0C0CFB07F842EA0042BC
:10C4400090455AD9AA180CF1FF3004D2904502D970
:10C45000ACF102002A44A2EB08029BB2B2FBFEFC44
:10C460000EFB1C220CFB07F743EA02439F4246D90E
:10C47000EB180CF1FF3204D29F4202D9ACF1020258
:10C480002B44DB1B42EA004202E0AEEB0203012236
:10C490004FEA154EAFB2B3FBFEFC200C0EFB1C3373
:10C4A0000CFB07F840EA034398452AD9EB180CF136
:10C4B000FF3004D2984502D9ACF102002B44A3EB23
:10C4C0000803A4B2B3FBFEFC0EFB1C330CFB07F706
:10C4D00044EA0344A74216D92C190CF1FF3304D2C5
:10C4E000A74202D9ACF102032C44E41B43EA00400A
:10C4F0000F46114678E71F2188E76046ABE76246A2
:10C50000BFE76046DBE76346EFE7734506D916B938
:10C51000002108466DE7C6E9000EF9E7B3FA83F794
:10C5200087B9734501D3824207D8841A6EEB03039F
:10C5300001209C461EB900215BE73846FAE7C6E9B0
:10C54000004CF8E7C7F1200CBB4022FA0CF51D4364
:10C5500020FA0CF12EFA0CF30EFA07FE41EA0E0156
:10C560004FEA154900FA07F4B3FBF9F81FFA85FE04
:10C5700009FB18300B0C08FB0EFA43EA00439A45FE
:10C5800002FA07F240D9EB1808F1FF3004D29A45BD
:10C5900002D9A8F102002B44A3EB0A0389B2B3FB32
:10C5A000F9F809FB183308FB0EFE41EA03418E45FA
:10C5B0002CD9691808F1FF3304D28E4502D9A8F1AD
:10C5C0000203294443EA0040A0FB0298A1EB0E01BC
:10C5D0004145CE46434602D306D14C4504D2B9EB81
:10C5E000020E68EB05030138002EA4D0B4EB0E0256
:10C5F00061EB030101FA0CFC22FA07F34CEA030396
:10C60000F940C6E9003196E74046C5E74346D9E719
:10C610002DE9F041684C94F832308CB003F00103FE
:10C62000002800F09580002B40F08480627E94F812
:10C63000253004EB820204EB8303D5699E6A0DB3B7
:10C640002F4617F8020BC0F3801005F09DFC03681D
:10C65000C5F802308388BB802B785B0606D506219F
:10C66000384604F0A5F9002800F09780374617F8FF
:10C67000020BC0F3801005F087FC0368C6F8023097
:10C680008388BB80237D0121C3F302030BA88DF8AF
:10C690002C3004F0FDFA0246002855D031462846D9
:10C6A00006F0B2FC454A464B278E07210025E0FBE9
:10C6B00002311846C4E902553DA3D3E90023257091
:10C6C000FFF71EFE606005F035FC06940295626877
:10C6D0003C4B049200F109063B4802F247121A60F3
:10C6E00091210993A7FB000301FB0731374B079307
:10C6F000374B05934FF6FF734FF002080AAF0393D1
:10C700002BA3D3E90023CDF828800897FFF7F8FD85
:10C710000321CDE9005033464246284605F066FB2A
:10C72000394605F067FE78B994F8323043F00103DA
:10C7300084F8323000200CB0BDE8F0811E4805F0CE
:10C7400077FE844200D000DE0C200CB0BDE8F08102
:10C75000002BEFD0204605F05FFE84421FD10BADC9
:10C7600002220321194B009500200B9205F0ACFB2F
:10C77000294605F03FFE0028E0D1164805F06AFE84
:10C7800088B90D4805F054FE84420AD194F832303D
:10C7900023F0010384F83230CCE71220CBE700DE2F
:10C7A000DDE700DEF2E77830EBD000DEE9E700BF3E
:10C7B0008D49FD1A070000000016002000CA9A3BB0
:10C7C0008C49FD1AF4150020002AE784FD1F0100A2
:10C7D000813001001016002070B5037D8AB0C3F3CC
:10C7E00002030D46044601210DF1230016468DF883
:10C7F000233004F04DFA31460246284606F004FC88
:10C800001D4A1E4B0721E0FB0231184618A3D3E94D
:10C810000023FFF775FD63689842054621D21B1A75
:10C8200000220192164A0293164BA21AA3FB02326F
:10C830000221120900230A4409AE09911249059107
:10C84000CDE9033303210696D2B20093184605F0D2
:10C8500023FB314605F0CEFD38B9656000200AB0F3
:10C8600070BDFBD9C21A0023DBE70C200AB070BDF3
:10C870008D49FD1A0700000000CA9A3B8C49FD1A39
:10C88000001600204FECC44EFD1F01000000000008
:10C89000F0B583B0C468054607F0D4FD002007F06A
:10C8A000F5FD0021084607F0E3FD002225210820C0
:10C8B00007F04AFE304B019301A807F031FE2F49E3
:10C8C00040F25B6007F0DAFE2279134662F3C5039B
:10C8D0002371204607F018FC27682E68384607F0B9
:10C8E000DDF806446A6806F10901012007F0E6FF59
:10C8F00008F074F8204606F019FD811C3246C9B2D2
:10C90000384607F0CDF840B9204607F0A3F810B933
:10C91000002003B0F0BD00DEFAE70546184A1949C9
:10C92000194840F211430BF0B3FB184B0721A5FB4C
:10C93000030301FB05310EA3D3E90023FFF7E0FC5D
:10C940001349024613480BF0A3FB002585F3118819
:10C95000BFF36F8F0323184602DF0F48214607F00D
:10C9600045FD07F035FE6FF08B00D2E7AFF3008096
:10C9700000CA9A3B00000000D6BE898E555555006E
:10C9800010A701005CA7010060A701008D49FD1AF6
:10C99000ACA7010080A70100BD3D010070B59AB0B1
:10C9A0000023012608930796CDF82330014620B1D5
:10C9B00027480BF060FB1AB070BD264D26480BF0DF
:10C9C0005AFB0FCD0DAC0FC42B6823602349244BB9
:10C9D000009603220DA803F0D9FD014608B12148B5
:10C9E000E7E707A908A803F083FB9DF820300AAC0D
:10C9F000032B27D8DFE803F0022022241A4920461F
:10CA0000FFF798FC9DF8213004939DF822300393A2
:10CA10009DF8233002939DF8243001939DF8253032
:10CA200000931E219DF82630104A059412A80AF0A2
:10CA30002FFF0F4812A9BCE70E49E0E70E49DEE7D9
:10CA40000E49DCE70E4A0A2120460AF021FFD9E709
:10CA50008CA8010020A40100ACA8010090A4010052
:10CA600088A40100C3A80100E9A801000BA90100E6
:10CA70002EA90100F0A80100F7A8010001A90100FA
:10CA8000B2B0010008B506480BF0F5FA054803F00E
:10CA900033F9014610B104480BF0EDFA002008BD4F
:10CAA00051A901009DC900008CA801002DE9F84F93
:10CAB0008A4600AF002974D004680E1F361BF508A3
:10CAC00026F0070604EB0608B8F802B01BF0010BCD
:10CAD00016D1E94688B06A46334BCDE905310323C8
:10CAE00042F8103F31485B464FF4C25100F0AEFFB0
:10CAF000CD468BF31188BFF36F8F0423184602DFF6
:10CB0000294620460BF033F9284434F83030C01A57
:10CB1000854217D0E94688B06A46254BCDE9053AEB
:10CB2000032342F8103F214800234FF4C25100F084
:10CB30008DFF0023CD4683F31188BFF36F8F04234D
:10CB4000184602DFB8F8023023F00103A8F80230DB
:10CB5000294620460BF00BF905EB000804EBC8034F
:10CB60005B88DA0708D4414620460BF049F9424673
:10CB7000294620460BF089F9A65BAE1B04EBC603E1
:10CB80005B88DB0709D4314620460BF039F92A4689
:10CB9000314620460BF079F93546294620460BF000
:10CBA000EBF8BD46BDE8F88FC0A90100E4A3010081
:10CBB00097A901002DE9F04F91B08407009302F08E
:10CBC00004030293C2F3C20303F10103DDF868A07A
:10CBD000039205460E46059340F09D81041D0028F2
:10CBE0004AD101F00706341DC6F10806009B002754
:10CBF0005A1E4FF004084FF0FF3301930497B946D3
:10CC0000BB4643460DB1009921600598002800F30A
:10CC1000D78090480099814203D38F488142C0F069
:10CC2000CF80039911F0020CA4EB050040F0D680F0
:10CC3000B9F10F0F00F2CF80002D00F0D68009F17E
:10CC400040010DEB010EC0F3870001990EF8200C96
:10CC50000EF8101CBCF1000F00F0C38060F07F00E4
:10CC60000EF8200C013709F10109C5F1080104345F
:10CC700006914FF6DA7E8CE00729B7D86FF01B00DB
:10CC800011B0BDE8F08F7A285BD84B280FD8472821
:10CC900057D829282ED8252850D052D8202818BF58
:10CCA00023280CBF4FF0010B4FF0000B71E04C3804
:10CCB0002E2846D8DFE800F06D45454545454545F9
:10CCC00045454545484545454545454545564548FD
:10CCD000485656566D486A456D4518481845457F73
:10CCE0007C48454548457C0000204FF0000B4FF044
:10CCF000040835E02A38C0B2012101FA00F010EA38
:10CD00000E0F46D110F0625C2CD110EA010B40D01E
:10CD10006046013C4444B4FBF8F408FB04F425B13C
:10CD2000A3EB050CA444B445A8D8002870D00599FD
:10CD3000013905915AF8041B009163E70199013903
:10CD400001914FF0000B24E012F8010C6C2834D153
:10CD500012F8023C00206C2B8346C8D14FF0080823
:10CD60004346D6E70AF1070A2AF0070A0734FAE829
:10CD700002BC24F0070435B106982044B0423FF6C7
:10CD80007DAFC4E900BC08344FF0000B4FF0080839
:10CD9000434612F8010F002853D0BBF1000F7FF477
:10CDA00072AF2528F5D1019B013301934FF0010BA0
:10CDB0004FF00408ECE7584697E700208346A8E7C1
:10CDC000039988077FF551AF601B4FF0010CB0F558
:10CDD000007FFFF42DAF6FF0150051E74FF0000C0E
:10CDE000F5E70498013004903DE7BCF1000F01D055
:10CDF000013638E70298023600287FF434AF0098F5
:10CE0000CDE90632FFF79EFADDE9063206442AE74D
:10CE1000042B08D10AF1040015B1DAF800102160E2
:10CE200004348246B5E70AF1070323F0070303F150
:10CE3000080A1DB1D3E90001C4E900010834082340
:10CE4000A7E7631BB3F5806FC5D23DB9A6F108040F
:10CE5000E01815E75CA001002CBA0100029A2860D6
:10CE60009B082B709DF81030AAB1EB70AF702FB1FA
:10CE700008A80022C5F1010C91450ED1C5F10103AE
:10CE80000DF120084FF0000A01930DF1300BD14550
:10CE900012D1601BF4E66B70E8E710F8013B19064D
:10CEA00008D50CEB040EB64503F07F033FF6E6AE63
:10CEB00004F8013B0132DFE71FB198F90020002A96
:10CEC00017DB029BD3B11AF80B2004F8012B0022C8
:10CED000019B18191044B0423FF6D0AE98F80000FC
:10CEE00004F8010B0099039220460DF009F8039A0B
:10CEF00014440AF1010A08F10108C8E798F8002073
:10CF000055F822300093029B45F822300098FFF735
:10CF100019FA421CDCE76FF00D00B1E62DE9F04F85
:10CF200097B000AFC7E90A3205468A4649B9037887
:10CF30004678807800EB83002844564524D8A0EB3F
:10CF4000050AD7F8803095F80280D7F8804003F0C2
:10CF50000103FB61EB787B62B8F1000F0CBF00248A
:10CF600004F001041BB1D7F880309A0715D4A4B996
:10CF7000FB6A1BB1BA6A5146284698475646304666
:10CF80005C37BD46BDE8F08F441C2046FFF7DAF958
:10CF9000013020440AF1010ACFE7D7F88030C3F30B
:10CFA000C0033B622B78BB619B003B616B687B617C
:10CFB000BB6905EB830BFB6A002B77D15646D8443F
:10CFC000BCB11C461BF8013B55F82300FFF7BAF92A
:10CFD000D7F88430013043B1D7F88830A34282BFFC
:10CFE000D7F8843023F814000134C3450644E9D14E
:10CFF000D846D7F8803013F0050F0CBF4FF0020B66
:10D000004FF0010B4FF000097B6A9945B7D298F8B1
:10D01000013055F823A0AE4B9A4508F10208C0F044
:10D020004B81AC4B3A6A9A452CBF002301230AB3CB
:10D0300018F8021C7869FB620AF0FCFFFB6AC8B1B1
:10D04000EA468AB06A46A44B05937B69CDE906316E
:10D050004FF40073ADF82030A04B42F8103FA048C9
:10D0600000234FF4125100F0F1FC023ED54609F1C5
:10D070000109C9E723B1FB6933B9A6EB0B06F6E753
:10D08000D7F880309B07F2D55046FFF75BF9D7F809
:10D0900084304BB1D7F888309C423FBFD7F884200A
:10D0A000431C22F8143001340644E0E7002C69D117
:10D0B000B8F1000F6CD0D7F8803058076BD5C14657
:10D0C00007F14800424659460CF01AFF0BEB0803E3
:10D0D000FB6000220233796A8A425ED3D7F880204F
:10D0E00095F801B0F969920704EB0B03DBB254BF6A
:10D0F0004FEA59020022002940F0A680D7F880109C
:10D1000011F0040F14BF494600216B70A970EA703A
:10D110003969BA6AFB6A28469847061EFFF62FAFA0
:10D12000BB692B707B6AEB704946BA6AFB6A85F86B
:10D1300001B085F8028007F148009847B0F1000976
:10D14000C0F2B6803B697A6A786A03EB4201FB68F9
:10D15000BA6A414403EB4000AAEB0101FB6A98471D
:10D160000028C0F2A780B14409EB00064FF0000B85
:10D1700007F1380AA34569D30021BA6AFB6A084659
:10D180009847FCE6444607F138004FF0000999E75C
:10D190004446C1469AE7A14698E713F8016CDFF8C8
:10D1A00030C155F8260013F8021C6045C0F08A8093
:10D1B000DFF820C16045386A2CBF4FF0000B4FF0FC
:10D1C000010B38B17869C7E901320AF033FFD7E9BA
:10D1D0000132F0B9BBF1000F1ED0F96949B1611CF1
:10D1E00004F1280007F13004041904F8206CCCB2D3
:10D1F0000FE0D7F8801049070BD509F1280007F197
:10D20000300C09F1010100EB0C0909F8106C5FFA10
:10D2100081F9013202335EE7D7F880008007DED45F
:10D2200009F1280C07F1300EF44409F101000CF863
:10D23000101C07F1580151FA80F009F102095FFA58
:10D2400089F900F8106CE4E700215EE71BF80A306A
:10D2500087F8373055F82390D7F884302BB3D7F8B8
:10D2600088309B4521D2D7F8843033F81B80BA6AC6
:10D27000FB6A012107F13700984700281ADB0644B2
:10D28000B8F1000F06D14846FFF75CF800F101083D
:10D290001FFA88F8BA6AFB6A414648469847002850
:10D2A00008DB06440BF1010B64E74FF00008DEE7F2
:10D2B0004E4664E6064662E63B6A002B3FF4E0AE6B
:10D2C0000023B5E6386A0028A6D04FF0000B79E7B6
:10D2D0005CA001002CBA0100EDA9010004000001CE
:10D2E0009CA30100014B1860704700BF280100207B
:10D2F00080B505460E461746984609F02BFF0346B3
:10D3000001F0D0FADFF81890044649F800304246A0
:10D3100030463946A84754F8090001F05FFA00BFCB
:10D32000080000002DE9F047058B04462807174642
:10D330000CD501290CBF45F0100545F020052583CB
:10D3400087F31188BFF36F8FBDE8F087022905F0DE
:10D35000070540F0948020460BF02DF9052864D88D
:10D3600001A353F820F000BF41D300007FD4000098
:10D370002BD40000EDD3000007D4000019D4000026
:10D3800001F007035A1F012A1FD8002221F00701CC
:10D39000062BD4F8008089B2C4E9002209D14346A3
:10D3A00003E0628B013262831B68002BF9D141F0EC
:10D3B0000201218320460BF0FEF84FF000090028FF
:10D3C0006DD041F02001218369E0042B0AD121F0C6
:10D3D000070189B2218320460BF0EDF810B141F02E
:10D3E000200121834FF00008C14658E02369D3F89B
:10D3F0000090238B23F0070343F0060323834FF0B1
:10D40000000846464BE02369D3F80490238B23F0B1
:10D41000070343F00403F1E72369D3F80890238B53
:10D4200023F0070343F00503E8E74FF00008C14687
:10D43000E7E7012243F00803238387F31188BFF352
:10D440006F8F002A3BD1B8F1000F4AD1B9F1000F1C
:10D4500002D02D492046C847EFF31187202383F3DC
:10D460001288BFF36F8F238B23F008039BB22383B3
:10D47000D9063FD523F01002228303F00705666921
:10D48000218B002EBFF67CAF0023D4F8008021F062
:10D490000701C4E9003341F0010121839946238B40
:10D4A00003F0070AAA4502D0A268002AC1D1B8F148
:10D4B000000F02D1B9F1000FDAD00022BAE7A1685B
:10D4C0000029C0D00D680029BDD04F6833465246B0
:10D4D0002046B8471DB12B6829461D46F3E72B4669
:10D4E000FAE74146334652462046D8F800800BF012
:10D4F0008EF8A8E79A067FF523AF23F02002228357
:10D5000003F0070527E700BF3B8601002DE9F04740
:10D51000DFF85480044607464FF0010994FAA4F559
:10D52000B5FA85F509FA05F32E0108EB05156FEA42
:10D53000030A24EA03042B7B63B158F806301B6905
:10D540006BB94644042273682846196807EA0A073B
:10D550000BF070F9002CE1D13846BDE8F087284681
:10D5600098470028F6D1ECE704A4010010B50F4954
:10D570000F4888B000220CF0B0FC00220023CDE957
:10D58000062300240E23CDE90334CDE90144094BE1
:10D59000094900944FF44072084809F0CFFB08494C
:10D5A00006480CF0E6FA204608B010BDC5D50000CC
:10D5B00058080020F5D8000040190020D0030020B2
:10D5C000ACAA0100014809F061B900BF2C0300209A
:10D5D0002DE9F047804621480F460BF00BF906462F
:10D5E000002833D000252846BDE8F087237B83B18F
:10D5F0002368DB680BB120469847636883F8069080
:10D6000023681B69D3B963680422196820460BF0AC
:10D6100011F9013610345445E8D3B8F1000FE2D0C7
:10D62000002DDFD02846FFF771FF0546002FF7D009
:10D6300000214FF4A4700CF05DFBF1E72046984701
:10D640000028E0D009FA06F31D43E2E7044CDFF8B6
:10D6500014A005464FF00109DDE700BF600D002072
:10D6600004A4010014A40100014B53F820007047EA
:10D67000BCA4010008B5034608462BB1044A136058
:10D6800000F044FC002008BD6FF01500FBE700BF70
:10D690002C01002010B5044C237813B9034809F07D
:10D6A000F5F80123237010BD7E1800202C03002004
:10D6B00010B504460B480BF09DF85CB1BFF35B8FCF
:10D6C000094B53E8001F013943E80012002AF8D142
:10D6D000BFF35B8F05480AF061F80548BDE81040CC
:10D6E00009F0D4B8580D00205C0D00205808002027
:10D6F0002C030020064BBFF35B8F002253E8000F82
:10D7000043E800210029F9D1BFF35B8F704700BFC8
:10D71000580D002070B5FFF7EDFF084C084E054688
:10D72000B44200D370BD63685B792BB123685B683A
:10D7300013B12946204698471034F1E704A40100AC
:10D7400014A4010010B5044C044920460AF0ADFDB4
:10D75000034B1C6010BD00BFF0020020A8A4010014
:10D76000500D00200D4A0E48002310B513700D4ACD
:10D7700013600D4A4FF400411360FFF77BFFFFF782
:10D78000E1FF0A4B0A4918468B4200D310BD1A1A12
:10D790005C681211013222711033F5E77F18002006
:10D7A000F1870100580D00205C0D002004A4010049
:10D7B00014A4010001460022014800230AF096BD8E
:10D7C000F002002001480AF02DBE00BFF002002048
:10D7D000024B014618680AF080BE00BF500D0020C1
:10D7E00001480AF0B5BE00BFF002002070B52A4B18
:10D7F0001B78002B4ED0FFF7E5FF0446002846D1EA
:10D80000264B274D1B68002B19DD0CF01EFB4FF437
:10D810007A76A0FB063206FB0121D5E90020DB0B5E
:10D8200043EA41439B1A4FEAD13140F2E93261EBBE
:10D830000001934271F1000101D3FFF76BFFD5E9BD
:10D84000003213F57A7342F10002C5E900320CB3DD
:10D85000BDE87040FFF7C4BF6B685B7923B12B68EC
:10D8600021461B68284698471035B542F4D3204618
:10D87000FFF7AEFFBFF35B8F0A4B53E8001F013980
:10D8800043E80012002AF8D1BFF35B8FB8E7064DDA
:10D89000064EEAE7002070BD7E180020580D0020DB
:10D8A000500800205C0D002004A4010014A4010015
:10D8B00070B50D4D297861B90120FFF789FE0B4C39
:10D8C0000B4EB44206D3FFF791FF0028FBD1012392
:10D8D0002B7070BD63685B791BB1236820469B6821
:10D8E00098471034EDE700BF7F18002004A4010022
:10D8F00014A4010000212DE9F8430846FFF768FE53
:10D90000044648B340F267684FF0000900F0CAFFD0
:10D910001A4B1B4A1B58136033B11A4B1B68092B57
:10D9200002DD194808F0B2FF184F002544B1204627
:10D93000FFF7ECFD044618B94FF0FF384FF0FF3900
:10D94000FFF754FF064628B9B5B90F4842464B4683
:10D9500008F0D0FF3546E9E74FF0FF384FF0FF39C8
:10D96000D4E72B689B691BB10022114628469847D3
:10D970001035BD42F5D3E8E7054DFAE70800000091
:10D98000540D00205C0D00202C03002014A4010085
:10D9900004A4010013B518480AF02CFF174B1B789C
:10D9A00073B1EFF31184202383F31288BFF36F8FD9
:10D9B000FFF71CFF84F31188BFF36F8F02B010BD17
:10D9C0000F4B1B68002BF9D050B900220023CDE982
:10D9D00000230C484FF40042002309F0A7FEEDE7B6
:10D9E0000928EBD1074809F0D9FE074802B0BDE885
:10D9F000104008F04BBF00BF5C0D00207F180020D6
:10DA0000540D0020580800202C03002010B5064BB0
:10DA10001B68044698472146A06004480AF0E3FCCE
:10DA2000BDE81040FFF7B6BF2C010020F002002037
:10DA3000044A054B9B1AB1EBD30F34BF52F83100A7
:10DA4000002070475CA3010004A401002DE9F04F01
:10DA50008FB004AFC1F34A26B8600D4690467B6094
:10DA60000C0D002E61D04FF000090A234FF0040B7B
:10DA700007F1140AFE60C7E90799C7F824900093DC
:10DA8000CDF808B0CDF804A007F11C03F9684A46A8
:10DA90004046FFF743FAB0F5006F03461CD36C46CF
:10DAA0008AB0D8F8041004AB2448C3E9050140F259
:10DAB000FF71D9611A464FF400711984204B42F866
:10DAC000103F20484B464FF41251FFF7BFFFA546C9
:10DAD0002C37BD46BDE8F08FC0F30A0604F11700ED
:10DAE000184420F0070080083B60FFF763FE66F3F0
:10DAF0005325044680B13B68134A00F11001C7E981
:10DB00000839F961CDE901AB0A230093F96807F1FF
:10DB10001C034046FFF702FA66F353257B68B96899
:10DB20002A4620460AF0A6FED2E704F1170020F0AC
:10DB300007008008FFF73EFE0446EDE7C1AA01009A
:10DB400004000001ACA30100478801002DE9F04F5B
:10DB500087B0DDE9127ADDE9106B05468846144688
:10DB60009946BFB11021CDF800A03B465A4600208F
:10DB7000CDF814A0FFF71EF8B0F5006F01460BD3E7
:10DB8000194A1A4840F2FF73022107B0BDE8F04F6E
:10DB90000AF0C9BE3946384604F0070305F0070409
:10DBA000E40044EA831444EA402444EA065406F1BB
:10DBB0001700084420F0070080080391FFF7FAFDE2
:10DBC000054640B13FB10399CDF800A03B465A4607
:10DBD0001030FEF7EFFF4B4622464146284607B07D
:10DBE000BDE8F04F0AF046BE00AB0100ACA3010057
:10DBF000406820B1034BC01A40F3CF0070474FF08C
:10DC0000FF3070475CA301000EB403B503AB0146BF
:10DC100053F8042B0448019300F0CAFF02B05DF8EA
:10DC200004EB03B0704700BF89890100CA0605D420
:10DC30008B064CBF02490349FFF7E6BF704700BFA0
:10DC400039AB010038AB01002DE9F04F89B098469F
:10DC5000159B0693DDE916A39DF85090189F059239
:10DC600004460D460493B9F1000F00F0B08007F4AC
:10DC7000807307930AF0DCFD07F0020B02460028D0
:10DC800074D078492046FFF7BFFF0646BBF1000F6E
:10DC900008D017F0440F6BD173492A462046FFF78E
:10DCA000B3FF064407F0010353B1704B704953F8BA
:10DCB0002920704B2046002A08BF1A46FFF7A4FF10
:10DCC00007F48073002B07F0080318BF4FF000081B
:10DCD000002B79D0684B694953F829202046FFF77B
:10DCE00093FF0546059B2BB165491A462046FFF771
:10DCF0008BFF0544B8F1000F05D06249424620462B
:10DD0000FFF782FF054460483544069B1BB15F491D
:10DD100022460AF05EF9049B002B00F08E80DDF8AD
:10DD200010803946B8F1100F204628BF4FF0100878
:10DD3000FFF77CFF0026B54250DC002633461AF878
:10DD4000032053492046FFF75FFF0136102E4BD0CA
:10DD5000710703D14F492046FFF756FF464533462A
:10DD6000EDD34D492046FFF74FFFEEE706468DE71E
:10DD70004A4B1868002894D0494B4FF47A7B1B68B3
:10DD8000B5FBF3F54FF46163B5FBF0F100FB115502
:10DD90000BFB05F54FF03C0CB1FBF3F203FB12114A
:10DDA000B5FBF0FEB1FBFCF300FB1E550CFB1311A1
:10DDB0000BFB05F50091B5FBF0F53A49CDE901E51E
:10DDC0002046FFF721FF6CE707F008058AE7B8F166
:10DDD000010F0CBF2C4834484D4696E72D4920468C
:10DDE000FFF712FF0136A6E7304920460026FFF76D
:10DDF0000BFF33461AF803202D49A2F120035F2BB5
:10DE000028BF2E222046FFF7FFFE0136102E0DD030
:10DE1000720703D11F492046FFF7F6FEB04533468F
:10DE2000E8D81C492046FFF7EFFEEEE7049BB3EB72
:10DE30000803C24404937FF472AFB9F1000F0AD013
:10DE4000FB0704D50B4A0A492046FFF7DDFE394699
:10DE50002046FFF7EBFE204609B0BDE8F04F0AF080
:10DE600086BD00BF40AB010044AB0100CCA4010063
:10DE700088B201003BAB0100E0A4010069AB0100E6
:10DE80006FAB010073AB010089890100B1EB0000A9
:10DE900078AB010080AB01007EAB0100680D002073
:10DEA000640D00204DAB0100BF89010082AB010071
:10DEB00084AB010073B542F20F738B4228BF0B464F
:10DEC00005680F4A04460521684609F0E1FC6368CD
:10DED0000C495B6806460B2228460AF03AFD636847
:10DEE0003246694628465B680AF033FD6368064996
:10DEF0005B681B2228460AF02CFD02B070BD00BFF3
:10DF000055B00100C0B90100A4B90100074A0021C1
:10DF10000123904206D8064A01B901231360054B3C
:10DF20001860704740085B000121F2E740420F0093
:10DF3000640D0020680D0020F8B5074F0D4604461B
:10DF40004618B44201D12846F8BD14F8011BBB683D
:10DF500001485B689847F4E744A10100014B036066
:10DF60000020704728A5010008B50348034A002196
:10DF7000121A0AF0A1FD08BDD003002030190020BC
:10DF80000748084A084908B5121A0AF097FD0748D9
:10DF9000074A0849BDE80840121A0AF08FBD00BFC1
:10DFA00000000020CC0300202CBA0100000000205B
:10DFB000000000202CBA01002DE9F047064600AF12
:10DFC0000C46002936D0E9468AB0D1E90012A36890
:10DFD0006D462148E8464FF0050ACDE90501CDE937
:10DFE000072348F810AF1D48424600234FF4215143
:10DFF000FFF72CFDCD46D4E903126369AD461848FE
:10E00000C5F810A0C5E90501C5E907231348002399
:10E0100042464FF42151FFF719FDCD46E369114AFD
:10E020000E4801210AF07FFCA3690F4A0B48012129
:10E030000AF079FC012E07D1EFF305830B4A07485C
:10E04000103B31460AF06FFC2146304608F048FA92
:10E05000BD46BDE8F08700BFC1AB0100DCA30100F5
:10E06000F0AB01001FAC01002EAC01005CAC010064
:10E0700030BFFFF7FDBF00BF2DE9F0410B4EDFF8C9
:10E08000308006EB0807CC1B05463246094920467E
:10E090000BF036FFA01942460021083C0BF057FF59
:10E0A0002C6707F10800BDE8F08100BF0000000008
:10E0B0000400000014A4010010B5204C20492148A0
:10E0C0000AF009FDA36A990136D51E481E490AF0D7
:10E0D00002FD1E20A36ADA0104D51A481B490AF082
:10E0E000FAFC1F20154CA36A1B0304D515481849D8
:10E0F0000AF0F1FC2120A36A590304D511481549FF
:10E100000AF0E9FC22200D4CA36A9A0304D50D48BD
:10E1100011490AF0E0FC2320A36ADB0304D5094877
:10E120000E490AF0D8FC2420044A936A6FEA03439C
:10E130006FEA1343936210BD1D20CBE700ED00E0B2
:10E140006FAC0100DCA3010087AC01009AAC0100B8
:10E15000B4AC0100D2AC0100F7AC010011AD01007C
:10E1600070B506460D46284C284929480AF0B3FCEC
:10E17000A36AD9043CD5264826490AF0ACFC1720EE
:10E18000A36A1A0504D5224823490AF0A4FC1820E2
:10E190001D4CA36A9B0512D51D4820490AF09BFC23
:10E1A000A36BA26A100409D51D4A194801210AF07F
:10E1B000BAFB1EB1A36A23F40043A3621920124CD8
:10E1C000A36A590504D5124816490AF084FC1A209E
:10E1D000A36ADA050ED50E4813490AF07CFC1B2011
:10E1E000094A936A43F47F43936200232B7070BD06
:10E1F0001620C5E7A36A9B04F2D505480B490AF02F
:10E200006AFC1C20ECE700BF00ED00E03CAD010023
:10E21000DCA3010052AD010063AD010076AD010049
:10E220008FAD0100A4AD0100BFAD0100D7AD01006D
:10E230002DE9F843804689461746354D354936481D
:10E240000AF049FCAB6ADE0627D5344932480AF0A9
:10E2500042FC1124AB6A1D0704D531492E480AF04F
:10E260003AFC12242A4DAB6A980718D52D492A4842
:10E270000AF031FC6E6BAB6A190646D52A4A26486D
:10E28000334601210AF04FFBB9F1000F03D0AB6A0E
:10E2900023F08003AB62132403E01024DAE76FF06D
:10E2A00015061B4DAB6ADA0704D520491A480AF057
:10E2B00012FC1424AB6A9B0604D51D4916480AF0CB
:10E2C0000AFC1524124B9A6AD50602D49A6A900762
:10E2D0000AD55B68190507D54146304600F034FA87
:10E2E00010B180F309880224094B9A6A920642BF52
:10E2F0005A6A22F400525A629A6A42F0FF029A6203
:10E3000000233B702046BDE8F8836FF01506C2E796
:10E3100000ED00E006AE0100DCA301001CAE010030
:10E3200063AD01004FAE010067AE01007DAE01009C
:10E33000D7AD01002DE9F041684B8AB0D3F80480D5
:10E3400000AF0446C8F30806002585F31188BFF323
:10E350006F8F02F07F43B3F17F4F07D102F00C03C0
:10E36000082B12D15E495F480AF0B5FB00252C4608
:10E370000023FB71F31E092B00F28F80DFE803F00E
:10E380000A8588818D8D8D8D8D8B10074CBF0C4635
:10E390000125EDE754495348504E0AF09CFB0023F9
:10E3A000FB71F36A9A0705D550494E480AF093FB72
:10E3B00000232DE0F36A002B01DA4D49F5E7F36AFB
:10E3C0005B00F5D54B4947480AF085FB7369A269A4
:10E3D00043F480737361BFF34F8FBFF36F8F32F8D5
:10E3E000023C726922F480727261BFF34F8FBFF3F7
:10E3F0006F8F03F47F42B2F55F4F2BD1DBB2022B5C
:10E4000028D123683C4A374801210AF08CFA236856
:10E41000FA79DAB907F1080604F1200C206861687E
:10E42000324603C2083464451646F7D17A6A002D95
:10E4300050D0C2F3080121B96FEA52226FEA42229A
:10E440007A6207F108011846FFF7B6FD2837BD4686
:10E45000BDE8F081214B9A6AD2B22AB1FA1D01219E
:10E460002046FFF7E5FE0EE09A6A12F47F4F04D0D3
:10E47000F91D0120FFF774FE05E09B6AB3F5803FAC
:10E4800096D3FFF719FE0346C2E7FA1D0021E7E71E
:10E49000F91D0020EEE7194987E7194A194B18F4CE
:10E4A000F87FE8468AB008BF13466A461649CDE9A8
:10E4B00005134FF40073ADF82030103E134B079650
:10E4C00042F8103F074800234FF41151FFF7BEFAFE
:10E4D000C5466DE76FF30802B2E700BF00ED00E04C
:10E4E000CAAE0100DCA30100F5AE01000CAF0100D3
:10E4F0002DAF01003BAF01005AAF010076AF010024
:10E500009CAE0100B1AE01009AAF01000400000111
:10E51000044B5A6942F010025A615A6922F008020B
:10E520005A61704700ED00E0EFF30880EFF30981D6
:10E5300001B57246FFF7FEFE01BD00BF002080F36B
:10E540001488BFF36F8F0F4880F3088807F00CFC26
:10E5500000200D490860BFF34F8F00F02BF82020FA
:10E5600080F3118809484FF40461401880F309884A
:10E57000EFF314800221084380F31488BFF36F8FF8
:10E5800000F0B2F84039002094ED00E0802B00202C
:10E590000749D1F890200023C2F30722184693427E
:10E5A00000DB7047C1F89830C1F8A0000133F6E7EE
:10E5B00000ED00E008B572B6002383F31388FFF77F
:10E5C000E7FF144B4FF0FF32C3F88020C3F88420DC
:10E5D000C3F88820C3F88C20C3F89020C3F8942097
:10E5E000C3F89820C3F89C20C3F88021C3F8842185
:10E5F000C3F88821C3F88C21C3F89021C3F8942173
:10E60000C3F89821C3F89C2162B6BFF34F8FBFF3C4
:10E610006F8F08BD00E100E01EF0040F0CBFEFF3A8
:10E620000880EFF30980816911F8021C0229FFD0EC
:10E6300001B572460AF044FA01BD00BF40B200289D
:10E6400007DB044A4109012300F01F00834042F820
:10E650002130704700E100E040B200280CDB4309A4
:10E66000064900F01F0020330122824041F8232098
:10E67000BFF34F8FBFF36F8F704700BF00E100E023
:10E68000054B420900F01F0053F82220012303FA32
:10E6900000F01040704700BF00E100E040B20028E9
:10E6A000A8BF00F1604001F10101B8BF064B4FEA7D
:10E6B0004111ACBF00F5614000F00F00C9B2B4BF1A
:10E6C000195480F80013704714ED00E0044B054A1C
:10E6D00023F07F039360BFF34F8FBFF36F8F7047BB
:10E6E00000C2000000ED00E008B5FFF7EFFF074AA9
:10E6F000D2F8883023F47003C2F88830FFF734FC76
:10E70000FFF73EFC00F0B0F808F010F800ED00E074
:10E7100042F8203C009B42F81C3C0A49019B42F80D
:10E72000183C029B42F8143C21F001014FF0807329
:10E7300042F8043C42F8081C0023203A0265436773
:10E74000704700BFF1D20000094A0346906870B1DB
:10E7500013F1160F006E05D0A0F14002934205D3CD
:10E76000834203D2814228BF0020704700207047B7
:10E770004818002008B515460B4A0C4B9060026FF4
:10E780001A600E4600F0A0F82C4686F30988002097
:10E79000034B98472046002100220023014C2047CC
:10E7A000ED8A0100F1D2000048180020900D0020F1
:10E7B000014B10221A61704700ED00E0054B5A69C9
:10E7C0009B689A421FBF044A536843F080535360CA
:10E7D000704700BF4818002000ED00E0084B9B6820
:10E7E00083420BD1EFF3058343B1064B5A6842F0E5
:10E7F00080525A605A6A22F400425A6208F0B0BC51
:10E800004818002000ED00E014498A684FF03000FD
:10E810001044EFF3098C80E8F01F202080F3128869
:10E82000BFF36F8F0E4F4FF000664A698A603E60FB
:10E83000106F0C4C2060506F0023536780F31188D9
:10E8400004B5104600F040F8BDE8044002F1300085
:10E8500090E8F01F8CF309887047000048180020EA
:10E8600004ED00E0900D0020044800232021C21890
:10E870000133302B82F80013F9D1704700E100E03A
:10E8800008B5EFF30583064A103B02EBC30152F8CB
:10E89000330049688847BDE80840FFF78FBF00BFD5
:10E8A0007CA101000148006870470000900D002025
:10E8B000024B034A0348012100F08AB800000420FB
:10E8C0000000002028A50100036E054A403B1360AC
:10E8D000044B4021C2E901131046012100F082B827
:10E8E000940D002000000B1508B503461048D0F821
:10E8F0009020C2F30722013A934207D90D480E4AED
:10E9000001210AF010F86FF0150008BDC0F898302A
:10E910000A6822F01F021A4342F01002C0F89C203D
:10E920008A6842F00102C0F8A0201846EDE700BF57
:10E9300000ED00E0C4A30100B1AF0100F0B50E4648
:10E9400085B01F4604460025B5420DDA606810B355
:10E9500097B1431E18420AD0104A11482B46012194
:10E9600009F0E1FF6FF01502104605B0F0BD1F2859
:10E97000F2D921680B42EFD1236801930AF0D9F84C
:10E98000A36801A90343D0B20393FFF7ADFF10F1D1
:10E99000160FE7D0421C01350C34D5E7D7AF010084
:10E9A000C4A30100044B0522C3F89420BFF34F8F8A
:10E9B000BFF36F8F704700BF00ED00E0BFF35F8FC4
:10E9C000024B0022C3F89420704700BF00ED00E026
:10E9D00010B5034C01232278FFF7B0FF207010BD63
:10E9E0008118002008B50B4A00231278FFF7A6FF14
:10E9F00010F1160F07D0084A0021D2F89030C3F367
:10EA00000723984200DB08BDC2F89800C2F8A010A6
:10EA10000130F2E78118002000ED00E02DE9F0431D
:10EA20005D485E49D0F890300C68C3F307239C42E0
:10EA300085B000F2AE80FFF7C1FF49680022944222
:10EA400001F10C011AD1564F564D3C706846FFF744
:10EA500085FA554C554E81464FF00008C14520D1EE
:10EA60003B784D490020D1F89020C2F30722934211
:10EA7000C0F28980FFF796FF002050E0C0F8982090
:10EA800051F80C3C23F01F03134343F01003C0F86C
:10EA90009C3051F8043C43F00103C0F8A03001322F
:10EAA000CDE7009800EB08114FEA081CCB68234023
:10EAB000B3F5000F49D00BD8B3F5001F32D0B3F532
:10EAC000800F37D0B3F5801F14D008F10108C5E7D7
:10EAD000B3F1007F42D0B3F1805F48D0B3F1807FC3
:10EAE000F3D150F80C3088684A680AF022F840F0F8
:10EAF000887009E050F80C3088684A680AF019F804
:10EB000040F0885040F43020039001A93878CDE9D6
:10EB10000123FFF7E9FE002831DA6FF0150005B098
:10EB2000BDE8F08350F80C3088684A680AF001F8B4
:10EB30003043E9E750F80C3088684A6809F0F9FF7B
:10EB400040F0C06040F40030DEE750F80C308868D8
:10EB50004A6809F0EEFF40F08270D5E750F80C30BB
:10EB600088684A6809F0E5FF40F48020CCE750F857
:10EB70000C3088684A6809F0DCFF2843C4E73B781A
:10EB800001333B70A1E7C1F89830C1F8A000013310
:10EB900069E74FF0FF30C2E700ED00E034A5010067
:10EBA00081180020000002110000F0FF0000081191
:10EBB000F0B587B007460E4614460021102268467D
:10EBC0001D460BF0C4F902238DF802302A46054B8E
:10EBD000019321466846CDE9047608F083FE07B02C
:10EBE000F0BD00BF538B010008B5024B1B6898476E
:10EBF000002008BDA00D0020034B044A1860937844
:10EC000043F0020393707047A00D002038010020EC
:10EC100008B50649064821F00701C1F1005202F586
:10EC2000802209F095F9002008BD00BFF7430020BD
:10EC3000A40D002070B54169867A0B4D044659B188
:10EC4000437ADB0706D4242303FB0653DB691B68E6
:10EC50009B689847002363612420214600FB0650EF
:10EC6000BDE870400AF0A6BE3C030020024B2422FF
:10EC700002FB0030704700BF3C030020827A064B45
:10EC8000242101FB02331A6A1B7D1B33801A23F0F7
:10EC90000303B0FBF3F070473C03002038B5074B8B
:10ECA000827A242404FB0233DB69D3E901240C605B
:10ECB0001568FFF7E3FF04FB005038BD3C0300205C
:10ECC0002DE9F04385B005466846039190461C4601
:10ECD0000BF0BDF8DDE90067EFF31189202383F322
:10ECE0001288BFF36F8F6B8A002B41D02A8A9A4219
:10ECF00025D900220023284607F092FD0446F0B1F2
:10ED000089F31188BFF36F8F039B002B41D03246EC
:10ED10003B4668460BF0C0F8A27A264B242101FB43
:10ED200002332046DB691B6803A91D68DDE9002367
:10ED3000A847606170BB2046FFF77CFF24E0698A2A
:10ED40004B1E6B8289F31188BFF36F8F2B7D2A8A4C
:10ED50002C6A1B3323F00303521A02FB0344154BA6
:10ED6000154AEB1A9B105343A3722B7DE372CBE73A
:10ED700089F31188BFF36F8F23464246284607F078
:10ED80004FFD04460028BFD10024204605B0BDE851
:10ED9000F0836361012300252381039B6382E27A70
:10EDA0006560294604F118000BF0D1F863692582EB
:10EDB000E360EAE73C030020398EE338F8B5124DF2
:10EDC0000024242600B9F8BD00F108024768BFF30B
:10EDD0005B8F52E8003F591E42E8001CBCF1000F57
:10EDE000F7D1BFF35B8FDBB2012BECD1837AC46028
:10EDF00006FB035344609B6913B198473846E1E72B
:10EE0000FFF718FFFAE700BF3C0300200C4B01227C
:10EE1000C3F840254FF080434FF08051C3F8782568
:10EE2000D1F83001082805D1D1F83411022908BFE2
:10EE3000C3F838260122C3F880250020704700BFA0
:10EE400000E0014048B1054B054A1B68B3FBF2F3F3
:10EE50005843044B43F0010318477047B8020020A1
:10EE600040420F0080A4010008B5054A054B13601D
:10EE700010463C23536007F04DF8002008BD00BF4A
:10EE8000B00D00203FC00F000E4B402970B528BFC9
:10EE900040210D4C46181D46B04203F1020304D137
:10EEA000002305F81130074870BD02781209A25CF2
:10EEB00003F8022C10F8012B02F00F02A25C03F8F9
:10EEC000012CE9E7A0180020DFB9010030B5037874
:10EED0008BB0044607AD032B21D8DFE803F0021AFC
:10EEE0001C1E12492846FDF725FA05956378049300
:10EEF000A3780393E37802932379019363790093D2
:10EF0000A3790B4A0B481E2108F0C2FC09480BB03C
:10EF100030BD0949E6E70949E4E70949E2E7094A5A
:10EF20000A21284608F0B4FCDFE700BFE9A8010089
:10EF30000BA9010082180020F0A80100F7A8010029
:10EF400001A90100B2B0010010B509F0B3FE0AF04A
:10EF50000AFE044608B908F039F8BFF35B8F064B88
:10EF60001B68BFF35B8F0BB10A2098471CB9BDE843
:10EF7000104008F03FB810BDB80D002038B5044669
:10EF8000084809F003FE054648B1631EDBB21F2B9B
:10EF900096BF054A0021D15C0C3009F04CFE284692
:10EFA00038BD00BF84030020F0B901000E380128ED
:10EFB00010B50AD8094809F0E9FD044618B1042142
:10EFC0000C3009F038FE204610BD09B10448F2E7C4
:10EFD000BDE810400220FFF7D1BF00BFA80300200A
:10EFE0003C03002010B501210C3009F045FE0378E8
:10EFF000034A0448BDE81040012109F075BE00BF76
:10F0000036B001008CA3010010B586B003AB00241C
:10F0100000930749074805944FF0FF334FF480628F
:10F02000CDE9034407F0CAFD204606B010BD00BF7D
:10F03000801C00209008002010B5094BD3F80C313B
:10F0400063B1084908480AF059FD031E06DA074A69
:10F050000748BDE81040012109F046BE10BD00BFC1
:10F0600000000020E80100203009002058B0010015
:10F070008CA30100B0B50B460D8A00AF04462946AB
:10F08000D868FFF701FF8AB06A46094BCDE905341D
:10F0900040F20243ADF82430064BCDE907504FF45F
:10F0A000325142F8103F044809F02FFEBD46B0BD72
:10F0B00075B00100050000018CA3010037B502EB1B
:10F0C000C303044608469A4202D16FF05E0010E086
:10F0D000114611F8085BA54211D1038A5178994273
:10F0E00009D90848084A0094012109F026FC6FF06C
:10F0F000150003B030BD536898470020F9E70A4671
:10F10000E1E700BF8CA3010097B0010010B5012119
:10F1100004460C3009F0B0FD2146034A0078BDE8F2
:10F120001040002309F0F4BDF0A5010010B5012145
:10F1300004460C3009F0A0FD2146034A0078BDE8E2
:10F140001040002309F0E4BD08A60100F8B5012134
:10F1500000AF04460C3009F08FFD0678114A0023F9
:10F1600021463046FFF7AAFF5F3019D1258AE068B3
:10F170002946FFF789FE6C468AB06A460A4BCDE9FC
:10F18000053640F20243ADF82430084BCDE9075074
:10F190004FF4325142F8103F054809F0B6FDA5463C
:10F1A000BD46F8BD08A60100B9B001000500000188
:10F1B0008CA301002DE9F74FDFF818A1BFF35B8F97
:10F1C00080468946174600235AE8004F4AE8003235
:10F1D000002AF9D1BFF35B8F264644B93E4A3F4827
:10F1E0004346012103B0BDE8F04F09F07DBD204644
:10F1F000FFF744FD3A4D4FF00C0B0BFB00504388DA
:10F2000043451FD02046FFF739FD0BFB00504388D4
:10F21000344A009331484346012109F08EFBBFF385
:10F220005B8F5AE8003F4AE80062002AF9D1BFF339
:10F230005B8F002B4BD01E46304603B0BDE8F04F2D
:10F24000FFF7BCBDA74208D0204609F09AFC3A8AD5
:10F25000F96804F10C0009F0E5FC2046FFF70EFD0B
:10F260000C2707FB00504368ABB1B9F1000F12D176
:10F270002046FFF703FD07FB005001214268536859
:10F2800003F01F00814010685B0900EB8300137AD4
:10F29000CBB109F02BFD2046FFF7F0FC0C2707FB54
:10F2A00000508368002BC7D02046FFF7E7FC784367
:10F2B00005F800902046FFF7E1FC07FB0055A86821
:10F2C00007F0E4FAB8E7C94309F030FDE3E703B01B
:10F2D000BDE8F08F08010020EBB001008CA3010015
:10F2E000BC0D002013B10100094BBFF35B8F1A68FE
:10F2F000BFF35B8F02F00B02BFF35B8F53E8001F7D
:10F3000043E800200028F9D1BFF35B8F704700BFAE
:10F31000D40000202DE9F0470C4607F057FEE568C1
:10F32000268A2B78042B7DD1022E0ED8434A3346F1
:10F330004348012109F0D8FC2046FFF73FFD002497
:10F3400007F058FE2046BDE8F0876B783E2B0CD1C5
:10F35000032E02D13B4A3346EAE7EB78012B01D07A
:10F360000A2B49D14FF0030806E0052BFAD00E3BDB
:10F37000012B41D84FF0010804F10C070121384658
:10F38000D4F814A009F070FC0221384609F074FC8E
:10F3900003783E2B814607D1E3681B78012B01D00F
:10F3A0000A2B06D1032714E0052BFBD00E3B012BC3
:10F3B00032D9254A2549264841F2681308F068FEEB
:10F3C000002383F31188BFF36F8F0323184602DFF6
:10F3D000022703231F4A99F80000214609F098FCF0
:10F3E000BB071BD563692682A5EB0A0513FA85F5D1
:10F3F000E560B8F1010FA2D01748214609F0CAFB19
:10F40000164917480AF07AFB031E98DA154A0C4889
:10F41000012109F069FC92E70127DAE72046FFF7AE
:10F42000CDFCE6E7104A0648012109F05DFC2046C4
:10F43000FFF7C4FC6FF0150482E700BF46B101007E
:10F440008CA3010062B1010082B10100B6B10100DC
:10F45000CFB10100D8A501000C010020E801002077
:10F460003009002058B00100ECB1010038B51C484B
:10F4700009F0A5FB044690B300F10C05284609F0FD
:10F4800003FC0428034624D12846022109F0F4FB9A
:10F4900003780E3B012B05460ED8124A1249134839
:10F4A00040F69A4308F0F4FD002383F31188BFF37C
:10F4B0006F8F0323184602DF0D4A28780323214665
:10F4C00009F026FC2046FFF779FCBDE83840FFF73D
:10F4D000B3BD084A0848012109F006FCF2E738BD2F
:10F4E0000C01002082B1010000B20100CFB1010087
:10F4F000F0A501002EB201008CA3010010B5C1E9F6
:10F5000000239DF808300B720C46FFF7B7FB034B46
:10F510000C2202FB00335C6010BD00BFBC0D00205C
:10F52000F8B502460B46104809F030FB0446C0B15E
:10F5300004210C3009F06CFB2046FFF79FFB0B4DBC
:10F540000C2707FB0050002646802046FFF796FB5D
:10F5500007FB005086602046FFF790FB07FB005535
:10F560006E602046F8BD00BF60030020BC0D002087
:10F5700010B592B004460749442201A80AF0C0FC25
:10F58000102C9BBF12AB03EB8404034854F8440CCB
:10F5900012B010BD34A4010042B20100034B014679
:10F5A000D3F8240182689268104700BF0000002051
:10F5B0002DE9F047042100AF464809F097FB6D465E
:10F5C00088B06A46444B0593444B06934FF400734E
:10F5D000ADF81C30424C434B42F8103F4248434E7A
:10F5E0004FF4E65109F091FB414BE179AD462046DD
:10F5F000012998BF1E46FFF769FC8AB06A463D4B59
:10F600000790CDE905363C4B08933C4B42F8103F40
:10F6100035483B4EDFF8EC804FF4235109F075FB81
:10F62000A246AD460125E3799D420AF1070A3ADB7D
:10F6300094F870502846FFF79BFF6E468CB0B4F8E4
:10F640007210B4F876306A46DFF8BCC00993CDE991
:10F6500007512E4B4FF40075CDE905C0ADF8285089
:10F660004FF4535142F8103F1F4809F04EFBB54686
:10F6700094F871603046FFF77BFF8AB0B4F87430BD
:10F680006A462349ADF82450CDE90763214BCDE903
:10F69000051042F8103F14484FF4335109F035FB80
:10F6A000BD46BDE8F0875046FFF710FCE9468AB03A
:10F6B0006A4640F20133CDE905650790ADF8203088
:10F6C000094842F8108F4FF4135109F01EFB013521
:10F6D000CD46A8E7D40000204EB2010060B2010080
:10F6E00000000020030000018CA301004AB20100C9
:10F6F0003AAB01006BB201000002010304000002FA
:10F700007AB20100040000018BB201000600000182
:10F71000C9B2010005000001014902480AF0EEB932
:10F72000D80100209008002070B505460C4639B17C
:10F73000CB684A699B1A032B0ED86FF0150509E0B8
:10F740004FF0FF304FF0FF31FFF7EAFE044618B9E3
:10F750006FF06805284670BD2046FFF78FFA174BFB
:10F760000C2202FB0033A618032130465D8009F00D
:10F770006AFA0580238A033B83700121304609F031
:10F780006AFA40F635439D420FD12046FFF706FF47
:10F7900005460028DED00A4A03460121094809F03F
:10F7A000A3FA2046FFF70AFBD4E7074821460AF0F0
:10F7B000F6F80025FFF7B0FFCCE700BFBC0D002036
:10F7C000F0B201008CA30100140100202DE9F047E4
:10F7D00084B0804600AF91460C4671B94FF0FF30BF
:10F7E0004FF0FF31FFF79CFE044660B96FF06805EB
:10F7F00028461037BD46BDE8F087887AFFF736FA0D
:10F800003C4B83426FD10122002138460AF0DCF8DC
:10F810002046FFF733FADFF8E0A00C2303FB00A03B
:10F820008760204609F0E1F901464046FFF77CFF7A
:10F83000054618B12046FFF7C1FAD9E74FF4A022D8
:10F840000023384607F056F8064690B14FF4F1739E
:10F850002A4A2B492B4808F01BFC2B4832464146CC
:10F8600008F016FC85F31188BFF36F8F0323184649
:10F8700002DF2046FFF702FA0C2358431AF8006013
:10F880005EB36D468AB06A46204B0796CDE90538CF
:10F890001F4B089340F20243ADF824301D4B42F851
:10F8A000103F1D484FF4325109F02FFA2046AD4663
:10F8B000093EFFF783FA092E0CD8DFE806F0050BA6
:10F8C0000B08170B0B0B0B146FF06E0590E76FF026
:10F8D0000C058DE76FF004058AE7B9F1000FA9D098
:10F8E000C9F8004084E76FF0150581E76FF00B055C
:10F8F0007EE700BF60030020BC0D002082B1010044
:10F9000012B30100CFB101001BB3010060B30100CD
:10F910003AAB0100050000018CA301002DE9F04184
:10F92000002282B0114600AF40F60340FFF74EFFC1
:10F93000044600285BD1FFF7D7FC21463A1D41F26F
:10F940000300FFF743FF0446002850D17A68C34DF7
:10F95000D168D1F80100D1F8051005F1780303C38F
:10F960001046FFF72BFA21463A1D41F20100FFF73E
:10F970002DFF044600283AD17868C3685A7885F884
:10F9800070205A88A5F872201A7985F87120B3F88A
:10F990000720A5F87420B3F80530A5F87630FFF7F6
:10F9A0000DFA21463A1D41F20200FFF70FFF04460F
:10F9B000E8B9D7F804C0DCF80C2005F18006531C28
:10F9C000413218685968344603C4083393422646C6
:10F9D000F7D16046FFF7F2F995F87C305C060BD45E
:10F9E0009F4AA048012109F07DF96FF012042046DA
:10F9F0000837BD46BDE8F0813A1D002142F2030000
:10FA0000FFF7E4FE04460028F1D17A68964BD168EE
:10FA1000D1F80100D1F8051003C31046FFF7CEF965
:10FA20001F23A5F8E83095F87C30980619D44FF0DC
:10FA3000FF304FF0FF31FFF773FD0646002800F05E
:10FA40003D8102210C3009F0E7F801234470037076
:10FA50002246314640F66D40FFF7B8FE04460028C6
:10FA6000C5D195F89C30190712D53A1D002142F2F4
:10FA70001C00FFF7ABFE04460028B8D17868C368C5
:10FA8000D3F80120D3F80530C5E93823FFF796F9FC
:10FA90004FF0FF304FF0FF31FFF742FD04460028E2
:10FAA00000F00C8108210C3009F0B6F80226002283
:10FAB000067042708270C270027142718271C271AE
:10FAC000214642F20100FFF781FE044600288ED154
:10FAD0004FF0FF304FF0FF31FFF722FD8046002846
:10FAE00000F0EC8008210C3009F096F88023437078
:10FAF000202304708470047144718471C670C371D2
:10FB00002246414640F60140FFF760FE04460028C9
:10FB10007FF46DAF01463A1D4FF60140FFF756FEE8
:10FB200060B1524A4F48022109F0DCF8EB79002B12
:10FB300040F0B48000F070FC044658E77B68DC6855
:10FB4000B4F80130042B96BF494A4A4952F82310B1
:10FB50006E468AB06A46484807934FF40073ADF882
:10FB60002030464BCDE9050142F8103F3D484FF4A7
:10FB7000135109F0CAF8B4F80120B4F80330022A8E
:10FB8000B5464BD1052B49D83D4A52F823106E4655
:10FB90008AB06A463B4807934FF40073ADF82030B3
:10FBA000364BCDE9050142F8103F4FF413512D4873
:10FBB00009F0ABF8637994F806C0D4F80900032B78
:10FBC000B54698BF304AB4F8076094BF52F8231086
:10FBD00028496C468CB06A46DFF8B0E0CDE9073CB6
:10FBE0004FF40073ADF82C30294BCDE905E1CDE998
:10FBF00009604FF4735142F8103F1A4809F085F834
:10FC0000A5467868FFF7DAF83A1D00214FF6024062
:10FC1000FFF7DCFD044618B11E4A83E71549B6E735
:10FC20007868C368B3F80130A5F8C130FFF7C6F8AB
:10FC300095F8C1305A077FF579AF3A1D21464FF646
:10FC40000340FFF7C3FD08B1134A6BE77868C36848
:10FC50005B7885F8C030FFF7B1F867E70000002057
:10FC60007FB301008CA30100D8000020A3B30100E2
:10FC7000C4A5010042B20100C7B3010004000001A5
:10FC8000ACA50100E0B301009CA50100F8B30100A0
:10FC90000700000125B401004EB401002E78002EAB
:10FCA0007FF448AF95F8C1309B061FD54FF0FF3069
:10FCB0004FF0FF31FFF734FC044610B96FF06804D1
:10FCC00095E606210C3008F0A7FFD5F80130036057
:10FCD000084B9B888380214632464FF60640FFF74B
:10FCE00075FD044600283FF425AF80E66FF08504DB
:10FCF0007DE600BF0100002073B52C4D0646D5F807
:10FD0000240109F068FD48B9294A2A48012108F070
:10FD1000E9FF6FF01204204602B070BD6FF00201DF
:10FD200005F1D40009F002F8012108F0DFFF10EA24
:10FD3000010437D1204B1E600A4605F1F80009F096
:10FD400043FE05F58A7009F0FCFD1C4809F0E6FE4B
:10FD50001B491A4800946FF007034FF4966206F0AF
:10FD60002DFF1849154809F004FFD5F8240116495C
:10FD700083681B689847044630B1144A0346012142
:10FD80000C4808F0B1FFC6E73EB9FFF7C7FD0446CF
:10FD90000028C0D1FFF70CFCBDE705F1C40006F058
:10FDA00007FFB8E76FF07704B5E700BF0000002059
:10FDB00077B401008CA30100C80D00203009002099
:10FDC000C02000208FB4010015F3000098B401009A
:10FDD00010B5FFF7A3FD044608B9FFF7E9FB044B94
:10FDE0001B681BB12046BDE81040184710BD00BF7E
:10FDF000C80D002038B5042104460C3008F03CFF43
:10FE0000034640885D7818B119782246FFF7D2F989
:10FE100035B1044806F03AFDBDE83840FFF77CBC38
:10FE200038BD00BFF8000020B0B50321044600AF84
:10FE30000C3008F021FFE2680346B0F801001178A9
:10FE400040F63542904216D16C468AB06A46104B55
:10FE50001048CDE90531104B079340F20133ADF85E
:10FE600020300E4B42F8103F4FF4125108F04DFF76
:10FE7000A546BD46B0BD1D7810B12246FFF79AF9E0
:10FE8000002DF6D0064806F001FDFFF745FCF0E72F
:10FE9000B4B401008CA301003AAB010004000001DE
:10FEA000F800002038B507F091F82E4DD5F8143140
:10FEB000002B52D00022002305F1F80006F01AFDB5
:10FEC00000284AD10022002305F58A7006F0A8FC1C
:10FED000044668B9244A2549254840F6AA4308F053
:10FEE000D7F884F31188BFF36F8F0323184602DF1E
:10FEF000D5F808315BB11F4A1F48012108F0F2FE16
:10FF0000D5F80801FEF75AFF0023C5F8083120464E
:10FF100008F06BFEC5F808012046FFF73FFB0346DB
:10FF2000C8B1164A1448012108F0DEFE144806F054
:10FF3000ADFC2046FEF7A2FE124B0C2202FB003362
:10FF4000588818B122461F21FFF734F92046FEF7E2
:10FF500035FFFFF7E1FBFFF7DFFBBDE8384007F0B7
:10FF600049B800BF0000002082B101002AB00100A2
:10FF7000CFB10100ECB401008CA30100F0B201008C
:10FF8000F8000020BC0D002070B54FF0FF320D4688
:10FF90004FF0FF3300210646FFF708F8044660B92A
:10FFA0000A4A0B490B481A2308F072F884F31188A7
:10FFB000BFF36F8F0323184602DF022104F10C0008
:10FFC00008F02AFE06704570204670BD28B6010074
:10FFD0002AB00100CFB10100F8B50A4DEF7906460D
:10FFE0000024E3B29F4202D86FF0010007E02946E7
:10FFF000304608F0CBFE0735631C08B12046F8BD3B
:020000040001F9
:100000001C46EEE70000002070B51A4E062231466D
:10001000054609F0A4FF38B34FF0FF304FF0FF3131
:10002000FFF77EFA044608B3062229460C3008F092
:10003000F9FD2146002242F20500FFF7C7FB044606
:1000400048B110F10D0F04D10B4A0C48022108F001
:10005000A5FE204670BD33462A6843F86929AA8860
:10006000B280012283F868200024F2E76FF0680470
:10007000EFE700BF690000205EB6010094A3010015
:1000800073B504460D4689B11749284608F07EFE2F
:1000900060B9164A2968C4EBC404A3181151AA8890
:1000A0009A80AA799A71002002B070BD6E463046DF
:1000B00008F0F2FD0028F7D13046FFF78DFF002849
:1000C000F5DA0A4A0098B179C4EBC404A3181051B8
:1000D000B08898809971002DE5D012592A609A88CD
:1000E000AA809B79AB71DEE7CCB90100000000204B
:1000F00038B50D460649CC7938B12B689C4228BFEB
:100100001C46C4EBC40209F0FBFE2C6038BD00BFE6
:100110000000002070B5044629BB38B3274908F019
:1001200035FE18BB2046FFF757FF002840DA23783A
:100130006BB9234AD379002B3AD120681060A1799A
:10014000A088917101219080D171184670BD012B5A
:1001500004D1A37903F0C003C02B07D0194A1A4871
:10016000012108F01BFE6FF01500EFE7144DEB794D
:10017000012B20D0BFF35B8FD5F8D430BFF35B8F5A
:10018000DB0707D4002CEED00C49204608F0FEFD1A
:100190000028E8D1EE792146731C3046EB71FFF759
:1001A0006FFF08B93046D1E7EB79013BEB71CDE742
:1001B0006FF07700CAE76FF00B00C7E7CCB901001A
:1001C000000000206DB6010094A301002DE9F34169
:1001D000044640B91A4A1B48022108F0DFFD0020FE
:1001E00002B0BDE8F08101AA002141F20900FFF749
:1001F000EDFA054608B1144AEDE7019E1349D6F819
:100200000C8008F101070622384609F0A8FE28B143
:100210000F490622384609F0A2FE18B93046FEF70B
:10022000CDFDDCE7D8F80130C4F80130BB88A4F874
:10023000053030462570FEF7C1FD0120D0E700BF34
:100240009BB6010094A30100B4B60100D9B9010026
:10025000D3B9010007B56846FFF7B8FF044BD87162
:1002600018B169460020FFF70BFF03B05DF804FBEF
:10027000000000202DE9F041304EF17988B00029CE
:1002800054D196F8C24014F0010411D12C4A2D48E3
:10029000022108F083FD0024F471162500240127B3
:1002A000F379E0B283422BD8002B3FD000203AE014
:1002B0006A464FF60940FFF789FA08B1224AE6E795
:1002C000DDF800C0DCF80C5095F80180B8F1000FA3
:1002D0000ED0AB1C02AA123518685968174603C71E
:1002E0000833AB423A46F7D1186838609B88BB8028
:1002F0006046FEF763FDB8F1000FCDD1134AC6E7A3
:1003000008AB05FB0033694653F8182C33F8143C4E
:10031000CDF80120ADF805308DF80070FFF7B0FE84
:1003200001340028BCD008B0BDE8F08100210846A7
:1003300008B0BDE8F041FFF7EDBE00BF00000020AF
:10034000D2B6010094A30100FEB601001EB7010061
:100350002DE9F0411D460E461746034648B145B10A
:100360000A0311D54C0708D5284A2948012108F06D
:1003700015FD6FF01500BDE8F08108F019FD0028AB
:10038000F9D101232B70F6E7B107047824D0214975
:100390002FB1B20603D591F8D820500632D5C4EB60
:1003A000C40411F80480B8F1010F09D101342144CB
:1003B000184608F0F5FC0028DDD185F8008002E041
:1003C000B8F1000FF9D02FB1B30642BF2B7843F03C
:1003D00002032B700020CEE7720710D50D49C4EB45
:1003E000C4040F5D012F07D10134214408F0D8FC6B
:1003F0000028C0D12F70E7E7002FE5D1FAE708F019
:10040000D7FCBEE76FF08500B5E700BF47B7010036
:1004100094A301000000002038B5104DEB7913B112
:100420000024204638BDFFF715FF044628B10C4ACA
:100430000C48012108F0B2FCF3E7EB79002BEFD177
:10044000FFF718FF04460028F1D1681CFFF7DCFD18
:1004500004460028E5D0044AEAE700BF0000002077
:1004600066B7010094A3010085B701002DE9F74F9D
:10047000884601904FF0FF314FF0FF30FFF750F802
:10048000044600284ED020210C3008F0C5FB002186
:1004900020220646002709F05AFDD8F8005006F140
:1004A000010B3946D8F804309F4208D301983170C7
:1004B0000022214603B0BDE8F04FFFF787B96A7804
:1004C00095F800C0881C13181F2B5FFA80F915D906
:1004D000BCF1090FC9F11F0201D1002A0CDC134A3B
:1004E0001348012108F016FA2046FEF767FC6FF06A
:1004F000150003B0BDE8F08F4FF0080C5FFA82FAE8
:100500000AF1010E0BF801E00131C9B258440BF8B1
:1005100001C0D144696809F0F3FC01375FFA89F141
:100520000835BFE76FF06800E3E700BFA8B7010038
:100530005CA30100F7B5CDE90001694642F208006D
:100540009DF8207016461D46FFF790FF044668B9D7
:100550007FB9BFF35B8F0C4B53E8001F41F00401E0
:1005600043E80012002AF7D1BFF35B8F204603B0A7
:10057000F0BD694642F20900CDE90065FFF776FF5C
:100580000028E6D00446F1E7280000202DE9F04FCE
:1005900089B0D0F810900293B9F1000318BF01237D
:1005A000DFF8C0A2039305460F469346BFF35B8F67
:1005B000DAF80030BFF35B8F5A0740F13F8146689D
:1005C00073050BD56FF01504002340F201119B4514
:1005D00040F03D81204609B0BDE8F08FD0F8108092
:1005E000B8F1000F01D0B407ECD09F4C2878E37924
:1005F0008342E7D9C0EBC0009C490722204409F0A0
:10060000AEFC0028DED0B00706D194F87030082B7D
:1006100002D8AB689F2BD5D916F0300F74D0B8F143
:10062000000FCFD0F10672D406F46036B6F5603F05
:10063000C8D0284608F0D3FB80460028C2D08C4E94
:10064000BFF35B8F3268BFF35B8FC2F30023D20529
:1006500000F1F7806A68CDE90533CDF81B30AB684F
:10066000ADF8103012F4004FEB68ADF8123014BF43
:1006700006230723D00348BF03F00503910348BFB7
:1006800003F0FB038DF81D30BFF35B8F5AE8003F8A
:1006900023F480734AE80032002AF7D1BFF35B8F5E
:1006A0002B78237684F86F30039A696871480DF1CE
:1006B0001503FFF74DFE0446002885D16E4BB9F1B6
:1006C000000F30D02A6911684AF8B31C91889980CC
:1006D00092799A716B689A0727D0B9F1000F2AD0E6
:1006E00013F0100F0CBF012304238DF814302B6975
:1006F0001A68CDF816209A88ADF81A209B798DF8E3
:100700001C304FF0000819E0B8F1000F8CD1D5E98A
:1007100002239A423FF656AF1F2A7FF653AFB3F536
:10072000804F81D94EE7514ACDE79C0501D4029B09
:100730005BB3022300E04B468DF814304FF0FF30DE
:100740004FF0FF31FEF7ECFE044600287CD00F226C
:1007500004A90C3008F066FA2146002242F2060095
:10076000FFF734F8044600287FF42EAFB9F1000FEC
:100770000FD04048012108F036FB0446A8B13F4A9B
:100780003F48012108F0C6F81EE703238DF8143016
:10079000B7E7129B029ACDF8008059463846FFF71A
:1007A000C9FE04460028E4D00EE76B68BFF35B8FF8
:1007B000980728D056E8003F43F4007346E800321B
:1007C000002AF7D1BFF35B8FBFF35B8FB8F1000F47
:1007D00022D056E8003F43F4806346E80032002A06
:1007E000F7D1BFF35B8F6B68BFF35B8F59071CD5E5
:1007F00056E8003F43F4805346E80032002AF7D120
:10080000BFF35B8FE0E656E8003F23F4007346E851
:100810000032002AD6D0F6E756E8003F23F4806382
:1008200046E80032002ADCD0F6E756E8003F23F421
:10083000805346E80032002AE2D0F6E76FF00A045F
:10084000C2E66FF07704BFE66FF06804BCE63A8852
:100850008A4204D17A6812B11278D20712D40133D5
:100860000837B4E6D400002000000020CCB9010015
:10087000280000201800002021000020C1B701003E
:100880005CA301000549064809F04EF94FF47022B7
:100890000023034806F000FA9CE600BFD5080100DB
:1008A0003000002010B50A4C204608F0C2FABFF311
:1008B0005B8F2369BFF35B8FC3F30020DB0505D596
:1008C00020460021BDE8104008F08DBA10BD00BFE1
:1008D0001800002010B5FFF7E5FF034630B1044AC9
:1008E0000448BDE81040022108F01DB810BD00BF4B
:1008F000DCB701005CA3010000F1070C2CF0030C35
:1009000010B4541E1860A4B2ACF80020023A93B29E
:1009100001FB04F24FF0000C40F802C074B103FB7D
:10092000011403FB01F22044121B4FF6FF7C013B34
:100930009BB263458050A0EB0100F8D110BC70471A
:100940000346006810B102680AB91A60704700F1E6
:10095000070C2CF0030CD11DBCF800C021F00301E2
:100960000CF1FF3CA1F800C0EFE700BF0B687BB1C2
:10097000073323F003031A88013292B20346D1F8F9
:1009800000C043F807CB23F003031A8008607047C8
:100990000122F3E7531E11449BB242B1DB430138FD
:1009A000CA1811F8013D00F8013F9142F9D1704792
:1009B000014402E010F8013B1BB98842FAD1002043
:1009C00070470120704700BF10600860704700BF8B
:1009D000D2F800C0CCF80000D2F800C0CCF8041067
:1009E00010607047884203D01AB1436813607047A3
:1009F000002070470B68834209D02AB15868106004
:100A00001A680A6018467047002BF9D1FAE70023EC
:100A1000F8E700BF2DE9F8430E4EDFF83C904FF0A9
:100A200090080C2706F1200409EB08052A1D294629
:100A30002046083CFFF7C8FFB442A5F10C05F5D1EC
:100A4000043F3B1DA8F13008A4F12006EAD1BDE81F
:100A5000F88300BF280E0020740E0020F8B506466B
:100A60001C460D4602B322786378D21A12F00302B4
:100A700029D1294F71004FEA450C3144AC4489001B
:100A800001EB0C1101330431DBB27A18606823707A
:100A90002146FFF79DFF214B0122294630465A553A
:100AA00003F0DAFF0020F8BD03F0C0FF0028DAD021
:100AB0002946304603F0ACFF637860B92278D21A39
:100AC00012F00302D5D0012A03D00133DBB2237028
:100AD000E1E71046F8BD05EB450206EB46010E4F77
:100AE000120102EB81023A447100907AD27A90426C
:100AF0004FEA450C05D02078C01A10F00302E2D16D
:100B0000BBE72278D21A920702D00233DBB22370FD
:100B1000D4E902039847C5E7500E0020CC0D002011
:100B20002DE9F04FDFF8609119F8003089B0002B03
:100B300059D0DFF858A1C0EB00134FF0000B00EBC9
:100B400040079B000324CDE904BB09F800B00AEB81
:100B50000717039302948346B8460023B96A58F8EE
:100B6000240F079307AAFFF73DFF044607AAB4B175
:100B7000079D2E786978761A06F00306012E35D087
:100B80002B78591A01F003010129DBB23DD1D7E9D5
:100B90000901FFF727FF044607AA002CE8D197F8C0
:100BA0002E3097F82F209A4203D087F82F30012358
:100BB000049397F82C3097F82D209A4203D087F8A9
:100BC0002D3001230593029B5D1EEBB2FF2B029398
:100BD000A7F10C07C0D10499D846DDF814B011B1C3
:100BE000BBF1000F45D009B0BDE8F08F0139697045
:100BF000079BD3E902029047079D2A786978D3B210
:100C0000521A02F00302012A21D0B86A019300228D
:100C10004146FFF7EFFE6C60019B6A786B702B78A2
:100C20009B1A03F00303012B08D0D7E9090107AA97
:100C3000FFF7D8FE012E044698D10EE0039B6A70A0
:100C40001A1D294620465244FFF7C2FEEDE7D7E9B8
:100C5000090107AAFFF7C6FE0446029B8BB10123D8
:100C60005946584609F80B3003F0F6FE09B0BDE8C6
:100C7000F08F5A464146404609B0BDE8F04F03F0B8
:100C8000BBBE002C8BD0EAE7CC0D0020500E00201C
:100C90004B1EDBB271B1411E00EB030C002011F8BA
:100CA000013F23B15A1E01301340C0B2FAD1614551
:100CB000F5D170470846704770B5057E0468FF2D72
:100CC0002AD02A464FF0000C07E09E6814F80E3038
:100CD000FF2B1546B4441FD01A4602EB4203914243
:100CE0004FEA031E04EB0313EFD18D4202D114F837
:100CF0000E20027614F80E20986805EB45052D01AC
:100D0000FF2A625506D002EB420204EB02129368FE
:100D100003449360604470BD002070BDA2EB010CE1
:100D20001CF4000F10B4836844690AD12CF07F4C86
:100D30006344A3420DD8E41A00234461836010BCCD
:100D40007047891A21F07F418B4208D95B1AA34270
:100D5000F1D91B1B00244461836010BC70470C4414
:100D6000E41AE9E72DE9F041244DBDF824708E46E0
:100D70002C2101FB0055696801EBCE0011F83E60A3
:100D8000C478417804F1010C5FFA8CFC664598BF89
:100D90004FF0000C61452DD0466804EB440421015E
:100DA00006EB04144FF0040806F801806360069B0C
:100DB000A360079BE360089B23610A9BA3610F9BD1
:100DC00063620B9BE3610C9B23620D9BA3620E9BF2
:100DD000E36202236270A782A37080F803C0D5E9A2
:100DE0000836704698472B4641460022B047A07807
:100DF000BDE8F0810120BDE8F08100BF100F0020A8
:100E00002DE9F04F87B00346427A019000685F6891
:100E10000290002A00F0EF80531EDBB207EBC30301
:100E20008A4603930597039B5A6893F801B004928E
:100E3000BAF1FF0F57D00AEB4A04029BCDF800A08D
:100E40004FEA0419002513F809A003EB0414019BD1
:100E5000FF2727701E681B7E06EB0908BB42D8F8E7
:100E600008100DD1C1E0091A05D1B8F81E90BEF8DE
:100E70001EE0F1457AD8B25CFF2A1F4665D01346C2
:100E800003EB430206EB021E4FEA430CDEF80800B8
:100E900088424FEA0212E6D9FF2FC8F8081088F8F6
:100EA00000305DD1DDE900200276634406EB0313D8
:100EB0009A68521A9A60A37801336370002DB7D0F4
:100EC000AB6A4FF000022A70AA7013B1E96A0020E1
:100ED00098476368002BABD1AB6A2362EB6A63620D
:100EE000BAF1FF0FA7D1039B049E99780BEB4B033C
:100EF0000BF1010059454FEA03125FFA80FB06EB44
:100F0000031569D0039B1878B35C584508BF4FF0B0
:100F1000000B042BEAD16978029801EB410300EB46
:100F200003144FEA03196078A378984220D04FF059
:100F30000003B354AB6A4FF001020120AA700BB159
:100F4000E96A9847039B9978D0E79C444FEA0C1CC8
:100F5000009BC8F8081088F8002006F80C30AAE7B3
:100F600007EB47073F01009AF2559EE7014693E7DA
:100F7000019AAB8A009151694FF6FE72934207D0F5
:100F80004FF6FF729B1AB3FA83F35B0984F82C3097
:100F90006B6AA362EB6863602B6923620022626262
:100FA000AB8A4FF6FD70834288BF1346A383AB69BB
:100FB000A361EB69E3602B6A2361AB68A3606261A4
:100FC0006A682046FFF7AAFE4FF00003E383E37848
:100FD00043F00103E3703AE7039A51700599914297
:100FE000A2F1080307D003931DE706F80930DDE9F5
:100FF000003213765FE707B0BDE8F08F2DE9F04FC0
:10100000447E01238FB08376002C40F0BA80037EAB
:10101000FF2B814600F0B48003F0CAF9D9F8142000
:10102000D9F81C3099F81880D9F80060801A20F09F
:101030007F4B5B4594BF00230123B8F1FF0F03935F
:10104000A2467CD0049408EB480806EB08144FEA4B
:101050000818A3685B4571D8A27816F80880ABEB36
:10106000030B9A4463789B1ADDB2012D63D1A06A09
:10107000A3690293002800F019810168002900F09B
:101080008380002B00F02A81039B002B00F04A8113
:10109000037A5A0700F03B81037A23F007030372B7
:1010A000E78BE27822F001027B1CE27094F82C209E
:1010B0009BB2E383002A00F0E080A28B9A4280F08A
:1010C000DC80A06A002800F06581037A03F0070342
:1010D000012B00F0D280002741684760A36A1A7A8A
:1010E00067F302021A72A278E768013AA27017B396
:1010F0006369D9F8142094F803C0AAEB03031344DE
:1011000023F07F40626A23690CF0010C002D40F04F
:10111000DF80B4F81EE0CDE900C37346B847DDE9CF
:101120000223002A18BF43F001030393E378E58309
:1011300065F30003E370B8F1FF0F84D1049C99F8C4
:101140000B3099F80A209A4208D10132D2B2022A11
:101150001ABF14462346002389F80B4009EB83038A
:101160000022C3F80CA0D9F8244089F81A204B4675
:10117000012204210320A4460FB0BDE8F04F6047D0
:1011800084760FB0BDE8F08F029B002B00F08C80BE
:10119000039B002B80D1D9F81C309A45FFF47CAF1B
:1011A000B8F1FF0F7DD0029BE78B09939C46A38B80
:1011B0006168CDF818B0BB429ABFFB1A9BB23B46A0
:1011C00003FB0113CDE907A805934FF0000E43463A
:1011D0000B92DDF824800C95CDF824C0A3468A46F6
:1011E00084460D97CDF8289003EB430306EB0312DA
:1011F0001B0191688E44F04548D3906A9469002899
:101200003FD0006800283CD0D58B978B5068AF4208
:1012100040F29380002840F09780BCF1000F32D05C
:101220008146DCF8000028B1029919B97444A04243
:1012300080F0BD80AF4226D8D0789BF8032000F024
:10124000010402F00105A54205D34240D1071AD49A
:10125000B9F1000F17D060465C46DDF820800C9D88
:10126000DDF824C00D9FDDF82890DDE906BA0028DE
:1012700040F09680CDF808C013E7A378013BA37037
:1012800059E7002CC0D1F35CFF2BADD16046DDE9FE
:10129000088C5C46DDE906BA0B9ADDF82890CDF89B
:1012A00008C0002800F09080002514E7029B5BB383
:1012B000039B002B7FF4F4AED9F81C309A45FFF461
:1012C000EFAEB8F1FF0F7FF46EAF03990D460BE759
:1012D000CDE900C34FF6FF73B8472CE7039B63B912
:1012E000D9F81C309A4508D3B8F1FF0F54D04FF00D
:1012F000040CE78BCDF824C059E704230293037A4A
:101300005A077FF4C9AE02E0029D0021ECE6A18BF2
:10131000E28B91423FF6C0AE012262F302030372F8
:10132000E78BBEE6D9F81C309A45FFF4B1AEB8F1B0
:10133000FF0F7FF438AF039DCDE668B9BCF1000F15
:101340007FF46EAFE14677E7BAF1000F20D1BCF130
:10135000000F98D0D14664E7BAF1000F12D0A5EB88
:1013600007091FFA89F9411A00FB091105988842FB
:101370002CBF4FF000094FF00109BCF1000F7FF4C2
:1013800050AF57E7D146BCF1000F7FF44AAF51E7A9
:10139000A946E8E7A278B8E70423039D02939AE6FA
:1013A0000168CDF808C000293FF476AE70E65C46CF
:1013B0000146DDE906BA6046DDF820800C9DDDF8C7
:1013C0002890DDF824C0ECE7054601468CE600BF16
:1013D000837E002B40F034832DE9F04F477E8DB0A3
:1013E0008346002F76D1837AC27A012141769A42D0
:1013F0004169079100F025830133DBB2022B12BF54
:101400001A463A463B4600EB82028372D268079B3B
:101410000592134423F07F43436101259BF8183064
:10142000089302F0C5FF9BF80920DBF80030019318
:10143000531EDBF804600490DBB2002A00F01F8426
:10144000CDE90A7506EBC30AFF2303930696D94636
:10145000DAF804704FF0000B9AF803109AF8025073
:1014600005EB45046B1CA9424FEA0418DBB207EBFD
:10147000041460D09AF800209A4208BF00238AF82A
:10148000023017F80820042A3AD9082A2CD86178A3
:10149000019801EB410300EB03161B01B0780293A6
:1014A00073781B1A13F0FF032CD1062A1CD199F86C
:1014B0001B308B4250D007F808B0A36A84F802B002
:1014C000002BC9D0E16A002098479AF803109AF8D7
:1014D0000250C5E7446A0421034601220420A446C1
:1014E0000DB0BDE8F04F604707F808B04FF00103BA
:1014F000A370A36A002BAFD0E16A01209847ABE745
:101500001D46ADE7052A1ED162684AB9A2683AB9FC
:10151000E2682AB922691AB9626932F07F42E3D0DF
:10152000012B29D00421D9F824404B46012208463A
:10153000A0478AF80250069A5245AAF1080300F023
:10154000E0809A4684E7012B00F0A480062AE9D1C6
:1015500099F81B308B42AED16168D9F814208B1AF0
:101560001D0240F1BD80059B521A22F07F4293423A
:101570008CBF9B1A0023B7E04846FFF79DFBB06085
:10158000D9F814E0049B059AA3EB0E0323F07F43E4
:101590001344984240F2AF80C01A7368002B46D0C3
:1015A000A38A002B43D0013B9AB2A2827568F38BC9
:1015B000A84218D81BE0726ADFF8A4C28BB2A9490E
:1015C00051186145A0EB050006D902F1E87202F559
:1015D000D43202F5A5720138316AF383521A72626D
:1015E0008542A28A03D2934203F1FF31E3D89A42A3
:1015F0001CD9316A099706E0726201339BB2F3830A
:10160000A28A9A4211D9726ADFF858C2944F0A44EA
:101610009444BC452844EFD8A2F1E872A2F5D43234
:10162000A2F5A57272620130E7E7099FB283636891
:10163000B16A0344B360A26873691344736129B14A
:101640000B681BB1D4E901329B1A4B60049A7146B6
:101650003046FFF763FBE268B3691344B361226964
:1016600093428CBF9B1A0023B361A37D1BB1F27818
:1016700063F30002F270E37D13B1013B86F82C3076
:10168000DDE90121039B535473786278039201339F
:10169000737010E7062A3FF40AAF4846FFF70CFBC9
:1016A000B378B060737099F81B2063789A427FF426
:1016B00002AF17F80830062B3FF44EAFFF2389F82E
:1016C0001B3017F80830062B3FF446AF082B3FF4C9
:1016D00043AF0499D9F814208B1A1D023FF543AF8C
:1016E000059A23F07F431344D9F81C209A4288BFFF
:1016F000C9F81C30DFE6726913441B1A73610020BD
:101700004BE7DDE90A75CB469BF81860002D00F029
:101710001781049B079ADBF800809B1A23F07F4A0D
:10172000089BF51A18BF0125FF2E08BF2C465FD075
:101730004FF00009CDF804900497DDF8149005955A
:1017400006EB460508EB05142D01A2684A4500F298
:101750006882019BA178E08B1344019363785B1A44
:10176000DBF81C108A4234BF891A0021A9EB020958
:10177000AAEB020A24BF4FF0FF328BF81B20CBF8F4
:101780001C10A16AA769DBB2002900F0CC800A68AE
:10179000002A00F0B480002F40F0B480022B00F04B
:1017A0003B820022A26018F805208BF8182061689F
:1017B000A26A002974D122B1127A02F00702012A2A
:1017C00052D03BB1012B00D020B1236A13B1616A22
:1017D00001209847A37863709BF81860FF2EAFD163
:1017E000DDE90475089BFF2B0CBF2C4645F0010476
:1017F00003995846FFF704FBCDE90247DBF800A048
:10180000CDF804B04FF0000C019B187EFF2800F0CB
:10181000398204464FF0FF0800E01C4604EB440305
:101820000AEB03151B01A96A8E4629B10A7A02F058
:101830000702012A00F00B811AF80330FF2BA046A3
:10184000EBD1DDE90247DDF804B0BCF1000F40F058
:101850009280089B834240F08E80002C7BD08EE0EB
:10186000592B177F5A2B17FFA378C4F80890637081
:10187000079B019ADBF814109A1822F07F42204649
:10188000FFF74CFA039B08F80530637803960133A1
:10189000DBB263709BF81860FF2E7FF451AF9FE7B7
:1018A00022B1137A03F00703012BDDD0B4F81EE058
:1018B000BEF1000F40D1B4F81CE07046D4E908C373
:1018C00000220294BC4FBD4C6344DF19A74200F1D3
:1018D000FF300A4406D8A3F1E873A3F5D433A3F587
:1018E000A5730132441CEDD1029C94F82C70636204
:1018F000002F00F08480A260A4F81EE0B8E7002F5B
:101900003FF44FAF022B7FF44CAF00287FF449AF78
:101910000A7A02F00702012A3FF443AFCBF81C70A9
:101920008BF81B603DE7002F3FF43BAF022B7FF4A9
:1019300038AF0028F2D034E7A37863700020BDE709
:1019400058460399FFF75CFA9BF81800089B8342FE
:101950000ED19E420CD100238BF819309BF81A301F
:10196000002B49D0DBF824405B4601220321B5E57A
:10197000FF2800F09281089BFF2B00F06B81DBF8C1
:10198000003000EB400003EB0013D3F80880B8F1FF
:10199000000F59D002F00CFD0A260446DBF8143083
:1019A000E21A22F07F42904506F1FF3602F1030170
:1019B0001AD941452CBF5B18434423F07F45284684
:1019C000DBF82830984702F0F3FC031B2D1B23F0B3
:1019D0007F43023325F07F45AB4206D90EB1044662
:1019E000DCE700DE0446D9E7012700238BF8193035
:1019F0009BF81A303B43B5D10DB0BDE8F08F92454E
:101A00007FF679AF6C48CDF8088006946B4C634440
:101A100003EB00080137A0450A44BFB206D8A3F182
:101A2000E873A3F5D4330132A3F5A5739245EDD83D
:101A3000069CDDF80880636277441FFA87FE5AE748
:101A400070473D460597E9E48BF819808AE7AA6854
:101A5000002A40F03A81D5F818B0BBF1000F06D14A
:101A60000A68002A00F03D818E464FF0040BDEE943
:101A70000029914580F0E380A2EB090C1AF80320BD
:101A8000FF2A00F0DC800199CDF81C80C969ACEB1D
:101A90000B000E1D0021CDE90594049099460F46D8
:101AA0000846344613460BEB0708C4453FD303EB07
:101AB00043030AEB03121B019668304404287FD9C4
:101AC000061F3E44664528BF66460BEB04018C4565
