:020000040000FA
:10C000003DB8F3960000000000020000704E0000F2
:10C010000000000000000000000000000000000020
:10C020000000000000000000000000000000000010
:10C030000000000000000000000000000000000000
:10C0400000000000000000000000000000000000F0
:10C0500000000000000000000000000000000000E0
:10C0600000000000000000000000000000000000D0
:10C0700000000000000000000000000000000000C0
:10C0800000000000000000000000000000000000B0
:10C0900000000000000000000000000000000000A0
:10C0A0000000000000000000000000000000000090
:10C0B0000000000000000000000000000000000080
:10C0C0000000000000000000000000000000000070
:10C0D0000000000000000000000000000000000060
:10C0E0000000000000000000000000000000000050
:10C0F0000000000000000000000000000000000040
:10C10000000000000000000000000000000000002F
:10C11000000000000000000000000000000000001F
:10C12000000000000000000000000000000000000F
:10C1300000000000000000000000000000000000FF
:10C1400000000000000000000000000000000000EF
:10C1500000000000000000000000000000000000DF
:10C1600000000000000000000000000000000000CF
:10C1700000000000000000000000000000000000BF
:10C1800000000000000000000000000000000000AF
:10C19000000000000000000000000000000000009F
:10C1A000000000000000000000000000000000008F
:10C1B000000000000000000000000000000000007F
:10C1C000000000000000000000000000000000006F
:10C1D000000000000000000000000000000000005F
:10C1E000000000000000000000000000000000004F
:10C1F000000000000000000000000000000000003F
:10C2000080110020A5CA000033F9000091CA000087
:10C2100091CA000091CA000091CA0000000000000D
:10C2200000000000000000000000000081CB0000C2
:10C2300091CA00000000000049CD000091CA000032
:10C24000C1CD0000C1CD0000C1CD0000C1CD0000B6
:10C25000C1CD0000C1CD0000C1CD0000C1CD0000A6
:10C26000C1CD0000C1CD0000C1CD0000C1CD000096
:10C27000C1CD0000C1CD0000C1CD0000C1CD000086
:10C28000C1CD0000C1CD0000C1CD0000C1CD000076
:10C29000C1CD0000C1CD0000C1CD0000C1CD000066
:10C2A000C1CD0000C1CD0000C1CD0000C1CD000056
:10C2B000C1CD0000C1CD0000C1CD0000C1CD000046
:10C2C000C1CD0000C1CD0000C1CD0000C1CD000036
:10C2D000C1CD0000C1CD0000C1CD0000C1CD000026
:10C2E000C1CD0000C1CD0000C1CD0000C1CD000016
:10C2F000C1CD0000C1CD0000C1CD0000C1CD000006
:10C3000008B50549054803F033FA0549054803F027
:10C310002FFA002008BD00BF00C00000BC0A0100C9
:10C32000D20A0100DD0A0100014B1B68184700BF5B
:10C3300000000020014B1860704700BF0000002083
:10C3400030B5044685B00D4610220021684604F041
:10C3500095F902238DF802302A46044B01932146B9
:10C36000684602F051FF05B030BD00BF29C3000090
:10C3700080B505460E461746984602F0E9FC03468E
:10C3800000F030FDDFF81890044649F800304246CE
:10C3900030463946A84754F8090000F0BFFC00BFFA
:10C3A000080000002DE9F047058B044628071746D2
:10C3B0000CD501290CBF45F0100545F0200525835B
:10C3C00087F31188BFF36F8FBDE8F087022905F06E
:10C3D000070540F09480204603F0D7F9052864D87B
:10C3E00001A353F820F000BFC1C30000FFC4000048
:10C3F000ABC400006DC4000087C4000099C40000F5
:10C4000001F007035A1F012A1FD8002221F007015B
:10C41000062BD4F8008089B2C4E9002209D1434632
:10C4200003E0628B013262831B68002BF9D141F07B
:10C4300002012183204603F0A8F94FF000090028EB
:10C440006DD041F02001218369E0042B0AD121F055
:10C45000070189B22183204603F097F910B141F01A
:10C46000200121834FF00008C14658E02369D3F82A
:10C470000090238B23F0070343F0060323834FF040
:10C48000000846464BE02369D3F80490238B23F041
:10C49000070343F00403F1E72369D3F80890238BE3
:10C4A00023F0070343F00503E8E74FF00008C14617
:10C4B000E7E7012243F00803238387F31188BFF3E2
:10C4C0006F8F002A3BD1B8F1000F4AD1B9F1000FAC
:10C4D00002D02D492046C847EFF31187202383F36C
:10C4E0001288BFF36F8F238B23F008039BB2238343
:10C4F000D9063FD523F01002228303F007056669B1
:10C50000218B002EBFF67CAF0023D4F8008021F0F1
:10C510000701C4E9003341F0010121839946238BCF
:10C5200003F0070AAA4502D0A268002AC1D1B8F1D7
:10C53000000F02D1B9F1000FDAD00022BAE7A168EA
:10C540000029C0D00D680029BDD04F68334652463F
:10C550002046B8471DB12B6829461D46F3E72B46F8
:10C56000FAE74146334652462046D8F8008003F0A9
:10C5700038F9A8E79A067FF523AF23F0200222833B
:10C5800003F0070527E700BF0FF80000014B036029
:10C5900000207047E809010008B50348034A00215C
:10C5A000121A03F0BEF908BDC0000020900300205D
:10C5B0000748084A084908B5121A03F0B4F90748B1
:10C5C000074A0849BDE80840121A03F0ACB900BF99
:10C5D00000000020C0000020AC0F0100000000207F
:10C5E00000000020AC0F010038B505460C4699B19B
:10C5F000D1E901230F48096803F0BAF8D4E904230C
:10C60000E1680D4803F0B4F8E1690C4803F0B0F8B4
:10C61000A1690B4803F0ACF8012D05D1EFF30581BA
:10C620000848103903F0A4F821462846BDE83840F0
:10C6300001F0EEBFFE0A01002E0B01005E0B0100AF
:10C640006E0B01009D0B010030BFFFF7FDBF00BF67
:10C650002DE9F0410B4EDFF8308006EB0807CC1BCC
:10C66000054632460949204603F0FAFFA019424622
:10C670000021083C04F002F82C6707F10800BDE82F
:10C68000F08100BF0000000004000000D809010094
:10C690002DE9F843324D804632488946174603F06B
:10C6A00067F8AB6ADE0622D52F4803F061F8112443
:10C6B000AB6A1D0703D52D4803F05AF81224284D04
:10C6C000AB6A980715D52A4803F052F86E6BAB6A2F
:10C6D000190642D52748314603F04AF8B9F1000F50
:10C6E00003D0AB6A23F08003AB62132403E0102471
:10C6F000DEE76FF015061A4DAB6ADA0703D51E4860
:10C7000003F036F81424AB6A9B0603D51B4803F0EC
:10C710002FF81524124B9A6AD50602D49A6A90070C
:10C720000AD55B68190507D54146304600F0ACFADA
:10C7300010B180F309880224094B9A6A920642BF1D
:10C740005A6A22F400525A629A6A42F0FF029A62CE
:10C7500000233B702046BDE8F8836FF01506C4E760
:10C7600000ED00E0B10B0100C80B0100FC0B010063
:10C77000100C0100290C0100400C0100600C0100AC
:10C7800010B51D4C1D4802F0F3FFA36A990130D586
:10C790001B4802F0EDFF1E20A36ADA0103D51948F9
:10C7A00002F0E6FF1F20144CA36A1B0303D51648B2
:10C7B00002F0DEFF2120A36A590303D5134802F0DB
:10C7C000D7FF22200C4CA36A9A0303D5104802F02D
:10C7D000CFFF2320A36ADB0303D50E4802F0C8FF76
:10C7E0002420054A936A6FEA03436FEA1343936276
:10C7F00010BD1D20D0E700BF00ED00E0900C01004F
:10C80000A90C0100BD0C0100D80C0100F70C0100BF
:10C810001D0D0100380D010070B5244C064624485A
:10C820000D4602F0A5FFA36AD90435D5214802F0D0
:10C830009FFF1720A36A1A0503D51F4802F098FF2F
:10C8400018201A4CA36A9B050FD51C4802F090FFD4
:10C85000A16BA36A180407D5194802F089FF1EB11D
:10C86000A36A23F40043A3621920104CA36A59055C
:10C8700003D5144802F07CFF1A20A36ADA050DD50F
:10C88000114802F075FF1B20084A936A43F47F4366
:10C89000936200232B7070BD1620CBE7A36A9B0424
:10C8A000F2D50A4802F064FF1C20EDE700ED00E03D
:10C8B000640D01007B0D0100FC0B01008D0D0100DA
:10C8C000A70D0100BD0D0100D90D0100600C010094
:10C8D0002DE9F0415D4B5F688AB00446C7F3080656
:10C8E000002585F31188BFF36F8F02F07F43B3F10A
:10C8F0007F4F06D102F00C03082B13D1544802F0ED
:10C9000037FF00252C464FF00008F31E8DF80780F6
:10C91000092B00F28C80DFE803F00A80847C8A8A8D
:10C920008A8A8A8810074CBF0C460125EBE74948E4
:10C93000464E02F01DFF8DF80780F36A9A0704D572
:10C94000454802F015FF00232AE0F36A002B01DAC4
:10C950004248F6E7F36A5B00F5D5414802F008FF6C
:10C960007369A26943F480737361BFF34F8FBFF3A0
:10C970006F8F32F8023C726922F480727261BFF3E9
:10C980004F8FBFF36F8F03F47F42B2F55F4F27D114
:10C99000DBB2022B24D12168324802F0E9FE236881
:10C9A0009DF80720CAB902AE04F12007206861682B
:10C9B000324603C20834BC421646F7D1099A002D0C
:10C9C00041D0C2F3080121B96FEA52226FEA422234
:10C9D000099202A91846FFF707FE0AB0BDE8F081E8
:10C9E0001A4B9A6AD2B232B10DF1070201212046E8
:10C9F000FFF74EFE0FE09A6A12F47F4F05D00DF15B
:10CA000007010120FFF708FF05E09B6AB3F5803FAF
:10CA100099D3FFF7B5FE0346C2E70DF107020021E7
:10CA2000E5E70DF107010020ECE70F4889E70F4B20
:10CA30000F49104817F4F87FA6F1100208BF1946F5
:10CA400002F096FE7FE76FF30802C1E700ED00E019
:10CA5000200E01004C0E0100640E0100860E010044
:10CA6000950E0100B50E0100D20E0100F20D01007D
:10CA7000070E0100F70E0100044B5A6942F0100244
:10CA80005A615A6922F008025A61704700ED00E0CD
:10CA9000EFF30880EFF3098101B57246FFF718FF45
:10CAA00001BD00BF002080F31488BFF36F8F0F48D3
:10CAB00080F3088801F000FA00200D490860BFF3F8
:10CAC0004F8F00F02BF8202080F3118809484FF495
:10CAD0000461401880F30988EFF3148002210843B1
:10CAE00080F31488BFF36F8F00F09EF88011002050
:10CAF00094ED00E0C00300200749D1F89020002306
:10CB0000C2F307221846934200DB7047C1F8983001
:10CB1000C1F8A0000133F6E700ED00E008B572B6F9
:10CB2000002383F31388FFF7E7FF144B4FF0FF3226
:10CB3000C3F88020C3F88420C3F88820C3F88C2071
:10CB4000C3F89020C3F89420C3F89820C3F89C2021
:10CB5000C3F88021C3F88421C3F88821C3F88C214D
:10CB6000C3F89021C3F89421C3F89821C3F89C21FD
:10CB700062B6BFF34F8FBFF36F8F08BD00E100E0D7
:10CB80001EF0040F0CBFEFF30880EFF309808169FA
:10CB900011F8021C0229FFD001B5724602F0C5FE51
:10CBA00001BD00BF40B2002807DB044A4109012350
:10CBB00000F01F00834042F82130704700E100E0A0
:10CBC000054B420900F01F0053F82220012303FA0D
:10CBD00000F01040704700BF00E100E040B20028C4
:10CBE000A8BF00F1604001F10101B8BF064B4FEA58
:10CBF0004111ACBF00F5614000F00F00C9B2B4BFF5
:10CC0000195480F80013704714ED00E0044B054AF6
:10CC100023F07F039360BFF34F8FBFF36F8F704795
:10CC200000C2000000ED00E008B5FFF7EFFF074A83
:10CC3000D2F8883023F47003C2F88830FFF7ACFCD8
:10CC4000FFF7B6FC00F0B0F801F0AAFD00ED00E03F
:10CC500042F8203C009B42F81C3C0A49019B42F8E8
:10CC6000183C029B42F8143C21F001014FF0807304
:10CC700042F8043C42F8081C0023203A026543674E
:10CC8000704700BF71C30000094A0346906870B145
:10CC900013F1160F006E05D0A0F14002934205D3A8
:10CCA000834203D2814228BF002070470020704792
:10CCB0005C03002008B515460B4A0C4B9060026FD0
:10CCC0001A600E4600F0A0F82C4686F30988002072
:10CCD000034B98472046002100220023014C2047A7
:10CCE0004FF9000071C300005C03002080020020A7
:10CCF000014B10221A61704700ED00E0054B5A69A4
:10CD00009B689A421FBF044A536843F080535360A4
:10CD1000704700BF5C03002000ED00E0084B9B68FB
:10CD200083420BD1EFF3058343B1064B5A6842F0BF
:10CD300080525A605A6A22F400425A6202F00EB8D7
:10CD40005C03002000ED00E014498A684FF03000D9
:10CD50001044EFF3098C80E8F01F202080F3128844
:10CD6000BFF36F8F0E4F4FF000664A698A603E60D6
:10CD7000106F0C4C2060506F0023536780F31188B4
:10CD800004B5104600F040F8BDE8044002F1300060
:10CD900090E8F01F8CF30988704700005C030020C6
:10CDA00004ED00E080020020044800232021C21886
:10CDB0000133302B82F80013F9D1704700E100E015
:10CDC00008B5EFF30583064A103B02EBC30152F8A6
:10CDD000330049688847BDE80840FFF78FBF00BFB0
:10CDE0000C08010001480068704700008002002024
:10CDF000024B034A0348012100F076B800000420EA
:10CE000000000020E8090100036E054A403B136062
:10CE1000044B4021C2E901131046012100F06EB815
:10CE20008402002000000B15084AC2F898000B6825
:10CE300023F01F03034343F01003C2F89C308B68B8
:10CE400043F00103C2F8A030704700BF00ED00E0DE
:10CE50002DE9F043DFF8608085B00E461F4604469A
:10CE60004FF00009B14523DA6068D8B13FB1411EE7
:10CE700008421BD11F2819D92368194216D12368EB
:10CE8000019302F087FDA36803430393D8F8905001
:10CE9000C5F30725D0B2013DA84207D801A9FFF785
:10CEA000C3FF421C09F101090C34DBE76FF01502E6
:10CEB000104605B0BDE8F08300ED00E0044B05220C
:10CEC000C3F89420BFF34F8FBFF36F8F704700BF3D
:10CED00000ED00E0BFF35F8F024B0022C3F8942007
:10CEE000704700BF00ED00E010B5034C012322782D
:10CEF000FFF7AEFF207010BD8803002008B50B4A75
:10CF000000231278FFF7A4FF10F1160F07D0084A8C
:10CF10000021D2F89030C3F30723984200DB08BD0C
:10CF2000C2F89800C2F8A0100130F2E78803002090
:10CF300000ED00E02DE9F0435A4B5B4DD3F8903003
:10CF40002C68C3F307239C4285B000F2A780FFF74B
:10CF5000C1FF00200C2684421AD1544EDFF84491C0
:10CF600034706846FFF712FB514C524D8046002743
:10CF7000B84514D133784B490020D1F89020C2F342
:10CF800007229342C0F28480FFF798FF002045E01B
:10CF9000696806FB0011FFF747FF0130DBE70098E7
:10CFA00000EB07114FEA071CCB682340B3F5000FD5
:10CFB0004DD00AD8B3F5001F33D0B3F5800F3BD066
:10CFC000B3F5801F13D00137D2E7B3F1007F47D00C
:10CFD000B3F1805F4DD0B3F1807FF4D150F80C30C5
:10CFE00088684A6802F0D6FC40F0887009E050F882
:10CFF0000C3088684A6802F0CDFC40F0885040F45C
:10D000003020CDE901230390D9F890303078C3F374
:10D010000723013B984234D96FF0150005B0BDE8F5
:10D02000F08350F80C3088684A6802F0B3FC40F096
:10D03000885040F40020E4E750F80C3088684A68D3
:10D0400002F0A8FC40F0C06040F40030D9E750F88E
:10D050000C3088684A6802F09DFC40F08270D0E78E
:10D0600050F80C3088684A6802F094FC40F4802044
:10D07000C7E750F80C3088684A6802F08BFC2843F8
:10D08000BFE701A9FFF7D0FE3378013333709AE789
:10D09000C1F89830C1F8A00001336EE74FF0FF30BF
:10D0A000BCE700BF00ED00E0F409010088030020A8
:10D0B0000000F0FF0000021108B5024B1B68984702
:10D0C000002008BD90020020034B044A18609378AA
:10D0D00043F0020393707047900200200400002088
:10D0E00008B50649064821F00701C1F1005202F5D2
:10D0F000802202F0FAFA002008BD00BFC71100200C
:10D10000940200200C4B0122C3F840254FF08043CD
:10D110004FF08051C3F87825D1F83001082805D1A7
:10D12000D1F83411022908BFC3F838260122C3F808
:10D1300080250020704700BF00E0014048B1054B4A
:10D14000054A1B68B3FBF2F35843044B43F0010359
:10D1500018477047A400002040420F00E00901007A
:10D1600008B5054A054B136010463F23536000F095
:10D1700079FF002008BD00BFA0020020FFFF0F00C4
:10D18000084B70B5C31A0D4607499B100446594316
:10D190000648402202F01CFC2B4601462046BDE812
:10D1A00070401847BC020020B76DDBB69C07010039
:10D1B00073B50C4C0C4A4023041B00930D460B46E0
:10D1C0000A49A41061430646094802F02CFC0146B6
:10D1D00028B130462B4602B0BDE87040184702B077
:10D1E00070BD00BFBC02002095FA0000B76DDBB631
:10D1F0009C0701000022F8B5012105461046FFF703
:10D20000EDFC104800F056FF0446B8B900F072FF7C
:10D210002F690D49384602F007FB031E09DB012682
:10D220003E642D69084905F11C0002F0FDFA031E59
:10D2300002DA1C462046F8BDEE64FBE76FF00404FA
:10D24000F8E700BF75D30000140A01001FB50022E3
:10D250000123CDE902236C46074A6B46CDE9004421
:10D2600002F011FC28B94FF480420023684601F017
:10D2700031FB04B010BD00BFA7FA000010B5EFF3FA
:10D280001184202383F31288BFF36F8F074A13683A
:10D2900023F00201DB07116002D4012002F0ACFD93
:10D2A00084F31188BFF36F8F10BD00BF0C03002003
:10D2B00030B4104B0C2202FB003301460020D3E9AE
:10D2C0000E529863EFF31180202484F31288BFF389
:10D2D0006F8F1C6C04F0C00444F002041C6480F3E3
:10D2E0001188BFF36F8F1DB12B46034830BC184720
:10D2F00030BC7047BC0200209C07010010B4EFF363
:10D300001180202282F31288BFF36F8F17490B68B8
:10D3100043F0020413F001030C601AD04FF0804375
:10D32000D3F80C14D3F80C3413F0010311D0EFF33D
:10D33000118182F31288BFF36F8F0D4A136C03F0D3
:10D34000C00343F00203136481F31188BFF36F8FAE
:10D35000012380F31188BFF36F8F1BB110BC002035
:10D36000FFF7A6BF10BC012002F03EBD0C03002059
:10D37000BC02002010B1012804D07047034B1B6C85
:10D380005B0701D1FFF794BF704700BFBC020020CC
:10D390002DE9F0413849BFF35B8F8046012251E807
:10D3A000003F41E800200028F9D1BFF35B8F33B97B
:10D3B000324933484B60CB608A6002F048FA08F18A
:10D3C000FF33012B4BD8B8F1010F07D14FF0804349
:10D3D000D3F81C3403F00303012B40D003F043F8CF
:10D3E000054658B1EFF31186202383F31288BFF36B
:10D3F0006F8F0125234F4FF080441EE0224B1B7896
:10D40000002BEFD04FF080430222C3F808230646DA
:10D41000F0E735B3304602F0AEFAD4F8183563B908
:10D42000D4F804214AB1C4F80431D4F804310123FA
:10D43000C4F81835C7F88031A360D4F81824D4F89C
:10D440001834D203E5D503F00303012B02D0B8F161
:10D45000010FDED155B186F31188BFF36F8FBDE8A0
:10D46000F0810021212003F072F8D6E74FF08043CD
:10D470000222C3F80423F2E7B8020020A802002029
:10D48000D802002000E100E08B03002008B5074827
:10D4900002F0C8FF38B10648FFF716FE0448FEF751
:10D4A00049FF002008BD6FF01200FBE7F007010004
:10D4B000B5D400000A2838B5074D044604D1AB683E
:10D4C0000D215B6828469847AB6803485B68E1B26A
:10D4D0009847204638BD00BFF00701002DE9F04312
:10D4E000476840F20636D0063B7C87B002EA060663
:10D4F00054BFC2F3401C4FF0030C01F01F05B6F5FA
:10D50000837F144645EA43158DF803C044D00DD8F7
:10D51000062E16D005D8A6B1022E3FD06FF015000A
:10D5200037E0B6F5807FF9D101260AE040F2022209
:10D53000964235D0B6F5407F34D0B6F5007FEDD1B8
:10D540000226220330D57A6801238B40C2F80835C1
:10D55000B868A0BB05F01F036D092DD0012D77D150
:10D560003E4A02EB8302C4F30043D2F8001783F073
:10D570000103C4F3404444EA430421F4E16144EA72
:10D580008C0421F0070144EA06230B43C2F800375C
:10D59000002007B0BDE8F0830726D2E70426D0E7D5
:10D5A0000526CEE70326CCE7630341BF01237A6853
:10D5B0008B40C2F80C35CBE74FF0A042D1E70DF11C
:10D5C0000202294602F088FE14F4403F80460CD146
:10D5D000B868294602F0B5FEB8F1000FD8D19DF821
:10D5E0000210B86800F01CFFD2E74FF0000901AB51
:10D5F000CDE90199CDE90439CDF80C90B86803AABA
:10D60000294602F03EFD4845C2DB14F4003314D035
:10D61000C4F300449DF803308DF80E3084F001040B
:10D620008DF80C608DF80D40B8684B4603AA29466A
:10D6300002F0DAFD0028CFDAAAE7CDE904330DF1D4
:10D6400003030393B86803AA294602F01AFDF1E721
:10D6500003F5E07350F82330FFDE00BF00030050F5
:10D66000420970B5034602D0012A17D070BD0D4E95
:10D67000326951680029F9D003F01F0301250C68B5
:10D680009D400029F2D08A682A4002D04B6830467B
:10D6900098472CB1236821461C46F2E7024EE7E783
:10D6A0002346F8E7D4070100B807010038B54568FC
:10D6B000A86890B102F03FFE014670B9A86802F078
:10D6C0001EFE044658B902460649A86802F001FE4B
:10D6D000224605210620FFF781FA002038BD6FF0B1
:10D6E0000400FBE761D60000F0B545681646A8685F
:10D6F0002A7C01F01F0487B044EA4214002869D054
:10D70000B6F5001F04D1214602F06EFE002052E063
:10D7100001AA0020B6F5800F0190506037D1B3F117
:10D72000007F14BF052304238DF804300023CDE9C6
:10D7300004230393EB6823FA01F111F001010DF1C9
:10D7400003073AD1B6F1A07F37D104F01F03620975
:10D7500003F5E07326D0012A3FD1214A52F8233045
:10D76000DB072AD4A8683A46214602F0B5FD1630F8
:10D770001BD00297A86803AA214602F082FC002869
:10D7800019DBA8680122214602F0DDFDBEE7B3F1F6
:10D79000C06F05D0B3F1007F14BF01230223C3E79C
:10D7A0000323C1E74FF0A042D8E7A868394600F04C
:10D7B0003DFE0028DDDA07B0F0BDA8683A462146F4
:10D7C00002F08AFD0028D5D19DF80310A86800F06A
:10D7D00027FECFE76FF08500EDE751F82330FFDE3D
:10D7E00000030050036803F01F025B09026004D0CD
:10D7F000012B034818BF002070474FF0A04070472E
:10D80000000300502DE9F04F00EB8109654985B018
:10D810001546834640F2FF1AD94503D1002005B0D2
:10D82000BDE8F08FDBF80020C2F3C72818F0080825
:10D83000C2F3C320C2F3080440F0B1805A4B5445F0
:10D8400008BF4FF0FF34B2F10C5F1E5C4FEA12606C
:10D8500015D2222815D8DFE800F017272B382E34F0
:10D8600038141414143E48141414141414141414F6
:10D870004B86898C1414148F9396999C9F004E2884
:10D8800026D06FF08500CAE7C5F80C45621C67D04A
:10D8900003A80394FFF7A6FF039A012707FA02F2F1
:10D8A000C0F80825384639E0C5F81445002718E0C7
:10D8B000C5F80845EAE7C5F808450027601C22D1ED
:10D8C0004EE0C5F80C450127F8E7C5F81045EDE72F
:10D8D000C5F81445DAE7C5F80845002EE6D100275B
:10D8E0000626631C3CD0002018E0C5F80C45F4E780
:10D8F000C5F86045BBF80220671C02F001022FD07A
:10D90000002AC5D1012703A80394FFF76BFF039AF0
:10D910008446012000FA02F2CCF80C25DBF8002046
:10D92000019202F4004CBCF1000F08BF804603A82E
:10D9300018BF01270394FFF755FF039C019A00EBE2
:10D940008400C2F3412CD0F80047320242EA8C0234
:10D9500042EA08020C40224342EA4702C0F800278C
:10D960000BF1040B58E7C5F86445C3E7C5F86845F3
:10D97000C0E7C5F86C45BDE7C5F824450127B0E709
:10D98000C5F8284582E7C5F83045F7E7C5F83445BE
:10D99000F4E7C5F83845F1E7C5F83C4576E76FF0A0
:10D9A00015003CE7F0F8FCFF8F0F01002DE9F04176
:10D9B000044647680D4602F056FD88B14FF0200836
:10D9C000EFF31186314688F31288BFF36F8F6068DA
:10D9D00002F0F5F850BB86F31188BFF36F8FEFE7C5
:10D9E0001F4B1B78002BE9D04FF02008642660689D
:10D9F00002F0E5F870B9012002F0A5F9013EF6D178
:10DA00000021212002F0A3FDF0E786F31188BFF387
:10DA10006F8FF5E7EFF31186314688F31288BFF375
:10DA20006F8F606802F0CBF80028EED0BB691D70E4
:10DA30006368BA691B680020C3F844250122C3F853
:10DA40004825C3F82001D3F82041C3F85801D3F882
:10DA500058019A6081F31188BFF36F8FBDE8F081A0
:10DA60008B03002070B5012383400F4ABFF35B8F07
:10DA7000DC4352E8001F01EA040542E80056002E8C
:10DA8000F7D1BFF35B8F4FF4803282400748C0F874
:10DA90000823BFF35F8FBFF36F8F03EA01000038E5
:10DAA00018BF012070BD00BF3803002000100140E6
:10DAB00070B41249D1E90034D01AC31844F10004FB
:10DAC00022F07F46C1E90034A6F50013B3F5400FFC
:10DAD00009D20B4B1B681A0A1B069C19094B42F111
:10DAE0000005C3E90045EFF31181202383F3128879
:10DAF000BFF36F8F70BC01F00DBB00BFD0000020E2
:10DB00003C030020D800002011B3BFF35B8F01233A
:10DB1000104A834052E800CF4CEA030C42E800C1AF
:10DB20000029F7D1BFF35B8F0B4A4FF4803383405A
:10DB3000C2F80433094BBFF35B8F1B68BFF35B8FE5
:10DB4000C340DB0742BF064B4FF40032C3F800214D
:10DB5000704700BF3803002000100140340300204C
:10DB600000E100E00D4B1868010A0006BFF35F8F6B
:10DB70000B4BD3F80435181841F10001B3F5801FA1
:10DB80000AD2084BD3E90023904271EB030303D27E
:10DB900010F1807041F10001704700BF3C0300208C
:10DBA00000100140D80000202DE9F04F85B0164646
:10DBB0001F469DF840A00446FFF754FF0190FFF771
:10DBC000D1FFB04271EB07035ED23E4B301A67EBD8
:10DBD0000101984271F1000109D36FF0150520464B
:10DBE0000199FFF791FF284605B0BDE8F08F364B4D
:10DBF00003EB0413D3E902239F4208BF964254D09B
:10DC000032494FF4803804F1500508FA04F8AD00A9
:10DC1000C1F848832046ADB202F079F826F07F4B78
:10DC200005F1804504F5A87305F58835DC464FF00D
:10DC300003090293029A2CF07F4341F82230C1F885
:10DC40004483D1F80435224A6FF00200C01A6044C0
:10DC500020F07F40904228D9286868B1D1F8043577
:10DC60000393A3EB0B0020F07F40B0F5000F1CD90D
:10DC7000204602F04CF8039BBAF1000FADD109EB3E
:10DC8000030C09F10109D5E7BAF1000FA5D1012371
:10DC9000104ABFF35B8FA34052E8000F184342E8DD
:10DCA00000010029F8D1BFF35B8F07490E982301CB
:10DCB00001EB0412C8500F9B5360C2E902670025B4
:10DCC0008DE700BF01008000C0000020001001406F
:10DCD000FDFF7F00340300207FB51C4C1C4BC4F8B3
:10DCE0000833C4F848331B4B00254FF0FF304FF08A
:10DCF000FF31C4F80855C3E902014FF48033C4F87A
:10DD00000433154B02264FF400320121C4F804639A
:10DD10001120C3F880212A46FEF760FF1120FEF78C
:10DD200041FF0E4A0123A360236013600C4B0D4A90
:10DD30000093CDE9015500232846FFF735FF304613
:10DD4000FFF726FB284604B070BD00BF001001405D
:10DD500003000F00C000002000E100E038030020B5
:10DD6000B1DA0000FFFF7F002DE9F7432E4CD4F815
:10DD7000043399070BD5D4F8043143B12B4A00235F
:10DD8000C4F80431D4F80431136801331360D4F8B3
:10DD90000433DA0343D5BFF35B8F254B53E8002FE1
:10DDA00022F0010143E800100028F7D1BFF35B8F98
:10DDB000D30702D4D4F840318BB30025C4F84051C6
:10DDC000D4F84031FFF7CEFEEFF31182202383F326
:10DDD0001288BFF36F8F174BD3E90267B042B94186
:10DDE00020D34FF0FF304FF0FF31C3E90201D3E9F8
:10DDF00000981D604FF48033C4F84833C4F8405194
:10DE0000D4F8403182F31188BFF36F8FB9F1000F5E
:10DE100005D0CDF8008032463B460020C84703B00D
:10DE2000BDE8F083A946EDE7001001403C03002067
:10DE300034030020C000002030B5431C124C85B0D4
:10DE400005D08442A8BF0446012CB8BF0124FFF7C7
:10DE500089FE0E4B0C4DD3E90013401AB0F5000FAC
:10DE600010D22218AA4228BF2A4652184FF00000AA
:10DE700007490091CDE9010043F10003FFF794FE4B
:10DE800005B030BD2A46F0E7FFFF7F00D00000203C
:10DE9000B1DA000008B5FFF765FE024B1B68C01A37
:10DEA00008BD00BFD0000020024AD2F80034002B89
:10DEB000FBD0704700E0014010B54FF08053D3F81D
:10DEC0003021082A4ED14FF080420021C2F80C11B7
:10DED000C2F81011C2F8381502F54042D3F8041404
:10DEE000C2F82015D3F80814C2F82415D3F80C147E
:10DEF000C2F82815D3F81014C2F82C15D3F814144E
:10DF0000C2F83015D3F81814C2F83415D3F81C141D
:10DF1000C2F84015D3F82014C2F84415D3F82414DD
:10DF2000C2F84815D3F82814C2F84C15D3F82C14AD
:10DF3000C2F85015D3F83014C2F85415D3F834147D
:10DF4000C2F86015D3F83814C2F86415D3F83C143D
:10DF5000C2F86815D3F84014C2F86C15D3F84434ED
:10DF6000C2F8703501F0DFFE18B1374B374AC3F8FD
:10DF70008C2601F0D8FE18B1354BFB22C3F81825CA
:10DF800001F0D1FE58B14FF080424FF08051D2F8ED
:10DF9000E43ED1F8581261F30303C2F8E43E01F005
:10DFA000C2FE20B12B4B4FF40072C3F840264FF055
:10DFB0008053D3F83031082B17D14FF08043D3F87A
:10DFC0000024D20744BF6FF00102C3F800244FF0D1
:10DFD0008053D3F83431042B81BF4FF01023D3F892
:10DFE00008224FF08043C3F858254FF01023D3F890
:10DFF0000022002A03DBD3F80432002B22DA164970
:10E0000001234FF01020C1F804351224FFF74CFF14
:10E01000C0F80042FFF748FFC0F80442FFF744FF92
:10E020000023C1F80435FFF73FFFBFF34F8F0B49C3
:10E030000B4BCA6802F4E0621343CB60BFF34F8F0F
:10E0400000BFFDE710BD00BF005000404881030045
:10E0500000F000400090024000E0014000ED00E0D0
:10E060000400FA05014B1860704700BF4003002010
:10E0700010B5054B1868144601F067FE0028A4BFD0
:10E080002070002010BD00BF40030020024A012381
:10E090008340C2F80435704700F00140014B002076
:10E0A0001B68184744030020014B1B68184700BF3A
:10E0B0004403002010B50C4C237993B9012323713C
:10E0C0000A4B2060002818BF184600F049F850B9E4
:10E0D00023680748002BBDE8104008BF184600F031
:10E0E0008FB86FF0770010BD440300209DE0000062
:10E0F000A9E0000008B5064B1B683BB10020FEF705
:10E100005FFD18B9BDE80840FEF74CBD08BD00BF73
:10E110004403002038B54FF080440123C4F808338D
:10E1200063600023C4F80031D4F8003142F2107566
:10E13000D4F80C24D4F80C34D20307D5DB0705D56A
:10E14000012001F000FE013DF2D138BD01F063FE77
:10E150000028FAD0014B00225A71F6E74C03002048
:10E1600010B508490C794CB9012308600B7101F016
:10E1700052FE08B9002010BD4C71FBE76FF077002C
:10E18000F9E700BF4C0300204FF080430022C3F8A2
:10E190000021D3F80021094901221A60096811B150
:10E1A000C3F804237047D3F80021002AFBD00022D3
:10E1B000C3F80021D3F80031704700BF4C030020A2
:10E1C00010B54FF08043D3F80423D20715D5D3F808
:10E1D000002192B10022C3F800210121D3F80021CF
:10E1E000C3F8081301F017FE044B10B15A7922B995
:10E1F0005971BDE810401B68184710BD4C03002042
:10E20000074A137943B90121106011714FF0804220
:10E210001846C2F8183570476FF07700704700BF96
:10E220005403002010B54FF080431D4CD3F8181450
:10E23000D3F8182411F4803F1AD002F00302012A07
:10E2400001D092B900224FF08043C3F81825002274
:10E25000C3F80421D3F8042101229A6022688AB904
:10E26000D3F80421002AFBD014E001F0E5FDE9E732
:10E27000D3F81424D107E5D5D3F81C249207F4D49D
:10E2800022681AB10222C3F8042310BDD3F8042176
:10E29000002AFBD00022C3F80421D3F80431F4E7AC
:10E2A00054030020F8B54FF08043194FD3F80443CE
:10E2B000012504F01A04002604B9F8BDB4FA84F06C
:10E2C000C0F11F00830003F580739BB203F180430C
:10E2D00005FA00F2196892B224EA02040029EBD090
:10E2E0001E601B684FF08043022AC3F808230BD13D
:10E2F000D3F81814D3F81814890705D1C3F81855A2
:10E30000C3F804239D60D7E73B68C0B29847D3E7C2
:10E3100054030020036803F01F025B09026004D06D
:10E32000012B034818BF002070474FF0A0407047F2
:10E3300000030050034A430900F01F00D35C184457
:10E34000C0B27047970F0100024611F0010030B5CE
:10E3500015D18B07C1F3400022D51249D1F8200511
:10E3600050604FF08052C1F82005D2F83021082AC1
:10E3700008BFD1F82025003818BF012010E04FF069
:10E38000A0444FF08055D4F820351360C4F82035F0
:10E39000D5F83051082D08BFD4F82045002BD8D02F
:10E3A00030BD00BF00030050F7B504460846FFF734
:10E3B000C1FF04EB40060D46B38ADB072AD5204691
:10E3C00001F03DFE2946204601F0A9FD50B120464E
:10E3D00001F0BBFD276807EB80000023C0F8103573
:10E3E000C0F810352946204601F0D8FD0021B18241
:10E3F00001A80195FFF78EFF019B00EB8300074BFF
:10E40000D0F80027134043F00203C0F80037084655
:10E4100003B0F0BD6FF01500FAE700BFF0F8FCFFA5
:10E42000014801F0B0BC00BFA800002010B50448AE
:10E430000C4601F08AFC0028A4BF2070002010BD0B
:10E44000A80000202DE9F04F074689B057F8049B3B
:10E45000D9F80413C9B28346082241F00041484666
:10E4600001F0C5FD051E2FDA0023032106A8CDE922
:10E470000633FFF769FF634B01930DF118084FF066
:10E48000000A019A604912F8013B0192DA0803F090
:10E4900007038A5C22FA03F3DB071CD40AF10103A9
:10E4A000022B08F104084FF0010AEAD14FF00041B5
:10E4B0000022484601F09BFD032106A8FFF744FF18
:10E4C0000028D8D125F000450124002D40F084809B
:10E4D00009B0BDE8F08F4D4B53440293D8F800606B
:10E4E000002EDBD0029B96FAA6F61C78B6FA86F6CA
:10E4F00046EA44142046FFF71DFF0BEB4000F208EC
:10E50000818A18F802000594C1F3820303930093F3
:10E5100006F00706012303FA06F620EA060008F8CB
:10E52000020005A8FFF7F6FE059A039B02F5E072CC
:10E5300011F0100F50F82260C6F3014633D0009A54
:10E540003846214601F00BFD05A80594FFF7E2FED1
:10E55000059B03F5E073F6B250F82330C3F3014393
:10E560009E4207D10021204601F0CAFC31462046D8
:10E5700001F0C6FC05A80594FFF7CCFE059B01221F
:10E5800002FA03F3C0F820354FF08053D3F830314E
:10E59000082B01BFD0F82035D0F82035D0F8203531
:10E5A000D0F820359AE7022E14BF0221032120461D
:10E5B000039301F0A5FC039B032B03D0022E07D18C
:10E5C000012BD7D1009A2146384601F0C8FCD1E78B
:10E5D000032ECFD1022BF4E795FAA5F3B3FA83F318
:10E5E00004FA03F225EA020503F5A2720BEB4303DA
:10E5F00059F82220B3F87C10C2F30142384601F0EA
:10E60000AEFC62E7A70F0100A00A0100A70F0100FE
:10E6100038B5EFF31185202383F31288BFF36F8F92
:10E62000064B9C6801F011FF85F31188BFF36F8FD3
:10E630002046BDE83840FEF771BB00BF5C030020F8
:10E6400038B50A4B53F82040013053F82050A5420A
:10E6500000D838BD606830B1037EDB0701D401F01B
:10E66000C9FE0834F3E723689847FAE7A40A0100D3
:10E6700070B52A4B2A4C2B4D86B0012203201A700C
:10E68000FFF7DEFF00F0BAFD0420FFF7D9FF2646B2
:10E69000AE4204F130040FD300F096FA204CAC42A5
:10E6A00026D300F0A5FAFDF72BFE1F4A938923F02D
:10E6B0000103938106B070BD54F80C3C059354F8E7
:10E6C000103C049354F8143C039354F8183C029300
:10E6D00054F81C3C019354F8203C009354E90A235D
:10E6E00054E90C0100F01CF954F8303C5E65CEE7AB
:10E6F000D4E90A23B3F1FF3F08BFB2F1FF3F05D0D1
:10E7000052EA0301206803D101F03AFF3034C6E732
:10E710000649183000F06EFCF8E700BF8B030020BC
:10E720008C0901008C09010060010020290501000D
:10E7300070B5002386B00122CDE90423134E144D99
:10E7400001930F22CDE902321249142303FB005535
:10E7500006EBC01604464FF4C07000FB04110E4BCC
:10E7600000954FF4A072304600F0DAF8337C0B4A83
:10E77000EE6023F0040333744FF4046304FB0333AB
:10E7800013442C746B6006B070BD00BFE000002025
:10E790005C030020000C002051040100C003002095
:10E7A0007FB50020FFF74CFF284B83F30888284CE7
:10E7B000636943F4007363610025E02384F8223029
:10E7C000E57725766576A57684F82050636A43F46C
:10E7D000E023636284F82350FEF74EF9FEF788FACF
:10E7E0004FF0FF33A362E362FEF7A4FBFEF700FBEA
:10E7F0001848194C00F0E0F80120FFF721FF022033
:10E80000FFF71EFF00F01EFA144B15495C61154B13
:10E81000059301234FF48062CDE90353CDE90155FF
:10E82000114B0095204600F07BF8237C064623F030
:10E8300004032046237401F054FE2846FFF778FFB6
:10E84000094A31462046FEF735FA00BF000C002089
:10E8500000ED00E0E0010020600100205C030020EA
:10E86000800D0020530F010071E6000070B5EFF33A
:10E870001186202383F31288BFF36F8F0468A042B0
:10E880001AD0CCB1D4E9003213605A60237C002541
:10E8900023F002032374C4E90055A56004F11800B5
:10E8A00001F0A5FE2046A56701F01BFE3146084891
:10E8B000BDE8704001F048BED0E902329A4218BF6C
:10E8C0000133836086F31188BFF36F8F70BD00BF83
:10E8D0008C03002013B5EFF31181202484F31288F8
:10E8E000BFF36F8F846844B1013C846081F3118869
:10E8F000BFF36F8F002002B010BD52EA030406D1AF
:10E9000081F31188BFF36F8F6FF00F00F3E7CDE94C
:10E9100000230246014800F035F9ECE78C030020A3
:10E920002DE9F043073285B022F007020E461F465C
:10E930001099818100F158037F32C0E916330446F3
:10E94000002322F03F020421836001743F2A0F98C4
:10E95000A073C4E90633E37306F14009A2F140084D
:10E9600005D883F31188BFF36F8F084602DFB5180F
:10E9700029462046FDF76CFE07300E9B20F007006D
:10E98000A066C4E9189802930D9B01932D1A0C9B65
:10E9900000932A463B4631462046FEF759F90023AC
:10E9A0006365044B9B6803B1DB6EE366284605B0E4
:10E9B000BDE8F0835C0300200123037483810023FE
:10E9C000C0E91833C366014B986070475C030020B0
:10E9D000094A93686FF00A019967084958674B68BC
:10E9E00043F080534B60002383F31188BFF36F8F94
:10E9F0009368986F704700BF5C03002000ED00E053
:10EA000070B590F91020037C002A2FDBD9062DD198
:10EA10001A4C63F07F032246037452F8183FE169F1
:10EA2000934207D1C0E900210860E0610FE09942FC
:10EA3000F8D01B68002BF5D093F90E6090F90E50BA
:10EA4000AE42F4DD5968C0E9003108605860A5693C
:10EA5000954200D005B9E568A3681A7CD20606D1B4
:10EA6000DA897F2A03D9AA690AB9636170BDAB420A
:10EA700002D0284600F040FA6561F7E75C03002009
:10EA800038B590F91020037C002A014604DA03F01F
:10EA90007F03037401F0EDFC0D4D2A46AB6852F87C
:10EAA000184F944200D004B9EC688B4207D01A7C0E
:10EAB000D20604D1DA897F2A01D9A2692AB1A342F8
:10EAC00002D0204600F018FA23466B6138BD00BF23
:10EAD0005C030020B3F1FF3F08BFB2F1FF3F03D05A
:10EAE0000249183000F086BA704700BF29050100BE
:10EAF000034648B9EFF3058232B9064A5169926874
:10EB0000914201D0FFF764BF83F31188BFF36F8F89
:10EB1000704700BF5C03002038B5184CA168E0695D
:10EB20000B68814214BF1A46002249680B60596085
:10EB3000A368E1692AB9124AC3E900210B60E361C5
:10EB40000AE092F90E5093F90E00854212DD5168E9
:10EB5000C3E900210B605360A569094B9D4200D0B9
:10EB600005B9E568A3689D4202D0284600F0C4F9C3
:10EB7000656138BD8A42DED01268DBE75C030020A5
:10EB800074030020F8B50E4B0C4611460D4A9868E8
:10EB90001060DDE90667EFF31182202282F312880C
:10EBA000BFF36F8F9D68284601F075FC28463246FA
:10EBB0003B46FFF78FFF2046BDE8F840FFF708BF50
:10EBC0005C0300207C030020EFF31181202383F3FA
:10EBD0001288BFF36F8F054B9A68D37B013BD373C9
:10EBE00081F31188BFF36F8F704700BF5C03002073
:10EBF00070B5EFF31186202383F31288BFF36F8F74
:10EC00000F4DAB68DA7B0132DA732A4652F8184F9F
:10EC1000944200D004B9EC681A7CD20604D1DA8997
:10EC20007F2A01D9A2692AB19C4202D0204600F075
:10EC300063F923466B613046BDE87040FFF758BF6B
:10EC40005C030020024B03F11802C3E9062270475F
:10EC50005C03002070B5EFF31186202383F3128844
:10EC6000BFF36F8F1A4CA168E0690B68814214BF33
:10EC70001A46002249680B605960A368E1692AB905
:10EC8000144AC3E900210B60E3610AE092F90E50D7
:10EC900093F90E00854216DD5168C3E900210B602F
:10ECA0005360A5690B4B9D4200D005B9E568A36888
:10ECB0009D4202D0284600F01FF965613046BDE84C
:10ECC0007040FFF785BE8A42DAD01268D7E700BFEE
:10ECD0005C03002074030020F8B550EA01030646E7
:10ECE0000C4603D1FFF7B6FF0020F8BDEFF3118704
:10ECF000202383F31288BFF36F8F124D124BA86845
:10ED00001860FFF7BDFEA868104923463246183048
:10ED100000F070F9AA68137C43F0040313740446EE
:10ED20003846FFF755FEAB68D3E90A23B3F1004F2D
:10ED300008BF002AD8D101F08FFC201A20EAE07029
:10ED4000D3E700BF5C0300207C03002029050100FD
:10ED5000014B9868704700BF5C0300202DE9F84321
:10ED600004468789EFF31186202383F31288BFF3CB
:10ED70006F8F037C190705D586F31188BFF36F8F5A
:10ED8000BDE8F883D90943F008026FD10274A36883
:10ED900013B1204601F075FB04F1180001F027FCC7
:10EDA000A56D04F15808A84511D04FF0000975B1C0
:10EDB000284601F066FB05F1180001F018FCC5F8C3
:10EDC00078902846FFF71CFEA56DA845EFD1DFF827
:10EDD000BC80D8F808309C4250D1EFF30589B9F1D6
:10EDE000000918BF4FF00109D8F81850284A954279
:10EDF00000D00DB9D8F80C50AB4202D0284600F034
:10EE00007BF82046C8F8145000F09EFDB9F1000FC1
:10EE100002D02048FFF7D0FDD8F808309C4230D10E
:10EE2000EFF305836BBBA289D20711D586F3118856
:10EE3000BFF36F8F83F31188BFF36F8F04231846DE
:10EE400002DFEFF31186202383F31288BFF36F8F65
:10EE50003046FFF7BDFDFB0792D5002383F31188F1
:10EE6000BFF36F8F0423184602DF89E703F07F03A7
:10EE700043F00803037401F0FCFA88E74FF000093F
:10EE8000B2E786F31188BFF36F8FE4E75C030020DD
:10EE900074030020E0010020027C12F01F020346F0
:10EEA00010D10A4988420DD00949086868B1D9894A
:10EEB0007F2909D893F90E20064B1B689A42B8BFE8
:10EEC000002070470020704710467047E000002087
:10EED000AC00002080030020044BC01A044BC0107B
:10EEE0005843044B01221A54704700BF60020020AF
:10EEF000ABAAAAAA8C03002070B50C4B0C4D1E7C4B
:10EF0000FFF7CAFF182303FB06550446284601F005
:10EF10006EFB084B00229A553CB1621E28460649FA
:10EF2000BDE87040D31700F065B870BD5C030020E9
:10EF3000600200208C030020D9EE000038B5EFF30A
:10EF40001185202383F31288BFF36F8F0F4B104A74
:10EF50009C681068A04206D1FFF7CEFF85F31188A8
:10EF6000BFF36F8F38BD00211B7C1160094AD35C51
:10EF7000002BF3D02046FFF78FFF0028EED0237C34
:10EF8000DB0601D1FFF7C8FD2046E5E75C03002062
:10EF90007C0300208C030020024B1868984208BFB5
:10EFA00000207047B0000020034B1B680BB9FEF730
:10EFB00071BF0020704700BF8403002030B570B1DE
:10EFC0000B4B5B6898420AD0036843B1D3E9042134
:10EFD000D0E90445121941EB0501C3E90421D0E948
:10EFE000003213605A600023C0E9003330BD00BF17
:10EFF000B0000020B3F1FF3F08BFB2F1FF3F2DE9A1
:10F00000F84F0446994615461F467AD08160EFF3C3
:10F010001188202383F31288BFF36F8FB9F1000F9B
:10F02000DFF8E4A020DBFFF7BFFFDAE900270135B6
:10F0300049F100092D1849EBE073C4E90453AD18F8
:10F04000064643EB07074FF00109FFF7A5FFDFF87E
:10F05000BCE0DEF804A00346EBB9C4E900EACAF854
:10F060000040CEF8044028E0DAE900126FF0010316
:10F070005B1A4FF0FF3161EB02025B1B62EB09028E
:10F08000012B72F10001BCBF01230022C0E9043250
:10F090004FF00009D9E7D3E9041CD4E904208A42DF
:10F0A00070EB0C0B24DA891A5A686CEB0000C3E988
:10F0B0000410C4E9003214605C60FFF76DFF844205
:10F0C0000ED1134B1B685BB9B9F1000F02D1FFF7EA
:10F0D0006BFF0646304601F073FA0021FEF7ACFEE6
:10F0E00088F31188BFF36F8F28463946BDE8F88F43
:10F0F000521A60EB0C005345C4E90420ADD01B68E4
:10F10000AAE700252F46EFE778020020B000002094
:10F11000840300202DE9F047DFF8A890DFF8A880ED
:10F12000C9F800000246FFF737FF0D46002600270A
:10F13000D8E900134FEAE27E50B1D0E9044CA24274
:10F140007EEB0C0A1BDAA41A6CEB0E06C0E904462F
:10F1500052184FF0000443EB0E032046C8E9002389
:10F16000C9F8004001F02CFA2146FEF765FE85F350
:10F170001188BFF36F8FBDE8F047FFF7DFBE61185E
:10F1800043EBE473C0E90467C8E90013FFF716FF17
:10F1900001224FF00043C0E9042385F31188BFF337
:10F1A0006F8F83689847EFF31185202383F31288CC
:10F1B000BFF36F8FD9F80020121BC9F80020FFF7AA
:10F1C000EBFEB5E7840300207802002010B5EFF3D2
:10F1D0001184202383F31288BFF36F8FFFF7E4FEBF
:10F1E000054A0346D2E90001181841EBE37184F3A4
:10F1F0001188BFF36F8F10BD78020020014800F026
:10F20000B7BA00BF580F01002DE9F04F8BB043682B
:10F21000009383789C078046924640F1F980002550
:10F220000878002800F0F68025280AD04B1C0193AE
:10F2300001354146009B98470028C0F2E3800199C0
:10F24000EEE74E788B1C252E0193F1D00027B946AE
:10F250003C460A221F2C22D8A6F12003102B20D8CE
:10F26000DFE803F0141F1F1A1F1F1F0B1F1F1F12A1
:10F270001F171F1F090044F00104019B13F8016BC5
:10F280000193002EE6D13AE044F0020444F0040475
:10F29000F3E744F00804F0E744F01004EDE77F2CB6
:10F2A00024D8A6F13003092B08D860064EBF02FB14
:10F2B000073702FB093944F02004DEE72A2E0DD17E
:10F2C00061065AF8043B53D4002BA7BF44F0200436
:10F2D0009946C3F1000944F02804CEE72E2E05D14B
:10F2E000630600F1978044F04004C6E76C2E2ED0F0
:10F2F00028D8682E32D06A2E37D04C2E35D0002F29
:10F3000046F02003B8BF24F04004A3F16502BCBF5F
:10F31000A4B20027022A01D9612B2BD10AF1070AD6
:10F320002AF0070A9C4E0AF1080A0727210760D530
:10F3300006EB070B34465C455DD1AE1BA219A9EB69
:10F34000070959E1742E98D07A2E96D0D7E7260671
:10F3500048BF44F4007444F080048EE7E00548BFE1
:10F3600044F4007444F4807487E744F4207484E720
:10F370001F4682E7A6F16302122A00F2D880DFE876
:10F3800012F013004D00D600D600D600D6004D0076
:10F39000D600D600D600D600D600E800D100D600B0
:10F3A000D6001A00D600A0005AF8043B8DF81030A1
:10F3B000012704AEBAE75AF8046B784B002E08BF59
:10F3C0001E4614F0400F14BF39464FF0FF3130464F
:10F3D00001F05CF90746A9E7009B414620209847C9
:10F3E00000280FDB013CA742F6D34D442D1BA1465C
:10F3F0009EE74C46F7E714F8010B009B41469847FF
:10F40000002898DA98F8023043F0040388F80230B4
:10F410004FF0FF3528460BB0BDE8F08F220630D5FF
:10F42000A3052AD50AF1070A2AF007039A46596864
:10F430005AF8080B24F0100B00291FFA8BFB2FDA67
:10F44000404261EB41014BF4806B04AC0A2322463D
:10F4500001F028F91BF0400FA0EB040200F08E80B1
:10F460002BF001049742A4B240F38F80002E40F0AD
:10F470008E802BF01104A4B21DE05AF8040BC117C2
:10F48000D8E7E0055AF8041B01D40846F7E7A205BF
:10F490004BBF48B208B241F3C01141F3C031C9E7D4
:10F4A00050EA0103D1D16306CFD5002FCDD124F08E
:10F4B0001104A4B23A463B4640F206410C4262D1E6
:10F4C00024E024F01004A4B20A2314F0800243D0F4
:10F4D00014F400711FBF0AF1070A2AF007029246CE
:10F4E000516814BF5AF8080B5AF8040B50EA01028D
:10F4F0003ED124F0160B62061FFA8BFB3CD5002F81
:10F500003AD124F01704A4B23A463B4621075AD414
:10F51000E10705D5994572DDA9EB03039F184B461A
:10F520009B464AE044F0100410237826CDE7782B60
:10F5300004D1C6F1780343F01003C6E7009B4146AF
:10F54000252098470028FFF65DAF0235414630463A
:10F5500070E608230026B8E714F480715AF8040B0B
:10F56000C4D014F400711ABFC0B2114680B2BDE716
:10F5700024F006041FFA84FB04AC68E713465C46DB
:10F58000E10699D52EB90133C0E71346F8E73B46AB
:10F59000F6E70233BAE700BF870F0100800F0100D2
:10F5A000CDE902324146009B202098470028FFF613
:10F5B00029AFDDE902320BF1010BD945F0DCEB1A82
:10F5C00003EB0B055B46E10627D5CDE90232414648
:10F5D000009B302098470028FFF614AFDDE9023287
:10F5E0007EB901352F44791B8A4229DB144604AECB
:10F5F0009CBB2A44A9EB03091546914442E01746F7
:10F600008EE7CDE90232023541463046009B9847ED
:10F610000028DDE90232E5DAF4E640F206410C4268
:10F62000E0D014F0020F14BF2B20202014F4806FC0
:10F63000CDE9023205F10105414618BF2D20E5E76D
:10F64000CDE902324146009B302098470028DDE991
:10F65000023205F10105C6DAD4E6013CCDE90232F9
:10F66000305D009B414698470028DDE90232BFDA51
:10F67000C8E6009B414620209847002805F1010577
:10F68000FFF6C0AEA9EB0503002BF2DCD7E500BF07
:10F69000704700EBC100408840087047F8B503464A
:10F6A000FFF7F7FFB0FA80F0C0F11F0003EB800C0A
:10F6B000CA00DCF81060171D0C4606328DB256B930
:10F6C000012101FA00F0D9680143D960CCF810405B
:10F6D000DD539D52F8BDF1000431585AD85303EB65
:10F6E000C0009E52C5805D52F4E7043A2DE9F8430C
:10F6F000CC1D114424F0070421F00706A6EB0408F2
:10F700004FEAD807B7FA87F2C2F12405AD004FF0EF
:10F7100000090735C2F12002ED0804604946A760E0
:10F72000C4F80C90920004F1100000F0A7FFAAB2F8
:10F73000530043F0010363807B1B9BB204EBC501C4
:10F740005800A4F80090488024F83520A6F80290CC
:10F7500024F8083004EBC70329465A8842F0010216
:10F760005A802046BDE8F843FFF798BF0020704755
:10F770000FB407B504A951F8040B0191FCF7E0FDA3
:10F7800003B05DF804EB04B07047038B13F007037C
:10F7900006D10368002B18BF032008BF0020704764
:10F7A000022B05D1408BB0FA80F0400980007047F1
:10F7B000012B04D10368002B18BF0520EDE70020C2
:10F7C000704710B50C4600B111B96FF0150010BDAF
:10F7D000081D00F087F80028F9D1A368032BF6D99B
:10F7E000F3E72DE9F0410D4607461946281D9046DE
:10F7F0001E4600F088F8044638B133464246294692
:10F800003846A446BDE8F0416047BDE8F08110B439
:10F81000EFF31182202484F31288BFF36F8F4161CC
:10F8200010BC0121FCF7BEBD38B50C46054658B1E9
:10F8300051B10B6843B14B6833B11C22002100F079
:10F840001DFF2C61002038BD6FF01500FBE7F8B5F7
:10F8500004460E46FFF7B5FF051E3BDBEFF31182B2
:10F86000202383F31288BFF36F8F638B278B4FF6B0
:10F87000FF718B4207F007072ED0062F2FD8DFE845
:10F8800007F0182E082E180418006FF085050023C5
:10F8900003E0013363830225012382F31188BFF360
:10F8A0006F8FBBB100233A4631462046FFF799FFE0
:10F8B00010E000233360636823B9C4E9006627B110
:10F8C0003D46E4E71E606660F9E702212046FCF74A
:10F8D00069FD3D462846F8BD6FF00A05D7E76FF091
:10F8E0000405D4E7034658B1426802F00302012A36
:10F8F00003D0032A04D1026812B100209860704737
:10F900006FF0150070474268816002F00302032A1D
:10F910004FF0000203460CBF006810465A60704763
:10F92000704700F0ABBE00F09BBE01460068FCF7DC
:10F930005BBE08B5FCF788FEBDE80840FDF7DEB900
:10F9400000210120FCF750BE6FF08500704761B6C2
:10F9500062B680F31188BFF36F8F704772B60023D1
:10F9600083F31188BFF36F8FBFF34F8F30BF62B641
:10F97000BFF36F8F704772B6002383F31188BFF314
:10F980006F8FBFF34F8F20BF80F31188BFF36F8F4E
:10F9900062B67047202809D9B0F1004F08D8013865
:10F9A000B0FA80F0C0F11F00400070470820704797
:10F9B0003E20704708B5FDF77FFB002008BD0369B6
:10F9C000C9B20C2202FB0133186C00F0070070472B
:10F9D00070B50346C9B20069EFF31186202484F3A1
:10F9E0001288BFF36F8F0C2505FB0104246C14F003
:10F9F000C00401D0A24210D105FB01000122026423
:10FA0000002086F31188BFF36F8F28B95B6803EB82
:10FA1000C1035B689847002070BD4FF0FF30F0E7EE
:10FA20008022FFF7D5BFF8B5069F04690546C9B225
:10FA3000EFF3118C202080F31288BFF36F8F0C2618
:10FA400006FB0146306C00F0070EBEF1010F11D12C
:10FA5000376400268CF31188BFF36F8F46B90C20F2
:10FA600000FB0144C4E90E236B6853F8313098471A
:10FA70003046F8BD00F0C00087420CBF6FF077063B
:10FA80004FF0FF36E6E713B580240094FFF7CBFF75
:10FA900002B010BD10B40069CBB21C2404FB0300FB
:10FAA000002110BC10471046FEF7E0BE00F0DDB9A3
:10FAB000FEF7B8BB43685B68D3F810350B600020D5
:10FAC000704743685B6802EA010021EA0201C3F85B
:10FAD0000805C3F80C150020704743685B680020D8
:10FAE000C3F80815704743685B680020C3F80C151D
:10FAF000704743685B68D3F8042521EA020011408F
:10FB0000C3F80805C3F80C150020704730B5036929
:10FB1000586800B30024884219D108688CB99C68E1
:10FB20005860A14200D19860002008602AB15A684C
:10FB30000A609A68596002B9996000200FE028466F
:10FB4000E9E720609868814208BF9C60ECE705689F
:10FB50000446002DF3D1002AE9D16FF0150030BD25
:10FB6000FEF770BC30B543681360057A446804EB57
:10FB7000C504A34202D36FF0010030BD5C798C4212
:10FB800003F10803F0D10020F7E743681B68D3F8BE
:10FB90008004C3F88004704742681368D3F81001EA
:10FBA00050B1D269002012780A70C3F81001D3F85E
:10FBB000102101221A6070474FF0FF307047026831
:10FBC0000346D2F8580140B95B68DB0706D4D2F887
:10FBD0002001003818BF012070470120704743689A
:10FBE0001B68D3F80423D20517D5D3F82021A2B17E
:10FBF000EFF31182202181F31288BFF36F8FD3F8C6
:10FC0000201131B10021C3F82011D3F820110121B6
:10FC1000D96082F31188BFF36F8FD3F858317047E2
:10FC200013B501AA0446FFF79DFF002805DB019BE1
:10FC3000226819791868FDF7E5FD02B010BDF8B526
:10FC40000022054601210220FCF7C8FF0220FCF734
:10FC5000A9FF6C680121E068FFF7E2FF6B681A6892
:10FC60002369C2F82435617D237D0B43A17D0B43BD
:10FC7000C2F86C356E68D6E9004313F001030ED06C
:10FC80002F6904F10C0107F1080204F5907000F0EF
:10FC900097F800283ADB387AFEF7F8F901230822B2
:10FCA000C4F80025B269C4F8442501210022C4F833
:10FCB0004825A1606BB9D4F82031002BFBD0C4F8E3
:10FCC0002021D4F820310123E3604FF48073C4F87D
:10FCD0000433D4F85831002BFBD00021C4F80015B0
:10FCE0006D682C68E868FFF79BFF0823C4F80035AF
:10FCF0002A7A52B9EB69C4F834350123C4F838358F
:10FD0000C4F81021D4F8102123600020F8BD00F1C0
:10FD100050039B009BB203F1804303F5883300221C
:10FD20001A601B6870474FF08053D3F83021082ABF
:10FD300003BFD3F83401B0FA80F0400900207047C7
:10FD400003460020184700F051BB10B50246116869
:10FD5000B1B1BFF35B8FB1FA81F3C3F11F0001238F
:10FD6000834021EA030352E8004F8C4204D142E869
:10FD7000003CBCF1000FF6D1BFF35B8FE7D110BDA3
:10FD80006FF00B00FBE710B50368CB40DB0714D422
:10FD900001238B400268BFF35B8F43EA020150E806
:10FDA000004F944204D140E8001CBCF1000FF6D192
:10FDB000BFF35B8FEED1002010BD6FF01500FBE7A5
:10FDC00070B50C460021054608461646FEF750F968
:10FDD00048B93378DB0003F1804303F5F833C3F807
:10FDE0001055C3F8144570BD10B1012802D07047FA
:10FDF000FEF718BAFEF7C8B918B1012803D100F010
:10FE000019B800F032B8704708B5FEF7D9F9BDE867
:10FE10000840FEF747BA4FF08053D3F83021082A44
:10FE200006D1D3F8340102288CBF0020012070478E
:10FE300000207047FEF76EB938B54FF080440223BA
:10FE4000C4F808330123E3600023C4F80431D4F874
:10FE5000043142F21075D4F81834DB0304D50120C4
:10FE6000FFF771FF013DF6D138BDFFF7E5BFF7B5EC
:10FE7000019001A8DDE9084716461D46FEF74AFA3B
:10FE8000019BB6F1000C18BF4FF0010C00EB830092
:10FE90000B1E18BF0123002D43EA4C030CBF4FF08B
:10FEA000000C4FF00C0C002C43EA0C030CBF4FF07D
:10FEB000000C4FF4E06C002F43EA0C03D0F800274D
:10FEC0000CBF4FF0000C4FF4403C43EA0C0322EA15
:10FED000030301B109780EB13678760019430DB1EC
:10FEE0002D78AD0031430CB12478240229430FB1A1
:10FEF0003F783F040C433C43C0F8004703B0F0BDDB
:10FF00001FB50DF10F03019300238DF80F1000931F
:10FF10001A461946FFF7ABFF05B05DF804FB10B5B4
:10FF200004460846FEF706FA04EB4004207DC0F3C1
:10FF3000401010BD10B504460846FEF7FBF904EB6F
:10FF40004004207DC0F3400010BD10B504460846B3
:10FF5000FEF7F0F904EB4004A08A400B10BD70B529
:10FF6000044608461646FEF7E5F908300D4634F813
:10FF70001030DA0509D5C3F3432304EBC30231463D
:10FF800054F83330526828469847A3682BB1E2688A
:10FF900031462846BDE87040184770BD10B504468C
:10FFA0000846FEF7C7F904EB4000838ADA051DD541
:10FFB000C3F3432123F4F853838204F1120204F1C2
:10FFC000720032F8023F13F4807F03D0C3F343235F
:10FFD00099420BD08242F4D104EBC10300225A6053
:10FFE00004F17800BDE81040FFF7CDBE10BDF0B5BC
:10FFF000034600F58074002005460127844695429B
:020000040001F9
:100000000AD1D3F87C2132B10022C3F87C21D3F885
:100010007C3140F00040F0BD25F0404607FA06F67E
:10002000314209D0D4F800E0BEF1000F04D0C4F88A
:1000300000C0D4F800E0304301350434DFE738B5C0
:1000400004460D46FFF76BFFA8B12046FFF772FF8D
:1000500088B92046FFF779FF226801238340C2F860
:100060000833236803EB8000D0F8103523F0030336
:10007000C0F8103538BD28460021BDE83840FFF7EC
:100080003FBF2DE9F043174685B004460846FEF70A
:1000900051F9D7F800800E460546B8F1000F1ED082
:1000A0002046FFF747FF18B12046FFF738FF20BB77
:1000B0000023CDE900338DF80E308DF80F300DF1AF
:1000C0000F0243460DF10E013046FFF7D0FE04EB60
:1000D0004502938A23F0020343F0010393827B6875
:1000E0009BB33146204693F80080D3F80490FFF785
:1000F00021FF28B1B9F1000F1FD06FF0150027E0E4
:1001000004EB4500838A23F4604323F020038382B9
:10011000B9F1000F11D0B8F1030FEED87B68216858
:100120005B6893F800C04FEA8C031944B8F1000FE4
:1001300011D1C1F81085C1F8108504EB4502938AEE
:1001400023F01C0343EA88039382BB6843BB00206F
:1001500005B0BDE8F083D1F8102522F00302C1F804
:10016000102522681344D3F8102522F44F3222F4CC
:100170004072C3F810253202D3F8101502F47C52F5
:1001800042EA08420A43C3F8102504EB4C03A3F8E3
:100190007C60838A43EA4C3343F020038382CCE7BC
:1001A000D3E9007831462046FFF7F8FE002FCED085
:1001B00063689F4206D004F17800FFF7C6FD00286F
:1001C00004DAC5E7A3689845F5D1002004EBC00325
:1001D000C3E9017804EB4505C0B2AB8A43EA40238A
:1001E00043F48073AB82B2E72DE9F043054685B056
:1001F000084616461F46FEF79DF80C46804626B375
:100200002846FFF797FE18B92846FFF788FE18BB67
:1002100005EB4809B9F8143003F01C0313B17378E7
:10022000012B19D001238DF80F300023CDE9006395
:10023000721CB31C0DF10F012046FFF718FEB9F830
:10024000143043F00303A9F81430002F3FD02146A7
:100250002846FFF76FFE20B96FF0150005B0BDE826
:10026000F0833E782B6803EB86030022C3F8102549
:10027000C3F8102505EB48024FEA860C938A23F455
:10028000604323F020039382787800B32968BF7815
:1002900061440004D1F8103523F4991323F4F85382
:1002A000C1F81035230200F4403003F47C530343BB
:1002B0003805D1F8105500F4801003432B43C1F8E2
:1002C0001035938A43EA463343F02003938200209B
:1002D000C4E7C0E90312704770B504461546FFF73E
:1002E0001EFE48B10846FEF725F804EB4004002046
:1002F000A38A5B0B2B7070BD6FF01500FBE738B560
:1003000090F88C4005469CB960222146143000F0DC
:10031000B5F92868C0F87C41D0F87C3140F307304B
:10032000FCF740FC012385F88C30AB67204638BDD4
:100330006FF07700FBE790F88C00003818BF0120C1
:100340007047FEF731B82DE9F34104461746FFF731
:10035000E6FD0D462668F0B12046FFF7EBFD80462E
:10036000C8B92046FFF7F1FD820002F5807346F818
:100370000380F35823681344D3F8102542F0010298
:10038000C3F8102527B1226801238340C2F8043343
:1003900002B0BDE8F081D6F80433002BA4BF4FF0C3
:1003A0000043C6F804332846FDF7C4FF04EB4004BD
:1003B000A38AC3F38203042B12D0052B12D001A809
:1003C0000195FDF7A7FF019BD0F81015D94001F06A
:1003D00001010231284602B0BDE8F041FFF790BDAF
:1003E0000321F7E70221F5E7FFF729BE08B1FCF783
:1003F000A5BE704710B5436904463BB90020E268CA
:10040000537843F001035370404210BD98470028D1
:10041000F4D00028B8BF4042E368FF28A8BFFF20FF
:100420001870ECE740B1C368587810F001001EBFA7
:100430001878B0FA80F040097047EFF31183202359
:1004400083F31288BFF36F8FFEE708B5FFF7F5FF60
:1004500008B52024EFF3118384F31288BFF36F8F64
:10046000FFF77CFAF6E7EFF30580003818BF0120AC
:100470007047D0E9003213605A600023C0E90033AE
:10048000704708B5FFF7F5FF037C23F00203037400
:100490000023836008BD38B504460D46FEF7F0FA28
:1004A000237C43F002032374D5B1A5602B689D42E1
:1004B00009D16B68C4E900531C606C6010E06A6885
:1004C0009A42F6D01B68002BF3D093F90E1094F9E2
:1004D0000E209142F3DD5A68C4E9003214605C607A
:1004E00038BD10B5EFF31184202383F31288BFF3D6
:1004F0006F8FFEF785FA84F31188BFF36F8F10BDFD
:1005000008B5037C13F0280F01460CD183680BB1AA
:10051000FFF7B7FF0B7C23F004030B740846BDE81C
:100520000840FEF76DBA08BD10B5EFF31184202323
:1005300083F31288BFF36F8F1838FFF7E1FF84F35E
:100540001188BFF36F8F10BD0846FEF7D1BA38B5DA
:100550000C460546FEF7C0FBB4F1FF3F08BFB5F1FE
:10056000FF3F1FBF47F6FF7300224FF47A71E0FB95
:1005700001321ABFD80B40EA42404FF0FF3038BD7D
:1005800038B50446EFF31185202383F31288BFF3B7
:100590006F8F037C5B070ED5183000F028F8237CA2
:1005A00023F0040320462374FEF72AFA2846BDE808
:1005B0003840FEF79DBA85F31188BFF36F8F38BDC1
:1005C00008B50246FEF7E8FC70B1D0E904319B1A89
:1005D00061EBE272B3F1004F72F1000104DA002A1C
:1005E000ACBF1846002008BD6FF00040FBE738B5EF
:1005F0000246EFF31185202383F31288BFF36F8F38
:100600000368D3B1FEF7C8FC04461046FEF7D6FCDB
:1006100000224FF000438442C0E9042305D00020AB
:1006200085F31188BFF36F8F38BDFEF7BDFCFFF770
:10063000C7FF0021FDF700FCF1E7D0E90413B3F197
:10064000004F08BF012904D100204FF00041C2E94A
:1006500004016FF01500E3E708B5FEF7B7FD08BD2C
:100660000A44914200F1FF3300D1704710B511F8F0
:10067000014B03F8014F9142F9D110BD02440346EA
:10068000934200D1704703F8011BF9E710B5024609
:1006900001448A42134603D01C780132002CF8D161
:1006A000181A10BDF0B5C3F137070446FFB203F0C6
:1006B0001F031046082BE6B233D0102B3ED065083E
:1006C000A40844EA817445EAC1752D194FEA9102E4
:1006D00042EB5102290941EA02716D1842EB1212F4
:1006E000290A41EA02616D1842EB1222290C41EA03
:1006F00002416D1842EB1242AD1842F10002EC08C3
:1007000044EA4274D10804EB8402A6EB4205EDB240
:10071000092D0CD90134A5F10A0541F10001EDB212
:1007200012E0E40844EA417406F00705C9083035D0
:1007300054EA010200F8015BBCD1F0BD240944EA8F
:10074000017406F00F050909092D84BFED19EDB2FA
:10075000EDE7000061D100000000000005D10000BD
:1007600000000000000000009C07010000000000E5
:10077000D407010000000000B807010000000000DD
:10078000F00701008DD4000000000000D9DC00005B
:1007900000000000E1D00000000000001A0F01007E
:1007A000200A0100B0090100B8000020BC020020AE
:1007B000F5D1000000000000290F0100300A0100FF
:1007C0008C090100BA00002010030020ADD6000003
:1007D00000000000370F0100440A01008C090100ED
:1007E000BC0000201C030020ADD60000000000006B
:1007F000450F0100580A0100CC090100BE0000208D
:10080000280300203FFC00000000000009FE00005B
:1008100041FD00000000000041F90000F007010068
:10082000DFFB00000000000041F9000000000000B4
:1008300041F900000000000041F900001400002010
:1008400061FB00000000000041F900000000000012
:1008500041F900000000000041F900000000000024
:1008600041F900000000000041F900000000000014
:1008700041F900000000000041F900000000000004
:1008800041F900000000000041F9000000000000F4
:1008900041F900000000000069DD000000000000D8
:1008A00041F900000000000041F9000000000000D4
:1008B00041F900000000000041F9000000000000C4
:1008C00041F900000000000041F9000000000000B4
:1008D00041F900000000000041F9000000000000A4
:1008E00041F900000000000041F900000000000094
:1008F00041F900000000000041F900000000000084
:1009000041F900000000000041F900000000000073
:1009100041F900000000000041F900000000000063
:1009200041F900000000000041F900000000000053
:1009300041F900000000000041F900000000000043
:1009400041F900000000000041F900000000000033
:1009500041F900000000000041F900000000000023
:1009600041F900000000000041F900000000000013
:1009700041F900000000000041F900000000000003
:1009800041F900000000000041F90000DDD4000042
:10099000B5FA0000C3FA0000DBFA0000E7FA000035
:1009A000F3FA0000E9D600000DFB00000000000093
:1009B0004DD2000021FA000087FA0000000000007C
:1009C000BFF90000000000000000000099FB0000DB
:1009D000ADD900008BFB0000FFFFFFFFFFFFFFFF13
:1009E0000338FDD870470000000000200000000020
:1009F00000000B0602000000FC09010000000000DE
:100A00000B0F01002600020600000020130F01005A
:100A100022000B11B1D1000081D1000000000000C4
:100A2000FDD200007DD20000B1FA0000ADFA000056
:100A3000FFFF000000030050140000200000000031
:100A400001000000BCF801FF00000050140000206D
:100A50000000000000000000002000400100000035
:100A600000000000780A01000000D601000000002C
:100A70008A0300208903002000200040840A01002E
:100A8000010000008C0A01000400000006000000C4
:100A90000500000208060001070600030800000028
:100AA00003000000540701005C0701008C070100EF
:100AB000940701009C0701009C07010041646472D7
:100AC000657373206F662073616D706C652025708F
:100AD0000A006E72663532383430646B0048656CDB
:100AE0006C6F207379736275696C642077697468C0
:100AF000206D6375626F6F74212025730A00723058
:100B00002F61313A2020307825303878202072311A
:100B10002F61323A20203078253038782020723208
:100B20002F61333A20203078253038780A0072332C
:100B30002F61343A202030782530387820723132D5
:100B40002F69703A2020307825303878207231347F
:100B50002F6C723A20203078253038780A002078BF
:100B60007073723A20203078253038780A00466158
:100B7000756C74696E6720696E73747275637469DD
:100B80006F6E206164647265737320287231352F33
:100B90007063293A203078253038780A00556E681D
:100BA000616E646C6564204952516E3A2025640A76
:100BB000002A2A2A2A2A204D5055204641554C54B5
:100BC000202A2A2A2A2A0A002020537461636B698A
:100BD0006E67206572726F722028636F6E7465781D
:100BE000742061726561206D696768742062652098
:100BF0006E6F742076616C6964290A002020556E3E
:100C0000737461636B696E67206572726F720A003C
:100C100020204461746120416363657373205669C9
:100C20006F6C6174696F6E0A0020204D4D46415211
:100C300020416464726573733A20307825780A0025
:100C40002020496E737472756374696F6E204163FE
:100C5000636573732056696F6C6174696F6E0A0007
:100C60002020466C6F6174696E672D706F696E74B9
:100C7000206C617A79207374617465207072657379
:100C80006572766174696F6E206572726F720A00A8
:100C90002A2A2A2A2A205553414745204641554CA5
:100CA00054202A2A2A2A2A0A0020204469766973B5
:100CB000696F6E206279207A65726F0A0020205574
:100CC0006E616C69676E6564206D656D6F72792009
:100CD0006163636573730A0020204E6F20636F7039
:100CE000726F636573736F7220696E73747275636C
:100CF00074696F6E730A002020496C6C6567616CC3
:100D0000206C6F6164206F66204558435F524554E4
:100D100055524E20696E746F2050430A00202049BE
:100D20006C6C6567616C20757365206F66207468F4
:100D30006520455053520A002020417474656D703F
:100D40007420746F206578656375746520756E64B2
:100D50006566696E656420696E7374727563746923
:100D60006F6E0A002A2A2A2A2A2042555320464119
:100D7000554C54202A2A2A2A2A0A0020205374611A
:100D8000636B696E67206572726F720A0020205073
:100D90007265636973652064617461206275732094
:100DA0006572726F720A00202042464152204164EF
:100DB00064726573733A20307825780A00202049E0
:100DC0006D7072656369736520646174612062751A
:100DD00073206572726F720A002020496E737472FC
:100DE000756374696F6E20627573206572726F72BD
:100DF0000A00526573657276656420457863657094
:100E000074696F6E20280053707572696F75732056
:100E1000696E746572727570742028495251200091
:100E2000535053454C20696E20746872656164208C
:100E30006D6F646520646F6573206E6F7420696EDA
:100E4000646963617465205053500A002A2A2A2A73
:100E50002A2048415244204641554C54202A2A2AEF
:100E60002A2A0A002020427573206661756C74205E
:100E70006F6E20766563746F72207461626C65209A
:100E8000726561640A00202044656275672065769A
:100E9000656E740A0020204661756C74206573636A
:100EA000616C6174696F6E20287365652062656C82
:100EB0006F77290A00415243485F455843455054D3
:100EC000207769746820726561736F6E2025780AD7
:100ED0000A002A2A2A2A2A204465627567206D6F33
:100EE0006E69746F7220657863657074696F6E20C7
:100EF0002A2A2A2A2A0A002A2A2A2A2A202573206C
:100F0000256429202A2A2A2A2A0A00464C415348C5
:100F10005F30005352414D5F3000636C6F636B4034
:100F20003430303030303030006770696F403530E9
:100F3000303030333030006770696F4035303030DA
:100F400030303030007561727440343030303230BF
:100F50003030006D61696E002A2A2A20426F6F745A
:100F6000696E67205A6570687972204F53206275E8
:100F7000696C642076342E342E32202A2A2A0A0004
:100F8000286E756C6C29002A666C6F61742A0000EB
:100F900001020304050607002030303030303030C5
:100FA0003030303030303000010000006DF700008C
:100FB00000000000B5F90000000000000000000083
:100FC0000060004000000000000000000000000081
:100FD0000000000000000000000000000000000011
:100FE0000000000000000000000000000000000001
:100FF00000000000000000000000000000000000F1
:1010000000000000000000000000000000000000E0
:1010100000000000000000000000000000000000D0
:1010200000000000000000000000000000000000C0
:1010300000000000000000000000000000000000B0
:1010400000000000000000000000000000000000A0
:101050000090D003FF00000090020000B0000020CC
:10106000B0000020000000000000000015E015E0C6
:1010700007695001100020004EDA7892F1F0628A80
:10108000E4BE1027951D82147093826ED212644EB6
:1010900076568810E708C8BF01002000FC5701DC25
:1010A0006135E1323847BDC40F04D2E5BEE5833B6C
:1010B00023C29F93593D00018CFA999420000001AE
:1010C00007CE0FAE1BD0AB63BEBFD396D3727A3EB2
:1010D000D77E76BA642A14DF872CB3E43080DEA092
:1010E0008EFC29A56BA1D5CB7B8136428012298F3E
:1010F000921D6033D7768AD9ADA716368B2371AE91
:10110000E5F9252D3F75888CFAC5194E3F7064604E
:10111000F26D5455AECF18E743ACC83142E96C2E9E
:10112000DD92E07B79ABB7ECD3B1D4E3B0C7E92370
:10113000CAE05D23605BFB761D5CB9E0EC2FCEB1AD
:101140001AB39C7EECFBB9D0E8395B3D30293E5A9E
:10115000AE1ADA8CA19D743D8073AAF89EE891A81E
:101160008ADA369FA35E68762CA1DC4F6E0D824230
:101170006784E296C6FFA2A12DFA2447DD691E4CC2
:10118000822EE96DEDFB6228BE697DD17856D49B35
:10119000FD06989733514748873733D63CBA63BF2B
:1011A00089C6FBE2F4F2B6C3801A083DC4111703E6
:1011B000FE7A0B020FC62758A850E6F1292A1974A7
:00000001FF
