:10000000807B0020191400006D4F000005140000D3
:100010000514000005140000051400000000000095
:100020000000000000000000000000007514000047
:100030000514000000000000051400000514000075
:10004000FD150000FD15000091230000FD150000C6
:10005000FD150000FD150000FD150000FD15000058
:10006000FD150000FD150000FD150000FD15000048
:10007000FD150000FD150000FD150000FD15000038
:10008000FD150000FD150000FD150000FD15000028
:10009000FD150000FD150000FD150000FD15000018
:1000A000FD150000FD150000FD150000FD15000008
:1000B000FD150000FD150000FD150000FD150000F8
:1000C000FD150000FD150000FD150000FD150000E8
:1000D000FD150000FD150000FD150000FD150000D8
:1000E000FD150000FD150000FD150000FD150000C8
:1000F000FD150000FD150000FD150000FD150000B8
:1001000053B94AB9002908BF00281CBF4FF0FF317E
:100110004FF0FF3000F00CB8ADF1080C6DE904CEE3
:1001200000F008F8DDF804E0DDE9022304B07047D0
:10013000704700BF2DE9F0478C468E46089E154655
:1001400004461946002B40F0D080724547D9B2FAD8
:1001500082F74FB1C7F120030EFA07FC20FA03F330
:10016000BD4043EA0C0CBC404FEA154EA8B2BCFBA4
:10017000FEF8230C0EFB18CC08FB00F943EA0C43F5
:10018000994528D9EB1808F1FF3204D2994502D9D4
:10019000A8F102022B44A3EB0903A4B2B3FBFEFCBB
:1001A0000EFB1C330CFB00F044EA0344A04214D9BC
:1001B0002C190CF1FF3304D2A04202D9ACF1020396
:1001C0002C44241A43EA02401EB1FC400023346050
:1001D0007360BDE8F0874246DDE76346F1E7002A39
:1001E00079D0B2FA82F3002B3FD01946C1F1200337
:1001F00002FA01F52EFA03F20EFA01FE20FA03F3D9
:1002000043EA0E034FEA154E00FA01F4B2FBFEFC7E
:10021000AFB20EFB1C201A0C0CFB07F842EA00429E
:1002200090455AD9AA180CF1FF3004D2904502D952
:10023000ACF102002A44A2EB08029BB2B2FBFEFC26
:100240000EFB1C220CFB07F743EA02439F4246D9F0
:10025000EB180CF1FF3204D29F4202D9ACF102023A
:100260002B44DB1B42EA004202E0AEEB0203012218
:100270004FEA154EAFB2B3FBFEFC200C0EFB1C3355
:100280000CFB07F840EA034398452AD9EB180CF118
:10029000FF3004D2984502D9ACF102002B44A3EB05
:1002A0000803A4B2B3FBFEFC0EFB1C330CFB07F7E8
:1002B00044EA0344A74216D92C190CF1FF3304D2A7
:1002C000A74202D9ACF102032C44E41B43EA0040EC
:1002D0000F46114678E71F2188E76046ABE7624684
:1002E000BFE76046DBE76346EFE7734506D916B91B
:1002F000002108466DE7C6E9000EF9E7B3FA83F777
:1003000087B9734501D3824207D8841A6EEB030381
:1003100001209C461EB900215BE73846FAE7C6E992
:10032000004CF8E7C7F1200CBB4022FA0CF51D4346
:1003300020FA0CF12EFA0CF30EFA07FE41EA0E0138
:100340004FEA154900FA07F4B3FBF9F81FFA85FEE6
:1003500009FB18300B0C08FB0EFA43EA00439A45E0
:1003600002FA07F240D9EB1808F1FF3004D29A459F
:1003700002D9A8F102002B44A3EB0A0389B2B3FB14
:10038000F9F809FB183308FB0EFE41EA03418E45DC
:100390002CD9691808F1FF3304D28E4502D9A8F18F
:1003A0000203294443EA0040A0FB0298A1EB0E019E
:1003B0004145CE46434602D306D14C4504D2B9EB63
:1003C000020E68EB05030138002EA4D0B4EB0E0238
:1003D00061EB030101FA0CFC22FA07F34CEA030378
:1003E000F940C6E9003196E74046C5E74346D9E7FC
:1003F00030B585B004F004FA00F068F800F05EF85B
:1004000001A800F0E9FD184B1B68834204D017488F
:10041000452104F0D1FAFEE79DF80800694600F096
:100420002BF8044600B1FEE7009A039B104D1344DD
:10043000019A128913442B6002F048FA00F02CFE56
:1004400001F006F82B681B6883F3088884F314888E
:10045000BFF36F8FBFF36F8F2B685B6898470548BA
:10046000452104F0A9FAFEE7EC080020827900009B
:1004700088010020A579000008B5024638B105487A
:100480000023452104F098FA6FF0150008BD0860BC
:10049000FCE700BFC879000021B1012906D06FF048
:1004A00015007047044B53F830007047024B03EBC4
:1004B000C0035868704700BFF876000002484FF448
:1004C000C05103F045BE00BF30320020094B0A4A3C
:1004D000C3F80026C3F80426C3F80826C3F80C2680
:1004E000C3F81026C3F81426C3F81826C3F81C2630
:1004F000704700BF000001403546526E014B1B683B
:10050000184700BF08000020014B1860704700BF6B
:100510000800002030B5044685B00D4610220021A9
:10052000684606F03EFF02238DF802302A46044B4F
:1005300001932146684603F0FFFF05B030BD00BFC0
:10054000FD0400002DE9F047058B044628071746F7
:100550000CD501290CBF45F0100545F02005258379
:1005600087F31188BFF36F8FBDE8F087022905F08C
:10057000070540F09480204604F052F9052864D81D
:1005800001A353F820F000BF610500009F060000A2
:100590004B0600000D06000027060000390600008B
:1005A00001F007035A1F012A1FD8002221F007017A
:1005B000062BD4F8008089B2C4E9002209D1434651
:1005C00003E0628B013262831B68002BF9D141F09A
:1005D00002012183204604F023F94FF0000900288E
:1005E0006DD041F02001218369E0042B0AD121F074
:1005F000070189B22183204604F012F910B141F0BD
:10060000200121834FF00008C14658E02369D3F848
:100610000090238B23F0070343F0060323834FF05E
:10062000000846464BE02369D3F80490238B23F05F
:10063000070343F00403F1E72369D3F80890238B01
:1006400023F0070343F00503E8E74FF00008C14635
:10065000E7E7012243F00803238387F31188BFF300
:100660006F8F002A3BD1B8F1000F4AD1B9F1000FCA
:1006700002D02D492046C847EFF31187202383F38A
:100680001288BFF36F8F238B23F008039BB2238361
:10069000D9063FD523F01002228303F007056669CF
:1006A000218B002EBFF67CAF0023D4F8008021F010
:1006B0000701C4E9003341F0010121839946238BEE
:1006C00003F0070AAA4502D0A268002AC1D1B8F1F6
:1006D000000F02D1B9F1000FDAD00022BAE7A16809
:1006E0000029C0D00D680029BDD04F68334652465E
:1006F0002046B8471DB12B6829461D46F3E72B4617
:10070000FAE74146334652462046D8F8008004F0C6
:10071000B3F8A8E79A067FF523AF23F020022283DF
:1007200003F0070527E700BFA5480000014B036061
:10073000002070471077000070B5104B1C680D4604
:10074000B4B10F4B196800238B4202DB6FF001003C
:1007500070BD224612F8106B864202D00133144657
:10076000F2E7E06805F068FA28B12C600020EFE7B6
:100770006FF00C00ECE76FF01200E9E70C000020CE
:100780001077000010B588B0436802938368C06892
:10079000CDE903320A680023CDE906230C4601AAFD
:1007A0000449059304F0D5FC079808B9059B23601C
:1007B00008B010BD894A00002DE9F04FD7B0DFF82E
:1007C00070A1DDF888C1DAF80050CDF80CC0DDF872
:1007D00084C1CDF808C00DF1380BDDF880C1CDF82B
:1007E00004B0CDF800C0639C07468846164604F066
:1007F00086F928B1DAF80050284657B0BDE8F08FE6
:100800006CB1A1465A4616AC134603CBA342C9F8B5
:100810000000C9F804101A4609F10809F4D10023B0
:10082000009332464FF6FF73414608A804F0ACF936
:1008300005900028DED1314638460D9C04F04DFA73
:10084000A042D7D34FF0FF3416E03F88202FD1D1FC
:10085000D9F800103B4616AA304604F0C8F8002824
:10086000C8D13A4616A9584604F035FA314B1B68F0
:100870008342BFD10123059306AF0DF11C090DF191
:100880001A033A46494608A804F0CCF90028B1DB1F
:1008900048D1D9F8001008A804F00FFABDF81A8062
:1008A00040B9254A4FF6FF7132F8023B8B42A1D086
:1008B0004345F9D1B8F1100FC7D0B8F1200F13D0CC
:1008C000B8F1010FD8D13B88202B93D8D9F800106C
:1008D00016AA304604F08BF800288BD1397816A878
:1008E00000F02EF80446C7E7002CABDB134B1B6867
:1008F0009C42A7DA3B88B3F5807F7FF47BAFD9F8C1
:10090000001016AA304604F072F800287FF472AF87
:10091000E4B200943B8816AA4146584600F0E2F83B
:1009200005468FE7059B012B7FF464AF64E700BFAA
:1009300014000020EC08002054790000007700002B
:100940002DE9F0412029A2B080460D4605D94FF08F
:10095000FF34204622B0BDE8F081124B124E1F68D2
:100960000024BC42F3DA08A806F069F8002108A8C0
:1009700003F01EFA736856F8081B1A6808A806F0F8
:1009800067F8694608A806F0A3F808A806F05BF81F
:100990002A464146684606F013FD0028D9D00134A6
:1009A000DFE700BF00770000047700002DE9F04F7B
:1009B0008A46ADF27C5D1946484B1F68DDF8A035CC
:1009C000B3F5807F40F08480202A40F081805EADC6
:1009D0002A4605F0C4FF0446002879D195F8FF3077
:1009E000BC2B75D10DF198090DF10C0B4FF0DF0800
:1009F0004E46CBF800000CA806F021F800210CA808
:100A000003F0D6F920220DF257210CA806F020F8A9
:100A1000042259460CA806F01BF804A90CA806F0FD
:100A200057F80CA806F00FF842469BF80330202A2E
:100A3000A8BF20220133484604A901928BF8033055
:100A400006F0A1FC019AA8EB0208B8F1000F91444E
:100A5000D1DC30463246DF23117815F801CB013B5B
:100A600081EA0C0102F8011BF6D1337803F07F0311
:100A7000337010F8015B5DBB0134BE2CF9D196F8E0
:100A8000BE30012B24D10CA805F0D9FF29460CA8B3
:100A900003F08EF9124908220CA805F0D9FF51463F
:100AA00020220CA805F0D4FF20220DF257110CA82B
:100AB00005F0CEFF04A90CA806F00AF80CA805F072
:100AC000C2FF20220DF2572104A804F004F90746C2
:100AD00038460DF27C5DBDE8F08F00BF14000020A9
:100AE000707D00002DE9F0479946A2B0294B9DF892
:100AF000A8A01D68064605A80F46904605F015FFFC
:100B00000922012105A805F014FF234B53F83A40B0
:100B1000039403EBCA0304AA5B681B681C442146C8
:100B2000302303A806F0A4F960BBDDE903321344C7
:100B30009C4227D106AA214603A805F0A9FC08BBC0
:100B400008AA214603A805F0A3FCD8B906A805F019
:100B50009FF9039B05909C4214D105A803F068F807
:100B600080B906A805F094F9059005A805F0F5FEF2
:100B7000484507D1009043463A46314605A8FFF75D
:100B800015FF054605A805F022FF284622B0BDE85E
:100B9000F08700BF140000200477000038B50E4B2A
:100BA000002918BF0B46436203F56C7303650121EE
:100BB000044604F0DAF858B90221204604F0D5F8CA
:100BC000054638B9206A03F051FFE065284638BD74
:100BD0000125FBE70925F9E78C01002010B52C233E
:100BE00059434218146A0CB904F0FAF941580D4BF4
:100BF000994206D1D16813895B1802D25189C9186C
:100C000001D300200CE0A3689942FAD2106920F4C5
:100C1000F97020F001000005000DB0FA80F04009E5
:100C200010BD00BF3DB8F3961FB52C2303FB020196
:100C30000A6A0AB904F0D4F90023CDE9023301931A
:100C40004FF480730093034BFFF7B6FD05B05DF8DA
:100C500004FB00BF304A00202DE9F0412C2606FBA2
:100C600001060546376A0C4690460FB904F0B8F9FC
:100C700004F0EBF818B9366916F0100603D01C4BD7
:100C80001868BDE8F081ACB105F1140105F1400030
:100C900004F000F900280DDA3146284604F0D5F8B2
:100CA00040B91448452103F087FE0121384604F07D
:100CB000C7F8E4E721462846FFF790FF88B90E4BB6
:100CC00018680E4B1B688342DBD00D4A0D4B0E4853
:100CD000002C18BF1A46452103F06EFE002CCED022
:100CE000E3E7224641462846FFF79EFFE9E700BFBB
:100CF00010000020007A000014000020EC08002002
:100D0000EE790000F67900002C7A00002DE9F84316
:100D1000099F0E46904699460024BC4201D300200C
:100D20000EE03D1BB5F5806F28BF4FF480650C4A7F
:100D30002B4604EB0901304603F059FE10B10120A7
:100D4000BDE8F8830899064A2B466118404603F02F
:100D500063FE0028F3D12C44FFF7B8FBDDE700BFAA
:100D6000F00800202DE9F04F89B00E46044604F04B
:100D7000A9F8014620B19048452103F01DFEFEE789
:100D80002046FFF70BFF054678B9002211462046A2
:100D900004F068F8054600B388480022572103F0A4
:100DA0000BFE012384F8583009E08548762257214C
:100DB00003F002FE01239D4284F85830E5D194F8F7
:100DC00058308DF81730042B33D8012B33D800F06E
:100DD000A480FF2384F858309FE0204600F00EF9ED
:100DE000012718B3774B049704A8CDE9053507957B
:100DF00004F091F808B904F0F3F8284602F0E0F99D
:100E0000831E022B05460ED804AA39462046FFF75A
:100E100023FF6D4B1B68984205D06C4B1D68A842A0
:100E200014BF0525012584F85850C8E784F8587088
:100E3000C5E7052BCBE7002303AA01212046039336
:100E400003F04EFF05460028D5D1276A002FD2D0E7
:100E5000D4F84C80B8F1000FCDD0D4F828A081464A
:100E6000CA4515D0636A03EBC9032946D3F804B019
:100E7000384600235A4603F098FF0028BBD1039B55
:100E80005D449D4252D3E56DB3FBF5F305FB03557D
:100E9000E06D03F085FFA26A636A013A196803EB0B
:100EA000C2030022D3F804E0724490429C46A3F1AE
:100EB0000803F7D8DCF800000023411A384603F095
:100EC00074FF0346002896D1CDE900053A46414615
:100ED0002046FFF71BFF00288DD1384602F0F8F8B6
:100EE0000346002887D1226D01465268404603F030
:100EF0009FFF034600287FF47EAFD4E91402013A35
:100F0000016850F8325000EBC207691A7A6840460F
:100F100003F08EFF00287FF46EAF94F85830FF2B5B
:100F200007D12B48452103F047FD64E709F101098A
:100F300096E70022012B274F039212D0114620463C
:100F400003F090FF68B13D68102200210DEB020014
:100F500006F027FA204603F0CDFF284609B0BDE889
:100F6000F08F002211462046FFF776FEDFF858800A
:100F70003D68D8F800309842E6D1A842E4D0134B3F
:100F80001B689842E0D00021204603F099FF00281A
:100F9000D9D1039B01330393039B012B00D0FEE7C0
:100FA000206A03F010FC3071236A5B683460D8F863
:100FB0000050B360C8E700BF547A0000C77A000051
:100FC000857A000001010001EC08002010000020DB
:100FD000F37A00001400002010B50446064803F020
:100FE00096FF05482146FFF7BDFE0446024803F080
:100FF000D6FE204610BD00BFF00C0020F8B5D0F89A
:1010000028C0BCF1760F02D8466D762E36D91F481F
:10101000572103F0D1FC0020F8BDAC4216D1476A3D
:1010200007EBC20701327F683C44076D07EBC3073B
:1010300001337F683D449445EFD89E42EDD89445F6
:1010400001D19E4220D012485721E2E70CD2476AD4
:1010500007EBC20702297F683C4402D10D485721A3
:10106000D7E701320121E6E7076D07EBC307012946
:101070007F683D44F2D001330221DCE700210B46BA
:101080000A460D460C46D6E70120C5E7FF7A000068
:10109000657B00002E7B0000BFF36F8F72B6124B92
:1010A0004FF0FF32C3F88020C3F88420C3F88820B3
:1010B000C3F88C20C3F89020C3F89420C3F898207C
:1010C000C3F89C20C3F88021C3F88421C3F8882189
:1010D000C3F88C21C3F89021C3F89421C3F8982158
:1010E000C3F89C21704700BF00E100E008B5044848
:1010F00003F089FBBDE80840024803F084BB00BF51
:10110000937B0000B97B000008B50348034A002127
:10111000121A03F01DFF08BDE0000020384B00202C
:101120000748084A084908B5121A03F013FF074890
:10113000074A0849BDE80840121A03F00BBF00BF78
:1011400000000020E0000020A87D0000000000203A
:1011500000000020A87D000030BFFFF7FDBF00BFEA
:1011600070B5264B15469A6A12F0100F9A6A14BF92
:101170001124102412F0080F9A6A18BF1224920743
:1011800006460AD5586B9A6A140634D519B19A6A7C
:1011900022F080029A62132401E06FF01500174BD1
:1011A0009A6A12F0010F9A6A18BF142412F0200FE5
:1011B0009A6A18BF1524D20602D49B6A9B070AD5E7
:1011C0000E4B5B68190506D5314600F0D7F910B112
:1011D00080F309880224094B9A6A920642BF5A6A30
:1011E00022F400525A629A6A42F0FF029A62002385
:1011F0002B70204670BD6FF01500CCE700ED00E0CD
:10120000134B9A6A12F0007F9A6A14BF1E201D20A9
:1012100012F0807F9A6A18BF1F2012F4002F9A6A7A
:1012200018BF212012F4802F9A6A18BF222012F4CE
:10123000003F9A6A18BF232012F4803F9A6A6FEA2F
:1012400002426FEA12429A6218BF2420704700BF20
:1012500000ED00E010B5194B0246986A9C6A10F444
:10126000805F14BF1720162014F4006F9C6A18BF0B
:101270001820A40509D5986B986A000404D51AB102
:101280009A6A22F400429A6219200C4B9A6A12F46C
:10129000806F9A6A18BF1A20D2050CD49B6A13F487
:1012A000005F18BF1C20054A936A43F47F43936292
:1012B00000230B7010BD1B20F5E700BF00ED00E020
:1012C000F0B5494B5B688BB00446C3F308030025B7
:1012D00085F31188BFF36F8F02F07F40B0F17F4F2D
:1012E00011D102F00C0008280DD010074CBF0C469D
:1012F00001250022033B8DF80720032B05D8DFE8EA
:1013000003F024686C652C46F3E700239DF8072062
:10131000CAB902AE04F1200720686168324603C2F0
:101320000834BC421646F7D1099A002D59D0C2F3B1
:10133000080121B96FEA52226FEA4222099202A9FA
:10134000184603F009FE0BB0F0BD274BDA6A91078F
:10135000DBD4DA6A002AD8DBDA6A5200D5D55A69BA
:10136000A16942F480725A61BFF34F8FBFF36F8F50
:1013700031F8022C596921F480715961BFF34F8F04
:10138000BFF36F8F02F47F43B3F55F4F04D1D2B246
:10139000022A01D12368B9E7134B9A6AD2B23AB153
:1013A0000DF1070201212046FFF7DAFE0346ADE703
:1013B0009A6A12F47F4F05D00DF107010120FFF763
:1013C00049FFF3E79B6AB3F5803F9ED3FFF718FF11
:1013D000ECE70DF107020021E5E70DF10701002020
:1013E000EDE76FF30802A9E700ED00E0044B5A694E
:1013F00042F010025A615A6922F008025A6170479D
:1014000000ED00E0EFF30880EFF3098101B57246CB
:10141000FFF756FF01BD00BF0B4880F3088801F0BD
:1014200075FA202080F3118808484FF404614018B1
:1014300080F30988EFF314800221084380F31488B5
:10144000BFF36F8F00F07EF8807B0020404B0020C0
:101450000749D1F890200023C2F30722184693428F
:1014600000DB7047C1F89830C1F8A0000133F6E7FF
:1014700000ED00E01EF0040F0CBFEFF30880EFF367
:101480000980816911F8021C0229FFD001B572465A
:1014900003F068FD01BD00BF40B2002807DB044A2D
:1014A0004109012300F01F00834042F821307047BA
:1014B00000E100E040B200280CDB4309064900F0DF
:1014C0001F0020330122824041F82320BFF34F8FB9
:1014D000BFF36F8F704700BF00E100E0054B42098A
:1014E00000F01F0053F82220012303FA00F01040FF
:1014F000704700BF00E100E040B20028A8BF00F143
:10150000604001F10101B8BF064B4FEA4111ACBF89
:1015100000F5614000F00F00C9B2B4BF195480F863
:101520000013704714ED00E0044B054A23F07F03DD
:101530009360BFF34F8FBFF36F8F704700000000C1
:1015400000ED00E008B5FFF7EFFF0B4AD2F8883056
:1015500023F47003C2F88830EFF3148323F00403FC
:1015600083F31488BFF36F8FFFF7CEFDFFF7D8FD2D
:1015700000F038F801F0A2FE00ED00E010F1160FC7
:10158000074B08D0984208D34033984205D299427D
:1015900003D2044870474033F9E70020704700BF8A
:1015A00080530020C053002080B50C4607461546E6
:1015B000084E86F3098800200449884720462946BA
:1015C0001A46B84702488047FEE70000834F0000F4
:1015D000914F0000C07B0020014B10221A61704720
:1015E00000ED00E0044800232021C2180133302B15
:1015F00082F80013F9D1704700E100E008B5EFF37D
:101600000583064A103B02EBC30152F833004968D8
:101610008847BDE8084003F0D2BC00BFF874000062
:101620000148006870470000500D0020024B034A3B
:101630000348022100F066B80000042000000020EA
:1016400054770000084AC2F898000B6823F01F0383
:10165000034343F01003C2F89C308B6843F001034E
:10166000C2F8A030704700BF00ED00E02DE9F04364
:10167000DFF8608085B00E461F4604464FF0000933
:10168000B14523DA6068D8B13FB1411E08421BD191
:101690001F2819D92368194216D12368019303F032
:1016A0008FFCA36803430393D8F89050C5F3072534
:1016B000D0B2013DA84207D801A9FFF7C3FF421CE1
:1016C00009F101090C34DBE76FF01502104605B093
:1016D000BDE8F08300ED00E0044B0522C3F8942040
:1016E000BFF34F8FBFF36F8F704700BF00ED00E077
:1016F000BFF35F8F024B0022C3F89420704700BFF6
:1017000000ED00E010B5034C01232278FFF7AEFF97
:10171000207010BD304B00202DE9F0435A4B5B4D3B
:10172000D3F890302C68C3F307239C4285B000F2B5
:10173000A780FFF7DDFF00200C2684421AD1544E0B
:10174000DFF8449134706846FEF7F0FF514C524D7B
:1017500080460027B84514D133784B490020D1F892
:101760009020C2F307229342C0F28480FFF7B4FFB7
:10177000002045E0696806FB0011FFF763FF0130B8
:10178000DBE7009800EB07114FEA071CCB6823400A
:10179000B3F5000F4DD00AD8B3F5001F33D0B3F521
:1017A000800F3BD0B3F5801F13D00137D2E7B3F1E0
:1017B000007F47D0B3F1805F4DD0B3F1807FF4D18B
:1017C00050F80C3088684A6803F0FAFB40F08870E3
:1017D00009E050F80C3088684A6803F0F1FB40F0EB
:1017E000885040F43020CDE901230390D9F890309F
:1017F0003078C3F30723013B984234D96FF01500CA
:1018000005B0BDE8F08350F80C3088684A6803F0F2
:10181000D7FB40F0885040F40020E4E750F80C304B
:1018200088684A6803F0CCFB40F0007040F4003058
:10183000D9E750F80C3088684A6803F0C1FB40F0E3
:101840008270D0E750F80C3088684A6803F0B8FB23
:1018500040F48020C7E750F80C3088684A6803F0ED
:10186000AFFB2843BFE701A9FFF7ECFE3378013354
:1018700033709AE7C1F89830C1F8A00001336EE7E1
:101880004FF0FF30BCE700BF00ED00E06C770000D8
:10189000304B00200000F0FF0000021108B50248A4
:1018A00002F02AFEFEE700BFEE7B000008B5024B07
:1018B0001B689847002008BD540D0020034B044AC4
:1018C0001860937843F0020393707047540D002022
:1018D0001800002008B5054802F095FF002383F3A7
:1018E0001188BFF36F8F0423184602DFF37B0000DB
:1018F00000B5FFF795FE034B0C221A5000205DF84F
:1019000004FB00BF080000000C4B0122C3F8402577
:101910004FF080434FF08051C3F87825D1F8300163
:10192000082805D1D1F83411022908BFC3F8382698
:101930000122C3F880250020704700BF00E001406D
:1019400048B1054B054A1B68B3FBF2F35843044BFF
:1019500043F0010318477047B800002040420F00D1
:10196000F076000008B5054A054B136010463F238A
:10197000536001F0A1F8002008BD00BF580D002001
:10198000FFFF0F002DE9F7431B4EDFF870801C4F5F
:1019900005460C4614B903B0BDE8F083EFF3118996
:1019A000202383F31288BFF36F8F03F044FD1549A2
:1019B000D1E90032C31842F1000008FB03F206FB34
:1019C0000022A3FB0630DB1942EB0002C1E9003222
:1019D00089F31188BFF36F8F042CA14628BF4FF005
:1019E0000409019228464A4601A905F0CCFC4D4461
:1019F000A4EB0904CEE700BFFDB0B087E62EBB27FD
:101A00002DF304B500000020084B70B5C31A0D4635
:101A100007499B10044659430648402203F0F2FA56
:101A20002B4601462046BDE870401847740D002043
:101A3000B76DDBB66C74000073B50C4C0C4A4023D8
:101A4000041B00930D460B460A49A4106143064649
:101A5000094803F003FB014628B130462B4602B08B
:101A6000BDE87040184702B070BD00BF740D002083
:101A7000CF500000B76DDBB66C7400000022F8B5E3
:101A8000012105461046FFF737FD104801F03CF8EC
:101A90000446B8B901F058F82F690D49384602F0EC
:101AA0000EFF031E09DB01263E642D69084905F17E
:101AB0001C0002F004FF031E02DA1C462046F8BD9B
:101AC000EE64FBE76FF00404F8E700BFCD1B0000F5
:101AD0009077000010B5EFF31184202383F3128870
:101AE000BFF36F8F074A136823F00201DB07116011
:101AF00002D4012003F00CFD84F31188BFF36F8F33
:101B000010BD00BFC40D002030B4104B0C2202FBEE
:101B1000003301460020D3E90E529863EFF31180A1
:101B2000202484F31288BFF36F8F1C6C04F0C00470
:101B300044F002041C6480F31188BFF36F8F1DB161
:101B40002B46034830BC184730BC7047740D00204A
:101B50006C74000010B4EFF31180202282F312881D
:101B6000BFF36F8F17490B6843F0020413F00103B2
:101B70000C601AD04FF08043D3F80C14D3F80C3417
:101B800013F0010311D0EFF3118182F31288BFF338
:101B90006F8F0D4A136C03F0C00343F0020313640C
:101BA00081F31188BFF36F8F012380F31188BFF396
:101BB0006F8F1BB110BC0020FFF7A6BF10BC012027
:101BC00003F09EBCC40D0020740D002010B101284C
:101BD00004D07047034B1B6C5B0701D1FFF794BF28
:101BE000704700BF740D00202DE9F0413549BFF367
:101BF0005B8F0746012251E8003F41E800200028A2
:101C0000F9D1BFF35B8F33B92F4930484B60CB60BC
:101C10008A6002F067FE7B1E012B4AD8012F07D194
:101C20004FF08043D3F81C3403F00303012B40D062
:101C300004F027F8054660B1EFF31186202383F303
:101C40001288BFF36F8F01254FF080444FF00108D9
:101C50001EE01F4B1B78002BEED04FF0804302227A
:101C6000C3F808230646EFE7304603F099F9D4F8A5
:101C70001835184A63B9D4F8041149B1C4F80431CD
:101C8000D4F80431C4F81885C2F88081C4F80880FB
:101C9000D4F81814D4F81834CA03E5D503F00303B4
:101CA000012B01D0012FDFD12DB186F31188BFF3B5
:101CB0006F8FBDE8F0814FF080430222C3F8042308
:101CC000F7E700BF700D0020600D0020900D002090
:101CD000344B002000E100E008B5074803F0ACFFFA
:101CE00038B10648FFF7EAFD0448FEF70DFC002076
:101CF00008BD6FF01200FBE7C0740000011D00007A
:101D00000A2838B5074D044604D1AB680D215B683D
:101D100028469847AB6803485B68E1B2984720467D
:101D200038BD00BFC0740000024B0B60012313607C
:101D3000704700BFC80D002000487047B47700000E
:101D400010B503F0E9FE034C206003F0E1FE606093
:101D5000002010BDC80D00204FF08042D2F81015B1
:101D6000D2F8103501F01E0123F01F030B4343F09E
:101D70000103C2F81035024B00221A70704700BFF1
:101D8000314B00204FF08053D3F83031082B20D155
:101D90004FF08042D2F81015CB071AD5D2F8103583
:101DA00001F01E0123F01F030B43C2F81035D2F8D7
:101DB00008315BB1D2F8103523F01F030B4343F019
:101DC0000103C2F810356FF08B007047024B0122FF
:101DD0001A700020704700BF314B00202DE9F04100
:101DE0000D46164603F094FE31460746284603F09A
:101DF000E5F928B3B5FBF7F307FB135303BBB6FBB9
:101E0000F7F407FB1464DCB9B74213D803F080FE83
:101E1000DFF834800746FFF7B5FF044668B9284667
:101E200001F02CF998F800300BB1FFF795FFF61B85
:101E30003D44F0D12046BDE8F0816FF08B04F9E716
:101E40006FF01504F6E700BF314B00202DE9F84391
:101E50000E463046194617461C4603F0AFF930B31C
:101E600046EA040515F0030521D11CB3DFF84890BC
:101E700024F00304AC4206EB050807D10F4AD2F860
:101E80000034DB07FBD50020BDE8F883FFF77AFFBD
:101E900050B97959404601F00DF999F800300BB16D
:101EA000FFF75AFF0435E5E76FF08B00ECE76FF0C2
:101EB0001500E9E72046E7E7314B002000E001404C
:101EC0002DE9F043476840F20636D0063B7C87B0E8
:101ED00002EA060654BFC2F3401C4FF0030C01F0A7
:101EE0001F05B6F5837F144645EA43158DF803C0F8
:101EF00044D00DD8062E16D005D8A6B1022E3FD05C
:101F00006FF0150037E0B6F5807FF9D101260AE0C1
:101F100040F20222964235D0B6F5407F34D0B6F575
:101F2000007FEDD10226220330D57A6801238B4051
:101F3000C2F80835B868A0BB05F01F036D092DD0A5
:101F4000012D77D13E4A02EB8302C4F30043D2F85D
:101F5000001783F00103C4F3404444EA430421F42E
:101F6000E16144EA8C0421F0070144EA06230B43B3
:101F7000C2F80037002007B0BDE8F0830726D2E79B
:101F80000426D0E70526CEE70326CCE7630341BF4E
:101F900001237A688B40C2F80C35CBE74FF0A042A2
:101FA000D1E70DF10202294603F022FD14F4403F6F
:101FB00080460CD1B868294603F04FFDB8F1000FF8
:101FC000D8D19DF80210B86800F054FFD2E74FF066
:101FD000000901ABCDE90199CDE90439CDF80C90A8
:101FE000B86803AA294603F0D8FB4845C2DB14F4BD
:101FF000003314D0C4F300449DF803308DF80E3044
:1020000084F001048DF80C608DF80D40B8684B46E3
:1020100003AA294603F074FC0028CFDAAAE7CDE929
:1020200004330DF103030393B86803AA294603F0B0
:10203000B4FBF1E703F5E07350F82330FFDE00BF97
:1020400000030050420970B5034602D0012A17D0A0
:1020500070BD0D4E326951680029F9D003F01F039D
:1020600001250C689D400029F2D08A682A4002D0E0
:102070004B68304698472CB1236821461C46F2E74E
:10208000024EE7E72346F8E7A474000088740000D6
:1020900038B54568A86890B103F0D9FC014670B91D
:1020A000A86803F0B8FC044658B902460649A86877
:1020B00003F09BFC224605210620FFF71DFA0020B5
:1020C00038BD6FF00400FBE745200000F0B545681F
:1020D0001646A8682A7C01F01F0487B044EA42141F
:1020E000002869D0B6F5001F04D1214603F008FD91
:1020F000002052E001AA0020B6F5800F0190506048
:1021000037D1B3F1007F14BF052304238DF80430C9
:102110000023CDE904230393EB6823FA01F111F0C6
:1021200001010DF103073AD1B6F1A07F37D104F0D8
:102130001F03620903F5E07326D0012A3FD1214A2B
:1021400052F82330DB072AD4A8683A46214603F028
:102150004FFC16301BD00297A86803AA214603F053
:102160001CFB002819DBA8680122214603F077FC3C
:10217000BEE7B3F1C06F05D0B3F1007F14BF0123F8
:102180000223C3E70323C1E74FF0A042D8E7A868C2
:10219000394600F075FE0028DDDA07B0F0BDA8680A
:1021A0003A46214603F024FC0028D5D19DF80310BF
:1021B000A86800F05FFECFE76FF08500EDE751F80B
:1021C0002330FFDE00030050036803F01F025B09A9
:1021D000026004D0012B034818BF002070474FF065
:1021E000A0407047000300502DE9F04F00EB81093B
:1021F000654985B01546834640F2FF1AD94503D19B
:10220000002005B0BDE8F08FDBF80020C2F3C7283E
:1022100018F00808C2F3C320C2F3080440F0B180EC
:102220005A4B544508BF4FF0FF34B2F10C5F1E5CAF
:102230004FEA126015D2222815D8DFE800F01727E0
:102240002B382E3438141414143E48141414141457
:10225000141414144B86898C1414148F9396999C1F
:102260009F004E2826D06FF08500CAE7C5F80C45C0
:10227000621C67D003A80394FFF7A6FF039A012707
:1022800007FA02F2C0F80825384639E0C5F81445C7
:10229000002718E0C5F80845EAE7C5F80845002713
:1022A000601C22D14EE0C5F80C450127F8E7C5F8BF
:1022B0001045EDE7C5F81445DAE7C5F80845002EE6
:1022C000E6D100270626631C3CD0002018E0C5F8A4
:1022D0000C45F4E7C5F86045BBF80220671C02F026
:1022E00001022FD0002AC5D1012703A80394FFF7CC
:1022F0006BFF039A8446012000FA02F2CCF80C2509
:10230000DBF80020019202F4004CBCF1000F08BF82
:10231000804603A818BF01270394FFF755FF039CCD
:10232000019A00EB8400C2F3412CD0F8004732023E
:1023300042EA8C0242EA08020C40224342EA470287
:10234000C0F800270BF1040B58E7C5F86445C3E754
:10235000C5F86845C0E7C5F86C45BDE7C5F8244534
:102360000127B0E7C5F8284582E7C5F83045F7E70B
:10237000C5F83445F4E7C5F83845F1E7C5F83C45FC
:1023800076E76FF015003CE7F0F8FCFF787D000081
:10239000684620F007018D4601B5134BD3F804239E
:1023A000D20517D5D3F82021A2B1EFF31182202155
:1023B00081F31288BFF36F8FD3F8201131B1002160
:1023C000C3F82011D3F820110121D96082F31188BC
:1023D000BFF36F8F044BD3F8583102F0F0FDBDE826
:1023E00001408546704700BF002000402DE9F041C4
:1023F000044647680D4603F044FC88B14FF02008BE
:10240000EFF31186314688F31288BFF36F8F60684F
:1024100002F07EFF30BB86F31188BFF36F8FEFE7CA
:102420001D4B1B78002BE9D04FF020086426606814
:1024300002F06EFF50B9012003F011F8013EF6D111
:10244000F4E786F31188BFF36F8FEFE7EFF31186A0
:10245000314688F31288BFF36F8F606802F058FF2F
:102460000028EED0BB691D706368BA691B68002044
:10247000C3F844250122C3F84825C3F82001D3F846
:102480002041C3F85801D3F858019A6081F31188AC
:10249000BFF36F8FBDE8F081344B002070B501238E
:1024A00083400F4ABFF35B8FDC4352E8001F01EA11
:1024B000040542E80056002EF7D1BFF35B8F4FF4BE
:1024C000803282400748C0F80823BFF35F8FBFF314
:1024D0006F8F03EA0100003818BF012070BD00BFF4
:1024E000F80D00200010014070B41249D1E9003409
:1024F000D01AC31844F1000422F07F46C1E9003429
:10250000A6F50013B3F5400F09D20B4B1B681A0A4E
:102510001B069C19094B42F10005C3E90045EFF386
:102520001181202383F31288BFF36F8F70BC00F0FA
:1025300023BF00BFF0000020FC0D0020F8000020A9
:1025400011B3BFF35B8F0123104A834052E800CFE1
:102550004CEA030C42E800C10029F7D1BFF35B8FBE
:102560000B4A4FF480338340C2F80433094BBFF366
:102570005B8F1B68BFF35B8FC340DB0742BF064B1B
:102580004FF40032C3F80021704700BFF80D00205F
:1025900000100140F40D002000E100E00D4B186830
:1025A000010A0006BFF35F8F0B4BD3F804351818F0
:1025B00041F10001B3F5801F0AD2084BD3E9002393
:1025C000904271EB030303D210F1807041F10001DE
:1025D000704700BFFC0D002000100140F8000020F3
:1025E0002DE9F04F85B016461F469DF840A00446E1
:1025F000FFF754FF0190FFF7D1FFB04271EB0703E3
:102600005ED23E4B301A67EB0101984271F1000136
:1026100009D36FF0150520460199FFF791FF284671
:1026200005B0BDE8F08F364B03EB0413D3E902236A
:102630009F4208BF964254D032494FF4803804F18B
:10264000500508FA04F8AD00C1F848832046ADB241
:1026500002F0E5FE26F07F4B05F1804504F5A873F6
:1026600005F58835DC464FF003090293029A2CF0F9
:102670007F4341F82230C1F84483D1F80435224A1F
:102680006FF00200C01A604420F07F40904228D9C9
:10269000286868B1D1F804350393A3EB0B0020F050
:1026A0007F40B0F5000F1CD9204602F0B8FE039B16
:1026B000BAF1000FADD109EB030C09F10109D5E71F
:1026C000BAF1000FA5D10123104ABFF35B8FA340DD
:1026D00052E8000F184342E800010029F8D1BFF387
:1026E0005B8F07490E98230101EB0412C8500F9B22
:1026F0005360C2E9026700258DE700BF010080003A
:10270000E000002000100140FDFF7F00F40D0020DC
:102710007FB51C4C1C4BC4F80833C4F848331B4B22
:1027200000254FF0FF304FF0FF31C4F80855C3E9E2
:1027300002014FF48033C4F80433154B02264FF4E2
:1027400000320121C4F804631120C3F880212A4615
:10275000FEF7D2FE1120FEF79FFE0E4A0123A36072
:10276000236013600C4B0D4A0093CDE90155002303
:102770002846FFF735FF3046FFF736FA284604B003
:1027800070BD00BF0010014003000F00E0000020FA
:1027900000E100E0F80D0020E9240000FFFF7F00C9
:1027A0002DE9F7432E4CD4F8043399070BD5D4F810
:1027B000043143B12B4A0023C4F80431D4F8043166
:1027C000136801331360D4F80433DA0343D5BFF33D
:1027D0005B8F254B53E8002F22F0010143E80010E6
:1027E0000028F7D1BFF35B8FD30702D4D4F8403170
:1027F0008BB30025C4F84051D4F84031FFF7CEFE2A
:10280000EFF31182202383F31288BFF36F8F174BEE
:10281000D3E90267B042B94120D34FF0FF304FF007
:10282000FF31C3E90201D3E900981D604FF4803302
:10283000C4F84833C4F84051D4F8403182F31188C9
:10284000BFF36F8FB9F1000F05D0CDF8008032468D
:102850003B460020C84703B0BDE8F083A946EDE73A
:1028600000100140FC0D0020F40D0020E0000020CD
:1028700030B5431C124C85B005D08442A8BF044635
:10288000012CB8BF0124FFF789FE0E4B0C4DD3E994
:102890000013401AB0F5000F10D22218AA4228BF28
:1028A0002A4652184FF0000007490091CDE9010077
:1028B00043F10003FFF794FE05B030BD2A46F0E770
:1028C000FFFF7F00F0000020E924000010B5084C55
:1028D000012363601120FEF7EDFD064BC4F80833B9
:1028E000C4F84833044B4FF40032C3F8802110BDC4
:1028F0000010014003000F0000E100E0024AD2F89E
:102900000034002BFBD0704700E0014010B54FF0C1
:102910008053D3F83021082A4ED14FF08042002155
:10292000C2F80C11C2F81011C2F8381502F5404275
:10293000D3F80414C2F82015D3F80814C2F82415EB
:10294000D3F80C14C2F82815D3F81014C2F82C15BB
:10295000D3F81414C2F83015D3F81814C2F834158B
:10296000D3F81C14C2F84015D3F82014C2F844154B
:10297000D3F82414C2F84815D3F82814C2F84C151B
:10298000D3F82C14C2F85015D3F83014C2F85415EB
:10299000D3F83414C2F86015D3F83814C2F86415AB
:1029A000D3F83C14C2F86815D3F84014C2F86C157B
:1029B000D3F84434C2F8703502F041FD18B1374BFA
:1029C000374AC3F88C2602F03AFD18B1354BFB228A
:1029D000C3F8182502F033FD58B14FF080424FF094
:1029E0008051D2F8E43ED1F8581261F30303C2F8E3
:1029F000E43E02F024FD20B12B4B4FF40072C3F8EB
:102A000040264FF08053D3F83031082B17D14FF0C8
:102A10008043D3F80024D20744BF6FF00102C3F80B
:102A200000244FF08053D3F83431042B81BF4FF092
:102A30001023D3F808224FF08043C3F858254FF0F5
:102A40001023D3F80022002A03DBD3F80432002B32
:102A500022DA164901234FF01020C1F80435122460
:102A6000FFF74CFFC0F80042FFF748FFC0F80442F0
:102A7000FFF744FF0023C1F80435FFF73FFFBFF322
:102A80004F8F0B490B4BCA6802F4E0621343CB60D3
:102A9000BFF34F8F00BFFDE710BD00BF00500040E7
:102AA0004881030000F000400090024000E0014037
:102AB00000ED00E00400FA05014B1860704700BF0C
:102AC000000E002010B5054B1868144602F0C9FC32
:102AD0000028A4BF2070002010BD00BF000E002001
:102AE000024A01238340C2F80435704700F00140D8
:102AF000014B00201B681847040E0020014B1B6887
:102B0000184700BF040E002010B50C4C237993B970
:102B1000012323710A4B2060002818BF184600F0DB
:102B200049F850B923680748002BBDE8104008BF9A
:102B3000184600F08FB86FF0770010BD040E00202B
:102B4000F12A0000FD2A000008B5064B1B683BB1C6
:102B50000020FEF7C3FC18B9BDE80840FEF79CBC96
:102B600008BD00BF040E002038B54FF0804401239B
:102B7000C4F8083363600023C4F80031D4F800318E
:102B800042F21075D4F80C24D4F80C34D20307D5D3
:102B9000DB0705D5012002F062FC013DF2D138BD12
:102BA00002F0C5FC0028FAD0014B00225A71F6E76A
:102BB0000C0E002010B508490C794CB901230860AF
:102BC0000B7102F0B4FC08B9002010BD4C71FBE79A
:102BD0006FF07700F9E700BF0C0E00204FF0804344
:102BE0000022C3F80021D3F80021094901221A600C
:102BF000096811B1C3F804237047D3F80021002AF3
:102C0000FBD00022C3F80021D3F80031704700BF89
:102C10000C0E002010B54FF08043D3F80423D207E8
:102C200015D5D3F8002192B10022C3F8002101216B
:102C3000D3F80021C3F8081302F079FC044B10B15B
:102C40005A7922B95971BDE810401B68184710BD68
:102C50000C0E0020074A137943B90121106011714D
:102C60004FF080421846C2F8183570476FF0770071
:102C7000704700BF140E002010B54FF080431D4C6C
:102C8000D3F81814D3F8182411F4803F1AD002F0A6
:102C90000302012A01D092B900224FF08043C3F809
:102CA00018250022C3F80421D3F8042101229A60D8
:102CB00022688AB9D3F80421002AFBD014E002F07C
:102CC00047FCE9E7D3F81424D107E5D5D3F81C2451
:102CD0009207F4D422681AB10222C3F8042310BD6B
:102CE000D3F80421002AFBD00022C3F80421D3F832
:102CF0000431F4E7140E0020F8B54FF08043194F6B
:102D0000D3F80443012504F01A04002604B9F8BDE1
:102D1000B4FA84F0C0F11F00830003F580739BB206
:102D200003F1804305FA00F2196892B224EA020422
:102D30000029EBD01E601B684FF08043022AC3F8C5
:102D400008230BD1D3F81814D3F81814890705D128
:102D5000C3F81855C3F804239D60D7E73B68C0B299
:102D60009847D3E7140E0020036803F01F025B09A5
:102D7000026004D0012B034818BF002070474FF0B9
:102D8000A040704700030050034A430900F01F00B1
:102D9000D35C1844C0B27047807D0000024611F039
:102DA000010030B515D18B07C1F3400022D512497F
:102DB000D1F8200550604FF08052C1F82005D2F8BC
:102DC0003021082A08BFD1F82025003818BF01207B
:102DD00010E04FF0A0444FF08055D4F82035136038
:102DE000C4F82035D5F83051082D08BFD4F8204557
:102DF000002BD8D030BD00BF00030050F7B504460B
:102E00000846FFF7C1FF04EB40060D46B38ADB0717
:102E10002AD5204602F09FFC2946204602F00BFCF2
:102E200050B1204602F01DFC276807EB800000230C
:102E3000C0F81035C0F810352946204602F03AFC9B
:102E40000021B18201A80195FFF78EFF019B00EBE5
:102E50008300074BD0F80027134043F00203C0F86B
:102E60000037084603B0F0BD6FF01500FAE700BF69
:102E7000F0F8FCFF014802F012BB00BFBC000020CC
:102E800010B504480C4602F0ECFA0028A4BF2070EC
:102E9000002010BDBC0000202DE9F04F074689B08E
:102EA00057F8049BD9F80413C9B28346082241F0AD
:102EB0000041484602F027FC051E2FDA00230321BB
:102EC00006A8CDE90633FFF769FF634B01930DF1C7
:102ED00018084FF0000A019A604912F8013B01926C
:102EE000DA0803F007038A5C22FA03F3DB071CD439
:102EF0000AF10103022B08F104084FF0010AEAD19C
:102F00004FF000410022484602F0FDFB032106A8D5
:102F1000FFF744FF0028D8D125F000450124002DFB
:102F200040F0848009B0BDE8F08F4D4B53440293CC
:102F3000D8F80060002EDBD0029B96FAA6F61C782B
:102F4000B6FA86F646EA44142046FFF71DFF0BEB5F
:102F50004000F208818A18F802000594C1F3820348
:102F60000393009306F00706012303FA06F620EA0E
:102F7000060008F8020005A8FFF7F6FE059A039B75
:102F800002F5E07211F0100F50F82260C6F301460E
:102F900033D0009A3846214602F06DFB05A805940F
:102FA000FFF7E2FE059B03F5E073F6B250F823301D
:102FB000C3F301439E4207D10021204602F02CFBBF
:102FC0003146204602F028FB05A80594FFF7CCFE09
:102FD000059B012202FA03F3C0F820354FF080531D
:102FE000D3F83031082B01BFD0F82035D0F8203588
:102FF000D0F82035D0F820359AE7022E14BF0221F0
:1030000003212046039302F007FB039B032B03D00D
:10301000022E07D1012BD7D1009A2146384602F063
:103020002AFBD1E7032ECFD1022BF4E795FAA5F3C3
:10303000B3FA83F304FA03F225EA020503F5A27258
:103040000BEB430359F82220B3F87C10C2F3014282
:10305000384602F010FB62E7907D00002C780000FB
:10306000907D0000044AD2F80034DB07FBD50160F4
:10307000BFF35F8F704700BF00E001404FF0805307
:103080001A69B0FBF2F302FB13036BB9084B02227F
:10309000C3F80425C3F80805D3F80024D207FBD5EC
:1030A0000020C3F8040570476FF00C00704700BFA4
:1030B00000E0014010B5054C0123C4F80435FFF7CA
:1030C000D1FF0023C4F8043510BD00BF00E001406B
:1030D000F0B5816885B01039054621F0070401F08C
:1030E000CCFC0B4B6A4603F110071868596816466A
:1030F00003C60833BB423246F7D110236A46214645
:10310000284601F089FC003818BF012005B0F0BD49
:103110007279000030B50D46816887B0102302AA8D
:103120001039044601F063FC002802DA012007B0E0
:1031300030BD102202A9204602F019FD00283AD124
:103140001E49102202A804F03BF900280CBF0123FD
:1031500002232B70204602F0F6FC012301460DF1FC
:103160000702204601F043FC0028DFDB9DF8073012
:1031700003F00F021B096A702B7101220DF1070188
:10318000204602F0F4FC10B96B78042B03D901231C
:103190006B7000232B71A268183A22F00702083ADC
:1031A000A91C204602F0F6FC0028BFD1E91C2046ED
:1031B00002F00CFDBBE70323CBE700BF72790000F0
:1031C0007FB5244D4400694655F8240002F004FD03
:1031D00090BB013402A955F8240002F0FDFC01283F
:1031E00004BF03238DF808309DF800509DF8086057
:1031F000194A08BF8DF80B3000241078294602F0D8
:10320000A8FCF8B15078314602F0A3FCD0B1937815
:10321000042B03D09DF80310994213D1D378042BCB
:1032200003D09DF80B1099420CD11379042B05D1D2
:103230005079831E022B0BD9FF2009E09DF8021064
:103240009942F5D00134032C02F10602D5D10120B8
:1032500004B070BD30780000927D000038B50A4B94
:1032600053F82040013053F82050A54200D838BD13
:10327000606830B1037EDB0701D402F0C5FC08347E
:10328000F3E723689847FAE73878000008B5094B58
:10329000012203201A70FFF7E1FFFDF727FF04204A
:1032A000FFF7DCFFFDF7A4F8034A938923F001033D
:1032B000938108BD344B00200001002008B5002098
:1032C000FFF7CCFF174B83F30888174C636943F46F
:1032D000007363610025E02384F82230E5772576CA
:1032E0006576A57684F82050636A43F4E023636230
:1032F00084F82350FEF77AF8FEF76EF94FF0FF33AB
:10330000A362E362FEF708FAFEF790F90120FFF7E7
:10331000A5FF0220FFF7A2FF04482B462A462946B4
:10332000FEF742F98053002000ED00E08D320000EE
:10333000024B1868984208BF00207047C000002068
:1033400030B570B10B4B5B6898420AD0036843B14B
:10335000D3E90421D0E90445121941EB0501C3E981
:103360000421D0E9003213605A600023C0E9003321
:1033700030BD00BFC00000202DE9F047DFF8A49069
:10338000DFF8A480C9F800000246FFF7D1FF0D4620
:1033900000260027D8E900134FEAE27E50B1D0E9B9
:1033A000044CA2427EEB0C0A19DAA41A6CEB0E064E
:1033B000C0E9044652184FF0000443EB0E032046C8
:1033C000C8E90023C9F8004002F061FC2146FFF77C
:1033D0004FFA85F31188BFF36F8FBDE8F08761184E
:1033E00043EBE473C0E90467C8E90013FFF7A8FFE3
:1033F00001224FF00043C0E9042385F31188BFF395
:103400006F8F83689847EFF31185202383F3128829
:10341000BFF36F8FD9F80020121BC9F80020FFF707
:1034200087FFB7E71C0E002080010020054B1B68BA
:10343000013143400132084022EA03020243501E98
:1034400000B27047340E00202DE9F04F99B0CDE95D
:103450000210002118460192059302F0DCFD0028BD
:1034600000F0E8818F4B14934FF0010915AB0599DB
:103470000198ADF83090ADF83890CDF84090CDF887
:103480004890139302F050FD01301ED1039B33B9D5
:10349000029B9BB90023184619B0BDE8F08F039832
:1034A000002102F0C5FC0028F2D000240094A046C0
:1034B000A246274626466FF08C03D5E0DDE90110D1
:1034C00002F07FFC0028F0D1E4E7002501990B957C
:1034D0000BA8ADF8325002F074FC0B9EBDF83270B0
:1034E0000446002840F09F810D90ADF83A00059900
:1034F0000DA802F066FCDDF834A0BDF83A80054660
:10350000002840F09581019B0F90D988ADF8389044
:1035100002310FA8ADF8309002F0E3FB044618B179
:103520000F9B00932C46C6E701460FA802F080FCD3
:103530000F9B00930028BED1019B1190D98811A840
:10354000023102F0CEFB119C83460028B3D10DA8B6
:1035500002F09AFC00F01F001F2870D0C0F11F037A
:1035600019460BA8049302F0B7FC0B9EBDF832700D
:103570000028A0D104990DA802F0AEFCDDF834A01B
:10358000BDF83A80002896D1C1463D46A7EB080B0E
:103590004FEA4B1319460DA8CDF834A0ADF83A8088
:1035A000079302F099FCDDF834A0BDF83A800028BA
:1035B00081D1009B03EB8B0B0DA90BA80B96ADF8EB
:1035C0003270CDF834A0ADF83A8002F0DCFC00286F
:1035D0003ADA09F1FF33079906930DA802F09BFC34
:1035E00009F1FF330AEB8303079309F18043023BA0
:1035F0000AEB830305F1FF3B05F180450993013D8B
:10360000009BA5EB090503EB8505069B9B454BD865
:10361000039B73B10FA9184602F0D3FB00287FF477
:103620004AAF019B059A9B88928813FB02F3039A89
:103630009380029B002B40F0D980002314E0C14608
:103640003D46CDF810B0A1E7DBF800300BA90133FF
:10365000CBF800300DAA084602F0CDFD0B9EBDF858
:10366000327003460028A7D00BA801930B96ADF843
:10367000327002F028FB0DA8CDF834A0ADF83A80E6
:1036800002F021FB009B0F930FA802F01CFB11A876
:10369000119402F018FB0C2115A800F0A3FD019B6A
:1036A000F9E600BF01000300079B56F82B101A68CB
:1036B0004FEA8B09A9F104003318914208934BD2C9
:1036C00000233058FCF71CFD002914BF4FF0FF33D6
:1036D0000346BBF1010F18BFB1442B6014BF59F86A
:1036E000083C00231593089B1B68169306EB8B037D
:1036F0001B6817932B6801332B602B68013B2B60F1
:10370000002111A8119402F093FB119C00287FF472
:10371000D2AE069B1BB3099B1B682360079B1B68EB
:10372000636011A92A68084602F069FD119C00280F
:103730007FF4C1AE13A911A802F025FC0028DCDC3F
:103740002A68CDF834A00DA911A8ADF83A8002F08E
:1037500056FD30B1119CAEE64FF0FF33B9E7069B42
:10376000DBE7009A6FF007034FEAC50902FB0399F4
:10377000494611A802F0B0FB119C00287FF49BAED3
:103780000BA911AA08460B96ADF8327002F033FD72
:103790000B9EBDF83270034600287FF465AF0146EA
:1037A0000BA802F038FC00281CDA0DA911A802F0C1
:1037B00008FB0028CED1494611A802F08DFB119CD0
:1037C00000287FF478AE0BA911AA084602F010FD7C
:1037D0000B9EBDF83270034600287FF445AF2B687E
:1037E000013B2B600BF1FF3B043D0EE704990B9668
:1037F0000BA8ADF8327002F08EFB019B02989B88FB
:10380000ADF830300BA902F0DCFA014600287FF455
:1038100052AE029802F0FFFB00287FF40EAF029A2E
:103820000123938009E72C460095A846AA4642E664
:10383000009440E66FF00B032DE600BF044B1B68BD
:10384000584043085B4240421843C017704700BFCE
:10385000340E002010B50B4C2268236842405940BA
:1038600081EA0200C00FFFF7E9FF2368521A4340C4
:1038700022EA030208401043BDE81040C00FFFF7E2
:10388000DDBF00BF340E00208842F0B504D0094FE0
:1038900004380025AA4200D1F0BD3E6850F8044F1C
:1038A0005E4024EA060451F825601E40344304605B
:1038B0000135EFE7340E00202DE9F74F0025DFF842
:1038C00054B08046894692462C469D4203D12046FC
:1038D00003B0BDE8F08F59F82560019321463046CA
:1038E000FFF7B8FF361B5AF82510DBF800200091CF
:1038F00007463046FFF7AEFF0099DBF80020019B3A
:1039000000F0010407F00107761A48F825603C44EE
:103910000135DAE7340E00208B422DE9F84328BF49
:103920000B46DE08089CA1EB030803F00709844658
:1039300015460346B64600210EF1FF3EBEF1FF3F9D
:1039400003F1200305F1200514D102EB46104FEAE4
:1039500089050CEB461600EB8907ACEB0202B84276
:1039600079D14A4C2E44B8F1000F40F083800846CC
:10397000BDE8F88355F8207CA7FB0470CF1953F8F5
:10398000201C40F10000CF1943F8207C55F81C1C86
:1039900040F10000A1FB0417401853F81C1C47F12C
:1039A0000007091843F81C1C55F8181C47F10007BC
:1039B000A1FB04107F1853F8181C40F10000C9192E
:1039C00043F8181C55F8141C40F10000A1FB041723
:1039D000401853F8141C47F10007091843F8141C49
:1039E00055F8101C47F10007A1FB04107F1853F88D
:1039F000101C40F10000C91943F8101C55F80C1CAC
:103A000040F10000A1FB0417401853F80C1C47F1CB
:103A10000007091843F80C1C55F8081C47F100076B
:103A2000A1FB04107F1853F8081C40F10000C919CD
:103A300043F8081C55F8041C40F10000A1FB0417D2
:103A4000401847F1000153F8047C3F1841F1000190
:103A500043F8047C70E784465CF8043BA3FB043E17
:103A6000CB1881584EF1000ECB1883504EF1000157
:103A7000604674E73068084446F8040BFFF7EAFE36
:103A800008F1FF38236800F001016CE7340E0020D4
:103A90002DE9F04F8DB01D46189B179F1A9E059279
:103AA000B3F12A3F83468A4640F08D803946169806
:103AB00002F001FD012838BF0120470900F01F0472
:103AC0007B01502B34BF01230323012B0A930CBF2E
:103AD000022308230B930A9B059805FA03F306EBD0
:103AE0008303069303EB8503079302F0E1FD4FEA9E
:103AF0008508089042460021304603F052FC01231D
:103B00003360079B0393089B199ACDE90153059BEA
:103B1000009331462B46304606EB080902F0DCFDE7
:103B200051464246484603F02EFC0223494609937B
:103B30000B9B099A934248D142463146584603F0BE
:103B400022FC4FF00009CA46079B0393089BCDE96E
:103B50000153059B00935A462B465946584602F09E
:103B6000BBFD002C47D1013F1F24169B53F8273083
:103B7000E34003F0010343EA49090A9B0AF1010A01
:103B8000534503D0002CDFD1002FDDD1189BB3F1BA
:103B90002A3F32D10698424609FB086103F0F3FB45
:103BA000079B0393089B069ACDE90153059B00935D
:103BB00059462B46584602F08FFD002CC1D1BFB9A3
:103BC0000DB0BDE8F08F00247AE7079B0393089BB4
:103BD00001EB080ACDE90153059B00934A462B46A9
:103BE000504602F079FD099B0133099351469FE746
:103BF000A146A246A8E7013CB7E731464FF0000ACC
:103C00000A4B18681B68584080EA090080EA0A00DD
:103C1000FFF714FE2A46C3430698FFF735FE099BBB
:103C20000AF1010A53454144EAD1B9E7340E0020B4
:103C300070B50021044602F01DFE054610B10E4D80
:103C4000284670BD261D304602F01EF97F28F6D9A1
:103C50000C342946204602F007F90028EFD0204610
:103C600002F012F90128EAD93146204602F08BF918
:103C70000028E5DBE3E700BF00BEFFFF2DE9F04FC2
:103C8000CFB00446039100F1480346AD00F1680649
:103C9000186859682A4603C20833B3421546F7D15B
:103CA00004AAD2E94483D2E94797D2E942160193A4
:103CB000D2F824B13D4BD2F8185102934FF0000CCA
:103CC000BCF10F0F5AD8039B53F82C301BBA4FEAA4
:103CD000F52E87EA0900DDF808A093608EEAB51E8C
:103CE00028408EEA756E784070445AF804EBCDF89F
:103CF00008A0704403444FEA713E46EA010006EA18
:103D0000010A8EEAB10E00EA080040EA0A008EEAD3
:103D1000B15EDDF804A0CDF804800CF1010C5B4429
:103D20008644BCF1400F9A4402F104027344BB463E
:103D30001DD104A8C0E94897C0E946A5C0E9446878
:103D4000C0E94231C0E9003E45A904F144036434AE
:103D500053F8042F51F8045F9C422A441A60F7D1AB
:103D60004FF4947100F03EFA4FB0BDE8F08FB046CA
:103D70004F460E46A94619465546A1E7136852F824
:103D800034AC52F8380C4FEAF34E8EEA734E8EEA9A
:103D9000932E52F8143C03444FEABA4080EAFA10DA
:103DA000734480EADA00034491E700BF50780000D2
:103DB00003460846C1B9C3E910110D4A0D49DFF8A1
:103DC00038C0C3E912120D4A0D49C3E914C20D4AA5
:103DD000C3E916120C4A1A6602F17452A2F52302C4
:103DE000A2F692425A6670476FF08600704700BF95
:103DF00085AE67BB67E6096A72F36E3C3AF54FA57C
:103E00007F520E518C68059BABD9831FF0B50646D7
:103E10009BB00F4615461C464BBB684602F00FFE92
:103E2000144A154B15491648CDE91223154BCDE917
:103E30001413154BCDE91603144B189303F1745367
:103E4000A3F52303A3F692433A46314668461993F5
:103E5000CDE9104402F0FCFD2946684602F038FE28
:103E60006821684600F0BEF920461BB0F0BD6FF037
:103E70008604F9E767E6096A85AE67BB72F36E3CB4
:103E80007F520E513AF54FA58C68059BABD9831F25
:103E90000928024818BF0020704700BFA47D000019
:103EA00001680E4A9142034615D1C169A2F1102260
:103EB000A2F1EF1291420ED18268012A0BD8C2689A
:103EC00012B101698A4206D0586928B19B691B1A50
:103ED0005842584170470120704700BF55AA00FF63
:103EE00070B50E4B9E68B6B13046FFF7D9FF044659
:103EF00018B9F3687BB935690DB9204670BD2846FD
:103F0000FFF7CEFF28B9EB68B34204D12E462D69E6
:103F1000F2E70446F1E70124EFE700BF200E00209E
:103F20002DE9F8433F4E3468D4B1B468C4B10028D9
:103F300075D0002973D001FB00F5B5FBF0F0884285
:103F40006DD1281D6BD8A9070DD025F003070437C4
:103F5000F46803E06368BB4207D2A469002CF9D17E
:103F60002046BDE8F8832F46F2E7A3681BB12E4B2D
:103F700001201B6898476268D21B232A04F120089D
:103F80001FD80123A360D4E90523C2B19361A369BB
:103F90000BB162695A610023C4E905333369DA075A
:103FA00006D5FFF79DFF18B11F4B1B6801209847EE
:103FB0002A4600214046444603F0F3F9D0E7F36077
:103FC000E5E707F120016318203A5A600022C3E9AF
:103FD0000224164822691A6160501549D96102B15C
:103FE000D36062695A61A1699961B2B193619A69BA
:103FF00002B153614FF00109C4E901792361002343
:10400000C4E905333369DB07D2D5FFF769FF002820
:10401000CED0054B48461B68C9E7F360E7E70024AC
:104020009EE700BF200E0020C800002055AA00FF18
:10403000669911EE70B50546002800F08480424E66
:104040003368002B7FD0B268002A7CD0834203D82B
:1040500072681344984203D33C4B01201B68984775
:10406000A5F120042046FFF71BFF18B1374B0120B4
:104070001B68984755F8183C012B03D0334B01209F
:104080001B68984755F8143C002245F8182CC3B11A
:104090009968002942D155F81C2C02F120015A6878
:1040A0000A445A6055E905321A6155F8145C2B69C7
:1040B00003B1DD6020462022002103F072F923467F
:1040C0002C462069002836D08268002A33D16368E4
:1040D000426820331344636003692361D4E90523F4
:1040E000F2B923BB436963618269A2610BB39C612E
:1040F000A36903B15C61236903B1DC602022002164
:1041000003F04FF933699B071DD5FFF7E9FED0B1E6
:104110000E4BBDE870401B68012018471346D0E7DE
:104120009361A369002BDDD062695A61DAE7F3601D
:10413000F7E7F460DCE7002BE4D1F368A36103B197
:104140005C61F460DEE770BD200E0020C800002036
:1041500038B514220C4605460021134803F021F916
:104160001249134800F034F8232C1CD915F003032E
:104170001FBF043CE418C3F10403ED1822460021DC
:10418000284603F00EF9084B0A499D60C3E9005424
:10419000203C6C609A6811609A68DA60A1F1102185
:1041A000A1F1EF11D16138BD200E00203540000093
:1041B000213F000055AA00FF014B1B68184700BFB4
:1041C000D0000020014B1B68184700BFCC00002026
:1041D000024B1860024B002019607047D00000208D
:1041E000CC00002010B50A46044619B1024B00214C
:1041F0001B68984710BD00BF50790000F0B5114C06
:10420000059F24684440002B14BF9C468C46E44321
:10421000002303F1040E774502D2BB4209D3F0BD5F
:10422000D5585CF80360054026403543CD507346B1
:10423000EFE7D55C1CF80360054026403543CD54BC
:104240000133EAE7340E0020054B5A78022A04D1E4
:104250001878C31F5842584170470020704700BF6C
:10426000380E002000F6FF7240F67E739A4277D92E
:10427000434213F07F031AD05842831D2EDA10F107
:104280003D0F6BD010F13C0F52DA10F15F0F47DA9F
:1042900010F1680F41DB683040F25513C34013F052
:1042A000010F0CBF6FF083006FF08600704710F1B4
:1042B000850F30DA10F5834F4AD02EDC10F5864F8B
:1042C00049D01FDC10F5994F22D010F5894F45D009
:1042D00010F5A14F21D16FF085007047831D062B8B
:1042E0001BD801A252F823F011430000D74200006E
:1042F0001B430000D74200001B4300001B4300008B
:104300006143000010F5854F25D010F5844F04D18E
:104310006FF0860070470028AFDD6FF083007047B4
:1043200010F1400F14BF6FF083006FF093007047DF
:104330000E300728F1D80123834013F0150FE7D181
:1043400013F0A00F0CBF6FF083006FF09300704765
:104350006FF0920070476FF0960070476FF0930017
:10436000704700BF10B5104C2378580744BF03F0C6
:10437000FB032370990705D500F08CF8237823F010
:1043800002032370637813B1084802F0B1FD0023E3
:1043900006486370B021FFF725FF2378DA0744BF92
:1043A00023F00103237010BD380E00203C0E0020C6
:1043B00038B5FFF749FF30BB164D2B78DC075CBFE3
:1043C00043F001032B70980707D400F05BF82B78BB
:1043D00043F002032B700446C0B96A786AB9D90762
:1043E0000BD50D4800F01AF801230B486B7000F054
:1043F0002DF8044650B902236B702B785A075CBF26
:1044000043F004032B700024204638BDFFF7AAFFB9
:10441000FAE700BF380E00203C0E002010B50368FC
:1044200004460BB9074B036062680AB9064A62602A
:1044300004F10800984704F16C00BDE8104002F058
:1044400099BE00BFC5440000FF6F00001FB50446C1
:104450000A4B03930920FFF71BFD0323019303ABD2
:104460000146074A009304F16C0004F1080302F0CE
:1044700042FFFFF7F7FE04B010BD00BF50534100EC
:104480004B700000024B012283F84023002070474C
:10449000EC2E0020F8B5094C002501270326E76122
:1044A00026762046013502F005FD102D04F50D7429
:1044B000F5D1034B002283F84023F8BDEC0E002019
:1044C000EC2E002037B50446002529460561502210
:1044D000143002F066FF2046E56002F043FB012342
:1044E0000093044920232A46204602F09BFD03B096
:1044F00030BD00BF4F710000F8B50E4B1D68AB78A2
:104500009B07064612D56F6816F8014B29462CB951
:104510000A20B847002805DB204609E02046B847B6
:104520000028F1DAAB7843F00403AB704FF0FF30B2
:10453000F8BD00BF8C7700002DE9F04F8378D0F8EC
:10454000048015469A0785B0074640F19F800026F3
:104550000878002800F09C80252808D001F1010A85
:1045600001363946C047002880F286808AE091F8FB
:1045700001B0BBF1250F01F1020AF1D000240121A5
:104580001F2C25D8ABF12002102A06D8844B01FA43
:1045900002F018420ED1032A5AD0ABF13002092A98
:1045A00008D9BBF12A0F33D1630605F1040501D404
:1045B00044F020041AF801BBBBF1000FE0D13946EA
:1045C0002520C04700285DDB023639465846C9E73A
:1045D0007F2CE2D9BBF16C0F29D021D8BBF1680F39
:1045E0002CD0BBF16A0F30D0BBF14C0F2DD0ABF10A
:1045F0006302122A00F2A580DFE802F02C4EA3A38A
:10460000A3A34EA3A3A3A3A3AD9DA3A331A377000C
:10461000BBF12E0FDED160063AD444F04004C9E766
:10462000BBF1740FC6D0BBF17A0FC3D0DFE722060F
:1046300048BF44F4007444F08004BBE7E30548BF7E
:1046400044F4007444F48074B4E744F42074B1E793
:104650001024AFE715F8040B0136394682E72C68C1
:10466000504B002C08BF1C46A1464B4619F8010BC5
:1046700020B9341B1E190435514669E73946C04735
:104680000028F2DABB7843F00403BB704FF0FF362A
:10469000304605B0BDE8F08F20061DD5A10545BF09
:1046A000073525F0070555F8040B55F8080B0028C9
:1046B0000DF10409B8BF404249464FF00A02B8BFA5
:1046C00044F4806402F08CFE6405A0EB090956D422
:1046D0004C460DF1040B5EE0E20555F8040BE6D5FF
:1046E000A3054CBF40B200B2E1E724F01004A4B22D
:1046F0000A22200633D5A10545BF073525F0070559
:1047000055F8040B55F8080B10B924F01004A4B2A6
:104710000DF10409494602F063FEE306A0EB090926
:10472000D6D539463020C0470028ABDBBBF1000F9F
:104730001ED10136CCE744F0100410224FF0780B64
:10474000D7E74BF02002782A7FF439AFCBF178021B
:1047500042F01002CDE708224FF0000BC9E7E30555
:1047600055F8040BD0D5A1054CBFC0B280B2CBE741
:10477000023639465846C0470028A9DA82E7013692
:1047800039462D20F7E7013C39461BF80400C047A5
:104790000028FFF677AF002CF5D14E446CE700BF40
:1047A000812801005B7C000038B5044C044DAC420C
:1047B00000D138BD54F8043D9847F8E700000000E8
:1047C0000000000070470020704730B5002985B018
:1047D0000446154611DB83688B420ED96368C068B6
:1047E000194401AA00F0B1FC28B96268019B9B1A28
:1047F0002B60029B6B6005B030BD6FF02100FAE7C3
:104800007047002070470FB407B504A951F8040B96
:104810000191FBF77FFE03B05DF804EB04B0704735
:10482000038B13F0070306D10368002B18BF032086
:1048300008BF00207047022B05D1408BB0FA80F0F2
:10484000400980007047012B04D10368002B18BF7A
:104850000520EDE70020704710B50C4600B111B9F6
:104860006FF0150010BD081D00F087F80028F9D181
:10487000A368032BF6D9F3E72DE9F0410D4607466F
:104880001946281D90461E4600F088F8044638B1A7
:104890003346424629463846A446BDE8F0416047C3
:1048A000BDE8F08110B4EFF31182202484F3128864
:1048B000BFF36F8F416110BC0121FBF743BE38B5D8
:1048C0000C46054658B151B10B6843B14B6833B142
:1048D0001C22002102F065FD2C61002038BD6FF024
:1048E0001500FBE7F8B504460E46FFF7B5FF051EB9
:1048F0003BDBEFF31182202383F31288BFF36F8F2A
:10490000638B278B4FF6FF718B4207F007072ED082
:10491000062F2FD8DFE807F0182E082E18041800ED
:104920006FF08505002303E0013363830225012333
:1049300082F31188BFF36F8FBBB100233A46314633
:104940002046FFF799FF10E000233360636823B926
:10495000C4E9006627B13D46E4E71E606660F9E7FA
:1049600002212046FBF7EEFD3D462846F8BD6FF0DC
:104970000A05D7E76FF00405D4E7034658B142684B
:1049800002F00302012A03D0032A04D1026812B103
:104990000020986070476FF0150070474268816092
:1049A00002F00302032A4FF0000203460CBF006826
:1049B00010465A60704770470FB407B504A951F804
:1049C000040B0191FBF7A6FD03B05DF804EB04B006
:1049D0007047002908DB8068884205D9401A904258
:1049E00034BF00200120704700207047704770B529
:1049F00016461A4605460C46FFF7EBFF48B16968B4
:104A0000E8682144826814683246A446BDE87040D4
:104A100060476FF0150070BD70B516461A46054622
:104A20000C46FFF7D6FF48B16968E8682144826800
:104A300054683246A446BDE8704060476FF01500E8
:104A400070BD10B50B460446FFF7C3FF40B1616867
:104A5000E068194483689B682BB1BDE81040184793
:104A60006FF0150010BD6FF05700FBE708B5C06888
:104A70008368DB689847006808BD08B5C06883682C
:104A8000DB689847407908BD30B54C680368A3429D
:104A900001D2012030BD8A682244934201D3002014
:104AA000F8E7D1E90452954203D36FF00B038B6111
:104AB000F5E7CA681B1B42F835304368086902EB0A
:104AC000C00253600B6901330B61E2E737B50C4656
:104AD000C0B201A91546FBF72FFE00280CDB019898
:104AE00050B121462A46FBF74DFE04460198FFF7D8
:104AF0007DFF204603B030BD6FF01504F9E72DE9C6
:104B0000F0479AB0DDE9245768460C46229E92464B
:104B1000994601F094FF00216846FFF749F935B145
:104B2000002F04DD3A462946684601F091FF63896B
:104B30002289D4F80C80134498440025A84508D84D
:104B40002399684601F0C4FF684601F07CFF002409
:104B50000FE0A8EB0507B74228BF37463B464A4659
:104B600029465046FFF743FF044630B1684601F03E
:104B70006AFF20461AB0BDE8F0873A4649466846C3
:104B800001F066FF3D44D9E72DE9F7430E4617468D
:104B90009946044628B94FF0FF38404603B0BDE8B7
:104BA000F0830029F7D0002AF5D0CB680D891D4489
:104BB00004230DEB030229463846FFF718FF804611
:104BC0000028E8D1BDF80410738946F60812914216
:104BD00025D1BDF806109942DDD104230DEB030267
:104BE00029443846FFF703FF0028D4D1BDF804203C
:104BF00046F607139A42CED1C4E900679DF82830E3
:104C0000A4F80890A3727389BDF806202B44E360D2
:104C1000738913442B44043563612561BDE7002B80
:104C2000E4D0B8E72DE9F3410E4617461D46044689
:104C300020B94FF0FF3002B0BDE8F0810368002BCF
:104C4000F7D04368002BF4D04FF6FF78D4E9041373
:104C5000994215D223685B8923B1E3688B4204BF74
:104C600004312161042360680DEB0302FFF7BFFEEE
:104C70000028DED1A37A2BB1D4E903329A4201D3C2
:104C80000120D8E72389BDF80610434501F104024D
:104C900003D0BDF804C09C450BD115B1BDF804305C
:104CA0002B802369043333603980236913442361E3
:104CB000C1E7236913442361C8E748B103683BB1E6
:104CC00043682BB1C068884294BF00200120704720
:104CD0004FF0FF30704702F073BB084600F033BF5F
:104CE00001292DE9F341174601D900F079F92C2368
:104CF00003FB0104D4F82080B8F1000FF5D0E3687D
:104D000026891E4404230DEB030231464046FFF77B
:104D10006EFE054620B10125284602B0BDE8F081AF
:104D2000BDF80420648946F608139A421AD1BDF8EA
:104D300006309C4201D00325EEE704230DEB03026D
:104D4000A1194046FFF753FE0028E4D1BDF8042026
:104D500046F607139A42EED1BDF8061021443144BD
:104D60003960D9E7002CF1D0E5E713B576220129A7
:104D70000346019208460AD15A6A03F1280401A9A0
:104D8000FFF7A4FE08B9019B236002B010BD022901
:104D900003D11A6D03F15404F1E70120F5E77047E0
:104DA0004FF4B1735843303070472DE9F7431F4635
:104DB00083688B4206460D46914633D95B1A93426F
:104DC00030D307B36A46FFF700FD041E2CDB013D1C
:104DD000DDF800804D446A4629463046FFF7F5FC71
:104DE000041E21DBDDE9009530462A464946FFF7DF
:104DF00028FE041E18DBFBF769FB77B1C84513D208
:104E000009F1FF35E7E701396A464944FFF7DDFC60
:104E1000041E09DBDDF80080DDE74D44A84503D31F
:104E20000135D8E74FF0FF34204603B0BDE8F083EA
:104E300010B412B110BCFFF7B8BF104610BC7047D9
:104E4000002382681946FFF7F3BF08B52C2303FB44
:104E50000101086A08B900F0C3F8BDE8084004225F
:104E600000F085BEF8B513460F46164600210246EF
:104E7000054600F05DF8044650B9334605F12C02B2
:104E80000121284600F054F810B1002F18BF044645
:104E90002046F8BD02780B789A420FD80BD342789F
:104EA0004B789A420AD806D342884B889A4205D852
:104EB00060EB000070474FF0FF30704701207047F3
:104EC00000207047002110B504460846FBF7E4FABD
:104ED00004F12001C0B2FBF72FFC40B90121FBF720
:104EE000DBFA04F14C01C0B2FBF726FC08B100F07C
:104EF00077F810BD10B50446C06C08B1FFF776FD19
:104F0000206A18B1BDE81040FFF770BD10BD6022E7
:104F1000002102F046BA4379012B07D10368012B27
:104F200004D10079431E5842584170470020704711
:104F300008B52C2303FB0100006A08B900F050F803
:104F400020230021FFF753FD003818BF012008BDC2
:104F500002F027BA02F017BA012801D1EFF3058356
:104F600000F080BE01460068FFF7F6BF08B5FCF709
:104F7000F3F8BDE8084000F022B800210120FFF757
:104F8000EBBF61B662B680F31188BFF36F8F7047D5
:104F9000EFF31180202383F31288BFF36F8F7047E4
:104FA00072B6002383F31188BFF36F8FBFF34F8F67
:104FB00020BF80F31188BFF36F8F62B670477047D0
:104FC000202809D9B0F1004F08D80138B0FA80F094
:104FD000C0F11F0040007047082070473E20704716
:104FE00008B5FCF777FC08B5FCF760FC002008BDAD
:104FF00070470369C9B20C2202FB0133186C00F040
:105000000700704770B50346C9B20069EFF3118617
:10501000202484F31288BFF36F8F0C2505FB010455
:10502000246C14F0C00401D0A24211D105FB010090
:1050300001220264002086F31188BFF36F8F30B91C
:105040005B680C2202FB01335B689847002070BD4F
:105050004FF0FF30EFE78022FFF7D4BFF8B5069F8F
:1050600004690546C9B2EFF3118C202080F3128841
:10507000BFF36F8F0C2606FB0146306C00F0070E65
:10508000BEF1010F10D1376400268CF31188BFF3F5
:105090006F8F3EB90C2041430C44C4E90E236B686A
:1050A0005B5898473046F8BD00F0C00087420CBFFF
:1050B0006FF077064FF0FF36E7E713B580240094D2
:1050C000FFF7CCFF02B010BD6FF08500704710B441
:1050D0000069CBB21C2404FB0300002110BC104764
:1050E00000F04FBAFDF7C8BDF7B51C4616460023C1
:1050F00082682360A36053690D4601AA69469847F8
:10510000019B5A1E01921BB96FF0150003B0F0BD50
:105110000098A26847682168676085B9B31AD0F81B
:1051200000C0634528BF63461A4403FB0711216092
:10513000A26002689A4206D808300090E0E76B1A35
:10514000B3FBF7F3EBE70020E0E713460022FFF79D
:10515000CBBF2DE9F047836886B05B6988469146EE
:1051600001A902AA98470024A2462546029BAB4209
:1051700002D806B0BDE8F087019F07EBC5070026FF
:105180007B6804933A68B2420AEB060302D8013501
:105190009A46EBE703940593494603A8C0470028C5
:1051A000E7D0049B01361C44ECE710B50C4600F038
:1051B000A9FC0023C4E90003184610BD38B5054614
:1051C0000C4600F09FFC002D07DBA84205D9401BD0
:1051D00084428CBF0020012038BD0020FCE770B560
:1051E0000D462846194616461C46FFF7E7FF38B11C
:1051F00024B122462946304602F0C5F8002070BD91
:105200006FF01500FBE743685B68D3F810350B605F
:105210000020704743685B6802EA010021EA02014E
:10522000C3F80805C3F80C150020704743685B6895
:105230000020C3F80815704743685B680020C3F876
:105240000C15704743685B68D3F8042521EA020017
:105250001140C3F80805C3F80C150020704730B59D
:105260000369586800B30024884219D108688CB9D2
:105270009C685860A14200D19860002008602AB163
:105280005A680A609A68596002B9996000200FE074
:105290002846E9E720609868814208BF9C60ECE7F7
:1052A00005680446002DF3D1002AE9D16FF01500FE
:1052B00030BDFDF7F1BD30B543681360057A446831
:1052C00004EBC504A34202D36FF0010030BD5C794A
:1052D0008C4203F10803F0D10020F7E743681B6814
:1052E000D3F88004C3F88004704742681368D3F889
:1052F000100150B1D269002012780A70C3F8100171
:10530000D3F8102101221A6070474FF0FF30704728
:1053100002680346D2F8580140B95B68DB0706D43F
:10532000D2F82001003818BF0120704701207047D3
:1053300013B501AA0446FFF7BEFF002805DB019B59
:10534000226819791868FCF74FFF02B010BDF8B554
:105350000022054601210220FCF7CEF80220FCF7CE
:105360009BF86C680121E068FFF7E2FF6B681A6840
:105370002369C2F82435617D237D0B43A17D0B4356
:10538000C2F86C356E68D6E9004313F001030ED005
:105390002F6904F10C0107F1080204F5907000F088
:1053A0009BF800283ADB387AFDF79AFB01230822A4
:1053B000C4F80025B269C4F8442501210022C4F8CC
:1053C0004825A1606BB9D4F82031002BFBD0C4F87C
:1053D0002021D4F820310123E3604FF48073C4F816
:1053E0000433D4F85831002BFBD00021C4F8001549
:1053F0006D682C68E868FFF79BFF0823C4F8003548
:105400002A7A52B9EB69C4F834350123C4F8383527
:10541000C4F81021D4F8102123600020F8BD00F159
:1054200050039B009BB203F1804303F588330022B5
:105430001A601B68704708B5FDF7B0F808BD4FF05B
:105440008053D3F83021082A03BFD3F83401B0FACF
:1054500080F040090020704703460020184700F004
:10546000CFBB10B502461168B1B1BFF35B8FB1FA83
:1054700081F3C3F11F000123834021EA030352E8B3
:10548000004F8C4204D142E8003CBCF1000FF6D141
:10549000BFF35B8FE7D110BD6FF00B00FBE710B5DA
:1054A0000368CB40DB0714D401238B400268BFF3B1
:1054B0005B8F43EA020150E8004F944204D140E878
:1054C000001CBCF1000FF6D1BFF35B8FEED10020C2
:1054D00010BD6FF01500FBE770B50C4600210546C6
:1054E00008461646FDF7EEFA48B93378DB0003F1BB
:1054F000804303F5F833C3F81055C3F8144570BD65
:1055000010B1012802D07047FDF7B6BBFDF766BBAE
:1055100018B1012803D100F019B800F032B8704773
:1055200008B5FDF777FBBDE80840FDF7E5BB4FF098
:105530008053D3F83021082A06D1D3F83401022849
:105540008CBF00200120704700207047FDF70CBB86
:1055500038B54FF080440223C4F808330123E360D8
:105560000023C4F80431D4F8043142F21075D4F8A1
:105570001834DB0304D50120FFF771FF013DF6D19C
:1055800038BDFFF7E5BFF7B5019001A8DDE9084791
:1055900016461D46FDF7E8FB019BB6F1000C18BF4F
:1055A0004FF0010C00EB83000B1E18BF0123002DF0
:1055B00043EA4C030CBF4FF0000C4FF00C0C002CD6
:1055C00043EA0C030CBF4FF0000C4FF4E06C002FCB
:1055D00043EA0C03D0F800270CBF4FF0000C4FF447
:1055E000403C43EA0C0322EA030301B109780EB1FF
:1055F0003678760019430DB12D78AD0031430CB1EA
:105600002478240229430FB13F783F040C433C43E4
:10561000C0F8004703B0F0BD1FB50DF10F030193B3
:1056200000238DF80F1000931A461946FFF7ABFFC1
:1056300005B05DF804FB10B504460846FDF7A4FB71
:1056400004EB4004207DC0F3401010BD10B50446AB
:105650000846FDF799FB04EB4004207DC0F34000B1
:1056600010BD10B504460846FDF78EFB04EB400460
:10567000A08A400B10BD70B5044608461646FDF7DB
:1056800083FB08300D4634F81030DA0509D5C3F332
:10569000432304EBC302314654F8333052682846A2
:1056A0009847A3682BB1E26831462846BDE87040B0
:1056B000184770BD10B504460846FDF765FB04EBBE
:1056C0004000838ADA051DD5C3F3432123F4F85340
:1056D000838204F1120204F1720032F8023F13F4E3
:1056E000807F03D0C3F3432399420BD08242F4D18D
:1056F00004EBC10300225A6004F17800BDE81040B9
:10570000FFF7CDBE10BDF0B5034600F58074002054
:1057100005460127844695420AD1D3F87C2132B14F
:105720000022C3F87C21D3F87C3140F00040F0BD6A
:1057300025F0404607FA06F6314209D0D4F800E0D9
:10574000BEF1000F04D0C4F800C0D4F800E030432C
:1057500001350434DFE738B504460D46FFF76BFF2B
:10576000A8B12046FFF772FF88B92046FFF779FFFE
:10577000226801238340C2F80833236803EB8000CA
:10578000D0F8103523F00303C0F8103538BD284693
:105790000021BDE83840FFF73FBF2DE9F043174631
:1057A00085B004460846FDF7EFFAD7F800800E46AC
:1057B0000546B8F1000F1ED02046FFF747FF18B18D
:1057C0002046FFF738FF20BB0023CDE900338DF8DA
:1057D0000E308DF80F300DF10F0243460DF10E0122
:1057E0003046FFF7D0FE04EB4502938A23F0020314
:1057F00043F0010393827B689BB33146204693F8C4
:105800000080D3F80490FFF721FF28B1B9F1000F11
:105810001FD06FF0150027E004EB4500838A23F4C6
:10582000604323F020038382B9F1000F11D0B8F157
:10583000030FEED87B6821685B6893F800C04FEADD
:105840008C031944B8F1000F11D1C1F81085C1F8CB
:10585000108504EB4502938A23F01C0343EA880376
:105860009382BB6843BB002005B0BDE8F083D1F84C
:10587000102522F00302C1F8102522681344D3F842
:10588000102522F44F3222F44072C3F81025320260
:10589000D3F8101502F47C5242EA08420A43C3F8D6
:1058A000102504EB4C03A3F87C60838A43EA4C3355
:1058B00043F020038382CCE7D3E9007831462046C9
:1058C000FFF7F8FE002FCED063689F4206D004F1A8
:1058D0007800FFF7C6FD002804DAC5E7A3689845FD
:1058E000F5D1002004EBC003C3E9017804EB4505C2
:1058F000C0B2AB8A43EA402343F48073AB82B2E781
:105900002DE9F043054685B0084616461F46FDF7CB
:105910003BFA0C46804626B32846FFF797FE18B997
:105920002846FFF788FE18BB05EB4809B9F8143084
:1059300003F01C0313B17378012B19D001238DF8E8
:105940000F300023CDE90063721CB31C0DF10F0171
:105950002046FFF718FEB9F8143043F00303A9F806
:105960001430002F3FD021462846FFF76FFE20B9A4
:105970006FF0150005B0BDE8F0833E782B6803EBAF
:1059800086030022C3F81025C3F8102505EB480252
:105990004FEA860C938A23F4604323F0200393821A
:1059A000787800B32968BF7861440004D1F81035D5
:1059B00023F4991323F4F853C1F81035230200F4AB
:1059C000403003F47C5303433805D1F8105500F4FC
:1059D000801003432B43C1F81035938A43EA4633C2
:1059E00043F0200393820020C4E7C0E9031270470C
:1059F00070B504461546FFF71EFE48B10846FDF790
:105A0000C3F904EB40040020A38A5B0B2B7070BD2C
:105A10006FF01500FBE738B590F88C4005469CB94F
:105A200060222146143001F0BCFC2868C0F87C419B
:105A3000D0F87C3140F30730FBF72EFD012385F8C9
:105A40008C30AB67204638BD6FF07700FBE790F8ED
:105A50008C00003818BF01207047FDF7CFB92DE941
:105A6000F34104461746FFF7E6FD0D462668F0B100
:105A70002046FFF7EBFD8046C8B92046FFF7F1FD51
:105A8000820002F5807346F80380F35823681344BC
:105A9000D3F8102542F00102C3F8102527B122687F
:105AA00001238340C2F8043302B0BDE8F081D6F888
:105AB0000433002BA4BF4FF00043C6F8043328463C
:105AC000FDF762F904EB4004A38AC3F38203042BBD
:105AD00012D0052B12D001A80195FDF745F9019BC5
