:10000000805700203D1B000033590000291B0000D1
:10001000291B0000291B0000291B00000000000014
:10002000000000000000000000000000991B00001C
:10003000291B000000000000291B0000291B0000F4
:10004000211D0000211D0000211D0000211D0000B8
:10005000211D0000211D0000211D0000211D0000A8
:10006000211D0000211D0000211D0000211D000098
:10007000211D0000211D0000211D0000211D000088
:10008000211D0000211D0000211D0000211D000078
:10009000211D0000211D0000211D0000211D000068
:1000A000211D0000211D0000211D0000211D000058
:1000B000211D0000211D0000211D0000211D000048
:1000C000211D0000211D0000211D0000211D000038
:1000D000211D0000211D0000211D0000211D000028
:1000E000211D0000211D0000211D0000211D000018
:1000F000211D0000211D0000211D0000211D000008
:1001000053B94AB9002908BF00281CBF4FF0FF317E
:100110004FF0FF3000F00CB8ADF1080C6DE904CEE3
:1001200000F008F8DDF804E0DDE9022304B07047D0
:10013000704700BF2DE9F04786468C460846089E6A
:10014000154674461946002B40F0C2808542B2FA2B
:1001500082F245D94AB1C2F1200300FA02FC2EFA1C
:1001600003F3954043EA0C0C94404FEA154EA8B2B5
:10017000BCFBFEF8230C0EFB18CC08FB00F943EA8D
:100180000C43994528D9EB1808F1FF3704D299455B
:1001900002D9A8F102072B44A3EB0903A4B2B3FBD5
:1001A000FEFC0EFB1C330CFB00F044EA0344A042AF
:1001B00014D92C190CF1FF3304D2A04202D9ACF1AE
:1001C00002032C44241A43EA07401EB1D440002302
:1001D00034607360BDE8F0874746DDE76346F1E7CA
:1001E00092BB431B01214FEA154EAFB2B3FBFEFC9D
:1001F000200C0EFB1C330CFB07F840EA0343984528
:1002000062D9EB180CF1FF3004D2984502D9ACF159
:1002100002002B44A3EB0803A4B2B3FBFEFC0EFBCD
:100220001C330CFB07F744EA0344A7424ED92C19B0
:100230000CF1FF3304D2A74202D9ACF102032C44E3
:10024000E41B43EA0040C0E7C2F1200320FA03F1B7
:10025000954090402EFA03F303434FEA154EAFB298
:10026000B1FBFEFC0EFB1C10190C0CFB07F841EA5D
:100270000041884504FA02F422D969180CF1FF30D4
:1002800004D2884502D9ACF102002944A1EB08014F
:100290009BB2B1FBFEFC0EFB1C110CFB07F743EA03
:1002A00001439F420ED9EB180CF1FF3104D29F425B
:1002B00002D9ACF102012B44DB1B41EA004192E779
:1002C0006046E3E76146F7E76046A3E76346B7E7C2
:1002D000834206D916B9002108467BE7C6E900E04B
:1002E000F9E7B3FA83F78FB9834201D3724508D88F
:1002F000BEEB020460EB030301209C461EB9002103
:1003000068E73846FAE7C6E9004CF8E7C7F1200C81
:10031000BB4022FA0CF41C432EFA0CF120FA0CF329
:10032000B84001434FEA14490EFA07F5B3FBF9F858
:100330001FFA84FE09FB18300B0C08FB0EFA43EA87
:1003400000439A4502FA07F240D9E31808F1FF305A
:1003500004D29A4502D9A8F102002344A3EB0A0370
:1003600089B2B3FBF9F809FB183308FB0EFE41EA2A
:1003700003418E452CD9611808F1FF3304D28E4514
:1003800002D9A8F10203214443EA0040A0FB0298ED
:10039000A1EB0E014145CE46434602D306D14D4561
:1003A00004D2B9EB020E68EB04030138002EA6D08C
:1003B000B5EB0E0261EB030101FA0CFC22FA07F324
:1003C0004CEA0303F940C6E9003198E74046C5E727
:1003D0004346D9E730B5304B304AC3F800263048A1
:1003E000C3F8042687B0C3F808264921C3F80C26B1
:1003F000C3F81026C3F81426C3F81826C3F81C2621
:1004000005F0EAF900F07EF803A800F07BFD254B2B
:100410001B68834204D02448452105F0DDF9FEE73E
:10042000059A2248492105F0D7F9039920484B7DC8
:100430000A7DC98A0091492105F0CEF91D4849215C
:1004400005F0CAF99DF8100002A900F039F8044639
:1004500008B105F0A8FA029A059B174D1344039AB8
:10046000128913442B6002F0C1FD01F059F801F02C
:1004700081FB2B681B6883F3088884F31488BFF31F
:100480006F8FBFF36F8F2B685B6898470B484521D0
:1004900005F0A2F9FEE700BF000001403546526EAC
:1004A0001E770000DC080020377700005A77000034
:1004B00089770000A777000078010020CC77000042
:1004C00008B5024638B105480023452105F084F9F6
:1004D0006FF0150008BD0860FCE700BFEF77000073
:1004E00021B1012906D06FF015007047044B53F875
:1004F00030007047024B03EBC0035868704700BFE1
:100500008874000002484FF4C05104F033B800BFB3
:10051000100E00202DE9F04FF7B0DDE981799B4600
:100520007F4B039036A80E461D68144606F034FC37
:10053000002136A804F056F93FB1B9F1000F04DDEF
:100540004A46394636A806F030FC33897289D6F817
:100550000CA013449A444FF00008C24563D80CA97C
:1005600036A806F061FC36A806F01AFC839B5BB146
:100570000CAF0DF1500C3A4603CA62451860596041
:10058000174603F10803F6D10023009322464FF6E5
:10059000FF73314606A804F091FD8046002852D131
:1005A00003980B9E214604F080FEB0424BD3DFF847
:1005B00074A1DFF874914FF0FF360DF1120304AA15
:1005C00005A906A804F0C8FD00283CDB40F0A18086
:1005D000059906A804F00CFE50B9BDF81200534A64
:1005E0004FF6FF7132F8023B8B422CD09842F9D182
:1005F000BDF81270102F30D0202F6CD0012FDCD11D
:10060000BDF81030202B1ED8059936AA204605F0DB
:10061000FEF80646B8B99DF810B0BBF1200F34D9EA
:100620004FF0FF36C9E7809BAAEB0809994528BF20
:1006300099464B465A464146204605F0E8F828B10F
:1006400036A806F0ADFB364B1D6865E04A465946B4
:1006500036A806F0AAFBC8447FE7BDF81070202F2B
:10066000F1D105993B4636AA204605F0D0F800287E
:10067000E9D13A4636A90CA804F0C8FDDAF80030F2
:100680008342E0D14FF0010897E7D9F80030284FB6
:100690000393039B9E42C3DA1CA806F07DFB002156
:1006A0001CA804F09FF87A6857F8081B12681CA869
:1006B00006F07BFB14A91CA806F0B6FB1CA806F0EC
:1006C0006FFB5A4636A914A806F036FD00283FF401
:1006D00074AF0136DDE7731C3FF46FAFD9F800301B
:1006E0009E429DDABDF81030B3F5807FABD10599FD
:1006F00036AA204605F08BF80028A4D1F6B2BDF842
:100700001030009636AA39460CA800F0A9F8054624
:1007100086E7B8F1000F96D0284677B0BDE8F08F95
:1007200004000020DC08002090740000F076000037
:10073000947400002DE9F0478946ADF5AE6D194679
:10074000454B1E68DDF89035B3F5807F7ED1202AB9
:100750007CD15CAA03F0FEFF0446002876D19DF808
:100760006F32BC2B72D10DF190080190DF27454606
:100770000AA806F011FB00210AA804F033F8202291
:100780000DF24F210AA806F010FB04220DEB020126
:100790000AA806F00AFB02A90AA806F045FB0AA867
:1007A00006F0FEFA202F9DF80730BA46A8BF4FF09A
:1007B000200A01334046524602A9A7EB0A078DF8EA
:1007C000073006F09CFC002FD044D1DCAC465CAB7B
:1007D0002946DF22087813F8017B013A80EA0700F6
:1007E00001F8010BF6D12B7803F07F032B701CF876
:1007F000017B5FBB0134BE2CF9D195F8BE30012BD3
:1008000024D10AA806F0C8FA39460AA803F0EAFF7C
:10081000124908220AA806F0C8FA494620220AA866
:1008200006F0C3FA20220DF24F110AA806F0BDFA15
:1008300002A90AA806F0F8FA0AA806F0B1FA2022DE
:100840000DF24F2102A804F0E1FC064630460DF5FA
:10085000AE6DBDE8F08700BF0400002015780000F1
:100860002DE9F04F9A46A3B02F4B9DF8B0501E686B
:10087000074604A88846914606F04FFA092201214E
:1008800004A803F029FF294B53F83540029403EBE9
:10089000C50303AA5B681B681C442146302302A8D9
:1008A00005F025FB002838D1DDE9023213449C42D3
:1008B00033D106AA214602A805F02DFB68BB0DF135
:1008C000200B5A46214602A805F025FB054620BB11
:1008D00006A805F0D2FE029B05909C421DD1CDE9F1
:1008E000005B2B462A4606A904A806F0D3F9A0B956
:1008F00004A803F009FF80B906A805F0BEFE059024
:1009000004A806F00EFA504507D100904B46424627
:10091000394604A8FFF70EFF064604A806F003FABE
:10092000304623B0BDE8F08F04000020947400002E
:10093000094A0B78400052F820108B4209D0013050
:1009400052F82000834214BF4FF0FF304FF4B170D3
:1009500070474FF4B17070479C7400001FB5582366
:1009600003FB01006A46046AA1681023103920467F
:1009700004F04DFF034628B122780448452104F0D5
:100980002BFF0024204604B010BD00BF1D780000DE
:100990002DE9F3471E4683688B4205460C461746F1
:1009A00043D95B1A934240D386B36A4604F06BFB8B
:1009B00000283CDB013FDDF800803C441D4FDFF8A0
:1009C00078906A462146284604F05DFB00282EDB1D
:1009D000DDE9004A28465246214604F042FF00283D
:1009E00025DBC7F80096C7F80496C7F80896C7F83D
:1009F0000C96C7F81096C7F81496C7F81896C7F85B
:100A00001C966EB1444512D9013CDAE7511E2144CF
:100A10006A4604F038FB002809DBDDF80080CDE7EA
:100A20005444A04503D30134CBE74FF0FF3002B06C
:100A3000BDE8F087000001403546526E38B50E4BD8
:100A4000002918BF0B46436203F56C73036501214F
:100A5000044604F082FC58B90221204604F07DFCD3
:100A6000054638B9206A04F011FFE065284638BD14
:100A70000125FBE70925F9E77C01002000487047C4
:100A8000E00C002073B50D46044600212846CDE950
:100A9000001104F0A6FC58B323681F4EB34206D1E0
:100AA00001AA204604F014FC08B104F07CFFE36ABC
:100AB000B34206D16A460121204604F009FC002811
:100AC000F3D1DDE90032934288BF0193019BAB6013
:100AD000019A2946204600F01BFC104B1A68002A98
:100AE00003DD0F48572104F077FE002002B070BDEF
:100AF00001462046FFF732FF06460028D5D005F113
:100B0000080104F0B5FB0028CFD1AB680193304653
:100B100004F07CFEDCE700BF3DB8F396400D0020FA
:100B2000497800002DE9FF412C2707FB0107044607
:100B30003D6A0E4690460DB904F035FF284604F094
:100B4000ACFE7B1EFA1C13F8011F814226D1934292
:100B5000F9D1CEB12946204604F0AAFC98F8073016
:100B6000042B0CD1216A0029E6D0204604F0A0FC19
:100B7000024648B92248492104F02EFE04E0002034
:100B800003F070FF0428EDD01E4B186804B0BDE8D8
:100B9000F0811D4B186825E01C4A2EE02C2373437E
:100BA000E1180869C206D4D4E258194B9A42F0D130
:100BB000CA680B899B18ECD24A89D218E9D2AB6873
:100BC0009A42E6D240F60C630340E2D1CDE902330B
:100BD00001934FF4807300932A460E4B394620460A
:100BE000FFF798FC0C4B1B688342CFD0002ED3D06C
:100BF0000121284604F032FC084A09484521BBE798
:100C00008A780000000000200400002078780000AE
:100C10003DB8F39610260020DC0800208078000004
:100C2000C97800002DE9F84FDFF870B01C4C1D4D5D
:100C3000884691469A4600260B9B9E4201D300208F
:100C40000FE00B9B154A9F1BB7F5806F28BF4FF431
:100C500080673B4606EB0A01404604F0D8FD10B120
:100C60000120BDE8F88F0A993B465A46711848465C
:100C700004F0E2FD0028F3D1C4F800563E44C4F865
:100C80000456C4F80856C4F80C56C4F81056C4F8F4
:100C90001456C4F81856C4F81C56CDE7E0080020D6
:100CA000000001403546526EF0B587B00E4604464E
:100CB00004F0D9FB014620B18A48452104F08CFD9F
:100CC000FEE72046FFF7BAFE054678B90022114636
:100CD000204604F067FB054610B3834800225721E5
:100CE00004F07AFD012384F8583009E07F48762229
:100CF000572104F071FD01239D4284F85830E5D15D
:100D000094F858308DF80F30042B00F28F80012BAF
:100D100000F2948000F0AA80FF2384F85830A5E008
:100D2000204600F0EFF90028DCD002A804F050FBC8
:100D30000146204604F0FAFB18B16D482A465721B7
:100D4000CEE702A804F04DFB80F0010102AAC9B26F
:100D5000204604F027FB02460028BED102A804F07A
:100D600040FBC8BB02A92046FFF78CFE08B104F087
:100D70001AFE9DF80F3084F85830DA1E012A19D86F
:100D800000F0E2F89DF80F3028B9023B022B08D999
:100D900094F8583011E0023BFF22022B84F85820CF
:100DA0000DD8002000F0BAF80028F1D0FF2384F815
:100DB000583004E09A1E022AF3D9FF2B04D14D4883
:100DC000452104F009FDD2E700221146204604F037
:100DD000E9FA002886D0CAE79DF80F70012F18D1D4
:100DE000104603F03FFE831E022B05460ED802AAD2
:100DF00039462046FFF796FE3F4B1B68984205D0C8
:100E00003E4B1D68A84214BF0525012584F85850A3
:100E100076E7012102AA2046FFF784FE364B1B68C5
:100E200098420CBF9DF80F3005235CE7052B7FF43B
:100E300073AF002000F088F8C0B16DE702A920462A
:100E4000FFF720FE002892D194F85830DA1E012ACC
:100E50000AD800F079F818B9002000F05FF828B13E
:100E6000FF2384F8583082E7022BF5D094F85830ED
:100E7000FF2BA4D00022012B214D019210D011464E
:100E8000204604F08FFA58B12D681022002102A8E4
:100E900006F043F9204604F0FEFA284607B0F0BDFC
:100EA000002211462046FFF73DFE134F3B68984253
:100EB000EAD12B689842E7D0104B1B689842E3D0E8
:100EC000019B01330193019B012B00D0FEE7206AB7
:100ED00004F0D7F83071236A5B6834603D68B36012
:100EE000D3E700BFF17800006479000022790000A8
:100EF00090790000BA790000DC0800200000002092
:100F00000400002010B50446002004F040FA024816
:100F10002146FFF7C9FE10BDE00C002013B5094BB8
:100F200001A913F8300000F05DFC48B9019806F003
:100F30007CF80446019804F069FC204602B010BD1C
:100F40000124FAE7A47400001FB50F4B01A913F8A0
:100F5000300000F047FCA8B9019802A903F02CFD6D
:100F6000044668B99DF80B30032B03D1019806F0B5
:100F700024F80446019804F049FC204604B010BD52
:100F80000124F7E70124F8E7A47400002DE9F341F8
:100F900006460C4617461D460BB9002121E01846AF
:100FA00004F01FFA01460028F7D13046FFF7D6FCBF
:100FB00018B9012002B0BDE8F08101A904F058F988
:100FC0000028F6D10199304604F0F3FA736A5968A3
:100FD0006B79012B0CD1002CDFD12B68834298BF99
:100FE00000212C2303FB0466306AB0B904F0DBFC5B
:100FF000022BD2D12B68012B05D98342CDD8B4FA6C
:1010000084F46409C9E7C8D1002CEAD0012CC4D10A
:101010002C79023C18BF0124BFE720233A4604F094
:10102000F6FB0028C5D1002DC4D03868024BC01A89
:1010300018BF4FF0FF30BDE73DB8F3962DE9F04FF4
:10104000074685B00C46014600201646FFF770FCA7
:10105000051E50DB3846E46D04F0FBF85FFA84F9B6
:101060006B1E09FB03084FF0000A4FF0010B4FF015
:10107000FF349DB9BAF1010F03DD2148452104F089
:10108000ABFB631C06D0752C2ADC013440F2011343
:101090003460B380284605B0BDE8F08F6B1E009326
:1010A0000DF10F0201234146384604F0B0FB031E48
:1010B000019322DB01220DF10F01384605F019FFE3
:1010C000019B40B15B4501D00AF1010A009DA8EBEC
:1010D00009089B46CDE7B4F1FF3F08BF2C46F5E772
:1010E0000223763C7371631004F001040133013470
:1010F00033603471CEE70725CCE70125CAE700BF8E
:10110000C6790000F8B5866A456D044604F040FAD9
:10111000AE420AD06B1CB34207D0834205D01748B9
:10112000572104F059FB0020F8BD762E19D9144838
:101130005721F6E7626A02EBC3025768226D02EBA1
:10114000C3025268974202D00E485721E9E70133A3
:101150009D42EFD1204604F04AFA28B90A485721A7
:10116000DFE700231F46F3E7AE4205D9636A03EBCE
:10117000C5035B68BB42E7D10120D5E7E9790000F0
:10118000217A0000507A00007C7A000010B588B007
:10119000044604A9006A03F00FFC08B104F003FC44
:1011A0009DF81020012A44D0264B2749032A08BF66
:1011B0000B469DF8132002929DF8122001929DF893
:1011C0001120224800924921214A04F005FBE06CDD
:1011D00006A903F0F1FB04460028DFD19DF8182092
:1011E000012A28D0174B1849032A08BF0B469DF83F
:1011F0001B2002929DF81A2001929DF8192000925E
:101200001248144A492104F0E7FA9DF81030012BE6
:1012100013D19DF81230032B0FD19DF81830012BFC
:101220000BD00D48492104F0D7FA0224204608B01B
:1012300010BD0A4BBDE7094BD9E70948492104F025
:10124000CBFAF3E7B57A0000BE7A0000D27A00004C
:10125000C47A0000137B0000237B0000B97A0000F1
:10126000427B000070B54B681446234A03F0FF230D
:10127000934286B006460D463AD10B68012B37D112
:1012800004A9204603F098FB08B104F08CFB9DF8FC
:101290001020012A2ED0194B1949032A08BF0B46EA
:1012A0009DF8132002929DF8122001929DF81120C2
:1012B00000921448144A492104F08EFA9DF8103027
:1012C000032B15D12146304604F0F2F80028DCD17A
:1012D000204605F072FE0028D7D1A968204603F009
:1012E000D5FF0028D1D1204603F044FB0028CCD103
:1012F00006B070BD054BD3E700010004B57A0000CD
:10130000BE7A0000D27A0000137B0000B97A000098
:101310002DE9F04F164687B005460C467C4849211A
:1013200004F05AFA3146284604F043F96B6A8046C5
:1013300020465E6804F055F8E8B1E86D03F068FFF8
:10134000AF6A0023013F3344984201D9013FFAE7D5
:10135000B84510D36F48572104F03EFA07FB06F357
:101360006D4808FB0662572104F036FA0123E37149
:1013700007B0BDE8F08F2F6A0FB904F014FBEB6CD7
:101380000393002BF9D01A4621462846FFF76AFF3F
:101390006379012B54D1DFF884B1C1464BE0226858
:1013A000C2F101034344994543D86B6A196853F865
:1013B000390003EBC903012A53F8083CA3EB0103EE
:1013C000A0EB010A049315D1E368022B0CD0394637
:1013D000284604F06DF80028CFD122463946284629
:1013E00004F07BF80028C8D10399284604F060F87F
:1013F0000028C2D10023324651463846FFF7C8FACA
:101400000028BAD1CDE900A6049B3A4639462846C1
:10141000FFF708FC0028B0D12146284603F0EEFF74
:1014200023680133236020B1DBF800300133CBF8AF
:10143000003009F1FF39B9F1000FB0D10123236069
:10144000022363714FF00109C84591D32368994580
:101450005AD36A6A4FEAC903083B52F83910D2F8E6
:1014600000B00491D1582A6DD0581368A0EB030A3C
:101470002379012B46D1A1EB0B01002332463846DC
:101480000591FFF785FA00287FF477AF0599009161
:101490000196039953463A462846FFF7C3FB0028B6
:1014A0007FF46BAF2146284603F0A8FF0223237187
:1014B00018B11A4A136801331360039800233246A7
:1014C0005146FFF765FA00287FF457AF049B039A53
:1014D000CDE900A6A3EB0B0339462846FFF7A2FB94
:1014E00000287FF44AAF2146284603F087FF23688F
:1014F000013323600123237130B1084A136801339B
:10150000136001E0022BD8D009F101099CE700BF6C
:10151000597B0000827B0000B17B0000400D002061
:10152000BFF36F8F72B6124B4FF0FF32C3F88020BB
:10153000C3F88420C3F88820C3F88C20C3F8902017
:10154000C3F89420C3F89820C3F89C20C3F88021E6
:10155000C3F88421C3F88821C3F88C21C3F89021F3
:10156000C3F89421C3F89821C3F89C21704700BFA9
:1015700000E100E0014B1B68184700BF0800002095
:10158000014B1860704700BF0800002030B585B0DF
:1015900004460D4610220021684605F0BEFD0223D8
:1015A0008DF802302A46044B01932146684603F029
:1015B0000FFC05B030BD00BF751500002DE9F047E8
:1015C000058B04462807904611D4022905F007052B
:1015D00040F0CC80204604F027F878B10138218B08
:1015E000042811D8DFE800F0C2106D8595000129AC
:1015F0000CBF45F0100545F02005258388F31188C0
:10160000BFF36F8FBDE8F08701F0070AAA4500F02D
:10161000A5800027B9463E46A368002B00F0BC8099
:1016200041F00801218388F31188BFF36F8FA1680F
:10163000002900F0BA800D68002900F0B680D1F8CA
:101640000480334652462046C047002D76D02B6892
:1016500029461D46F0E701F007035A1F012A1BD84F
:10166000002221F00701062B276889B2C4E9002275
:1016700009D13B4603E0628B013262831B68002B79
:10168000F9D141F002012183204603F0CDFF00286B
:101690007AD041F0200176E0042B0AD121F0070135
:1016A00089B22183204603F0BFFF10B141F0200131
:1016B0002183218B01F0070AAA454FD00027B946A4
:1016C000AAE7236921F0070141F00601062DD3F8AE
:1016D000009021832DD1B9F1000F3FD041F00801D6
:1016E000218388F31188BFF36F8F3A492046C8479A
:1016F00029E021F00701236941F0040189B2042D9A
:10170000D3F804902183E6D000273E464FF0040A28
:1017100082E721F00701236941F0050189B2052D17
:10172000D3F808902183D6D000273E464FF0050A13
:1017300072E700273E464FF0060A6DE72B4687E723
:10174000B9F1000FD1D1EFF31188202383F3128870
:10175000BFF36F8F238B23F008032383258BEA06C7
:101760002ED525F01003238305F007056669218B2C
:10177000002EBFF670AF00232768C4E9003321F0C4
:10178000070141F001012183218B01F0070AAA45DD
:101790004FF000097FF440AF002F9CD041F00801CA
:1017A000218388F31188BFF36F8F002FC8D03D6865
:1017B000394633465246204603F062FF2F46F4E78F
:1017C000AB067FF51BAF25F02003238305F007054B
:1017D00000E700BFAD560000014B036000207047DA
:1017E000B074000070B5104B1C680D46B4B10F4BBF
:1017F000196800238B4202DB6FF0010070BD2246A6
:1018000012F8106B864202D001331446F2E7E0680A
:1018100005F018FC28B12C600020EFE76FF00C00F9
:10182000ECE76FF01200E9E70C000020B074000054
:1018300010B588B0436802938368C068CDE903326D
:101840000A680023CDE906230C4601AA0449059342
:1018500004F061F9079808B9059B236008B010BD32
:10186000A958000008B5044803F0D1FEBDE80840BF
:10187000024803F0CCBE00BFF07C0000167D0000E3
:1018800030BFFFF7FDBF00BF70B5264B15469A6A03
:1018900012F0100F9A6A14BF1124102412F0080FCE
:1018A0009A6A18BF1224920706460AD5586B9A6A9C
:1018B000140634D519B19A6A22F080029A62132470
:1018C00001E06FF01500174B9A6A12F0010F9A6A47
:1018D00018BF142412F0200F9A6A18BF1524D206DC
:1018E00002D49B6A9B070AD50E4B5B68190506D587
:1018F000314600F0D5F910B180F309880224094B74
:101900009A6A920642BF5A6A22F400525A629A6A4E
:1019100042F0FF029A6200232B70204670BD6FF0E8
:101920001500CCE700ED00E0134B9A6A12F0007F3F
:101930009A6A14BF1E201D2012F0807F9A6A18BF79
:101940001F2012F4002F9A6A18BF212012F4802F52
:101950009A6A18BF222012F4003F9A6A18BF232007
:1019600012F4803F9A6A6FEA02426FEA12429A6268
:1019700018BF2420704700BF00ED00E010B5194BE0
:101980000246986A9C6A10F4805F14BF17201620E4
:1019900014F4006F9C6A18BF1820A40509D5986B31
:1019A000986A000404D51AB19A6A22F400429A6235
:1019B00019200C4B9A6A12F4806F9A6A18BF1A2089
:1019C000D2050CD49B6A13F4005F18BF1C20054A93
:1019D000936A43F47F43936200230B7010BD1B2076
:1019E000F5E700BF00ED00E0F0B5484B5B688BB059
:1019F0000446C3F30803002585F31188BFF36F8FF6
:101A000002F07F40B0F17F4F11D102F00C000828A6
:101A10000DD010074CBF0C4601250022033B8DF86A
:101A20000720032B05D8DFE803F0246367602C460A
:101A3000F3E700239DF80720CAB902AE04F120079E
:101A400020686168324603C20834BC421646F7D1AA
:101A5000099A002D54D0C2F3080121B96FEA52222D
:101A60006FEA4222099202A9184603F058FF0BB010
:101A7000F0BD264BDA6A9107DBD4DA6A002AD8DB9C
:101A8000DA6A5200D5D55A69A16942F480725A6166
:101A9000BFF34F8FBFF36F8F5A6931F8021C22F4E6
:101AA00080725A61BFF34F8FBFF36F8F4DF6027292
:101AB00091420AD09A6AD2B24AB10DF107020121CD
:101AC0002046FFF7E1FE0346B4E72368B2E79A6ACF
:101AD00012F47F4F05D00DF107010120FFF74EFFF3
:101AE000F1E79B6AB3F5803FA3D3FFF71DFFEAE759
:101AF0000DF107020021E3E70DF107010020EDE7FA
:101B000022F4FF7222F00102ACE700BF00ED00E01A
:101B1000044B5A6942F010025A615A6922F00802D5
:101B20005A61704700ED00E0EFF30880EFF30981A0
:101B300001B57246FFF758FF01BD00BF0B4880F3A7
:101B4000088801F085FA202080F3118808484FF4B6
:101B50000461401880F30988EFF3148002210843E0
:101B600080F31488BFF36F8F00F07EF88057002059
:101B7000402700200749D1F890200023C2F3072214
:101B80001846934200DB7047C1F89830C1F8A000B6
:101B90000133F6E700ED00E01EF0040F0CBFEFF399
:101BA0000880EFF30980816911F8021C0229FFD037
:101BB00001B5724603F0B9FE01BD00BF40B2002876
:101BC00007DB044A4109012300F01F00834042F86B
:101BD0002130704700E100E040B200280CDB4309EF
:101BE000064900F01F0020330122824041F82320E3
:101BF000BFF34F8FBFF36F8F704700BF00E100E06E
:101C0000054B420900F01F0053F82220012303FA7C
:101C100000F01040704700BF00E100E040B2002833
:101C2000A8BF00F1604001F10101B8BF064B4FEAC7
:101C30004111ACBF00F5614000F00F00C9B2B4BF64
:101C4000195480F80013704714ED00E0044B054A66
:101C500023F07F039360BFF34F8FBFF36F8F704705
:101C60000000000000ED00E008B5FFF7EFFF0B4AB1
:101C7000D2F8883023F47003C2F88830EFF314836D
:101C800023F0040383F31488BFF36F8F02F09AFFED
:101C900002F0E0FF00F038F802F0A0FF00ED00E0F5
:101CA00010F1160F074B08D0984208D340338342F7
:101CB00005D98B4203D9044870474033F9E7002027
:101CC000704700BF802F0020C02F002080B50C4639
:101CD00007461546084E86F30988002004498847C0
:101CE000204629461A46B84702488047FEE70000CA
:101CF0004B59000059590000C0570020014B1022D9
:101D00001A61704700ED00E0044800232021C2184A
:101D10000133302B82F80013F9D1704700E100E065
:101D200008B5EFF30583064A103B02EBC30152F8F6
:101D3000330049688847BDE8084003F001BE00BF92
:101D400088720000024B034A0348022100F066B883
:101D50000000042000000020F4740000084AC2F8CB
:101D600098000B6823F01F03034343F01003C2F8ED
:101D70009C308B6843F00103C2F8A030704700BF6D
:101D800000ED00E02DE9F043DFF8608085B00E46FD
:101D90001F4604464FF00009B14523DA6068D8B108
:101DA0003FB1411E08421BD11F2819D9236819428F
:101DB00016D12368019303F0E6FDA3680343039360
:101DC000D8F89050C5F30725D0B2013DA84207D8F6
:101DD00001A9FFF7C3FF421C09F101090C34DBE73D
:101DE0006FF01502104605B0BDE8F08300ED00E08D
:101DF000044B0522C3F89420BFF34F8FBFF36F8FBE
:101E0000704700BF00ED00E0BFF35F8F024B002280
:101E1000C3F89420704700BF00ED00E010B5034CFC
:101E200001232278FFF7AEFF207010BD102700209D
:101E30002DE9F043534B544CD3F890302568C3F34D
:101E400007239D4285B000F29A80FFF7DDFF002056
:101E50000C2685421AD14D4C4D4F25706846FFF730
:101E6000BBFCDFF82081DFF82C9106460025AE424E
:101E700013D1237843490020D1F89020C2F30722E0
:101E8000934276DBFFF7B4FF002042E0616806FB77
:101E90000011FFF763FF0130DBE7009800EB05114D
:101EA0004FEA051CCB683B40B3F5000F48D00AD879
:101EB000B3F5001F30D0B3F5800F36D0B3F5801FD7
:101EC00010D00135D3E7B3F1807F42D0B3F1007F6A
:101ED000F7D150F80C3088684A6803F054FD40F49C
:101EE000802009E050F80C3088684A6803F04BFD08
:101EF00040F0885040F43020CDE901230390D8F819
:101F000090302078C3F30723013B98422AD96FF021
:101F1000150005B0BDE8F08350F80C3088684A68B9
:101F200003F031FD40EA0900E6E750F80C3088681C
:101F30004A6803F028FD40F0007040F40030DBE711
:101F400050F80C3088684A6803F01DFD40F082703C
:101F5000D2E750F80C3088684A6803F014FD40F06E
:101F60008870C9E701A9FFF7F9FE237801332370D0
:101F7000A7E7C1F89830C1F8A00001337CE74FF023
:101F8000FF30C6E700ED00E00C75000010270020D0
:101F90000000F0FF0000081108B5024802F0F8FE4A
:101FA000FEE700BF4B7D000008B5024B1B68984759
:101FB000002008BD480D0020034B044A18609378A8
:101FC00043F0020393707047480D0020100000207A
:101FD00008B5054803F01BFB002383F31188BFF30A
:101FE0006F8F0423184602DF507D000000B505F016
:101FF000CDF8034B0C221A5000205DF804FB00BF03
:10200000080000000E4A0123C2F840354FF080421C
:102010004FF08051C2F87835D1F83001082808D146
:10202000D1F83411052904D80648415C09B1C2F839
:1020300038364FF080430122C3F8802500207047D6
:1020400000E00140597D000020B1034B800143F0C6
:1020500001031847704700BF80740000084B70B53B
:10206000C31A0D4607499B100446594306484022AF
:1020700003F0ABFC2B4601462046BDE870401847F4
:10208000600D0020B76DDBB6E871000073B50C4C35
:102090000C4A4023041B00930D460B460A49A4102A
:1020A00061430646094803F0BBFC011E05DA3046D1
:1020B0002B4602B0BDE87040184702B070BD00BFAB
:1020C000600D00208F5A0000B76DDBB6E87100008C
:1020D00010B5EFF31184202383F31288BFF36F8FC1
:1020E000074A136823F00201DB07116002D40120C4
:1020F00003F039FE84F31188BFF36F8F10BD00BF6A
:10210000B00D0020002270B5012104461046FFF7F3
:1021100085FD0F4801F026F90E4B984215D101F0CC
:1021200031F926690C49304603F0CDFA00280BDB63
:10213000012535642469084904F11C0003F0C3FA41
:10214000002801DBE564002070BD6FF00400FBE7B0
:10215000212200000000AD0B3075000030B4104BA0
:102160000C2202FB003301460020D3E90E52986393
:10217000EFF31180202484F31288BFF36F8F1C6C5F
:1021800004F0C00444F002041C6480F31188BFF31F
:102190006F8F1DB12B46034830BC184730BC7047C9
:1021A000600D0020E871000010B4EFF311822023CD
:1021B00083F31288BFF36F8F1748016841F0020460
:1021C0000460C80707D482F31188BFF36F8F012022
:1021D00010BC01F0E9B84FF08041D1F80C04D1F8FF
:1021E0000C14C907EFD5EFF3118083F31288BFF306
:1021F0006F8F0A490B6C03F0C00343F002030B64BA
:1022000080F31188BFF36F8F82F31188BFF36F8F54
:10221000002010BCFFF7A2BFB00D0020600D002011
:1022200010B1012804D07047034B1B6C5B0701D130
:10223000FFF794BF704700BF600D00202DE9F84301
:102240003649BFF35B8F0746012251E8003F41E862
:1022500000200028F9D1BFF35B8F33B930493148F2
:102260004B60CB608A6003F041FA7B1E012B2DD8B6
:10227000012F07D14FF08043D3F81C3403F0030340
:10228000012B23D004F01EFF054608BB264B1B780C
:10229000F3B14FF080430222C3F808230646DFF86B
:1022A0008C904FF080444FF00108D4F81824D4F8F3
:1022B0001834D20315D503F00303012B01D0012FED
:1022C0000FD125B386F31188BFF36F8FBDE8F88374
:1022D000EFF31186202383F31288BFF36F8F01255C
:1022E000DDE7304603F040FBD4F81835002BDCD195
:1022F000D4F80421002AD8D0C4F80431D4F8043129
:10230000C4F81885C9F88081C4F80880CDE74FF07B
:1023100080430222C3F80423D8E700BF5C0D0020ED
:102320004C0D00207C0D00201427002000E100E06F
:1023300008B5074804F086FE38B10648FFF73CFEB2
:102340000448FFF71DF9002008BD6FF01200FBE7FD
:1023500048720000592300000A2838B5074D04468A
:1023600004D1AB680D215B6828469847AB680348E9
:102370005B68E1B29847204638BD00BF4872000054
:10238000024B0B6001231360704700BFB40D0020A7
:10239000004870475475000010B503F070FD034C01
:1023A000206003F068FD6060002010BDB40D0020C7
:1023B0004FF08042D2F81015D2F8103501F01E010E
:1023C00023F01F030B4343F00103C2F81035024B07
:1023D00000221A70704700BF112700204FF0805371
:1023E000D3F83031082B20D14FF08042D2F81015AD
:1023F000CB071AD5D2F8103501F01E0123F01F03C8
:102400000B43C2F81035D2F808315BB1D2F8103561
:1024100023F01F030B4343F00103C2F810356FF0A4
:102420008B007047024B01221A700020704700BFDA
:10243000112700202DE9F0410D46164603F01BFD43
:1024400031460746284603F09BFB28B3B5FBF7F35C
:1024500007FB135303BBB6FBF7F407FB1464DCB9AB
:10246000B74213D803F007FDDFF834800746FFF7C3
:10247000B5FF044668B9284601F024FC98F80030FE
:102480000BB1FFF795FFF61B3D44F0D12046BDE8A8
:10249000F0816FF08B04F9E76FF01504F6E700BFE9
:1024A000112700202DE9F8430E46304619461746FD
:1024B0001C4603F065FB30B344EA060515F003053E
:1024C00021D11CB3DFF848906319032BA6EB050854
:1024D00007D8104AD2F80034DB07FBD50020BDE84E
:1024E000F883FFF77BFF58B97B1B4046196801F062
:1024F00009FC99F800300BB1FFF75AFF043DE3E700
:102500006FF08B00EBE76FF01500E8E72046E6E799
:102510001127002000E00140F0B516464268107B0C
:1025200001F01F0444EA4014106987B0002872D0FB
:10253000B6F5001F02F1100506D12146284603F02A
:1025400092FC002007B0F0BD01A80027B6F5800F6F
:102550000197476039D1B3F1007F14BF05230423ED
:102560008DF804300023CDE904030393936823FA24
:1025700001F111F001010DF103073ED1B6F1A07F89
:102580003BD104F01F03620903F5E07328D0012A50
:1025900047D1254A52F82330DB072ED43A4621464C
:1025A000284601F0E9F9214B98421CD0029703AA72
:1025B0002146284601F0A2F81D4B98422ED1012257
:1025C0002146284601F03CFABBE7B3F1C06F05D0C5
:1025D000B3F1007F14BF01230223C1E70323BFE748
:1025E0004FF0A042D6E73946284601F023FA104BB7
:1025F0009842DBD06FF00B00A4E73A46214628460C
:1026000001F0BAF90A4B9842D1D19DF8031028463F
:1026100001F00AFACBE76FF0850093E76FF0150041
:1026200090E751F82330FFDE000300500400AD0BAB
:102630000000AD0B420970B5034602D0012A17D045
:1026400070BD0D4E326951680029F9D003F01F03A7
:1026500001250C689D400029F2D08A682A4002D0EA
:102660004B68304698472CB1236821461C46F2E758
:10267000024EE7E72346F8E72872000008720000E0
:1026800038B545682B69B3B11035284601F0C2F959
:10269000044680B90146284601F088F9084B984263
:1026A0000BD108492246284601F060F9224605214F
:1026B0000620FFF7B3FA002038BD6FF00400FBE7F7
:1026C0000000AD0B352600002DE9F043466840F2CE
:1026D0000635D006337B87B002EA050554BFC2F346
:1026E0004010032001F01F07B5F5837F144647EA29
:1026F00043178DF8030045D00DD8062D16D005D808
:10270000A5B1022D40D06FF0150038E0B5F5807FFF
:10271000F9D101250AE040F20222954236D0B5F502
:10272000407F35D0B5F5007FEDD10225012322038E
:1027300003FA01F12ED57368C3F80815326992BB0C
:1027400007F01F037F092BD0012F79D13F4A02EBFD
:10275000830284F48033D2F80017C3F30043C4F338
:10276000404444EA430421F4E16144EA800421F056
:10277000070144EA05230B43C2F80037002007B0E5
:10278000BDE8F0830725D1E70425CFE70525CDE790
:102790000325CBE7630344BF7368C3F80C15CDE78B
:1027A0004FF0A042D3E710360DF102023946304611
:1027B00001F0E2F814F4403F80460CD1394630462F
:1027C00003F04FFB224B9845D8D19DF802103046BC
:1027D00001F02AF9D2E701AB4FF0000903AA39460C
:1027E0003046CDE90439CDE90199CDF80C9000F0DF
:1027F00085FF174B9842C1D114F4003315D09DF8D2
:1028000003308DF80E3084F48034C4F300444B461A
:1028100003AA394630468DF80C508DF80D4001F072
:1028200027F80B4B9842A9D1CCE7CDE9043303AA92
:102830000DF1030339463046039300F05FFFF0E7E4
:1028400003F5E07352F82330FFDE00BF00030050B1
:102850000000AD0B036803F01F025B09026004D0A7
:10286000012B034818BF002070474FF0A04070476D
:10287000000300502DE9F04FDFF89491DFF894A1A8
:1028800085B01546834600EB810140F2FF1859459B
:1028900003D1002005B0BDE8F08FDBF800305E0406
:1028A000C3F3C322C3F3080400F1AC801B0E19F874
:1028B0000270444508BF4FF0FF34222B00F2A58080
:1028C000DFE803F012191F22252B22A3A3A3A33BA9
:1028D00068A3A3A3A3A3A3A3A3A36B818487A3A398
:1028E000A38A9194979A9D00C5F80C45601C5ED10F
:1028F0000BF1040BCBE7C5F81445621CF8D0002699
:102900005FE0C5F80845F1E7C5F81045F5E7631C39
:10291000C5F80845ECD0002604E0661CC5F80C4557
:10292000E6D0012603A80394FFF794FF039B01223E
:1029300002FA03F3C0F80C3508E0C5F80845002F8B
:10294000DBD1631CD4D0002632460627DBF80030EA
:10295000019303F40040002818BF002203A800924E
:1029600018BF01260394FFF775FF039C019B009A93
:1029700000EB8400C3F3412CD0F800473B0243EA4C
:102980008C03134304EA0A04234343EA4603C0F8D2
:102990000037ADE7C5F80C45D1E7C5F86045601CC8
:1029A000DBF80030A4D0C3F30043002BB9D003A858
:1029B0000394FFF74FFF039B012606FA03F3C0F8C9
:1029C00008353246C2E7C5F86445E8E7C5F868450A
:1029D000E5E7C5F86C45E2E7C5F82445621C87D0F9
:1029E00000220126B2E7C5F828457FE7C5F8304543
:1029F000F4E7C5F83445F1E7C5F83845EEE7C5F822
:102A00003C4573E76FF0150044E76FF0850041E740
:102A1000B07D0000F0F8FCFF2DE9F0410446476866
:102A20000D4604F04FFB4FF0200868B9244B1B788B
:102A300053B16426606803F04AF9D0B9012003F06D
:102A400084F9013EF6D1F4E7EFF31186314688F3BD
:102A50001288BFF36F8F606803F039F9A8B986F365
:102A60001188BFF36F8FEFE786F31188BFF36F8F85
:102A7000DFE7EFF31186314688F31288BFF36F8FDB
:102A8000606803F024F90028EED0BB691D7063680C
:102A9000BA691B680020C3F844250122C3F8482501
:102AA000C3F82001D3F82041C3F85801D3F85801E6
:102AB0009A6081F31188BFF36F8FBDE8F08100BF8A
:102AC00014270020F7B50546002201210220FFF758
:102AD000A5F80220FFF772F86A6811681369C1F857
:102AE0002435137D507D927D03431343C1F86C352B
:102AF0006E68D6E9004313F0010348D02F6907F14F
:102B0000080003F02EF9304B98425AD1387A04F17C
:102B10000C0204F5907103F01AF9387A012707FACC
:102B200000F000F0B7FB0823C4F80035B369C4F81F
:102B300044350023C4F84835A760D4F85831002B39
:102B4000FBD00021C4F800156B68DC6801AA2046A0
:102B500003F090F8002805DB019B226819791868BA
:102B6000FFF788FE6A6813680821C3F80015117A18
:102B700051B9D269C3F834250122C3F83825C3F806
:102B80001011D3F810111A60002003B0F0BD082214
:102B9000C4F80025B269C4F84425C4F848350123B7
:102BA000A360D4F82031002BFBD00023C4F82031DF
:102BB000D4F820310123E3604FF48073C4F8043368
:102BC000BBE76FF00400E0E70000AD0B70B5012338
:102BD00083400E4ABFF35B8FDC4352E8001F01EADB
:102BE000040542E80056002EF7D1BFF35B8F4FF487
:102BF000803282400648C0F80823BFF35F8FBFF3DE
:102C00006F8F0B4214BF0120002070BDE40D002027
:102C10000010014070B40E49D1E90034D01AC31835
:102C200044F1000422F07F46C1E90034A6F5001308
:102C3000B3F5400F09D2074B1B681A0A1B069C19F3
:102C4000054B42F10005C3E9004570BC02F042B8F3
:102C5000E0000020E80D0020E800002011B3BFF3E1
:102C60005B8F0123104A834052E800CF4CEA030CEB
:102C700042E800C10029F7D1BFF35B8F0B4A4FF444
:102C800080338340C2F80433094BBFF35B8F1B686A
:102C9000BFF35B8FC340DB0742BF064B4FF40032EC
:102CA000C3F80021704700BFE40D00200010014070
:102CB000E00D002000E100E00D4B1868010A00065D
:102CC000BFF35F8F0B4BD3F80435181841F10001A7
:102CD000B3F5801F0AD2084BD3E90023904271EB71
:102CE000030303D210F1807041F10001704700BF6F
:102CF000E80D002000100140E80000202DE9F04F11
:102D000085B016461F469DF840A00446FFF75EFFBB
:102D10000190FFF7D1FFB04271EB070354D23E4B55
:102D2000301A67EB0101984271F100014FD23B4B21
:102D300003EB0413D3E902239F4208BF96425ED0FF
:102D400037494FF4803804F1500508FA04F8AD0013
:102D5000C1F848832046ADB202F0EAFF26F07F4B6F
:102D600005F1804504F5A87305F58835DC464FF07C
:102D700003090293029A2CF07F4341F82230C1F8F4
:102D80004483D1F80435274A6FF00200C01A60442A
:102D900020F07F40904232D9286868B1D1F80435DC
:102DA0000393A3EB0B0020F07F40B0F5000F26D972
:102DB000204602F0BDFF039BBAF1000F07D109EBDB
:102DC000030C09F10109D5E7BAF1000F09D06FF042
:102DD000150520460199FFF741FF284605B0BDE8DB
:102DE000F08F0123104ABFF35B8FA34052E8000F1E
:102DF000184342E800010029F8D1BFF35B8F07496F
:102E00000E98230101EB0412C8500F9B5360C2E9D6
:102E100002670025DDE700BF01008000D000002030
:102E200000100140FDFF7F00E00D00207FB51C4C2D
:102E30001C4BC4F80833C4F848331B4B00254FF033
:102E4000FF304FF0FF31C4F80855C3E902014FF4D9
:102E50008033C4F80433154B02264FF400320121AD
:102E6000C4F804631120C3F880212A46FEF7D6FE79
:102E70001120FEF7A3FE0E4A0123A3602360136016
:102E80000C4B0D4A0093CDE9015500232846FFF76E
:102E900035FF3046FFF7D2F9284604B070BD00BFB9
:102EA0000010014003000F00D000002000E100E00E
:102EB000E40D0020152C0000FFFF7F002DE9F743F3
:102EC0002F4CD4F8043399070BD5D4F8043143B10F
:102ED0002C4A0023C4F80431D4F8043113680133B8
:102EE0001360D4F80433DA0329D5BFF35B8F264B84
:102EF00053E8002F22F0010143E800100028F7D129
:102F0000BFF35B8FD30702D4D4F84031BBB10025A7
:102F1000C4F84051D4F84031FFF7CEFEEFF31182F0
:102F2000202383F31288BFF36F8F184BD3E9026716
:102F3000B042B94106D282F31188BFF36F8F03B05C
:102F4000BDE8F0834FF0FF384FF0FF39C3E9028945
:102F5000D3E900101D604FF48033C4F84833C4F83F
:102F60004051D4F8403182F31188BFF36F8F0029AC
:102F7000E5D0009032463B4628468847DFE700BF51
:102F800000100140E80D0020E00D0020D0000020DE
:102F900030B5431C124C85B005D08442A8BF04460E
:102FA000012CB8BF0124FFF787FE0E4B0C4DD3E96F
:102FB0000013401AB0F5000F10D22218AA4228BF01
:102FC0002A4652184FF0000007490091CDE9010050
:102FD00043F10003FFF792FE05B030BD2A46F0E74B
:102FE000FFFF7F00E0000020152C000010B5084C0A
:102FF000012363601120FEF7EFFD064BC4F8083390
:10300000C4F84833044B4FF40032C3F8802110BD9C
:103010000010014003000F0000E100E04FF080537A
:10302000D3F83021082A06D1D3F83431052B02D841
:10303000024AD05C70470020704700BFCC7D000082
:10304000024AD2F80034002BFBD0704700E0014068
:1030500010B54FF08053D3F83021082A4ED14FF0ED
:1030600080420021C2F80C11C2F81011C2F83815C4
:1030700002F54042D3F80414C2F82015D3F808141E
:10308000C2F82415D3F80C14C2F82815D3F810147C
:10309000C2F82C15D3F81414C2F83015D3F818144C
:1030A000C2F83415D3F81C14C2F84015D3F8201414
:1030B000C2F84415D3F82414C2F84815D3F82814DC
:1030C000C2F84C15D3F82C14C2F85015D3F83014AC
:1030D000C2F85415D3F83414C2F86015D3F8381474
:1030E000C2F86415D3F83C14C2F86815D3F840143C
:1030F000C2F86C15D3F84434C2F87035FFF78EFF70
:1031000018B13A4B3A4AC3F88C26FFF787FF18B13B
:10311000384BFB22C3F81825FFF780FF70B14FF042
:1031200080414FF08053D1F8E42ED3F8583222F08A
:103130000F0203F00F031343C1F8E43EFFF76EFFE5
:1031400020B12D4B4FF40072C3F840264FF080534E
:10315000D3F83031082B1AD14FF08043D3F8002434
:10316000D20744BF6FF00102C3F800244FF0805330
:10317000D3F83431052B02D8204AD35C3BB14FF051
:103180001023D3F808224FF08043C3F858254FF09E
:103190001023D3F80022002A03DBD3F80432002BDB
:1031A00022DA174901234FF01020C1F80435122408
:1031B000FFF746FFC0F80042FFF742FFC0F80442A5
:1031C000FFF73EFF0023C1F80435FFF739FFBFF3D7
:1031D0004F8F0C490C4BCA6802F4E0621343CB607A
:1031E000BFF34F8F00BFFDE710BD00BF0050004090
:1031F0004881030000F0004000900240C67D0000BE
:1032000000E0014000ED00E00400FA0530B504687C
:10321000CCB1BFF35B8FB4FA84F3C3F11F03DBB20D
:1032200001229A4024EA020250E8005FA54204D13C
:1032300040E8002CBCF1000FF6D1BFF35B8FE6D164
:1032400002480B7030BD0248FCE700BF0000AD0B28
:103250000200AD0B10B50368CB40DB0714D401238B
:103260008B400268BFF35B8F43EA020150E8004FD6
:10327000944204D140E8001CBCF1000FF6D1BFF32A
:103280005B8FEED1014810BD0148FCE70000AD0B9B
:103290000400AD0B014BC3F80405704700F001407A
:1032A000F7B50546F8B101281BD104224FF480730D
:1032B00001464FF0804003440244C0F80813002642
:1032C000012111601E608D421B688DF8071008BF38
:1032D0000DF1070642F210744FF0804745B1012D01
:1032E00028D003B0F0BD0C224FF482730221E0E736
:1032F000D7F8183403F480333EB9002BF1D0012005
:1033000002F023FD013CF3D1EBE7D7F8182402F0DB
:1033100003023260002BE4D09DF80700012803D19E
:1033200002F013FD013CD9D1012DDAD10C4B002262
:103330005A71D6E7D7F80C3403F480333EB9002B2A
:10334000F4D0012002F001FD013CF3D1EEE7D7F803
:103350000C2402F001023270002BDDD1E6E700BF41
:10336000EC0D0020044B1A7922B9012218609A80D2
:103370000248704702487047EC0D00200000AD0B7A
:103380000C00AD0B08B5074B1B682BB10020FEF7F6
:1033900037FC08B9FEF712FC4FF080430022C3F857
:1033A000182508BDEC0D002010B510B1012843D040
:1033B00010BD4FF08043D3F81814D3F81824C80375
:1033C00021D502F00303012B04D013B10020FFF735
:1033D00067FF00234FF080420220C2F81835082210
:1033E0004FF4827303F180430021196002F180429F
:1033F0001C6801241460154A12680AB34FF0804318
:10340000C3F80403D4E7D3F81424D107E1D5D3F8E3
:103410001C249207DAD40D4A12681AB10222C3F8AA
:103420000423C5E7D3F80421002AFBD00022C3F807
:103430000421D3F80431BBE700224FF48073D1E7B5
:103440001A68002AFCD019601B68B1E7EC0D002057
:10345000F8B54FF080431C4ED3F8044301250027F4
:1034600004B9F8BDB4FA84F0C0F11F00830003F57D
:1034700080739BB203F1804305FA00F2196892B29F
:1034800024EA02040029EBD01F601B684FF0804340
:10349000012AC3F8082305D0022A08D03368C0B235
:1034A0009847DDE77379002BDAD17271F6E7D3F82C
:1034B0001814D3F818148907F0D1C3F81855C3F8B5
:1034C00004239D60CCE700BFEC0D0020036803F0EF
:1034D0001F025B09026004D0012B034818BF0020C3
:1034E00070474FF0A040704700030050034A430963
:1034F00000F01F00D35C1844C0B27047D27D0000BA
:1035000070B50546FFF7F2FF0C4C08300E4634F854
:103510001030DA0508D5C3F3432304EBC302284671
:1035200054F8333052689847A3682BB1E2683146AB
:103530002846BDE87040184770BD00BF200000203D
:1035400008B5FFF7D3FF034B083033F81000400BEA
:1035500008BD00BF2000002008B5FFF7C7FF034BE0
:10356000083033F81000C0F3400008BD20000020F0
:1035700008B5FFF7BBFF034B083033F81000C0F36A
:10358000401008BD20000020034611F0010010B5D6
:10359000CCB20DD1A207C4F3400012D5094AD2F82B
:1035A00020055860C2F82005003818BF012008E047
:1035B0004FF0A041D1F820251A60C1F82025002A3B
:1035C000E8D010BD0003005010B5FFF78FFF124A7E
:1035D000083032F81030D9051CD5C3F3432123F449
:1035E000F85322F8103002F10E04002034F8023FA4
:1035F00013F4807F03D0C3F3432399420AD00130F0
:103600003028F3D1002342F831300448BDE810409F
:10361000FFF720BE10BD00BF200000209800002052
:10362000F0B5054600200446012607468C420BD122
:10363000114BD3F87C2132B10022C3F87C21D3F89E
:103640007C3140F00040F0BDE3B29B0003F5807296
:103650009B0806FA03F31D420BD002F1804202F5EB
:10366000C042D2F800C0BCF1000F02D0176012684F
:1036700018430134DAE700BF00600040F7B50646A2
:103680000846FFF733FF194F00F108050C4637F8DD
:103690001530DB0727D5304602F0BFFB2046FFF789
:1036A00067FF40B12046FFF74BFF316800F5A2707D
:1036B000002341F820302046FFF786FF002301A8B1
:1036C00027F815300194FFF701FF019B00EB830001
:1036D000074BD0F80027134043F00203C0F800372F
:1036E000044803B0F0BD0448FBE700BF2000002001
:1036F000F0F8FCFF0000AD0B0400AD0B2DE9FF411D
:10370000164680460846FFF7F1FE0D46316804462E
:1037100009B32846FFF720FF18B12846FFF728FF16
:1037200010BB0023CDE900338DF80E308DF80F303B
:103730000DF10F020B4628460DF10E0102F015FBAC
:10374000474A04F1080132F8113023F0020343F034
:10375000010322F81130736863B328461F78596853
:10376000FFF7FAFE10B1D1B13E4826E03C4A04F121
:10377000080032F8103023F02003DB04DB0C22F8C1
:10378000103061B1032FEFD87168496891F800C01B
:10379000D8F80010A7B90CF5A27C41F82C70304A7B
:1037A00004F1080132F8113023F01C0343EA8703C7
:1037B00022F81130B3684BBB2B4804B0BDE8F08150
:1037C00001EB8C0143EA4C33D1F810E52EF0030EE7
:1037D000C1F810E5D8F8001001EB8C0E43F020037F
:1037E000DEF8101522F8103021F44F3121F4407129
:1037F000CEF810152902DEF8108501F47C5141EA5B
:10380000074141EA0801CEF81015C8E7D3E900677F
:103810002846FFF7D9FE002ECED0114DD5E9002362
:10382000964203D19F4201D1002209E00F480DF1D9
:103830000F01FFF7EBFC0C4B9842BED19DF80F2017
:1038400045F8326005EBC20308345F6035F8143088
:1038500043EA422343F4807325F81430ACE700BFF9
:10386000200000200400AD0B0000AD0B98000020EC
:103870002DE9F0430C4685B08046204611461E4691
:10388000FFF734FE054629B32046FFF765FE18B959
:103890002046FFF76DFE18BB314F05F1080937F8D8
:1038A000193013F01C0F02D04B78012B18D00123D4
:1038B0008DF80F300023CDE900134A1C8B1C2046E5
:1038C0000DF10F0102F051FA37F8193043F00303FC
:1038D00027F81930002E41D02046FFF73DFE18B9D9
:1038E000204805B0BDE8F08396F800C0D8F8003055
:1038F0001B4F0CF5A272002143F8221005F10802BB
:1039000037F8121021F02001C904C90C27F8121051
:1039100075781DB3D8F80000B67800EB8C002D0444
:10392000D0F8103523F4991323F4F853C0F8103568
:10393000230203F47C5305F440353605D0F810E536
:103940002B4306F4801641EA4C31334341F0200109
:1039500043EA0E0327F81210C0F810350248C0E7FA
:10396000200000200400AD0B0000AD0B014BC3E9AB
:10397000021270472000002010B508461446FFF7D9
:10398000F7FD50B10846FFF7B1FD054B083033F89D
:10399000103004485B0B237010BD0348FCE700BFE8
:1039A000200000200000AD0B0400AD0B70B5164DDB
:1039B00095F8804006462CBB2146602205F1100098
:1039C00003F0ABFB30682E6F21468E420ED10023F0
:1039D000C0F87C31D0F87C3140F30730FEF7EEF8C8
:1039E00001230A4885F88030AB6770BDCBB29B00DD
:1039F00003F580727C2B08BF845001F1010108BFE0
:103A00008358E2E70248F0E7200000200000AD0BF9
:103A10000C00AD0B034B93F88000003818BF012059
:103A2000704700BF200000200148FFF713BC00BF13
:103A3000940000200148FFF7E9BB00BF940000207C
:103A400073B503681646D3F80423002AA8BF4FF0C5
:103A500000420546A8BFC3F8042308460C46FFF7FA
:103A600087FD00B30846FFF777FD0146D8B9204629
:103A7000FFF766FD04B2A40004F5807203462868CF
:103A80008150296882582144D1F8102542F0010262
:103A9000C1F810252EB12968012202FA03F3C1F8FA
:103AA000043302B070BD2046FFF720FD0F4B0830F5
:103AB00033F81030C3F38203042B12D0052B12D03D
:103AC00001A80194FFF702FD019AD0F81035D34008
:103AD00003F00103991C204602B0BDE8704002F0DB
:103AE0008DB90321F7E70221F5E700BF2000002090
:103AF0002DE9F04F694BDFF8A891D3F80403D9F80A
:103B00007010C0B289B040F00040FFF789FD051E7B
:103B10002EDACA4600235AF87C1F06A8CDE90633E0
:103B2000FFF732FD5F4B01930DF118084FF0000BCA
:103B3000019A12F8013B0192DA0803F007031AF820
:103B4000022022FA03F3DA071BD408F10408BBF1C0
:103B5000000F13D000214FF00040FFF761FDD9F8AE
:103B60007C1006A8FFF710FD0028DBD125F00045EA
:103B70000124002D79D109B0BDE8F08F4FF0010B81
:103B8000D6E7494B5B440293D8F800100029DCD0FB
:103B9000029B91FAA1F11C78B1FA81F141EA441437
:103BA0002046FFF7A3FC0830059439F81070C808C8
:103BB000BB0818F80020039301F00701012303FA62
:103BC00001F122EA010208F8002005A8FFF77EFCB7
:103BD000059A039B02F5E072C7F3820650F8222093
:103BE0005B073746C2F3014224D520463946D6B298
:103BF000FFF786FC05A80594FFF768FC059B03F515
:103C0000E07350F82330C3F301439E4207D10021F3
:103C1000204602F0F3F83146204602F0EFF805A8FE
:103C20000594FFF753FC059B012202FA03F3C0F849
:103C30002035A9E7022A0CD10321204602F0DEF844
:103C400006F00503012BEAD139462046FFF758FC60
:103C5000E5E702212046039202F0D0F8032EF3D0CC
:103C6000039A032ADBD1022EEDE795FAA5F3B3FA06
:103C700083F304FA03F29B0003F1804303F5C0438E
:103C800025EA0205D3F81005D3F81015C0F3052076
:103C9000C1F30141FFF734FC6BE700BF0060004057
:103CA00020000020E27D0000E27D0000044AD2F8FE
:103CB0000034DB07FBD50160BFF35F8F704700BFA7
:103CC00000E001404FF080531A69B0FBF2F302FBB1
:103CD000130373B9084B0222C3F80425C3F808057F
:103CE000D3F80024D207FBD500220448C3F80425EA
:103CF00070470348704700BF00E001400000AD0B73
:103D00000A00AD0B10B5054C0123C4F80435FFF7CC
:103D1000CDFF0023C4F8043510BD00BF00E0014012
:103D200001460148FFF772BAA4000020044B1B684B
:103D3000584043085B4240421843C017704700BFD9
:103D4000F40D00208842F0B504D0094F0438002556
:103D5000AA4200D1F0BD3E6850F8044F5E4024EA0C
:103D6000060451F825601E40344304600135EFE736
:103D7000F40D00202DE9F04F8DB01D46189B179FC4
:103D80001A9E0592B3F12A3F83468A4640F08D8001
:103D90003946169802F0D2F8012838BF01204709A9
:103DA00000F01F047B01502B4FF0010934BF4B463C
:103DB00003230A9309FA03F30B930A9B059805FA68
:103DC00003F306EB8303069303EB8503079302F0EB
:103DD00091FA4FEA8508089042460021304603F0E8
:103DE0009CF9079BC6F800900393089B199ACDE9AC
:103DF0000153059B009331462B46304606EB0809DC
:103E000002F089FA51464246484603F078F9022307
:103E1000494609930B9B099A934248D14246314641
:103E2000584603F06CF94FF00009CA46079B03930C
:103E3000089BCDE90153059B00935A462B465946F2
:103E4000584602F068FA002C47D1013F1F24169B08
:103E500053F82730E34003F0010343EA49090A9B82
:103E60000AF1010A534503D0002CDFD1002FDDD128
:103E7000189BB3F12A3F32D10698424609FB0861EC
:103E800003F03DF9079B0393089B069ACDE9015384
:103E9000059B009359462B46584602F03CFA002CED
:103EA000C1D1BFB90DB0BDE8F08F00247AE7079B00
:103EB0000393089B01EB080ACDE90153059B00938E
:103EC0004A462B46504602F026FA099B01330993D5
:103ED00051469FE7A146A246A8E7013CB7E7314615
:103EE0004FF0000A0A4B18681B68584080EA090026
:103EF00080EA0A00FFF71AFF2A46C3430698FFF735
:103F000021FF099B0AF1010A53454144EAD1B9E76F
:103F1000F40D0020054B1B6801314340013208407D
:103F200022EA03020243501E00B27047F40D002043
:103F30002DE9F04F99B083460F46184600211646EA
:103F4000039302F059FC002800F08981784B149308
:103F50000024012515AB039913933046CDE90B4599
:103F6000CDE90D45CDE90F45CDE9114502F0CDFB79
:103F7000A04228DABBF1000F05D1E7B900242046A2
:103F800019B0BDE8F08F2146584602F046FB0446C2
:103F90000028F2D00BA802F08DFA0DA802F08AFAE0
:103FA0000FA802F087FA11A802F084FA0C2115A8D4
:103FB00000F014FBE3E73146384602F0F9FA044614
:103FC0000028E7D1DAE731460BA802F0F1FA0446FF
:103FD0000028DFD103990DA802F0EAFA0446002870
:103FE000D8D1F188ADF8385002310FA8ADF8305073
:103FF00002F06EFA04460028CCD101460FA802F068
:104000000CFB04460028C5D1F18811A8023102F04A
:104010005FFA04460028BDD10DA802F02AFB00F08B
:104020001F001F2873D0C0F11F0319460BA801936E
:1040300002F045FB04460028ACD101990DA802F01E
:104040003EFB04460028A5D1BDF83250BDF83A80A9
:10405000A5EB080A4FEA4A1949460DA802F02FFBC2
:104060000446002896D14FEA8A0A0DA90BA802F04F
:104070007BFB00284DDA49460DA802F03DFB0446C3
:10408000002887D108F1FF3305939B0005F1FF3A23
:10409000069305F1804508F18043023B013D9B00FA
:1040A000A5EB08050893AB000293059B9A4541D800
:1040B000BBF1000F0DD00FA9584602F079FA002885
:1040C00040F0C980039AB388928813FB02F3ABF8DF
:1040D0000430002F3FF45EAF01990BA802F00CFBF7
:1040E000002840F0B880B388ADF830300BA93846CE
:1040F00002F05EFA0146002840F0AF80384602F038
:104100007BFB00287FF446AF0123BB8042E701948C
:104110009AE70F9A52F80A300BA9013342F80A3095
:1041200008460DAA02F04EFC044600289DD031E757
:10413000010003000D9B069A04931344DDF82C90B4
:104140000793049B59F82A109A580F9D4FEA8A0842
:10415000A8F104030993029B91421D4476D2A8F171
:104160000400002359F80000FBF7CAFF002914BF20
:104170004FF0FF330346BAF1010F2B6016BF09EB76
:104180000803002353F8083C1593A8F1040359F8D9
:104190000330169359F8083017932B68DDF8108018
:1041A00001332B60089B98442B68013B2B60002156
:1041B00011A802F032FA00284DD1059B002B48D0FF
:1041C000D8F80020119B1A60079A12685A6011A94A
:1041D0002A68084602F0FAFB00283CD113A911A86E
:1041E00002F0C2FA0028DFDC2A680DA911A802F04B
:1041F000EDFB80BB029B4FEAC308414611A802F0C9
:104200005EFA40BB0BA9084611AA02F0DBFB01468F
:1042100018BB0BA802F0F0FA002812DA0DA911A8B9
:1042200002F0C6F9B8B9414611A802F048FA90B9AF
:104230000BA911AA084602F0C2FB60B92B68013B2A
:104240002B60029B0AF1FF3A043B2DE74FF0FF334E
:1042500091E7059AB6E704469CE60C469AE66FF0AD
:104260000B048CE6F0B5114C059F24684440002BEC
:1042700014BF9C468C46E443002303F1040E7745AB
:1042800002D2BB4209D3F0BDD5585CF803600540AB
:1042900026403543CD507346EFE7D55C1CF80360EC
:1042A000054026403543CD540133EAE7F40D0020A4
:1042B0000928024818BF0020704700BFE47D0000B5
:1042C00001680E4A9142034615D1C169A2F110223C
:1042D000A2F1EF1291420ED18268012A0BD8C26876
:1042E00012B101698A4206D0586928B19B691B1A2C
:1042F0005842584170470120704700BF55AA00FF3F
:1043000070B50D4B9E68A6B13046FFF7D9FF044645
:1043100078B9F3686BB935690DB9204670BD284688
:10432000FFF7CEFF28B9EB68B34202D12E462D69C4
:10433000F2E70124F1E700BFF80D00202DE9F84372
:104340003F4F3C68D4B1BC68C4B100284AD00029B2
:1043500048D001FB00F5B5FBF0F0884242D1281DA2
:1043600040D8A9070DD025F003060436FC6803E009
:104370006368B34238D2A469002CF9D12046BDE865
:10438000F8832E46F2E7FB6041E006F12001631856
:10439000203A5A600022C3E902242A4822691A619D
:1043A00060502949D96102B1D36062695A61A1693B
:1043B0009961AAB193619A6902B153614FF0010901
:1043C000C4E9016923610023C4E905333B69DB07C4
:1043D0002ED5FFF795FF58B31C4B48461B6826E0C7
:1043E000FB60E8E70024C9E7A3681BB1174B012075
:1043F0001B6898476268921B232A04F12008C4D8DE
:104400000123A360D4E90523002ABCD09361A369EA
:104410000BB162695A610023C4E905333B69DA07CD
:1044200006D5FFF76DFF18B1084B1B6801209847B0
:104430002A4600214046444602F06FFE9EE700BF38
:10444000F80D002055AA00FF669911EEAC0000207F
:1044500070B50546002800F08880444E3368002B74
:1044600000F08380B268002A7FD0834203D872684C
:104470001344984203D33E4B01201B689847A5F193
:1044800020042046FFF71CFF18B1394B01201B68A0
:10449000984755F8183C012B03D0354B01201B6879
:1044A0009847002345F8183C55F8143C3BB39A68EC
:1044B0002ABB55F81C2C02F120015A680A445A60A4
:1044C00055E905321A6155F8145C2B6903B1DD60BA
:1044D00020220021204602F020FE286910B18368C6
:1044E000002B2ED033699B073FD5FFF709FF00282B
:1044F0003BD01F4BBDE870401B680120184755F8A2
:10450000100C00282AD0836843BB426863681344B8
:104510002033636003692361D4E905239AB9CBB9D9
:10452000436963618269A261B3B19C61A36903B10C
:104530005C61236903B1DC602022002102F0EDFD03
:10454000D0E72C46E1E79361A369002BE8D06269CC
:104550005A61E5E7F360F7E7F460E7E7F36845F8E9
:10456000083C03B15C61F460BCE770BDF80D00204D
:10457000AC00002038B514220C4605460021134833
:1045800002F0CBFD1249134800F040F8232C1CD94F
:1045900015F003031FBF043CE418C3F10403ED1836
:1045A00022460021284602F0B8FD084B0A499D60CA
:1045B000C3E90054203C6C609A6811609A68DA6024
:1045C000A1F11021A1F1EF11D16138BDF80D00204A
:1045D000514400003D43000055AA00FF10B50A46B3
:1045E000044619B1024B00211B68984710BD00BF5B
:1045F000A8000020014B1B68184700BFB400002032
:10460000014B1B68184700BFB0000020024B186028
:10461000024B002019607047B4000020B000002059
:10462000F8B500F108064768044630460D4602F02A
:1046300024F887424BD16368B3F5806F47D80021D7
:10464000304602F0D9F8002841DD0021304602F062
:1046500000F8E0B345B9294604F1100002F0CCF8A7
:10466000002834DD0020F8BD04F120050021284693
:1046700002F0C2F800282ADD0021284601F0E9FFF7
:1046800028B304F128050021284602F0B5F80028D7
:104690001DDD0021284601F0DCFFC0B1002104F13E
:1046A000100002F0A9F8002811DD002104F130000B
:1046B00002F0A2F800280ADD002104F1380002F01F
:1046C0009BF8002803DD002104F14000C6E7014803
:1046D000C9E700BF80BFFFFF012970B505460E4640
:1046E000144601D9074870BD03D0C5E91C640020F9
:1046F000F9E7002AF9D01046FFF7DAFD0028F4D1D7
:10470000F0E700BF00BFFFFF70B500210446FFF7D0
:1047100087FF054610B10E4D284670BD04F108060E
:10472000304601F0A6FF7F28F5D9103429462046EF
:1047300001F08FFF0028EED0204601F09AFF0128FB
:10474000E9D93146204602F00FF80028E4DBE2E721
:1047500000BEFFFFF0B50C4685B0002105461646A9
:10476000FFF75EFF002839D102A801F09EFE214626
:104770006A6802A801F087FF044618B102A801F098
:1047800099FE0CE005F10804214602A801F0ECFFB7
:10479000002807DB02A801F08DFE6FF00304A4F5EA
:1047A000854418E005F1480302A96F68009305F1FC
:1047B00010022346084602F059FA04460028DDD1CB
:1047C0003A46314602A801F074FF044602A801F0FF
:1047D00071FE002CE3D1204605B0F0BD004CFAE795
:1047E00080BFFFFF03460846C1B9C3E910110D4A57
:1047F0000D49DFF838C0C3E912120D4A0D49C3E96B
:1048000014C20D4AC3E916120C4A1A6602F1745218
:10481000A2F52302A2F692425A6670476FF0730027
:10482000704700BF85AE67BB67E6096A72F36E3CEE
:104830003AF54FA57F520E518C68059BABD9831F6B
:104840002DE9F04FCFB00446039100F1480346AD87
:1048500000F16806186859682A4603C20833B34253
:104860001546F7D1DDE94883DDE94B96DDE94615CC
:104870000193DDF834B13E4B4A98029304AA4FF0FD
:10488000000CBCF10F0F5BD8039B53F82C301BBA04
:104890004FEAF02E86EA0907DDF808A093608EEA59
:1048A000B01E07408EEA706E774077445AF804EBEA
:1048B000CDF808A077443B4445EA010E4FEA713732
:1048C00087EAB1070EEA080E05EA010A4EEA0A0E67
:1048D00087EAB15777440CF1010CDDF804E0CDF81C
:1048E00004805B44BCF1400F9E4402F104023B444F
:1048F000B3461ED1CDE94C96CDE94AE0CDE9485802
:10490000CDE94631CDE9043745A904F144036434C7
:1049100053F8042F51F8040FA34202441A60F7D150
:1049200004A84FF49471FFF759FE00204FB0BDE882
:10493000F08FA8464E460D46814619467046A0E7C0
:10494000136852F834AC52F8387C4FEAF34E8EEAD2
:10495000734E8EEA932E52F8143C3B444FEABA470A
:1049600087EAFA17734487EADA073B4490E700BF07
:10497000D0750000F0B5816885B01039054621F08A
:10498000070400F08AFF0B4B6E4603F1100C324611
:1049900018685968374603C7083363453E46F7D160
:1049A00010232146284600F047FF003818BF012099
:1049B00005B0F0BD0E77000030B50D46816887B0B8
:1049C000102302AA1039044600F021FF002802DA61
:1049D000012007B030BD102202A9204602F089FA5A
:1049E00000283AD11E49102202A802F0A5FB002897
:1049F0000CBF012302232B70204602F066FA01232C
:104A000001460DF10702204600F001FF0028DFDB20
:104A10009DF8073003F00F021B096A702B71012209
:104A20000DF10701204602F064FA10B96B78042BEF
:104A300003D901236B7000232B71A268183A22F06E
:104A40000702083AA91C204602F066FA0028BFD1E6
:104A5000E91C204602F0B8FABBE70323CBE700BF0E
:104A60000E770000F0B5354F460085B00546694623
:104A700057F8260002F0AEFA044610B1FF2005B048
:104A8000F0BD013602A957F8260002F0A3FA01286A
:104A900037D12B482A46492100F09EFE294B02932C
:104AA0008DF80C409DF800609DF80870264C00229F
:104AB0002078314602F00FFA50B36078394602F0A0
:104AC0000AFA28B3A378042B03D09DF80310994267
:104AD0001ED1E378042B03D09DF80B10994217D117
:104AE0002379042B10D16279022A1DD1174B184863
:104AF0002A46492100F070FE6079831E022BBED940
:104B0000BCE70028CED0B9E79DF802109942EAD060
:104B10000132032A04F10604CAD10E482A4649216B
:104B200000F05AFE0120AAE7032A05D00A4B0B49E0
:104B3000042A08BF0B46DAE7094BD8E7D076000015
:104B40000A7E0000030103039F7E0000EC7D00004D
:104B5000557E0000797E0000F17D0000037E00009C
:104B6000E77D000038B50A4B53F82040013053F878
:104B70002050A54200D838BD606830B1037FDB0704
:104B800001D402F084FA0834F3E723689847FAE77F
:104B9000D876000008B5094B012203201A70FFF7F0
:104BA000E1FFFCF75FFE0420FFF7DCFFFBF712FCE0
:104BB000034A137B23F00103137308BD142700205D
:104BC000F000002008B50348034A0021121A02F041
:104BD00075FA08BDD00000201827002008B5002075
:104BE000FFF7C0FF184B83F30888184C636943F440
:104BF000007363610025E02384F82230E577257691
:104C00006576A57684F82050636A43F4E0236362F6
:104C100084F82350FCF77CFFFDF770F84FF0FF336A
:104C2000A362E362FDF704F9FDF78CF802F009FADC
:104C30000120FFF797FF0220FFF794FF04482B465F
:104C40002A462946FDF742F8802F002000ED00E0BB
:104C5000954B00000748084A084908B5121A02F0A7
:104C60002FFA0748074A0849BDE80840121A02F01F
:104C700027BA00BF00000020CC000020B87E000052
:104C80000000002000000020B87E0000024B1868E1
:104C9000984208BF00207047B800002030B570B1BE
:104CA0000B4B5B6898420AD0036843B1D3E90421F7
:104CB000D0E90445121941EB0501C3E90421D0E90B
:104CC000003213605A600023C0E9003330BD00BFDA
:104CD000B80000202DE9F047EFF31185202383F37E
:104CE0001288BFF36F8FDFF8A090DFF8A080C9F8BB
:104CF0000000FFF7CBFF00260027D9F80030D8E9E5
:104D000000ECD91750B1D0E90442A34271EB020A7A
:104D10001ADAE41A62EB0102C0E9044213EB0E0353
:104D20004FF000044CEB01012046C8E90031C9F8FE
:104D3000004002F0CDF92146FEF72AF985F31188EB
:104D4000BFF36F8FBDE8F08714EB0E024CEBE473FA
:104D5000C0E90467C8E90023FFF7A0FF85F31188C5
:104D6000BFF36F8F83689847EFF31185202383F398
:104D70001288BFF36F8FD9F800301B1BC9F80030C1
:104D8000FFF784FFB9E700BF0C0E00207001002080
:104D9000F8B50E4B1D68AB789B07064612D56F68B9
:104DA00016F8014B29462CB90A20B847002805DB24
:104DB000204609E02046B8470028F1DAAB7843F0F6
:104DC0000403AB704FF0FF30F8BD00BF2C7500003E
:104DD0002DE9F04F8378D0F8048015469A0785B006
:104DE000074640F1B580002691F800B0BBF1000FF6
:104DF00000F0B080BBF1250F05D001F1010A0136AA
:104E00003946584660E091F801B0BBF1250F01F139
:104E1000020AF4D0002401211F2C26D8ABF1200275
:104E2000102A10D9ABF13002092A37D81AF801BB81
:104E3000BBF1000FF0D139462520C0470028C0F251
:104E400083800236DCE7854B01FA02F01842EDD18F
:104E5000032A64D0ABF13002092AE7D9BBF12A0F4B
:104E600011D1043544F02004E0E77F2C16D8ABF1D3
:104E70003002092ADAD9BBF12A0F0CD1630605F1F9
:104E80000405D3D4EEE7BBF12E0F0AD1600661D43E
:104E900044F04004CAE7BBF12E0FF7D0BBF16C0F12
:104EA0002CD0BBF16C0F13D8BBF1680F2DD0BBF128
:104EB0006A0F31D0BBF14C0F2ED0BBF1630F0DD177
:104EC00015F8040B01363946C047002836DA3BE0B6
:104ED000BBF1740FAAD0BBF17A0FA7D0ABF164027B
:104EE000112A00F29080DFE802F0398E8E8E8E3922
:104EF0008E8E8E8E8E98888E8E1C8E72220648BF65
:104F000044F4007444F0800490E7E30548BF44F49F
:104F1000007444F4807489E744F4207486E7102414
:104F200084E72C684E4B002C08BF1C46A1464B461C
:104F300019F8010B20B9341B1E190435514653E7EB
:104F40003946C0470028F2DABB7843F00403BB704F
:104F50004FF0FF36304605B0BDE8F08F20062DD566
:104F6000A10545BF073525F0070555F8040B55F891
:104F7000080B0028B8BF44F4806424F01004B8BFC4
:104F80004042A4B20DF104090A22494602F0E4F8B5
:104F9000E206A0EB09094DD539463020C04700286C
:104FA000D2DBBBF1000F57D0023639465846C04716
:104FB0000028C9DB4C460DF1040B49E0E20555F829
:104FC000040BD6D5A3054CBF40B200B2D1E724F004
:104FD0001004A4B20A22200623D5A10545BF073537
:104FE00025F0070555F8040B55F8080B10B924F007
:104FF0001004A4B20DF10409C7E744F01004102214
:105000004FF0780BE7E74BF02002782A7FF413AFDC
:10501000CBF1780242F01002DDE708224FF0000BDE
:10502000D9E7E30555F8040BE0D5A1054CBFC0B2A4
:1050300080B2DBE76305BDD5013639462D20B6E7E2
:10504000013C39461BF80400C0470028FFF67CAF3E
:10505000002CF5D14E4471E70136ABE78128010001
:10506000B17E000038B5044C044DAC4200D138BDCF
:1050700054F8043D9847F8E70000000000000000E5
:1050800070470020704730B5002985B004461546AA
:1050900011DB83688B420ED96368C068194401AA8A
:1050A00000F035FD28B96268019B9B1A2B60029BBA
:1050B0006B6005B030BD6FF02100FAE72DE9F743D2
:1050C0000E4617469946044628B94FF0FF38404629
:1050D00003B0BDE8F0830029F7D0002AF5D0CB68F3
:1050E0000D891D4404230DEB03022946384600F0C8
:1050F0008EFB80460028E8D1BDF80410738946F67F
:105100000812914225D1BDF806109942DDD1042341
:105110000DEB03022944384600F079FB0028D4D176
:10512000BDF8042046F607139A42CED1C4E90067C1
:105130009DF82830A4F80890A3727389BDF8062062
:105140002B44E360738913442B4404356361256168
:10515000BDE7002BE4D0B8E72DE9F3410E46174632
:105160001D46044620B94FF0FF3002B0BDE8F08183
:105170000368002BF7D04368002BF4D04FF6FF787C
:10518000D4E904239A4216D223685B8923B1E368E9
:10519000934204BF043323610423216960680DEB4B
:1051A000030200F034FB0028DDD1A37A2BB1D4E94F
:1051B00003329A4201D30120D7E72389BDF80610B4
:1051C000434501F1040203D0BDF804C09C450BD156
:1051D00015B1BDF804302B80236904333360398066
:1051E000236913442361C0E7236913442361C7E79C
:1051F00048B103683BB143682BB1C068884294BF93
:105200000020012070474FF0FF30704701F094BF3D
:105210004FF4B17358433030704773B50C460546B0
:10522000164600F033FBA04203D9284600F02EFBBF
:105230000446A9684FF4B173303903FB14116A4670
:105240002846FFF720FF0028A4BF009B336002B070
:1052500070BD10B5044600F019FB4FF4B173434321
:10526000A0683033834201D900F09DFBC01A10BD05
:1052700070B50D46044601F028FE2A46A0F108014B
:1052800004232046BDE8704000F0C1BA13B50446BF
:10529000019101F01AFE0423A0F108010DEB0302B5
:1052A000204601F055FE02B010BD08B5036A0BB9E7
:1052B00000F079FB426A99685268C36D4FF4B1708F
:1052C00000FB0323891A2F3352421340C81A08BD2A
:1052D00001292DE9F341174601D900F064FB2C2385
:1052E00003FB0104D4F82080B8F1000FF5D0E36887
:1052F00026891E4404230DEB03023146404600F08C
:1053000086FA054620B10125284602B0BDE8F081A5
:10531000BDF80420648946F608139A421AD1BDF8F4
:1053200006309C4201D00325EEE704230DEB030277
:10533000A119404600F06BFA0028E4D1BDF8042022
:1053400046F607139A42EED1BDF8061021443144C7
:105350003960D9E7002CF1D0E5E713B576220129B1
:105360000346019208460AD15A6A03F1280401A9AA
:1053700000F0BCFA08B9019B236002B010BD0229FD
:1053800003D11A6D03F15404F1E70120F5E710B5DC
:1053900028B1BDE810406022002101F0BEBEFBF73D
:1053A0006DFBF6E770B513460E4615460021024622
:1053B0000446FBF7EBFD50B92B4604F12C0201210A
:1053C0002046FBF7E3FD10B1002E08BF002070BDA2
:1053D0000123036003F1012343600023C0E902338A
:1053E00070474379012B07D10368012B04D1007961
:1053F000431E58425841704700207047F7B5056A70
:10540000074628460E46FFF724FFF96D044630464E
:1054100000F0D9F80444284600F038FA0746284638
:1054200000F03BFA072201460DF1010001F075FE84
:1054300033798DF800306A463B462146284600F015
:10544000FBF9003818BF012003B0F0BD10B412B151
:1054500010BCFBF79DBA104610BC70470023826851
:105460001946FFF7F3BF002110B504460846FBF7C5
:1054700037F804F12001C0B2FCF7B4F940B90121BA
:10548000FBF72EF804F14C01C0B2FCF7ABF908B100
:1054900000F089FA10BD10B50446C06C08B100F0E8
:1054A000B5F9206A18B1BDE8104000F0AFB910BDE1
:1054B00013B50C4601AAC16D2046FFF7AEFE0028C9
:1054C00009DB0199A2680123521A2046FFF7BEFFAB
:1054D000C00F02B010BD0120FBE737B50C46C06C11
:1054E00069461546FFF768FA024608B100F05BFA14
:1054F000E979012904D0204601F080FD0028F5D18A
:105500009DF80330012B04D1204601F056FD002800
:10551000ECD1A9682046FFF7B9FE0028E6D1204665
:10552000FFF728FA0028E1D103B030BD73B50C466F
:105530000646FBF72BFEE06028B3022801D1356A4E
:105540000DB900F030FA224631462846FBF776FDC9
:10555000D0B9284601F0B9FC012301460DF107023C
:10556000284600F054F988B901220DF107012846B8
:1055700001F0BFFC10B101238DF807309DF8073012
:1055800003F00F03E371002002B070BD0120FBE7C0
:1055900038B5436A0446C06D5D68FFF739FE0246C0
:1055A000A06A002302382B449A4201D90138FAE755
:1055B00038BD436A00205A68034613448B4200F109
:1055C0000100FAD3704710B543790279012B1ABF55
:1055D00076234B43002302F1FF3201FB02330268C2
:1055E00014BF4C000C46013A04FB023010BD10B54C
:1055F000036A0446D8688368DB689847E36CD86818
:105600008368DB689847012010BD002070470FB405
:1056100007B504A951F8040B0191FBF7B7FF03B0DC
:105620005DF804EB04B07047038B13F0070305D15A
:105630000368002B0CBF002003207047022B05D10C
:10564000408BB0FA80F0400980007047012B05D1F3
:105650000368002B0CBF0020052070470020704716
:1056600010B50C4600B111B96FF0150010BD081D42
:1056700000F093F80028F9D1A368032BF6D9F3E7DB
:105680002DE9F0410D4607461946281D90461E4655
:1056900000F094F8044638B133464246294638466D
:1056A000A446BDE8F0416047BDE8F08110B4EFF3D7
:1056B0001182202484F31288BFF36F8F416110BCE4
:1056C0000121FBF77BBF38B50C46054658B151B1F7
:1056D0000B6843B14B6833B11C22002101F01DFD62
:1056E0002C61002038BD6FF01500FBE770B5054652
:1056F0000E46FFF7B5FF041E14DBEFF311822023E3
:1057000083F31288BFF36F8F6B8B2C8B4FF6FF7177
:105710008B4204F0070407D182F31188BFF36F8F27
:105720006FF00A04204670BD022C0CD101336B834C
:1057300082F31188BFF36F8F00232246314628463B
:10574000FFF79EFFEEE7062C14D8DFE804F0041301
:105750001313041A0400002333606B683BB9C5E9D6
:105760000066ACB902212846FBF728FFDAE71E6085
:105770006E60F6E782F31188BFF36F8F6FF0040459
:10578000D0E782F31188BFF36F8F6FF08504C9E70C
:1057900082F31188BFF36F8FC4E7034658B14268A4
:1057A00002F00302012A03D0032A04D1026812B1D5
:1057B0000020986070476FF0150070474268816064
:1057C00002F00302032A4FF0000203460CBF0068F8
:1057D00010465A60704770470FB407B504A951F8D6
:1057E000040B0191FBF7D2FE03B05DF804EB04B0AB
:1057F0007047002908DB8068884205D9401A90422A
:1058000034BF00200120704700207047704770B5FA
:1058100016461A4605460C46FFF7EBFF48B1696885
:10582000E8682144826814683246A446BDE87040A6
:1058300060476FF0150070BD70B516461A460546F4
:105840000C46FFF7D6FF48B16968E86821448268D2
:1058500054683246A446BDE8704060476FF01500BA
:1058600070BD10B50B460446FFF7C3FF40B1616839
:10587000E068194483689B682BB1BDE81040184765
:105880006FF0150010BD6FF05700FBE708B5C0685A
:105890008368DB689847006808BD08B5C0688368FE
:1058A000DB689847407908BD70B54C680368A3422F
:1058B00001D2012070BD8A682244934201D30020A6
:1058C000F8E7D1E903254E69B54203D36FF00B0326
:1058D0008B61F4E71B1B42F835304368086902EB23
:1058E000C00253600B6901330B61E2E737B50C4628
:1058F000C0B201A91546FBF775FF00280CDB019823
:1059000050B121462A46FBF793FF04460198FFF762
:105910007DFF204603B030BD6FF01504F9E7012884
:1059200001D1EFF3058301F0A3BB01460068FFF747
:10593000F6BF08B5FBF7A4FFBDE8084000F000B8CB
:10594000704700210120FFF7EABF61B662B680F31D
:105950001188BFF36F8F7047EFF31180202383F31B
:105960001288BFF36F8F704772B6002383F31188DC
:10597000BFF36F8FBFF34F8F20BF80F31188BFF34A
:105980006F8F62B67047202809D9B0F1004F08D850
:105990000138B0FA80F0C0F11F00400070470820C5
:1059A00070473E20704708B5FCF712FB08B5FCF7BE
:1059B000FBFA002008BD70470369C9B20C2201FB45
:1059C0000233186C00F00700704770B5C9B2036964
:1059D000EFF31185202484F31288BFF36F8F0C2618
:1059E00006FB0134246C14F0C00408D0A24206D097
:1059F00085F31188BFF36F8F4FF0FF3070BD714397
:105A00000B4401221A6485F31188BFF36F8F43683A
:105A10000B445B6898470020F0E78022FFF7D5BF72
:105A2000F8B5069F0469C9B2EFF31186202585F306
:105A30001288BFF36F8F0C2569430C44256C05F069
:105A4000070CBCF1010F0BD1276486F31188BFF35B
:105A50006F8FC4E90E2343685B5898470020F8BD58
:105A600005F0C005AF4286F31188BFF36F8F0CBFFE
:105A70006FF077004FF0FF30F1E713B5802400940A
:105A8000FFF7CEFF02B010BD6FF08500704710B475
:105A90000069CBB21C2403FB0400002110BC10479A
:105AA0000020FDF781BC002000F05DB9F7B51C4671
:105AB0001646002382682360A36053690D4601AA3D
:105AC00069469847019B5A1E01921BB96FF0150059
:105AD00003B0F0BD0098A26847682168676085B987
