:020000040000FA
:10C000003DB8F396000000000002000040D500009B
:10C010000000000000000000000000000000000020
:10C020000000000000000000000000000000000010
:10C030000000000000000000000000000000000000
:10C0400000000000000000000000000000000000F0
:10C0500000000000000000000000000000000000E0
:10C0600000000000000000000000000000000000D0
:10C0700000000000000000000000000000000000C0
:10C0800000000000000000000000000000000000B0
:10C0900000000000000000000000000000000000A0
:10C0A0000000000000000000000000000000000090
:10C0B0000000000000000000000000000000000080
:10C0C0000000000000000000000000000000000070
:10C0D0000000000000000000000000000000000060
:10C0E0000000000000000000000000000000000050
:10C0F0000000000000000000000000000000000040
:10C10000000000000000000000000000000000002F
:10C11000000000000000000000000000000000001F
:10C12000000000000000000000000000000000000F
:10C1300000000000000000000000000000000000FF
:10C1400000000000000000000000000000000000EF
:10C1500000000000000000000000000000000000DF
:10C1600000000000000000000000000000000000CF
:10C1700000000000000000000000000000000000BF
:10C1800000000000000000000000000000000000AF
:10C19000000000000000000000000000000000009F
:10C1A000000000000000000000000000000000008F
:10C1B000000000000000000000000000000000007F
:10C1C000000000000000000000000000000000006F
:10C1D000000000000000000000000000000000005F
:10C1E000000000000000000000000000000000004F
:10C1F000000000000000000000000000000000003F
:10C20000C02C00201DE40000E956010009E40000F4
:10C2100009E4000009E4000009E400000000000057
:10C22000000000000000000000000000F9E4000031
:10C2300009E4000000000000EDE6000009E4000051
:10C2400069E7000069E7000069E7000069E70000AE
:10C2500069E7000069E7000069E7000069E700009E
:10C2600069E7000069E7000069E7000069E700008E
:10C2700069E7000069E7000069E7000069E700007E
:10C2800069E7000069E7000069E7000069E700006E
:10C2900069E7000069E7000069E7000069E700005E
:10C2A00069E7000069E7000069E7000069E700004E
:10C2B00069E7000069E7000069E7000069E700003E
:10C2C00069E7000069E7000069E7000069E700002E
:10C2D00069E7000069E7000069E7000069E700001E
:10C2E00069E7000069E7000069E7000069E700000E
:10C2F00069E7000069E7000069E7000069E70000FE
:10C3000010F8012B11F8013B012A28BF9A42F7D0FF
:10C31000D01A7047034613F8012B002AFBD1181AD4
:10C320000138704713B5104B019301240F4B10488F
:10C3300000942246042109F0B0F8031E04DA0D4AE5
:10C340000D48214608F078FF0C4A0B48084C0321A1
:10C3500008F069FF4FF4004000210BF09CFAA3693C
:10C360000133A361F6E700BF58830100CC930100BD
:10C37000500A002066830100F47F01008B830100D6
:10C380002DE9F84F8A4600AF002974D004680E1FCB
:10C39000361BF50826F0070604EB0608B8F802B0CD
:10C3A0001BF0010B16D1E94688B06A46334BCDE944
:10C3B0000531032342F8103F31485B464FF4C25128
:10C3C00001F0DEF8CD468BF31188BFF36F8F0423A5
:10C3D000184602DF2946204608F0BBF9284434F805
:10C3E0003030C01A854217D0E94688B06A46254BDE
:10C3F000CDE9053A032342F8103F214800234FF4CA
:10C40000C25101F0BDF80023CD4683F31188BFF37C
:10C410006F8F0423184602DFB8F8023023F00103BF
:10C42000A8F802302946204608F093F905EB0008E9
:10C4300004EBC8035B88DA0708D44146204608F0BD
:10C44000D1F942462946204608F011FAA65BAE1BF8
:10C4500004EBC6035B88DB0709D43146204608F0AD
:10C46000C1F92A463146204608F001FA35462946E8
:10C47000204608F073F9BD46BDE8F88F0A84010034
:10C48000E47F0100E18301002DE9F04F91B08407C2
:10C49000009302F004030293C2F3C20303F1010309
:10C4A000DDF868A0039205460E46059340F09D8195
:10C4B000041D00284AD101F00706341DC6F1080604
:10C4C000009B00275A1E4FF004084FF0FF330193E2
:10C4D0000497B946BB4643460DB1009921600598C3
:10C4E000002800F3D78090480099814203D38F48F9
:10C4F0008142C0F0CF80039911F0020CA4EB05003B
:10C5000040F0D680B9F10F0F00F2CF80002D00F07F
:10C51000D68009F140010DEB010EC0F387000199AF
:10C520000EF8200C0EF8101CBCF1000F00F0C380B8
:10C5300060F07F000EF8200C013709F10109C5F108
:10C540000801043406914FF6DA7E8CE00729B7D84B
:10C550006FF01B0011B0BDE8F08F7A285BD84B2834
:10C560000FD8472857D829282ED8252850D052D858
:10C57000202818BF23280CBF4FF0010B4FF0000BF1
:10C5800071E04C382E2846D8DFE800F06D4545456F
:10C590004545454545454545484545454545454548
:10C5A00045564548485656566D486A456D451848A3
:10C5B0001845457F7C48454548457C0000204FF0A4
:10C5C000000B4FF0040835E02A38C0B2012101FA0F
:10C5D00000F010EA0E0F46D110F0625C2CD110EA88
:10C5E000010B40D06046013C4444B4FBF8F408FB26
:10C5F00004F425B1A3EB050CA444B445A8D8002845
:10C6000070D00599013905915AF8041B009163E730
:10C610000199013901914FF0000B24E012F8010C4F
:10C620006C2834D112F8023C00206C2B8346C8D110
:10C630004FF008084346D6E70AF1070A2AF0070A2E
:10C640000734FAE802BC24F0070435B10698204408
:10C65000B0423FF67DAFC4E900BC08344FF0000B98
:10C660004FF00808434612F8010F002853D0BBF1E1
:10C67000000F7FF472AF2528F5D1019B01330193A0
:10C680004FF0010B4FF00408ECE7584697E7002005
:10C690008346A8E7039988077FF551AF601B4FF0E9
:10C6A000010CB0F5007FFFF42DAF6FF0150051E7DE
:10C6B0004FF0000CF5E70498013004903DE7BCF121
:10C6C000000F01D0013638E70298023600287FF4C7
:10C6D00034AF0098CDE90632FFF71CFEDDE90632E3
:10C6E00006442AE7042B08D10AF1040015B1DAF850
:10C6F0000010216004348246B5E70AF1070323F0F5
:10C70000070303F1080A1DB1D3E90001C4E90001E0
:10C7100008340823A7E7631BB3F5806FC5D23DB982
:10C72000A6F10804E01815E7E07B01001095010070
:10C73000029A28609B082B709DF81030AAB1EB700C
:10C74000AF702FB108A80022C5F1010C91450ED1A0
:10C75000C5F101030DF120084FF0000A01930DF11E
:10C76000300BD14512D1601BF4E66B70E8E710F88E
:10C77000013B190608D50CEB040EB64503F07F0308
:10C780003FF6E6AE04F8013B0132DFE71FB198F94E
:10C790000020002A17DB029BD3B11AF80B2004F803
:10C7A000012B0022019B18191044B0423FF6D0AE75
:10C7B00098F8000004F8010B0099039220460BF052
:10C7C00071F9039A14440AF1010A08F10108C8E753
:10C7D00098F8002055F822300093029B45F822304B
:10C7E0000098FFF797FD421CDCE76FF00D00B1E603
:10C7F0002DE9F04F97B000AFC7E90A3205468A46E7
:10C8000049B903784678807800EB83002844564580
:10C8100024D8A0EB050AD7F8803095F80280D7F825
:10C82000804003F00103FB61EB787B62B8F1000FFD
:10C830000CBF002404F001041BB1D7F880309A0724
:10C8400015D4A4B9FB6A1BB1BA6A51462846984769
:10C85000564630465C37BD46BDE8F08F441C204646
:10C86000FFF758FD013020440AF1010ACFE7D7F85D
:10C870008030C3F3C0033B622B78BB619B003B61FC
:10C880006B687B61BB6905EB830BFB6A002B77D17F
:10C890005646D844BCB11C461BF8013B55F8230052
:10C8A000FFF738FDD7F88430013043B1D7F888302E
:10C8B000A34282BFD7F8843023F814000134C34563
:10C8C0000644E9D1D846D7F8803013F0050F0CBFE5
:10C8D0004FF0020B4FF0010B4FF000097B6A9945B6
:10C8E000B7D298F8013055F823A0AE4B9A4508F11D
:10C8F0000208C0F04B81AC4B3A6A9A452CBF00232A
:10C9000001230AB318F8021C7869FB6208F084F866
:10C91000FB6AC8B1EA468AB06A46A44B05937B69B4
:10C92000CDE906314FF40073ADF82030A04B42F84A
:10C93000103FA04800234FF4125100F021FE023EA8
:10C94000D54609F10109C9E723B1FB6933B9A6EB63
:10C950000B06F6E7D7F880309B07F2D55046FFF775
:10C96000D9FCD7F884304BB1D7F888309C423FBF10
:10C97000D7F88420431C22F8143001340644E0E741
:10C98000002C69D1B8F1000F6CD0D7F8803058076F
:10C990006BD5C14607F14800424659460BF082F874
:10C9A0000BEB0803FB6000220233796A8A425ED3F4
:10C9B000D7F8802095F801B0F969920704EB0B03D2
:10C9C000DBB254BF4FEA59020022002940F0A68092
:10C9D000D7F8801011F0040F14BF494600216B7086
:10C9E000A970EA703969BA6AFB6A28469847061E38
:10C9F000FFF62FAFBB692B707B6AEB704946BA6AB2
:10CA0000FB6A85F801B085F8028007F14800984775
:10CA1000B0F10009C0F2B6803B697A6A786A03EB2C
:10CA20004201FB68BA6A414403EB4000AAEB0101F2
:10CA3000FB6A98470028C0F2A780B14409EB0006C2
:10CA40004FF0000B07F1380AA34569D30021BA6AF9
:10CA5000FB6A08469847FCE6444607F138004FF069
:10CA6000000999E74446C1469AE7A14698E713F8BA
:10CA7000016CDFF830C155F8260013F8021C604540
:10CA8000C0F08A80DFF820C16045386A2CBF4FF0C3
:10CA9000000B4FF0010B38B17869C7E9013207F09C
:10CAA000BBFFD7E90132F0B9BBF1000F1ED0F96925
:10CAB00049B1611C04F1280007F13004041904F89D
:10CAC000206CCCB20FE0D7F8801049070BD509F1E4
:10CAD000280007F1300C09F1010100EB0C0909F8FD
:10CAE000106C5FFA81F9013202335EE7D7F88000FB
:10CAF0008007DED409F1280C07F1300EF44409F167
:10CB000001000CF8101C07F1580151FA80F009F1EE
:10CB100002095FFA89F900F8106CE4E700215EE78A
:10CB20001BF80A3087F8373055F82390D7F884304F
:10CB30002BB3D7F888309B4521D2D7F8843033F80F
:10CB40001B80BA6AFB6A012107F137009847002869
:10CB50001ADB0644B8F1000F06D14846FFF7DAFBAE
:10CB600000F101081FFA88F8BA6AFB6A4146484694
:10CB70009847002808DB06440BF1010B64E74FF0EF
:10CB80000008DEE74E4664E6064662E63B6A002B96
:10CB90003FF4E0AE0023B5E6386A0028A6D04FF097
:10CBA000000B79E7E07B010010950100378401005C
:10CBB00004000001547F0100014B1860704700BF62
:10CBC0003000002080B505460E461746984606F010
:10CBD00073FF034601F0DAFDDFF81890044649F8C8
:10CBE0000030424630463946A84754F8090001F063
:10CBF00067FD00BF0800000008B50446EFF311838D
:10CC0000202383F31288BFF36F8F05F097F8204637
:10CC100002F0A4F8024807F01EFF08F07EFDFCE7D2
:10CC2000EB8401002DE9F043079D15B91560002044
:10CC300012E00324B5FBF4F404EB4407BD4218BF33
:10CC40000134B4F1804F09D2A40001348C4200D8E1
:10CC500038B914606FF00B00BDE8F0834FF0FF347B
:10CC6000F7E7DFF8BCE004460021B94203F1030C0A
:10CC700004F104062CD3A942274624D21F7801F1DF
:10CC8000010CAC45264938BF5B784FEAA70E28BF98
:10CC9000002311F80EE084F800E0AC4501EB131E10
:10CCA0003CBF9B0003F03C034FEA071707F0300737
:10CCB00038BFCB5C1EF80770677028BF3D23A37098
:10CCC0003D23E3703746381A002310603B70AEE70F
:10CCD0001CF8034C1CF8023C1CF8018C4FEAA40918
:10CCE00024011EF8099006F8049C04F030040EEBB1
:10CCF00013199B0019F8044006F8034C03F03C0399
:10CD00000EEB981408F03F08E35C06F8023C1EF8AE
:10CD1000083006F8013C033134466346A5E700BFFE
:10CD2000529401002DE9F043DDF81CE0DFF820818A
:10CD300000273C463E46764526D3D4BB14600020EF
:10CD4000BDE8F0830135754531D013F805C0BCF15D
:10CD5000200FF7D0AEEB0509B9F1010F16D0BCF1E9
:10CD60000D0F13D103EB050999F80190B9F10A0FE2
:10CD70001BD0B54205D1BCF13D0F0AD10137022FBE
:10CD80000AD96FF01500DBE73546DCE7BCF10A0F86
:10CD9000EEE71CF0800FF4D118F80C607F2EF0D075
:10CDA0003F2E01D8002FECD101346E1CC3E72E4674
:10CDB000C3E704F007054FF0060CE4080CFB05F58B
:10CDC0000CFB04F40735E41B04EBD50470B18C4272
:10CDD0000CD80027DFF878E0DFF878801E440146A1
:10CDE00003253C46B34205D10C1AA7E714606FF047
:10CDF0000B00A5E713F8019BA9F10A0C5FFA8CFC64
:10CE0000BCF1160F04D828FA0CFC1CF0010FE9D174
:10CE10001EF809C00134BCF1400F08BF013D0CF001
:10CE20003F0C042C4CEA8717DCD17DB13C0C012D62
:10CE30000C7002D101310024D4E7022D4FEA1724EF
:10CE40004C7016BF8F7002310331F4E72C46C9E7EE
:10CE5000D2930100090040002DE9F047058B0446FC
:10CE6000280717460CD501290CBF45F0100545F0E1
:10CE70002005258387F31188BFF36F8FBDE8F08706
:10CE8000022905F0070540F09480204608F05BF881
:10CE9000052864D801A353F820F000BF75CE000028
:10CEA000B3CF00005FCF000021CF00003BCF0000D8
:10CEB0004DCF000001F007035A1F012A1FD800229E
:10CEC00021F00701062BD4F8008089B2C4E90022C2
:10CED00009D1434603E0628B013262831B68002B59
:10CEE000F9D141F002012183204608F02CF84FF0DF
:10CEF000000900286DD041F02001218369E0042B56
:10CF00000AD121F0070189B22183204608F01BF8DD
:10CF100010B141F0200121834FF00008C14658E0D4
:10CF20002369D3F80090238B23F0070343F0060313
:10CF300023834FF0000846464BE02369D3F8049062
:10CF4000238B23F0070343F00403F1E72369D3F8AD
:10CF50000890238B23F0070343F00503E8E74FF025
:10CF60000008C146E7E7012243F00803238387F363
:10CF70001188BFF36F8F002A3BD1B8F1000F4AD15F
:10CF8000B9F1000F02D02D492046C847EFF31187B1
:10CF9000202383F31288BFF36F8F238B23F00803C2
:10CFA0009BB22383D9063FD523F01002228303F0DE
:10CFB00007056669218B002EBFF67CAF0023D4F8ED
:10CFC000008021F00701C4E9003341F00101218311
:10CFD0009946238B03F0070AAA4502D0A268002ACB
:10CFE000C1D1B8F1000F02D1B9F1000FDAD000229F
:10CFF000BAE7A1680029C0D00D680029BDD04F68EC
:10D00000334652462046B8471DB12B6829461D4677
:10D01000F3E72B46FAE74146334652462046D8F816
:10D02000008007F0BCFFA8E79A067FF523AF23F046
:10D030002002228303F0070527E700BFCB4F010042
:10D040002DE9F047DFF85480044607464FF0010908
:10D0500094FAA4F5B5FA85F509FA05F32E0108EB63
:10D0600005156FEA030A24EA03042B7B63B158F821
:10D0700006301B696BB94644032273682846196859
:10D0800007EA0A0708F05FF8002CE1D13846BDE84E
:10D09000F087284698470028F6D1ECE71C8001006D
:10D0A00010B50F490F4888B000220AF0E8FC0022B2
:10D0B0000023CDE9062300240E23CDE90334CDE976
:10D0C0000144094B094900944FF44072084806F0A6
:10D0D000E3FA084906480AF01DFB204608B010BDD7
:10D0E000F9D00000C806002029D40000000F00205D
:10D0F000300200201F850100014806F097B800BFEC
:10D10000E80100202DE9F047804621480F4607F04E
:10D11000FAFF0646002833D000252846BDE8F087F0
:10D12000237B83B12368DB680BB120469847636893
:10D1300083F8069023681B69D3B9636803221968D2
:10D14000204608F000F8013610345445E8D3B8F111
:10D15000000FE2D0002DDFD02846FFF771FF054613
:10D16000002FF7D000214FF4A4700AF094FBF1E7F0
:10D17000204698470028E0D009FA06F31D43E2E76D
:10D18000044CDFF814A005464FF00109DDE700BFAD
:10D190007C0A00201C8001002C800100014B53F808
:10D1A000200070477C80010008B5034608462BB17B
:10D1B000044A136000F044FC002008BD6FF0150025
:10D1C000FBE700BF3400002010B5044C237813B9EE
:10D1D000034806F02BF80123237010BDB80E002081
:10D1E000E801002010B504460B4807F08CFF5CB145
:10D1F000BFF35B8F094B53E8001F013943E800126E
:10D20000002AF8D1BFF35B8F054806F0B7FF054849
:10D21000BDE8104006F00AB8740A0020780A002021
:10D22000C8060020E8010020064BBFF35B8F0022F8
:10D2300053E8000F43E800210029F9D1BFF35B8FC9
:10D24000704700BF740A002070B5FFF7EDFF084C6F
:10D25000084E0546B44200D370BD63685B792BB1BC
:10D2600023685B6813B12946204698471034F1E7DC
:10D270001C8001002C80010010B5044C044920469C
:10D2800007F0F6FC034B1C6010BD00BF90010020AE
:10D29000688001006C0A00200D4A0E48002310B57A
:10D2A00013700D4A13600D4A4FF400411360FFF7ED
:10D2B0007BFFFFF7E1FF0A4B0A4918468B4200D378
:10D2C00010BD1A1A5C681211013222711033F5E791
:10D2D000B90E002003510100740A0020780A0020D2
:10D2E0001C8001002C80010001460022014800231F
:10D2F00007F0DFBC90010020014807F076BD00BFB9
:10D3000090010020024B0146186807F0C9BD00BF1C
:10D310006C0A0020014807F0FEBD00BF900100200C
:10D3200070B52A4B1B78002B4ED0FFF7E5FF044663
:10D33000002846D1264B274D1B68002B19DD0AF02B
:10D3400056FB4FF47A76A0FB063206FB0121D5E9A5
:10D350000020DB0B43EA41439B1A4FEAD13140F2F4
:10D36000E93261EB0001934271F1000101D3FFF753
:10D370006BFFD5E9003213F57A7342F10002C5E97B
:10D3800000320CB3BDE87040FFF7C4BF6B685B7937
:10D3900023B12B6821461B68284698471035B542B3
:10D3A000F4D32046FFF7AEFFBFF35B8F0A4B53E881
:10D3B000001F013943E80012002AF8D1BFF35B8F48
:10D3C000B8E7064D064EEAE7002070BDB80E002013
:10D3D000740A0020C0060020780A00201C8001008A
:10D3E0002C80010070B50D4D297861B90120FFF73F
:10D3F00089FE0B4C0B4EB44206D3FFF791FF002879
:10D40000FBD101232B7070BD63685B791BB123686E
:10D4100020469B6898471034EDE700BFB90E002006
:10D420001C8001002C80010000212DE9F8430846F2
:10D43000FFF768FE044648B340F267684FF0000902
:10D4400001F0A4F91A4B1B4A1B58136033B11A4B55
:10D450001B68092B02DD194805F0E8FE184F00256E
:10D4600044B12046FFF7ECFD044618B94FF0FF38F1
:10D470004FF0FF39FFF754FF064628B9B5B90F48FA
:10D4800042464B4605F006FF3546E9E74FF0FF38C8
:10D490004FF0FF39D4E72B689B691BB1002211467E
:10D4A000284698471035BD42F5D3E8E7054DFAE721
:10D4B00008000000700A0020780A0020E80100201F
:10D4C0002C8001001C80010013B5184807F01BFEDA
:10D4D000174B1B7873B1EFF31184202383F3128869
:10D4E000BFF36F8FFFF71CFF84F31188BFF36F8FBB
:10D4F00002B010BD0F4B1B68002BF9D050B90022B1
:10D500000023CDE900230C484FF40042002306F02D
:10D51000FDFDEDE70928EBD1074806F02FFE07488F
:10D5200002B0BDE8104005F081BE00BF780A0020BF
:10D53000B90E0020700A0020C8060020E801002073
:10D5400010B5064B1B68044698472146A060044866
:10D5500007F02CFCBDE81040FFF7B6BF34000020F8
:10D5600090010020044A054B9B1AB1EBD30F34BF46
:10D5700052F83100002070474C7F01001C800100F0
:10D580002DE9F04F8FB004AFC1F34A26B8600D46C5
:10D5900090467B600C0D002E61D04FF000090A23ED
:10D5A0004FF0040B07F1140AFE60C7E90799C7F8AA
:10D5B00024900093CDF808B0CDF804A007F11C0327
:10D5C000F9684A464046FFF713F9B0F5006F034685
:10D5D0001CD36C468AB0D8F8041004AB2448C3E9C5
:10D5E000050140F2FF71D9611A464FF400711984A8
:10D5F000204B42F8103F20484B464FF41251FFF7A2
:10D60000BFFFA5462C37BD46BDE8F08FC0F30A0624
:10D6100004F11700184420F0070080083B60FFF772
:10D6200063FE66F35325044680B13B68134A00F15C
:10D630001001C7E90839F961CDE901AB0A2300936C
:10D64000F96807F11C034046FFF7D2F866F353254B
:10D650007B68B9682A46204607F095FDD2E704F1B9
:10D66000170020F007008008FFF73EFE0446EDE7B4
:10D6700034850100040000017C7F01005951010044
:10D680002DE9F04F87B0DDE9127ADDE9106B054630
:10D69000884614469946BFB11021CDF800A03B46FC
:10D6A0005A460020CDF814A0FEF7EEFEB0F5006F4C
:10D6B00001460BD3194A1A4840F2FF73022107B002
:10D6C000BDE8F04F07F0B8BD3946384604F007030F
:10D6D00005F00704E40044EA831444EA402444EAE1
:10D6E000065406F11700084420F007008008039153
:10D6F000FFF7FAFD054640B13FB10399CDF800A010
:10D700003B465A461030FEF7BFFE4B462246414686
:10D71000284607B0BDE8F04F07F035BD738501001E
:10D720007C7F0100406820B1034BC01A40F3CF005A
:10D7300070474FF0FF3070474C7F01000EB403B5C7
:10D7400003AB014653F8042B0448019301F0A4F9FC
:10D7500002B05DF804EB03B0704700BF9B520100BC
:10D76000CA0605D48B064CBF02490349FFF7E6BF42
:10D77000704700BFAC850100AB8501002DE9F04F7B
:10D7800089B09846159B0693DDE916A39DF8509045
:10D79000189F059204460D460493B9F1000F00F05E
:10D7A000B08007F48073079307F0CBFC07F0020BFF
:10D7B0000246002874D078492046FFF7BFFF06468E
:10D7C000BBF1000F08D017F0440F6BD173492A4604
:10D7D0002046FFF7B3FF064407F0010353B1704B37
:10D7E000704953F82920704B2046002A08BF1A467A
:10D7F000FFF7A4FF07F48073002B07F0080318BF9E
:10D800004FF00008002B79D0684B694953F8292064
:10D810002046FFF793FF0546059B2BB165491A4645
:10D820002046FFF78BFF0544B8F1000F05D0624991
:10D8300042462046FFF782FF054460483544069B78
:10D840001BB15F49224607F0B6F8049B002B00F09D
:10D850008E80DDF810803946B8F1100F204628BFC1
:10D860004FF01008FFF77CFF0026B54250DC002681
:10D8700033461AF8032053492046FFF75FFF01366D
:10D88000102E4BD0710703D14F492046FFF756FFAA
:10D8900046453346EDD34D492046FFF74FFFEEE7AF
:10D8A00006468DE74A4B1868002894D0494B4FF440
:10D8B0007A7B1B68B5FBF3F54FF46163B5FBF0F1C0
:10D8C00000FB11550BFB05F54FF03C0CB1FBF3F2DF
:10D8D00003FB1211B5FBF0FEB1FBFCF300FB1E5580
:10D8E0000CFB13110BFB05F50091B5FBF0F53A4964
:10D8F000CDE901E52046FFF721FF6CE707F00805B9
:10D900008AE7B8F1010F0CBF2C4834484D4696E722
:10D910002D492046FFF712FF0136A6E73049204681
:10D920000026FFF70BFF33461AF803202D49A2F11A
:10D9300020035F2B28BF2E222046FFF7FFFE013673
:10D94000102E0DD0720703D11F492046FFF7F6FEB7
:10D95000B0453346E8D81C492046FFF7EFFEEEE716
:10D96000049BB3EB0803C24404937FF472AFB9F194
:10D97000000F0AD0FB0704D50B4A0A492046FFF7DF
:10D98000DDFE39462046FFF7EBFE204609B0BDE834
:10D99000F04F07F075BC00BFB3850100B7850100EB
:10D9A0008C8001000D8F0100AE850100A080010078
:10D9B000DC850100E2850100E68501009B52010043
:10D9C00099EA0000EB850100F3850100F185010073
:10D9D000840A0020800A0020C0850100D152010085
:10D9E000F5850100F785010073B542F20F738B4294
:10D9F00028BF0B4605680F4A04460521684606F015
:10DA000039FC63680C495B6806460B22284607F020
:10DA100029FC63683246694628465B6807F022FCA9
:10DA2000636806495B681B22284607F01BFC02B0AE
:10DA300070BD00BF618C0100AE94010092940100A2
:10DA4000074A00210123904206D8064A01B9012362
:10DA50001360054B1860704740085B000121F2E736
:10DA600040420F00800A0020840A0020F8B5074FCA
:10DA70000D4604464618B44201D12846F8BD14F8B4
:10DA8000011BBB6801485B689847F4E7C47C010050
:10DA9000014B036000207047E880010010B9024B81
:10DAA0001868704740697047AC0A002038B5074BCA
:10DAB0001C6805460CB9204638BD20682946FEF78B
:10DAC0001FFC0028F7D06469F4E700BFAC0A00200F
:10DAD000F8B50C4F3D6806460C46002325B95BB9E6
:10DAE0003C6026600020F8BD28683146FEF708FC3F
:10DAF00020B12B466D69F1E75C61F2E76FF07700CA
:10DB0000F1E700BFAC0A002070B5104B1C680D4651
:10DB1000B4B10F4B196800238B4202DB6FF0010098
:10DB200070BD224612F8106B864202D001331446B3
:10DB3000F2E7E06809F043FC28B12C600020EFE731
:10DB40006FF00C00ECE76FF01200E9E740000020F6
:10DB5000E880010010B588B0436802938368C0680C
:10DB6000CDE903320A680023CDE906230C4601AA59
:10DB70000449059308F006F9079808B9059B236046
:10DB800008B010BD71550100F7B58368044663B352
:10DB9000026AB3FBF2F502FB1535D0E904763DB11C
:10DBA000006894F82410551B2A46184409F0A1FF78
:10DBB000A368E06822683E442B4481684D68314682
:10DBC000A847054648B11A4A00960346012119485C
:10DBD00007F03CFB284603B0F0BDE3695BB923695D
:10DBE000A268134423610023A3600025F2E7535D7C
:10DBF000DB4353550135A3682268AB42F7D8E06890
:10DC000081680D683146A847054630B10A4A034687
:10DC10000848012107F010FBDCE7E369A1682068F0
:10DC20003246984705460028D9D0044A0346EFE714
:10DC3000348601004C7F0100588601006E86010089
:10DC400010B50446034A0448012107F0ECFA00200D
:10DC5000606010BD828601004C7F01002DE9F74312
:10DC60000D46DDE90A8791461E46044680B179B12A
:10DC700072B18B680846DB6898470368B6FBF3F21D
:10DC800003FB12624AB1204A2048012107F0CBFA77
:10DC90006FF00D0003B0BDE8F083B8FBF3F203FBB7
:10DCA00012820AB11A4AEFE727B1B7FBF3F103FB7F
:10DCB000117109B1174AE7E718EB070F01D3164AAC
:10DCC000E2E7C4E90096C4E905872161A160E56047
:10DCD000036823620C9BE361437984F82430CDE927
:10DCE00000616A460D49284608F04CF8019A0AB9C5
:10DCF0000B4AC9E7D4E905310B449A4201D2094ADB
:10DD0000C2E70020C6E700BFA28601004C7F0100E9
:10DD1000D9860100ED860100FF860100E75501006C
:10DD2000228701003E8701002DE9F047054698B0A3
:10DD30000846012305F500710593FFF7E5FE04464B
:10DD4000B8B9D5F8000207F00AFC06AA804605A972
:10DD5000D5F80002FFF7FEFED5F80062074660B175
:10DD600010F10C0F09D0304607F0B7FBC5F80042A0
:10DD70003C46204618B0BDE8F087059B012B08D033
:10DD8000304607F0AAFB0023C5F800326FF001040B
:10DD9000EFE7B46814F0030401D007F0EAFC304662
:10DDA00007F0DFFB4FF00133D6F808A003FB00F9C2
:10DDB000A24518DDAAEB0407402FA8BF40273B4629
:10DDC00008AA2146304607F089FB031E06DB08AA95
:10DDD000BF080023BB421BD14034E9E7184A194869
:10DDE000012107F029FAD5F80012079B00220292C0
:10DDF0008A68D21A01924A68134400932A464FF463
:10DE00000073414605F50170FFF728FF0446B0E7AF
:10DE100052F8041B894501D10133DBE7079AD5F895
:10DE20000002002107F084FB04460028DBD0D5F86F
:10DE3000000207F052FB0023C5F8003299E700BF4B
:10DE4000718701006C7F010008B50348034A002177
:10DE5000121A07F041FC08BD30020020E40E002039
:10DE60000748084A084908B5121A07F037FC07485E
:10DE7000074A0849BDE80840121A07F02FBC00BF46
:10DE8000000000202C02002010950100000000205E
:10DE900000000020109501002DE9F047064600AF74
:10DEA0000C46002936D0E9468AB0D1E90012A368B1
:10DEB0006D462148E8464FF0050ACDE90501CDE958
:10DEC000072348F810AF1D48424600234FF4215164
:10DED000FFF756FBCD46D4E903126369AD461848F7
:10DEE000C5F810A0C5E90501C5E9072313480023BB
:10DEF00042464FF42151FFF743FBCD46E369114AF7
:10DF00000E48012107F098F9A3690F4A0B48012137
:10DF100007F092F9012E07D1EFF305830B4A07486A
:10DF2000103B314607F088F92146304604F066FF81
:10DF3000BD46BDE8F08700BFA9870100DC7F010076
:10DF4000D887010007880100168801004488010075
:10DF500030BFFFF7FDBF00BF2DE9F0410B4EDFF8EA
:10DF6000308006EB0807CC1B05463246094920469F
:10DF700009F098FDA01942460021083C09F0B9FDBE
:10DF8000C5F8844007F10800BDE8F08100000000FA
:10DF9000040000003880010010B5204C20492148C1
:10DFA00007F0A9FBA36A990136D51E481E4907F060
:10DFB000A2FB1E20A36ADA0104D51A481B4907F008
:10DFC0009AFB1F20154CA36A1B0304D5154818495A
:10DFD00007F091FB2120A36A590304D51148154984
:10DFE00007F089FB22200D4CA36A9A0304D50D4843
:10DFF000114907F080FB2320A36ADB0304D50948FD
:10E000000E4907F078FB2420044A936A6FEA034321
:10E010006FEA1343936210BD1D20CBE700ED00E0D3
:10E0200057880100DC7F01006F88010082880100B1
:10E030009C880100BA880100DF880100F98801008E
:10E0400070B506460D46284C2849294807F053FB71
:10E05000A36AD9043CD52648264907F04CFB172073
:10E06000A36A1A0504D52248234907F044FB182067
:10E070001D4CA36A9B0512D51D48204907F03BFBA8
:10E08000A36BA26A100409D51D4A1948012107F0A3
:10E09000D3F81EB1A36A23F40043A3621920124CE3
:10E0A000A36A590504D51248164907F024FB1A2023
:10E0B000A36ADA050ED50E48134907F01CFB1B2096
:10E0C000094A936A43F47F43936200232B7070BD27
:10E0D0001620C5E7A36A9B04F2D505480B4907F053
:10E0E0000AFB1C20ECE700BF00ED00E024890100E2
:10E0F000DC7F01003A8901004B8901005E89010043
:10E10000778901008C890100A7890100BF8901007E
:10E110002DE9F843804689461746354D354936483E
:10E1200007F0E9FAAB6ADE0627D53449324807F032
:10E13000E2FA1124AB6A1D0704D531492E4807F0D5
:10E14000DAFA12242A4DAB6A980718D52D492A48C5
:10E1500007F0D1FA6E6BAB6A190646D52A4A2648F3
:10E160003346012107F068F8B9F1000F03D0AB6A1C
:10E1700023F08003AB62132403E01024DAE76FF08E
:10E1800015061B4DAB6ADA0704D520491A4807F07B
:10E19000B2FA1424AB6A9B0604D51D49164807F051
:10E1A000AAFA1524124B9A6AD50602D49A6A9007E5
:10E1B0000AD55B68190507D54146304600F034FAA8
:10E1C00010B180F309880224094B9A6A920642BF73
:10E1D0005A6A22F400525A629A6A42F0FF029A6224
:10E1E00000233B702046BDE8F8836FF01506C2E7B8
:10E1F00000ED00E0EE890100DC7F0100048A0100EF
:10E200004B890100378A01004F8A0100658A0100AD
:10E21000BF8901002DE9F041684B8AB0D3F8048032
:10E2200000AF0446C8F30806002585F31188BFF344
:10E230006F8F02F07F43B3F17F4F07D102F00C03E1
:10E24000082B12D15E495F4807F055FA00252C468D
:10E250000023FB71F31E092B00F28F80DFE803F02F
:10E260000A8588818D8D8D8D8D8B10074CBF0C4656
:10E270000125EDE754495348504E07F03CFA00237E
:10E28000FB71F36A9A0705D550494E4807F033FAF7
:10E2900000232DE0F36A002B01DA4D49F5E7F36A1C
:10E2A0005B00F5D54B49474807F025FA7369A26929
:10E2B00043F480737361BFF34F8FBFF36F8F32F8F6
:10E2C000023C726922F480727261BFF34F8FBFF318
:10E2D0006F8F03F47F42B2F55F4F2BD1DBB2022B7D
:10E2E00028D123683C4A3748012106F0A5FF23685E
:10E2F000FA79DAB907F1080604F1200C20686168A0
:10E30000324603C2083464451646F7D17A6A002DB6
:10E3100050D0C2F3080121B96FEA52226FEA4222BB
:10E320007A6207F108011846FFF7B6FD2837BD46A7
:10E33000BDE8F081214B9A6AD2B22AB1FA1D0121BF
:10E340002046FFF7E5FE0EE09A6A12F47F4F04D0F4
:10E35000F91D0120FFF774FE05E09B6AB3F5803FCD
:10E3600096D3FFF719FE0346C2E7FA1D0021E7E73F
:10E37000F91D0020EEE7194987E7194A194B18F4EF
:10E38000F87FE8468AB008BF13466A461649CDE9C9
:10E3900005134FF40073ADF82030103E134B079671
:10E3A00042F8103F074800234FF41151FFF7E8F8F7
:10E3B000C5466DE76FF30802B2E700BF00ED00E06D
:10E3C000B28A0100DC7F0100DD8A0100F48A0100CD
:10E3D000158B0100238B0100428B01005E8B010035
:10E3E000848A0100998A0100828B010004000001E7
:10E3F000044B5A6942F010025A615A6922F008022D
:10E400005A61704700ED00E0EFF30880EFF30981F7
:10E4100001B57246FFF7FEFE01BD00BF002080F38C
:10E420001488BFF36F8F0F4880F3088803F0A6FCB1
:10E4300000200D490860BFF34F8F00F02BF820201B
:10E4400080F3118809484FF40461401880F309886B
:10E45000EFF314800221084380F31488BFF36F8F19
:10E4600000F0B2F8C02C002094ED00E0801A0020EB
:10E470000749D1F890200023C2F30722184693429F
:10E4800000DB7047C1F89830C1F8A0000133F6E70F
:10E4900000ED00E008B572B6002383F31388FFF7A0
:10E4A000E7FF144B4FF0FF32C3F88020C3F88420FD
:10E4B000C3F88820C3F88C20C3F89020C3F89420B8
:10E4C000C3F89820C3F89C20C3F88021C3F88421A6
:10E4D000C3F88821C3F88C21C3F89021C3F8942194
:10E4E000C3F89821C3F89C2162B6BFF34F8FBFF3E6
:10E4F0006F8F08BD00E100E01EF0040F0CBFEFF3CA
:10E500000880EFF30980816911F8021C0229FFD00D
:10E5100001B5724607F0E4F801BD00BF40B2002823
:10E5200007DB044A4109012300F01F00834042F841
:10E530002130704700E100E040B200280CDB4309C5
:10E54000064900F01F0020330122824041F82320B9
:10E55000BFF34F8FBFF36F8F704700BF00E100E044
:10E56000054B420900F01F0053F82220012303FA53
:10E5700000F01040704700BF00E100E040B200280A
:10E58000A8BF00F1604001F10101B8BF064B4FEA9E
:10E590004111ACBF00F5614000F00F00C9B2B4BF3B
:10E5A000195480F80013704714ED00E0044B054A3D
:10E5B00023F07F039360BFF34F8FBFF36F8F7047DC
:10E5C00000C2000000ED00E008B5FFF7EFFF074ACA
:10E5D000D2F8883023F47003C2F88830FFF734FC97
:10E5E000FFF73EFC00F0B4F804F02EFD00ED00E073
:10E5F00042F8203C009B42F81C3C0A49019B42F82F
:10E60000183C029B42F8143C21F001014FF080734A
:10E6100042F8043C42F8081C0023203A0265C0F886
:10E6200088307047C5CB0000094A0346906870B136
:10E6300013F1160F406F05D0A0F14002934205D3AD
:10E64000834203D2814228BF0020704700207047D8
:10E65000800E002008B515460C4A0D4B9060D0F88E
:10E6600084201A600E4600F0A3F82C4686F3098831
:10E670000020044B98472046002100220023024C32
:10E68000204700000D570100C5CB0000800E002080
:10E69000B00A0020014B10221A61704700ED00E023
:10E6A000054B5A699B689A421FBF044A536843F05E
:10E6B00080535360704700BF800E002000ED00E0E3
:10E6C000084B9B6883420BD1EFF3058343B1064BA4
:10E6D0005A6842F080525A605A6A22F400425A62E2
:10E6E00005F0F0B9800E002000ED00E015498A68C1
:10E6F0004FF030001044EFF3098C80E8F01F202029
:10E7000080F31288BFF36F8F0F4F4FF000664A6996
:10E710008A603E60D2F884000C4C2060D2F88800F9
:10E720000023C2F8883080F3118804B5104600F049
:10E730003FF8BDE8044002F1300090E8F01F8CF390
:10E7400009887047800E002004ED00E0B00A002028
:10E75000044800232021C2180133302B82F8001313
:10E76000F9D1704700E100E008B5EFF30583064AF0
:10E77000103B02EBC30152F8330049688847BDE8FB
:10E780000840FFF78DBF00BF187D010001480068F9
:10E7900070470000B00A0020024B034A03480121E1
:10E7A00000F08AB800000420000000202C81010045
:10E7B000436F054A403B1360044B4021C2E90113FB
:10E7C0001046012100F082B8B40A002000000B15A9
:10E7D00008B503461048D0F89020C2F30722013A4A
:10E7E000934207D90D480E4A012106F025FD6FF02E
:10E7F000150008BDC0F898300A6822F01F021A43BD
:10E8000042F01002C0F89C208A6842F00102C0F871
:10E81000A0201846EDE700BF00ED00E0C47F010036
:10E82000998B0100F0B50E4685B01F4604460025C1
:10E83000B5420DDA606810B397B1431E18420AD092
:10E84000104A11482B46012106F0F6FC6FF0150224
:10E85000104605B0F0BD1F28F2D921680B42EFD158
:10E860002368019306F075FFA36801A90343D0B2A2
:10E870000393FFF7ADFF10F1160FE7D0421C0135EF
:10E880000C34D5E7BF8B0100C47F0100044B052287
:10E89000C3F89420BFF34F8FBFF36F8F704700BF53
:10E8A00000ED00E0BFF35F8F024B0022C3F894201D
:10E8B000704700BF00ED00E010B5034C0123227843
:10E8C000FFF7B0FF207010BDBB0E002008B50B4A4B
:10E8D00000231278FFF7A6FF10F1160F07D0084AA1
:10E8E0000021D2F89030C3F30723984200DB08BD23
:10E8F000C2F89800C2F8A0100130F2E7BB0E002069
:10E9000000ED00E02DE9F0435D485E49D0F890301D
:10E910000C68C3F307239C4285B000F2AE80FFF77A
:10E92000C1FF49680022944201F10C011AD1564FEF
:10E93000564D3C706846FFF7ABF8554C554E814636
:10E940004FF00008C14520D13B784D490020D1F857
:10E950009020C2F307229342C0F28980FFF796FF0E
:10E96000002050E0C0F8982051F80C3C23F01F0321
:10E97000134343F01003C0F89C3051F8043C43F0BB
:10E980000103C0F8A0300132CDE7009800EB081178
:10E990004FEA081CCB682340B3F5000F49D00BD8D1
:10E9A000B3F5001F32D0B3F5800F37D0B3F5801F19
:10E9B00014D008F10108C5E7B3F1007F42D0B3F1EC
:10E9C000805F48D0B3F1807FF3D150F80C30886875
:10E9D0004A6806F0BEFE40F0887009E050F80C303E
:10E9E00088684A6806F0B5FE40F0885040F4302050
:10E9F000039001A93878CDE90123FFF7E9FE00284B
:10EA000031DA6FF0150005B0BDE8F08350F80C3036
:10EA100088684A6806F09DFE3043E9E750F80C30FC
:10EA200088684A6806F095FE40F0007040F40030B7
:10EA3000DEE750F80C3088684A6806F08AFE40F03D
:10EA40008270D5E750F80C3088684A6806F081FE7D
:10EA500040F48020CCE750F80C3088684A6806F013
:10EA600078FE2843C4E73B7801333B70A1E7C1F847
:10EA70009830C1F8A000013369E74FF0FF30C2E7DA
:10EA800000ED00E038810100BB0E00200000021103
:10EA90000000F0FF00000811F0B587B007460E46F1
:10EAA00014460021102268461D4609F022F8022370
:10EAB0008DF802302A46054B019321466846CDE980
:10EAC000047605F001FC07B0F0BD00BF79570100E6
:10EAD00008B5024B1B689847002008BDC00A0020FB
:10EAE000034B044A1860937843F002039370704715
:10EAF000C00A00204400002008B5054805F0ABFF1F
:10EB0000002383F31188BFF36F8F0423184602DFBD
:10EB1000F48B010008B50649064821F00701C1F150
:10EB2000005202F5802205F005FF002008BD00BF5D
:10EB3000C73D0020C40A002070B54169867A0B4D9C
:10EB4000044659B1437ADB0706D4242303FB06535A
:10EB5000DB691B689B68984700236361242021467A
:10EB600000FB0650BDE8704008F04DBD08020020D3
:10EB7000827A064B242101FB02331A6A1B7D1B3368
:10EB8000801A23F00303B0FBF3F070470802002063
:10EB900038B5074B827A242404FB0233DB69D3E9BE
:10EBA00001240C601568FFF7E3FF04FB005038BD3B
:10EBB000080200202DE9F04385B005466846039120
:10EBC00090461C4608F015FFDDE90067EFF3118958
:10EBD000202383F31288BFF36F8F6B8A002B41D001
:10EBE0002A8A9A4225D900220023284604F0E8FA0E
:10EBF0000446F0B189F31188BFF36F8F039B002B9C
:10EC000041D032463B46684608F018FFA27A264BB0
:10EC1000242101FB02332046DB691B6803A91D6820
:10EC2000DDE90023A847606170BB2046FFF784FF41
:10EC300024E0698A4B1E6B8289F31188BFF36F8FC2
:10EC40002B7D2A8A2C6A1B3323F00303521A02FB02
:10EC50000344154B154AEB1A9B105343A3722B7DAB
:10EC6000E372CBE789F31188BFF36F8F23464246E7
:10EC7000284604F0A5FA04460028BFD10024204607
:10EC800005B0BDE8F0836361012300252381039B68
:10EC90006382E27A6560294604F1180008F029FFD2
:10ECA00063692582E360EAE708020020398EE338D1
:10ECB000F8B5124D0024242600B9F8BD00F1080271
:10ECC0004768BFF35B8F52E8003F591E42E8001CC3
:10ECD000BCF1000FF7D1BFF35B8FDBB2012BECD19E
:10ECE000837AC46006FB035344609B6913B1984761
:10ECF0003846E1E7FFF720FFFAE700BF08020020EF
:10ED00000C4B0122C3F840254FF080434FF0805157
:10ED1000C3F87825D1F83001082805D1D1F834118D
:10ED2000022908BFC3F838260122C3F88025002035
:10ED3000704700BF00E0014048B1054B054A1B6821
:10ED4000B3FBF2F35843044B43F0010318477047F9
:10ED50007001002040420F0060800100BFF34F8F20
:10ED60000549064BCA6802F4E0621343CB60BFF367
:10ED70004F8F00BFFDE700BF00ED00E00400FA0583
:10ED800008B5054A054B136010463F23536003F056
:10ED9000CBF8002008BD00BFD00A0020FFFF0F0005
:10EDA00038B5064C064DAC4201D3002038BD54F8AE
:10EDB000043B002BF7D09847F5E700BF2C800100FB
:10EDC00038800100084B0246186808B1036800B992
:10EDD000704741899142FBD01BB1196818460B4618
:10EDE000F5E71946FAE700BFD80A0020094B0246AA
:10EDF000186868B1036800B970474189914206D02C
:10EE00001BB1196818460B46F5E71946FAE7C068C2
:10EE1000704700BFD80A002000230360044B5A68E3
:10EE200012B9C3E90000704710605860704700BF16
:10EE3000D80A00202DE9F04F002391B0CDE90C3322
:10EE400001F10C0305460E460B93348A64B9A346C0
:10EE50002968304606F039FE2046296806F035FE5E
:10EE6000584611B0BDE8F08F072C40F23781F368A7
:10EE7000186859680CAA03C29A8809929A790A926A
:10EE8000DA795B880B9805925BBA9BB20793099B72
:10EE90005BBA9BB20821089306F083FC338A079A79
:10EEA0009342C0F01F819DF83030069313F00507A0
:10EEB00040F01B812968304606F0F3FD0446002827
:10EEC00000F01681686840F8046B338ACDE9017759
:10EED00001220092F268042108F064F9A868214632
:10EEE00006F080FC9DF83090D5F808A0C9F3C10960
:10EEF000B9F1010FCAF84C7000F2EA800898FFF7E8
:10EF000061FF002800F0D380059906F05BFC002823
:10EF100000F0CD809DF8307017F0070752D0022F17
:10EF20006BD04FF0030BA868214606F05BFCD5F8C8
:10EF3000088008F104070221384608F0F3F9002898
:10EF400040F0B8804FF000090221384608F0F2F98D
:10EF500010EA090F3FF47CAFD8E90031DA68891A6A
:10EF60009DF83020198212F0070FC2F3C10214BFBE
:10EF70004FF0030E4FF0010E012A28BF01224EEA86
:10EF8000C20E089AA1F1080052BAA968ADF83C2057
:10EF90000A9A09688DF83E200027059AADF8387066
:10EFA00040BA8DF83F208DF838E0ADF83A000EAA4F
:10EFB000CB6803CA186059602A682046126A9047D5
:10EFC0003C4645E7D0F80080B8F1000F6FD0A86844
:10EFD0000F21043008F0A6F960B12846C0478346E7
:10EFE000A8680F21043008F0A5F9804640B9BBF1AC
:10EFF000000F98D14FF0070B95E7D0F80480E3E7B6
:10F00000BBF1000F8FD1BAF84EB0BBF1000F19D091
:10F01000069B13F0180F15D1BAF84C00FFF7E6FE67
:10F020000346002857D0584698478346002833D0D7
:10F03000B8F1000F3FF40CAF002C7FF474AF3446EE
:10F04000002670E7DAE90013C8681B1A0B82DAF8A9
:10F050000030002F1B8A14BF03210121083B00222E
:10F0600069F3C401ADF838208DF83810C3F30721D7
:10F0700041EA0323ADF83A30099BAA68ADF83C3069
:10F080000A9B8DF83E30059B12688DF83F300EAB21
:10F0900003CBD268106051602B6820461B6A9847EA
:10F0A000834640BB07990B9806F07BFBCDE64FF0FB
:10F0B000080B38E711490222384608F018F90028F1
:10F0C0003FF440AF5946384608F0F5F881463BE733
:10F0D0004FF00D0B27E74FF0010B24E74FF0090B22
:10F0E0000024B5E64FF0090BA9E74FF0080BA6E79F
:10F0F0004FF0020BA3E700249AE700BF188C010031
:10F1000070B504460E4615468AB3A0F84810A0F81C
:10F110004A201849032208F0EAF818B9002000F044
:10F12000010070BD0221204608F0FCF80028F5D04F
:10F1300011490522204608F0DAF80028EED03146C1
:10F14000204608F0C2F80028E8D00C4902222046E8
:10F1500008F0CDF80028E1D02946204608F0B5F89F
:10F160000028DBD00221204608F0E4F8D7E7012090
:10F17000D7E700BF0A8601001B8C0100188C010034
:10F180002DE9F041846814F0030490B0064601D0E4
:10F1900006F0EFFA06F0E5F94FF00133D6F80880F3
:10F1A00003FB00F7A04501DC012019E0A8EB0405F2
:10F1B000402DA8BF40252B466A462146304606F022
:10F1C0008DF9031E06DBAD106A460023AB420AD15F
:10F1D0004034E7E70848094A012106F02DF80B20E2
:10F1E00010B0BDE8F08152F8041BB94201D10133DF
:10F1F000ECE70020F4E700BFA47F01007187010065
:10F200001FB506F05EFB03A90446C0B2FEF77CFC06
:10F2100000280ADA124A009023461248012106F01B
:10F2200015F80A24204604B010BD0398FFF7A8FF84
:10F23000014688B90398826806F07AF9034620B936
:10F240000024039806F049F9ECE7074A0548012134
:10F2500005F0F2FF0D24F4E70128F1D00B24F0E7CC
:10F26000218C0100A47F0100458C0100F0B585B020
:10F2700006F027FB0D46044603A9C0B216461F46FA
:10F28000FEF742FC50B10F4A009023460E48012180
:10F2900005F0DCFF0A24204605B0F0BD03983B468C
:10F2A0003246294606F01AF90446039806F015F985
:10F2B000002CF0D0054A04482346012105F0BCFF8C
:10F2C0000B24E8E7218C0100A47F0100648C01007D
:10F2D00070B50C4615461E4648B1094833462A46C5
:10F2E000214606F0D3F9002818BF0C2070BD054B4D
:10F2F00003481978FEF718FD0028EED00A20F5E73C
:10F30000E00A00200C0D0020F0B50D4687B0002863
:10F310006DD1384F02A93878FEF7F6FB034640B1AD
:10F32000354A3648012105F087FF0A24204607B0F8
:10F33000F0BD029806F013F90646002855D0029B4E
:10F3400038785C6801F084F8013C2C440444214680
:10F3500003AA304606F012FD014650B1284A27485C
:10F360002346012105F068FF1324029806F0B5F842
:10F37000DCE7DDE90205049B1D444368ED1A2A46DB
:10F3800006F0D6F8044640B11E4A00902B461B48B2
:10F39000012105F05BFF0D24E7E71B4A17482B46C8
:10F3A000032105F049FF029B986806F039FC85426D
:10F3B000DBD8029B5968014403AA304606F0DEFC04
:10F3C0000298039943688568C91A6D1A2A4606F09F
:10F3D000AFF818B10D4A00902B46D8E70C4A074801
:10F3E0002B46032105F028FFBFE71224BDE71424B4
:10F3F0009CE700BF0C0D0020878C0100A47F01005A
:10F40000AD8C0100C08C0100F08C0100118D010059
:10F41000498D010070B505460C4686B018220021C2
:10F42000204608F066FB6B68581C00F09580002BA6
:10F4300040F081802A691F2A73D9AA68511C72D0B2
:10F44000C4E90023EE68454B32689A426DD1AA693F
:10F45000202A6CD85AB142480368013307D0037B95
:10F460009A4204D169690D3008F04BFBE8B10020E5
:10F4700006F065FA20B1012006F061FA88B9012092
:10F4800006F01FFA02A9E060C0B2FEF73DFB70B1C2
:10F49000E368344A00900121334805F0D7FE0A2082
:10F4A00003E04FF0FF33E360092006B070BD02981F
:10F4B000AA6883689A4203D906F00FF81E20F4E781
:10F4C00006F00BF82B7F73B9267B03A93046FEF7B5
:10F4D0001BFBA8B1234A009033462348012105F0C5
:10F4E000B5FE0A2613E004A806F067FA08BB06F189
:10F4F000140104A806F0EDF90130E5D01B20D4E793
:10F500000398FFF73DFE0646039805F0E6FFB6FABE
:10F5100086F0400960742B69A360012323740020E6
:10F52000C3E71620C1E71520BFE71720BDE7182065
:10F53000BBE71A20B9E70A4A13689168E360002321
:10F54000216063606B6852689342E8D12A69134472
:10F550009942E0D21F20A8E71420A6E73DB8F39611
:10F560000C0D0020218C0100A47F01007FB506F066
:10F57000A8F90E46054603A9C0B2FEF7C5FA04462F
:10F5800050B1094A00902B460848012105F05EFE63
:10F590000A24204604B070BD039805F0E2FF3070E5
:10F5A000039805F09AFFF4E7218C0100A47F010085
:10F5B000F0B595B00F4620230293044615466B46DE
:10F5C0000CAA03A93846019200F06EFA06460028FC
:10F5D00040F0918004340F21204607F0A3FE10B9BB
:10F5E000002015B0F0BD45490422204607F07FFEFB
:10F5F0000028F5D007F00101204607F066FE00283C
:10F60000EED03F490722204607F071FE0028E7D0E0
:10F6100005A903A800F0EEF9002864DA39490522AB
:10F62000204607F064FE0028DAD03749042220463D
:10F6300007F05DFE0028D3D001A9204607F051FE57
:10F640000028CDD031490822204607F050FE00287E
:10F65000C6D09DF80010C1F3001181F0010101F046
:10F660000101204607F07AFE0028B9D02849072278
:10F67000204607F03CFE0028B2D0C5F340012046EA
:10F6800007F06CFE0028ABD022490922204607F083
:10F690002EFE0028A4D0C5F38001204607F05EFEB0
:10F6A00000289DD01C490622204607F020FE002895
:10F6B00096D005F00101204607F050FE00288FD0BB
:10F6C00016490922204607F012FE002888D0C5F30B
:10F6D000C001204607F042FE002881D00F212046BD
:10F6E00007F028FE7DE7192205A920468DF82C6039
:10F6F00007F006FE97E7012073E700BF0C8D0100BD
:10F70000728D01007A8D0100808D0100858D0100D0
:10F710008E8D0100968D0100A08D0100A78D010046
:10F720002DE9F743866834490436074606223046F9
:10F7300007F0DDFD38B906F01EF906F01DF90720C7
:10F7400003B0BDE8F0830221304607F0E7FD044630
:10F7500006F011F9002CF0D000240DF1070120462D
:10F760008DF8074006F0CCF88046204606F005F9F3
:10F770009DF80730022B054680F001092CD1804509
:10F780004FF0010801D01D4AD456B8684D452ADB18
:10F7900022464946FFF70CFF0028CED042462946B4
:10F7A000B868FFF705FF0028C7D00221304607F0F0
:10F7B000BDFD0028C1D012490B22304607F097FD4D
:10F7C0000028BAD00021304607F075FD0028B4D0DB
:10F7D00006F0D2F80020B3E780454FF00508D4D0FA
:10F7E000022BD2D8CFE742462946FFF7E1FE002898
:10F7F000A3D022464946D3E7B18D0100BA94010057
:10F80000B88D01002DE9F047441082B0064600AFE4
:10F810002046884606F0B1F800238146F91C2046B0
:10F82000FB7006F06DF80546B8F1000F16D006F033
:10F83000A6F8A0420ED1FC78012C13D1B8F1000F2C
:10F840001CD1B54214BF1C24002420460837BD46F5
:10F85000BDE8F087B145EED12024F6E7B145EAD105
:10F860002124F2E77CB9B8F1000F03D0B542ECD007
:10F87000B14506E0B14503D14D450BD01C24E4E76A
:10F88000B54207D1FAE7022C04D1B8F1000FF5D048
:10F89000B54233D0304606F014F8391DC0B2FEF739
:10F8A00033F9824640BBA9EB0603594278684246C9
:10F8B000594107F038F90446D0B16D468AB06A461E
:10F8C0000F4BCDF82480CDE905300623CDE907693B
:10F8D00042F8103F0B485346013C4FF44151FDF7AD
:10F8E0004FFE032C9CBF084B1C57AD4688BF01241C
:10F8F000786805F0F2FDA8E70A24A6E70024A4E74B
:10F90000C48D0100A47F0100BD940100F0B597B043
:10F9100034490C9104210D91334902AACDE90E120C
:10F92000324A119206460722D0E901041292304A67
:10F93000139200230DF10302CDE902338DF8033059
:10F9400001938DF8403014928DF85430022201ABAF
:10F950000CA9043005F05FFF054600283FD106F0F2
:10F960000AF8039B04346BB99DF8033063B106F0C9
:10F9700006F806F002F89DF80310FFF743FF10B3F6
:10F9800082B202E0202B0AD0182220460121FFF784
:10F99000B7FB044605F0F0FFF4B907251CE0029B15
:10F9A00004AA03F1200C18685968174603C70833E6
:10F9B00063453A46F7D1002104A805F0E2FF00288C
:10F9C000D9DA0822E1E73046FFF7AAFE10B105F0C8
:10F9D000D3FFE2E705F0D0FF284617B0F0BD0325BE
:10F9E000FAE700BF808D01005D6F0100178E0100F6
:10F9F0002D70010073B543880193437800930E4640
:10FA000003780C4A05461921304604F033FC041EE5
:10FA100003DA4FF0FF3002B070BD6B683BB1064AAD
:10FA2000C4F11901301904F025FC031EF1DBE018C4
:10FA3000F1E700BF1F8E01002B8E0100033880B25A
:10FA400019289ABF014B185601207047C194010034
:10FA500008B52C220448002108F04BF8024A4FF068
:10FA6000FF3342F8043C08BD100D00200148FFF7A9
:10FA7000D3B900BFE400002010B5041D08490322DB
:10FA8000204607F034FC08B9072010BD054B20467E
:10FA9000596807F024FC0028F6D00020F5E700BFE5
:10FAA0002F8E01000C0D00202DE9F0438BB00C4689
:10FAB0000DF10301054616461F46FFF757FD0028C6
:10FAC00040F09180284605F0FCFEC0B200F0C0FC7A
:10FAD0002023014602AA2846FFF7C8FB002852D17E
:10FAE0009DF8038024B108224146204608F001F821
:10FAF0000298404B98423ED11CB107AB03CB20602B
:10FB000061600FB1069B3B60059BBDF81040284625
:10FB10001C4405F0D6FEC0B200F09AFC0423044455
:10FB20000DEB030221462846FFF7A0FB40B9BDF8C4
:10FB3000042046F608139A4204BFBDF80630E418C4
:10FB400004230DEB030221462846FFF78FFB0746EF
:10FB5000E0B9BDF8042046F607139A4216D1BDF865
:10FB600006800434A04404F10409C14510D987F08B
:10FB70000107F80007E04FF0013303FB08F84045A8
:10FB800014BF172003200BB0BDE8F0830420FAE770
:10FB900004230DEB030221462846FFF767FB0028EC
:10FBA000F1D1BDF80420BDF80630FF2A05D14FF68B
:10FBB000FF72934205D10520E5E7102A01D1202BE1
:10FBC00002D004331C44CEE77FB924340EB9012798
:10FBD000C9E744450BD8324649462846FFF746FB5D
:10FBE0000028F4D0CFE70220CDE70620CBE707209E
:10FBF000C9E700BF3DB8F39670B58AB01B4A0592BD
:10FC0000D0E9010504220692194A07920023012631
:10FC100001AACDE9016308928DF82430324602AB87
:10FC200005A9043005F0F7FD0446E8B9034602468D
:10FC300003A901980435FFF737FF58B9019805F07B
:10FC40007EFE38B1092201212846FFF759FA2046E5
:10FC50000AB070BD0198FFF7D3FA0646FFF7F8FE29
:10FC6000002EF4D0B2B2EEE70324F0E70C8D0100D1
:10FC7000536F01002DE9F04FB7B0002408AFD0E971
:10FC8000016A2022214680463846019407F031FF60
:10FC90004FF0FF33CDE909336A4B189305231993CD
:10FCA000694B8DF87040CDE91A37684B1D930423DA
:10FCB0001E930BAA664B1F9320922E93654A2292A5
:10FCC0000DAB654A2F93654B24920AA92992319373
:10FCD00009AA072325912A926149624A3293624B0D
:10FCE0003393032504360FABCDE92715CDE92C2539
:10FCF0003493304601AB062218A98DF88440239531
:10FD00008DF898408DF8AC408DF8C0408DF8D44007
:10FD100005F081FD0646002840F0928002A9384691
:10FD2000FFF778FB0AF1040A044610B34F4A034672
:10FD300001214F4805F080FAA2B201215046FFF799
:10FD4000DFF9354681464B4BD3E901239A4201D076
:10FD5000002C6ED0002310AA19460120FFF7A4FE44
:10FD6000002C66D0FFF774FEB9F1000F08BF07261C
:10FD700009E09DF81890B9F1000F08D1D8F80800F3
:10FD8000FFF77AFE0646304637B0BDE8F08F394FB0
:10FD9000059B099D3B60029BBB601DBBDDF838B035
:10FDA0000D9978605A4607F10D0087F80CB007F0FE
:10FDB00079FE0BF10D00CBF120022146384407F00B
:10FDC00098FE9DF819306BB10A992046FFF79CFA0E
:10FDD000834638B182B201215046FFF791F95C4663
:10FDE0008146B0E70C9D002DADD07B680B9909983A
:10FDF0001D44BB68EA1A53425341049AFFF768FA5C
:10FE0000044640B97B68049ABD6813447B60EB1AD2
:10FE10005D425D4197E7184A03460121144805F009
:10FE20000BFAA2B201215046FFF76AF94D4681460E
:10FE300089E7D8F80800FFF71FFE002D94D091E75E
:10FE40002E46A0E7338E0100536F0100398E01006A
:10FE50005D6F01003E8E0100596F0100468E01006A
:10FE60002F8E0100428E01002D7001004E8E010088
:10FE7000A47F01000C0D00206E8E01000148FEF7EA
:10FE8000CBBF00BFF400002008B54FF400520023A0
:10FE9000024803F097FB002008BD00BF00000020CF
:10FEA000F0B589B0D0E90145134A0392134A002303
:10FEB000012701AECDE90133CDE905268DF81C30CF
:10FEC000201D6B463A4603A9049705F0A4FC04469E
:10FED00078B904350A493A46284607F008FA20B1AD
:10FEE0003146284607F000FA00B90724204609B039
:10FEF000F0BD0324FAE700BF628C0100756F0100BA
:10FF00002F90010030B58468154985B00434002372
:10FF1000052201252046029301948DF80C5007F02C
:10FF2000E6F93221204607F0FDF90E4801A903F059
:10FF30001BFF9DF80C303BB13221204607F0FAF947
:10FF400060B9072005B030BD074A0848294605F0CA
:10FF50006AF99DF80C30002BF3D0EDE70020F1E7B3
:10FF6000A98E010071FF0000AF8E0100AC7F01007F
:10FF700073B50B7A05460C46BBB10E6890F90E308E
:10FF8000264A0521684604F075F9002306226946D1
:10FF900030468DF8053007F0B3F940B900206368AA
:10FFA00000F0010001332072636002B070BD206870
:10FFB000142107F0B7F90028F0D026681849042268
:10FFC000304607F094F995F90E1018B3304607F053
:10FFD00072F90028E2D013492068032207F087F95C
:10FFE0000028DBD0D4E9000107F06FF90028D5D054
:10FFF0000D492068052207F07AF90028CED0297C27
:020000040001F9
:10000000206807F062F90028C8D02068142107F0A2
:1000100091F9C4E7304607F058F9DAE7618C01003E
:10002000CE8E0100D38E0100D78E01000148FEF76D
:10003000F3BE00BF0401002070B5856800260435BA
:1000400034462046FDF72AFD044638B911490922F5
:10005000284607F04CF918B9072070BD0136F0E7C3
:100060003146284607F05AF90028F5D02046FDF71A
:1000700015FD044628B101682022284607F040F902
:10008000F2E73146284607F051F90028E4D020462F
:10009000E3E700BFEB8E01002DE9F04F95B0D0E90A
:1000A000010400AF4D4ADFF838A1C7F81CA007F1E2
:1000B0000C0900234FF0040BC7E909297B60FB60A2
:1000C000C9F8043087F82C30012207F1080307F142
:1000D0001C015844C7F820B005F09DFB05460028D8
:1000E0007AD13E69731E1E2B76D807F1300832464E
:1000F000F968404607F0D6FC06F15003DE19404689
:1001000007EB0B035C4406F8205C7B61FDF7CEFC3B
:1001100038B17B6933491D6007F1140205F055F9C8
:10012000F8B16E4688B06A462F4BCDE905384FF4DA
:100130000073ADF81C302D4B42F8103F2C484FF4A3
:10014000E2510023FDF71CFA0322B54602212046A6
:10015000FEF7D6FF00B9072528465437BD46BDE84F
:10016000F08F5A465146204607F0C1F80028F2D0D9
:100170004946204607F0B8F80028ECD01D49062271
:10018000204607F0B4F80028E5D07968204607F04B
:10019000C9F80028DFD04046FDF788FC78B1164B3F
:1001A000164907F11402C7E9053405F00EF920B924
:1001B0007968204607F0BEF8CCE7022808D1022073
:1001C00082B202212046FEF79BFF0028C3D0EFE752
:1001D000042818BF0520F3E70325BDE7756F01006C
:1001E000F58E0100F1590100FA8E010003000001B3
:1001F000BC7F0100108F01004F5A0100FB59010024
:1002000007B5084807F07AFA074B009307490548F5
:1002100003234FF4006203F06BF9002003B05DF894
:1002200004FB00BF00070020E8810100401200200D
:1002300002480022002305F0B0BA00BF08020020E7
:1002400010B5036A044643B1054907F02BFA04F1DF
:10025000100007F0C5F9002010BD6FF01500FBE796
:10026000715A010010B50446103007F0C1F921465B
:100270000248BDE8104007F031BA00BF0007002077
:10028000074A084B10B510461362074B5362FFF73D
:10029000D7FF044610B9054800F06AFB204610BDA0
:1002A0003C0D0020EB5A0100E55A0100B1020100AB
:1002B00008B50146034807F09BF9BDE8084002482D
:1002C00003F010B9F80100201401002038B50C48E3
:1002D0000022002302F074FF044600B938BDD4F8B0
:1002E00084200848211D05F024FC0546204600F026
:1002F000A9FA002DEBD004482946FFF7B3FFE6E743
:10030000F8010020740D00203C0D00202DE9F04F75
:10031000064685B00F4615460A460146002005F000
:1003200069FC0024804640F606124FF05D0AA146A3
:1003300001230DF10C0BBC42ADF80A2001DB0020BB
:100340005CE0019302210DF10A00A847002855D175
:10035000019B93B1BB1C5BBAADF80A30ADF80C3011
:100360002A4633788DF80E30032103A805F0D2FB1E
:10037000002843D10134AAF1030A3A1B524513461F
:10038000AAEB0202A8BF5346012A04D8013B4FF052
:100390000009234413E0C8BF49F00109F9E7321905
:1003A000315B9278ABF800108BF8022003212A46CB
:1003B0005846019305F0AEFB00BB019B0334191BAB
:1003C00002292246EBDCB9F1000F0FD03B1B012BB9
:1003D00017D0022B22D04BB998FA98F3ADF80C3015
:1003E0002A46022103A805F095FB38B917480121D8
:1003F000A847002341F2044200289CD005B0BDE884
:10040000F08FB35C8DF80C304FEA182301348DF86F
:100410000D308DF80E802A460321E3E7631C325D20
:10042000F35C8DF80C208DF80D302A464FEA182326
:10043000032103A802348DF80E3005F06BFB002871
:10044000DCD18DF80C802A460121CBE7AC85010078
:1004500030B5022887B004460CD1012502A90395C6
:10046000FDF752FB50B1144A009023461348294629
:1004700004F0ECFE0024204607B030BD02F030FC52
:10048000042811D004AA03A9204605F093F80346D6
:1004900010B110F10C0F02D1039A012A09D0084AB9
:1004A0000648012104F0C8FE0024029805F015F862
:1004B000E1E7059CF9E700BF3D8F0100947F010053
:1004C0005B8F0100084B70B5C31A0D4607499B109E
:1004D000044659430648402205F0ADFB2B46014631
:1004E0002046BDE870401847900D0020B76DDBB680
:1004F000707C010073B50C4C0C4A4023041B009324
:100500000D460B460A49A41061430646094805F00A
:10051000BEFB014628B130462B4602B0BDE8704014
:10052000184702B070BD00BF900D0020FB5C0100B9
:10053000B76DDBB6707C01000022F8B501210546DD
:100540001046FEF71BF8104801F016FD0446B8B936
:1005500001F032FD2F690D49384604F043FD031EBA
:1005600009DB01263E642D69084905F11C0004F0F1
:1005700039FD031E02DA1C462046F8BDEE64FBE797
:100580006FF00404F8E700BFB9060100F481010030
:100590001FB500220123CDE902236C46074A6B46B2
:1005A000CDE9004405F0A2FB28B94FF480420023B6
:1005B000684602F06FFE04B010BD00BF0D5D010083
:1005C00010B5EFF31184202383F31288BFF36F8FEC
:1005D000074A136823F00201DB07116002D40120EF
:1005E00005F0DFFE84F31188BFF36F8F10BD00BFED
:1005F000E00D002030B4104B0C2202FB003301460A
:100600000020D3E90E529863EFF31180202484F385
:100610001288BFF36F8F1C6C04F0C00444F0020416
:100620001C6480F31188BFF36F8F1DB12B46034804
:1006300030BC184730BC7047900D0020707C010022
:1006400010B4EFF31180202282F31288BFF36F8F72
:1006500017490B6843F0020413F001030C601AD031
:100660004FF08043D3F80C14D3F80C3413F001038B
:1006700011D0EFF3118182F31288BFF36F8F0D4A0F
:10068000136C03F0C00343F00203136481F3118879
:10069000BFF36F8F012380F31188BFF36F8F1BB1FE
:1006A00010BC0020FFF7A6BF10BC012005F071BEF2
:1006B000E00D0020900D002010B1012804D07047FB
:1006C000034B1B6C5B0701D1FFF794BF704700BF62
:1006D000900D00202DE9F0413849BFF35B8F804633
:1006E000012251E8003F41E800200028F9D1BFF382
:1006F0005B8F33B9324933484B60CB608A6004F07A
:1007000084FC08F1FF33012B4BD8B8F1010F07D15E
:100710004FF08043D3F81C3403F00303012B40D087
:1007200006F0F2FF054658B1EFF31186202383F35C
:100730001288BFF36F8F0125234F4FF080441EE0D6
:10074000224B1B78002BEFD04FF080430222C3F8DE
:1007500008230646F0E735B3304604F0EBFFD4F843
:10076000183563B9D4F804214AB1C4F80431D4F877
:1007700004310123C4F81835C7F88031A360D4F8D8
:100780001824D4F81834D203E5D503F00303012B61
:1007900002D0B8F1010FDED155B186F31188BFF355
:1007A0006F8FBDE8F0810021212007F074F8D6E7B3
:1007B0004FF080430222C3F80423F2E78C0D00209F
:1007C0007C0D0020AC0D002000E100E0E00E0020D8
:1007D00008B5074806F0F3FD38B10648FEF780F982
:1007E0000448FCF7E9F9002008BD6FF01200FBE7B0
:1007F000C47C0100F90701000A2838B5074D0446FA
:1008000004D1AB680D215B6828469847AB68034864
:100810005B68E1B29847204638BD00BFC47C010048
:1008200070B5074E04464518AC4201D1002070BD9A
:1008300014F8011BB36802485B689847F4E700BFEF
:10084000C47C01000146014806F012BECC01002024
:100850002DE9F0473B4F8AB03B4CA66802E02046AA
:10086000984748B9F36B002B5AD1A568AB6B002BA6
:100870005DD1EB6A002BF2D12B6913B96FF05705EC
:1008800006E03148202202A9984705460028E9D011
:100890002E4C02AE4FF00008A845DDDA3B7816F882
:1008A000019B8BB9D4F800A0BAF1000F1CD12848E5
:1008B0000022002301A902F055FC58B9019B2360D6
:1008C000C3F884003B787BB1B9F10A0F25D100232E
:1008D0003B7022E0C4F800A01E4A1F48022104F029
:1008E000A2FC01233B70EFE72068D0F884307F2B17
:1008F0000AD91A4A1848022104F095FC2068FFF72B
:10090000A1FF00232360ECE75A1C0344B9F10A0F4E
:10091000C0F8842083F804900ED008F10108BBE7EA
:10092000204698470028A0D10AB0BDE8F0872046AD
:10093000984700289DD1F7E700232360084B1B68E8
:100940009847EAE7BC0E0020C47C0100E40D0020BB
:10095000CC010020B18F01000C800100D88F010074
:10096000E80D0020014AFFF7D1BC00BF21080100BB
:100970000F4B70B518600F4C204606F020FDB0B14B
:10098000A3685B6A0BB120469847A568AB690BB1B9
:10099000084898472B6C1BB1074906480022984726
:1009A000A3681B6A1BB1BDE870400248184770BDC0
:1009B000E80D0020C47C010051080100024B0B60CF
:1009C00001231360704700BF848201000048704714
:1009D0001882010030B50D4685B0A8B14168B9B1A3
:1009E000D1E900138468ACB1D4E900249CB193B17F
:1009F0009C4209D15C1C092C03780FD9104A11487C
:100A00000094022104F022FC6FF0150005B030BD07
:100A10000B46E7E7224601331C44ECE78DF808302B
:100A200040F20113ADF80A3002A800238DF8094006
:100A30008DF80C308DF80D5001F0D2FFE6E700BFC5
:100A400004900100EC7F01002DE9F04F8DB0436868
:100A500000AF5D6B07F12406804632460021284630
:100A600005F0BAFA041EC0F298807B6A2A681979E8
:100A7000186800F099FD041EC0F28F800022012149
:100A80002920FDF77BFDD8F804A0D8F810208C4968
:100A9000504601F087FF041E7ADB00237B62C6E923
:100AA0000133884CAB2387F82430D4F82415C9B21D
:100AB0007960D4F82825D2B2BA60D4F83035DBB2E8
:100AC000FB60D4F834055FFA80FBD4F83805D4F81D
:100AD0003C555FFA80F94FF0FF30C4F82405C4F8A4
:100AE0002805C4F83005C4F83405C4F83805C4F83E
:100AF0003C05012001F0C8FF7968FF2908BF4FF0CD
:100B0000FF31C4F82415BA68FF2A08BF4FF0FF323E
:100B1000C4F82825FB68FF2B08BF4FF0FF33BBF15B
:100B2000FF0FEDB208BF4FF0FF3BB9F1FF0F08BF59
:100B30004FF0FF39FF2D08BF4FF0FF35C4F83035B7
:100B4000C4F834B5C4F83895C4F83C55054648BBDC
:100B500001463046FFF73EFF041E19DB232006F056
:100B600012FC0322C7E908259F23756007F1180BC3
:100B700007F11C0929463046C7F81CB087F8243015
:100B8000C7F82C90FFF726FF041E4FF003020CDA83
:100B900001F096FF08B101F083FF20463437BD46CF
:100BA000BDE8F08F6FF00404F2E759460AF1300017
:100BB00006F0A7FF044618B36C468CB097F818E00F
:100BC00097F819C0BE7E9AF830009AF831109AF85A
:100BD00032306A46DFF8F0800B930823CDE9058EAA
:100BE000CDE907C6CDE9090142F8103F37482B4649
:100BF00044F24001FCF7C4FCA5466FF01204C7E7BD
:100C0000D8F80420537F023B012B17D992F81CA07F
:100C1000AAF1020ABAF1020F8CBF4FF0000A4FF09E
:100C2000010A05F034F9051ED0460ADA284A274899
:100C30002B46012104F000FB2C46A9E74FF0010AE6
:100C4000EFE7EAB2C5F380155545A1D00023012195
:100C500082F04002C7E90813BB82B3603A753046A0
:100C600007F11402FA6187F82410C7F82890FFF7FB
:100C7000B1FE041E07D105F00AF9041E04DB14F0CE
:100C80000104F8D184E783DA124A134B6D468AB027
:100C9000B8F1000F18BF13466A4610490794CDE912
:100CA00005134FF40073ADF820300D4B42F8103FA0
:100CB000064800234FF41151FCF762FCAD4667E78C
:100CC000EB5D01000090024031900100EC7F0100DB
:100CD00063900100279001002B90010073900100A8
:100CE000040000012DE9F04F824687B00E461C46F5
:100CF000904672B17BB1002904DB4268D26A0B4492
:100D000093420CD93F4A404800943346012104F0F5
:100D10009DFA6FF01504204607B0BDE8F08F7542CC
:100D200005F0030505F08AF8A54228BF2546D8F14D
:100D3000000303F0030308F0030758BF5F427F423C
:100D400007F00307A74228BF2746631BE41B24F0D4
:100D5000030423F00309A145C8BFA14603F0030B18
:100D6000C8BFA3EB040BB9F1000F17D008EB0703C2
:100D7000494672191846039305F01EFE04460146C3
:100D8000DAF8100005F037F8ACBBBD4206D0039B83
:100D90004A46194608EB050006F092FEA5B104ABE1
:100DA000C5F104070421F21B184605F005FE0446B0
:100DB0000146DAF8100005F01EF8E4B904AB2A4643
:100DC000D919404606F06EFEBBF1000F17D072191C
:100DD00008214A4404A805F0EFFD04460146DAF86C
:100DE000100005F008F834B909EB05005A4604A9CB
:100DF000404406F057FE504605F006F88BE75C4687
:100E0000F9E700BF84900100EC7F01002DE9F04379
:100E10000E4685B0416807461D469046A2B19BB17B
:100E2000042B01D9AB070FD116F003040CD1002E0F
:100E300003DBCA6AAB1993420CD9334A3348009595
:100E40003346012104F002FA6FF01505284605B07B
:100E5000BDE8F083384604F0F1FF204605F002F8C3
:100E600000284DD1032D1AD80421324603A805F0DD
:100E7000A3FD04460146386904F0BDFF8CBB2A4639
:100E8000414603A806F00EFE3246042103A805F0F1
:100E900090FD04460146386904F0ADFF21E008F0FA
:100EA0006043B3F1005F02D118F0030F24D0042D8A
:100EB000A94628BF4FF004094A46414603A806F058
:100EC000F1FD4946324603A805F073FD044601468C
:100ED000386904F090FF24B9B5EB0905C8444E44C5
:100EE000E5D1012004F0BEFF0546384604F08CFF32
:100EF000002C18BF2546A9E7324629464046C6E7DA
:100F00006FF00404EDE700BFCD900100EC7F01001D
:100F10002DE9F7430B46D0F804C00746C1F30B0197
:100F2000154622B1C2F30B0252EA010405D06FF05C
:100F30001505284603B0BDE8F0831E1E04DBDCF86F
:100F40002C10AA198A4206D9374A3848009501213F
:100F500004F07CF9EBE704F071FF2046D7F8048039
:100F600004F080FF00285BD1D8F82C30AB4225D1AB
:100F700005F025FDA94604463869214604F03BFFEB
:100F8000002C49D14E44A5EB090500214FF4A47073
:100F900006F081FC04F07BFF041E35DB14F0010435
:100FA000F3D1002DE0D1012004F05CFF002C14BF30
:100FB00025460546384604F027FFBAE7B5F5803FD9
:100FC00009D3B3B253B93146012001F083FD4FF488
:100FD00080390446D0E7B5F5805F09D3C6F30B002E
:100FE00030B9314601F076FD4FF480590446C3E72D
:100FF0000F4A0E4800953346012104F027F94FF0BF
:1010000000096FF01504B7E70A4A00953346074810
:10101000012104F01BF9C6E7074A00953346F6E7BD
:101020006FF00405C6E700BF17910100EC7F0100D7
:10103000619101007F9101009C910100024B0B60C6
:1010400001231360704700BFEC0D0020004870477B
:101050008C82010007B50346054A0091054801212D
:1010600004F0F4F86FF0150003B05DF804FB00BF66
:10107000D0910100747F010010B50122114606488D
:10108000064C06F0CAFA05F090FC206005F089FCD9
:101090006060002010BD00BFF40D0020EC0D0020AA
:1010A0004FF08042D2F81015D2F8103501F01E0131
:1010B00023F01F030B4343F00103C2F81035024B2A
:1010C00000221A70704700BFBD0E00204FF0805301
:1010D000D3F83031082B20D14FF08042D2F81015D0
:1010E000CB071AD5D2F8103501F01E0123F01F03EB
:1010F0000B43C2F81035D2F808315BB1D2F8103585
:1011000023F01F030B4343F00103C2F810356FF0C7
:101110008B007047024B01221A700020704700BFFD
:10112000BD0E00202DE9F3410F46154605F039FCB0
:1011300029460646384604F0CEFEB846002838D088
:10114000B7FBF6F306FB137323B9B5FBF6F406FB06
:1011500014544CB1194A00953B461948012104F03A
:1011600075F86FF015041DE0AE421BD84FF0FF324A
:101170004FF0FF331348144F02F08CF805F011FCC8
:101180000646FFF7A3FF044680B9404601F0AEF9DA
:101190003B780BB1FFF784FFAD1BB044F1D1094898
:1011A00002F044F8204602B0BDE8F0816FF08B04F5
:1011B000F5E7064A00953B46CFE700BFED910100F9
:1011C000747F0100F40D0020BD0E0020D0910100BD
:1011D0002DE9F7430E463046194617461C4604F0E3
:1011E0007AFE60B9204A009433462048012104F079
:1011F0002DF86FF01504204603B0BDE8F08346EAF1
:10120000040515F0030503D0194A00943346ECE7B2
:10121000002CF0D01748DFF860904FF0FF324FF00D
:10122000FF3302F037F824F00304AC4206EB050864
:1012300009D1124AD2F80034DB07FBD500240D484F
:1012400001F0F4FFD7E7FFF741FF50B97959404665
:1012500001F068F999F800300BB1FFF721FF043570
:10126000E3E76FF08B04EAE7D0910100747F01009F
:101270000C920100F40D0020BD0E002000E00140A2
:101280002DE9F043476840F20636D0063B7C87B034
:1012900002EA060654BFC2F3401C4FF0030C01F0F3
:1012A0001F05B6F5837F144645EA43158DF803C044
:1012B00044D00DD8062E16D005D8A6B1022E3FD0A8
:1012C0006FF0150037E0B6F5807FF9D101260AE00E
:1012D00040F20222964235D0B6F5407F34D0B6F5C2
:1012E000007FEDD10226220330D57A6801238B409E
:1012F000C2F80835B868A0BB05F01F036D092DD0F2
:10130000012D77D13E4A02EB8302C4F30043D2F8A9
:10131000001783F00103C4F3404444EA430421F47A
:10132000E16144EA8C0421F0070144EA06230B43FF
:10133000C2F80037002007B0BDE8F0830726D2E7E7
:101340000426D0E70526CEE70326CCE7630341BF9A
:1013500001237A688B40C2F80C35CBE74FF0A042EE
:10136000D1E70DF10202294605F08BFA14F4403F53
:1013700080460CD1B868294605F0B8FAB8F1000FDC
:10138000D8D19DF80210B86800F0ACFFD2E74FF05A
:10139000000901ABCDE90199CDE90439CDF80C90F4
:1013A000B86803AA294605F041F94845C2DB14F4A0
:1013B000003314D0C4F300449DF803308DF80E3090
:1013C00084F001048DF80C608DF80D40B8684B4630
:1013D00003AA294605F0DDF90028CFDAAAE7CDE90E
:1013E00004330DF103030393B86803AA294605F0FB
:1013F0001DF9F1E703F5E07350F82330FFDE00BF7D
:1014000000030050420970B5034602D0012A17D0EC
:1014100070BD0D4E326951680029F9D003F01F03E9
:1014200001250C689D400029F2D08A682A4002D02C
:101430004B68304698472CB1236821461C46F2E79A
:10144000024EE7E72346F8E7A87C01008C7C010008
:1014500038B54568A86890B105F042FA014670B900
:10146000A86805F021FA044658B902460649A8685A
:1014700005F004FA224605210620FDF77FF800203A
:1014800038BD6FF00400FBE705140100F0B54568B6
:101490001646A8682A7C01F01F0487B044EA42146B
:1014A000002869D0B6F5001F04D1214605F071FA75
:1014B000002052E001AA0020B6F5800F0190506094
:1014C00037D1B3F1007F14BF052304238DF8043016
:1014D0000023CDE904230393EB6823FA01F111F013
:1014E00001010DF103073AD1B6F1A07F37D104F025
:1014F0001F03620903F5E07326D0012A3FD1214A78
:1015000052F82330DB072AD4A8683A46214605F072
:10151000B8F916301BD00297A86803AA214605F037
:1015200085F8002819DBA8680122214605F0E0F9BA
:10153000BEE7B3F1C06F05D0B3F1007F14BF012344
:101540000223C3E70323C1E74FF0A042D8E7A8680E
:10155000394600F0CDFE0028DDDA07B0F0BDA868FE
:101560003A46214605F08DF90028D5D19DF80310A3
:10157000A86800F0B7FECFE76FF08500EDE751F8FF
:101580002330FFDE00030050036803F01F025B09F5
:10159000026004D0012B034818BF002070474FF0B1
:1015A000A0407047000300502DE9F04F00EB810987
:1015B000654985B01546834640F2FF1AD94503D1E7
:1015C000002005B0BDE8F08FDBF80020C2F3C7288B
:1015D00018F00808C2F3C320C2F3080440F0B18039
:1015E0005A4B544508BF4FF0FF34B2F10C5F1E5CFC
:1015F0004FEA126015D2222815D8DFE800F017272D
:101600002B382E3438141414143E481414141414A3
:10161000141414144B86898C1414148F9396999C6B
:101620009F004E2826D06FF08500CAE7C5F80C450C
:10163000621C67D003A80394FFF7A6FF039A012753
:1016400007FA02F2C0F80825384639E0C5F8144513
:10165000002718E0C5F80845EAE7C5F8084500275F
:10166000601C22D14EE0C5F80C450127F8E7C5F80B
:101670001045EDE7C5F81445DAE7C5F80845002E32
:10168000E6D100270626631C3CD0002018E0C5F8F0
:101690000C45F4E7C5F86045BBF80220671C02F072
:1016A00001022FD0002AC5D1012703A80394FFF718
:1016B0006BFF039A8446012000FA02F2CCF80C2555
:1016C000DBF80020019202F4004CBCF1000F08BFCF
:1016D000804603A818BF01270394FFF755FF039C1A
:1016E000019A00EB8400C2F3412CD0F8004732028B
:1016F00042EA8C0242EA08020C40224342EA4702D4
:10170000C0F800270BF1040B58E7C5F86445C3E7A0
:10171000C5F86845C0E7C5F86C45BDE7C5F8244580
:101720000127B0E7C5F8284582E7C5F83045F7E757
:10173000C5F83445F4E7C5F83845F1E7C5F83C4548
:1017400076E76FF015003CE7F0F8FCFFDB94010052
:101750002DE9F041044647680D4605F0D5FF88B1F4
:101760004FF02008EFF31186314688F31288BFF35B
:101770006F8F606804F0F0FC50BB86F31188BFF3F4
:101780006F8FEFE71F4B1B78002BE9D04FF020083D
:101790006426606804F0E0FC70B9012004F0A8FD44
:1017A000013EF6D10021212006F075F8F0E786F31E
:1017B0001188BFF36F8FF5E7EFF31186314688F399
:1017C0001288BFF36F8F606804F0C6FC0028EED06B
:1017D000BB691D706368BA691B680020C3F84425A3
:1017E0000122C3F84825C3F82001D3F82041C3F8EB
:1017F0005801D3F858019A6081F31188BFF36F8FB5
:10180000BDE8F081E00E00202DE9F0410022054600
:1018100001210220FCF7B2FE0220FCF77FFE6C687B
:101820000121E06804F0ECFC6B681A682369C2F8D7
:101830002435617D237D0B43A17D0B43C2F86C35BC
:101840006F68D7E9004313F0010318D0D5F8108072
:1018500004F10C0108F10C0204F5907004F085FD10
:10186000061E07DA224A2348012103F0DCFC304639
:10187000BDE8F08198F80C0000F06AFB0123082213
:10188000C4F80025BA69C4F8442501210022C4F82F
:101890004825A1606BB9D4F82031002BFBD0C4F8E7
:1018A0002021D4F820310123E3604FF48073C4F881
:1018B0000433D4F85831002BFBD00021C4F80015B4
:1018C0006D682C68E86804F09BFC0823C4F80035B8
:1018D0002A7A52B9EB69C4F834350123C4F8383593
:1018E000C4F81021D4F8102123600026BFE700BF00
:1018F0006A9201001480010070B5012383400F4AF1
:10190000BFF35B8FDC4352E8001F01EA040542E8A5
:101910000056002EF7D1BFF35B8F4FF48032824028
:101920000748C0F80823BFF35F8FBFF36F8F03EA48
:101930000100003818BF012070BD00BF200E00203C
:101940000010014070B41249D1E90034D01AC31814
:1019500044F1000422F07F46C1E90034A6F50013EB
:10196000B3F5400F09D20B4B1B681A0A1B069C19D2
:10197000094B42F10005C3E90045EFF31181202333
:1019800083F31288BFF36F8F70BC02F0C5BA00BF3B
:10199000C0070020240E0020C807002011B3BFF3A9
:1019A0005B8F0123104A834052E800CF4CEA030CBE
:1019B00042E800C10029F7D1BFF35B8F0B4A4FF417
:1019C00080338340C2F80433094BBFF35B8F1B683D
:1019D000BFF35B8FC340DB0742BF064B4FF40032BF
:1019E000C3F80021704700BF200E00200010014006
:1019F0001C0E002000E100E00D4B1868010A0006F3
:101A0000BFF35F8F0B4BD3F80435181841F1000179
:101A1000B3F5801F0AD2084BD3E90023904271EB43
:101A2000030303D210F1807041F10001704700BF41
:101A3000240E002000100140C80700202DE9F04FBF
:101A400085B016461F469DF840A00446FFF754FF98
:101A50000190FFF7D1FFB04271EB07035ED23E4B1E
:101A6000301A67EB0101984271F1000109D36FF060
:101A7000150520460199FFF791FF284605B0BDE8FE
:101A8000F08F364B03EB0413D3E902239F4208BFC8
:101A9000964254D032494FF4803804F1500508FA88
:101AA00004F8AD00C1F848832046ADB204F000FC54
:101AB00026F07F4B05F1804504F5A87305F58835C0
:101AC000DC464FF003090293029A2CF07F4341F861
